:0400000085EF00F098
:10000800B671B671B671B671B671B671B671B671B0
:10001800B671B671B671B671B671B671B671B671A0
:10002800B671B671B671B671B671B671B671B67190
:10003800B671B671B671B671B671B671B671AD7189
:10004800B671B671B671B671B671B671B671B67170
:10005800B671B671B671B671B671B671B671B67160
:10006800B671B671B671B671B671B671B671B67150
:10007800B671B671B671B6714200B671B671B67125
:10008800B671B671B671B671B671B671B671B67130
:1000980054716A71B671B67142009171B671B671D8
:1000A800B671A071B671B671B671B671B671B67126
:1000B800B6713E71B671B671B671B671B671B67178
:1000C800B671B671B671B671B671B671B671B671F0
:1000D800B671B671B671B671B671B671B671B671E0
:1000E8004200B671B671B671B671B671B671B671B5
:1000F800B671BA70B671B671B671B671B671B671BD
:06010800FF00FCEFE2F035
:02FFFE00000001
:020000040001F9
:10000000C34000C387270000C34300000000000076
:10001000C34B000000000000C353000000000000BC
:10002000C35B000000000000C900000000000000E9
:10003000C36B000000000000C3730000000000005C
:10004000C37E00220EEF2A00EF182E220EEF2A02A6
:10005000EF1826220EEF2A04EF181E220EEF2A06B2
:10006000EF1816220EEF2A08EF180E220EEF2A0ABA
:10007000EF1806220EEF2A0CEFE52A0EEFC9F33136
:1000800000EF2100C02210EF2217EF2215EF2264AB
:10009000EF2266EF3E493219EF21E52E2200EF21D3
:1000A000D42E2202EF21DF2E2204EF217D00220632
:1000B000EF217D002208EF213E27220AEF21CB27E6
:1000C000220CEFAF211CEF061A772310FC21C0EEA3
:1000D0002230EF2100C02232EF06083E2E2179EFB8
:1000E000772310FCAF7706142150EFAF772310FC75
:1000F0003E49324AEF3E4E3249EF2E0065224BEF29
:10010000AF324FEF2100C02252EF2256EF225AEFBA
:10011000225EEF2262EF7E3251EF3255EF3259EF1D
:10012000325DEF3261EF213D2CCD0226AF3282EFFE
:10013000217A2CCD0226CD6226CDEC26B728EDFE05
:1001400041CA011AFE44CA5E07FE47CA4614FE535E
:10015000CA0D15FE4CCA8315FE50CA8516FE52CA3A
:100160005D17FE23CA8501FE42CA2003FE54CAD58C
:1001700003FE3F280821972CCD022618AF215A2ACA
:10018000CD022618A723CDEC26B728E9FE4C28255A
:10019000CDBB0238E079FE11D27501B7CA75013DB9
:1001A0001716005F21D301195E2356EB5E23567AA2
:1001B000B328C2EBE921D3015E235623D5DDE1DD6F
:1001C0007E00DDB60128091313EBCD0226EB18E8FB
:1001D000C32C01F30107021D023F02630277028D67
:1001E000029E02B102B102B102B102B102B102B18A
:1001F00002B102002F312E20474241534943205380
:10020000746172740D0A00032F322E20474241534D
:10021000494320526573746172740D0A00004C33B7
:100220002E2050616C6F20416C746F2054696E7980
:100230002042415349432053746172740D0A0003F4
:100240004C342E2050616C6F20416C746F205469C7
:100250006E79204241534943205265737461727430
:100260000D0A000054352E2047414D4538302053AB
:10027000746172740D0A000354362E2047414D45B7
:10028000383020526573746172740D0A000075373E
:100290002E2056544C2053746172740D0A0003755D
:1002A000382E2056544C20526573746172740D0AB6
:1002B000000000D5E5CDBB02E1D1C9AF474FCDEC81
:1002C00026B7C8CDDD02D8F508F1CDEC02D808E597
:1002D00016005F606919444DE1D82318E1B7280A78
:1002E000FE30D8FE3A3003D630C937C9E5C5CB2138
:1002F000CB10CB21CB10E109E5C1CB21CB10E1C95B
:100300003A58EFB728082A5AEF3E31CDBB033A5C82
:10031000EFB7CA2C012A5EEF3E32CDBB03C32C01DE
:1003200023CDEC26B728D90158EFFE31280E015C09
:10033000EFFE322807FE43283EC375010823CDECAB
:1003400026B7285AFE2CC2750123CDEC26C5CDFC5C
:1003500026E1DA7501CD5E03DA7501C32C017AFE60
:10036000C0DA7503FEF0D275033E0177231A7723B6
:10037000732372B7C937C923CDEC26B728140158A7
:10038000EFFE312808015CEFFE32C27501AF02C3F7
:100390002C01AF0158EF02015CEF02C32C010AB738
:1003A000CA2C01082A5AEFFE3128032A5EEFCDBB82
:1003B00003C32C0142502800293A00E5F521B4037B
:1003C000CD0226F1CDE52E21B803CD0226E1CD0BDD
:1003D00026CD4B26C9E52E002600224BEF2A32EF10
:1003E000224DEFAF324FEFE123CDEC26CDFC26D2EC
:1003F0009B04CDEC267EB7CAC404FE2CCAAC04FE16
:1004000050284EFE4DC2750123CDEC26214304FE3B
:10041000492810214904FE532809B7C275013A4AF8
:10042000EF18E9324AEFE5213404CD0226E1CD028E
:1004300026C32C01544D206D6F64653A3C43414CFA
:100440004C2000494E3E0D0A00534B49503E0D0AC8
:100450000023CDEC26B720053A49EF1809FE4FC21C
:10046000750123CDEC26219004FE4E280821950429
:10047000FE46C275013249EFE5218604CD0226E130
:10048000CD0226C32C015450206D6F64653A2000C4
:100490004F4E0D0A004F46460D0A00ED534DEFCD6D
:1004A000EC26B7281FFE2C2803C3750123CDEC26AC
:1004B000B7CA7501FE2D2811CDBB02DA7501ED43D7
:1004C0004BEF181B01010018F523CDEC26FE31C2BD
:1004D000750123CDEC26B7C275013E01324FEF2ADC
:1004E0004DEF7E010800217C06EDB120130E01CDF9
:1004F0004506DA04060E02CD2506DA0406C3010617
:10050000010500218406EDB120190E012A4DEFCD21
:100510001806CD5206DA04060E02CD2A06DA0406C3
:10052000C30106010800218906EDB120040E01185F
:1005300013010800219106EDB1201A0E013A4AEF8D
:10054000FE532808CD3906DA04060E02CD2F06DA4E
:100550000406C30106FEC9200B0E01CD4506DA04D0
:1005600006C30106010800219906EDB1200B0E011A
:10057000CD2506DA0406C30106FEED2013237EFE18
:10058000452804FE4D20090E01CD45063876187128
:100590002A4DEF7EFEE9200C2A22EF0E01CD5206F5
:1005A0003862185DFEDD200B237EFEE920052A2C33
:1005B000EF18E82A4DEF7EFEFD200B237EFEE9209A
:1005C000052A2EEF18D52A4DEF7EFE18200C0E01BD
:1005D000CD1806CD5206382C1827FEC320090E016F
:1005E000CD3906381F181AFECDC2A1060E013A4AAF
:1005F000EFFE532807CD3906380A1805CD2F0638E7
:1006000003C38914210E06CD0226C32C01FF4164C9
:1006100072204552520D0A00235E2316FFCB7B2029
:1006200002160019C92A4DEF180A2A4DEF18042A9C
:100630004DEF232323CD5206C92A4DEF235E2356C7
:10064000EBCD5206C9ED5B30EF1A6F131A67CD522E
:1006500006C97CFEC03823FEEF301F79FE01200D55
:100660001150EF122252EF7E3251EF180B1154EF5E
:10067000122256EF7E3255EFAFC937C9C0C8D0D865
:10068000E0E8F0F81020283038C2CAD2DAE2EAF204
:10069000FAC4CCD4DCE4ECF4FCC7CFD7DFE7EFF747
:1006A000FF011200213A07EDB1CA15070108002128
:1006B0004C07EDB1CA20072A4DEFFECB2857FEDDCF
:1006C000280AFEED2828FEFD2802183E237EFECBD8
:1006D0002859FE212855FE222851FE2A284DFE3693
:1006E0002849010A00215407EDB128291832237E38
:1006F000FE432837FE4B2833FE53282FFE5B282B62
:10070000FE732827FE7B2823180B0E01CD2506DA61
:100710000406C301060E01CD2A06DA0406C301064B
:100720000E01CD2F06DA0406C301060E012A4DEF95
:1007300023CD3206DA0406C30106060E161E262E47
:10074000363EC6CEDED6E6EEF6FEDBD30111213113
:1007500022322A3A09192939232BE5E1E3F9237ECC
:10076000FE49CA6708CDEC26CDFC263806ED5310AD
:10077000EF1810E52A10EF018000092212EFE17E48
:10078000B7282BCDEC267EFE2C280DB7C275012193
:100790008000192212EF181623CDEC26CDFC26DAA4
:1007A0007501CDEC26B7C2750113ED5312EFCDB430
:1007B00007C32C012A10EF3EF0A56FAF3214EFE50E
:1007C000CDE107E101100009CDDF2E200E3A14EF34
:1007D000FE0238EB2A12EF2210EFC92210EFC3D429
:1007E0002ECD0B26E5219F2CCD0226E1DD218DEFBC
:1007F0000610CD1B0810FB21A22CCD0226218DEF67
:1008000006107E23FE203809FE7F3005CDE52E1828
:10081000053E2ECDE52E10EAC34B263E20CDE52E1B
:100820003A14EFB720203A10EFBD20063A11EFBC82
:10083000280F3E20CDE52ECDE52EDD770023DD23EC
:10084000C93E013214EF3A14EFFE0120E57EDD7758
:1008500000CD102623DD233A12EFBDC03A13EFBCC2
:10086000C03E023214EFC923CDEC26CDFC26301455
:10087000CDEC267EB7201326002E0A7D3285EF228E
:1008800083EF1833ED5386EF18E6FE2CC275012373
:10089000CDEC26FE5320123E013285EF23CDBB0264
:1008A000DA7501ED4383EF180ECDFC26DA7501ED04
:1008B0005383EFAF3285EFCDDF2E2806CDD42EC384
:1008C0002C01CD4609CD0B09218DEFCD02263A85AD
:1008D000EFB7200E2A83EFED4B86EFED4230D8C301
:1008E0002C012A83EF2B2283EF7CB520CAC32C0175
:1008F0002286EFD5CD4609CD0B09D1218DEF012AF6
:1009000000EDB0ED5B86EF3A8CEFC9218DEFED5B2A
:1009100086EFCDE610CD7611CD761106043A8CEF38
:100920004F1A13D55FCDEE10CD7611D105280F0DDE
:1009300020EFCD7611CD7611CD76110520F4CD7650
:1009400011ED5386EFC93E01328CEF114512CD0AED
:100950001121A8EFCD36112A86EF7E010D002189E5
:1009600011EDB12012219813CD8C10C30A11E63875
:100970000F0F0F4F0600C9FE0A2819FE1A2823FE82
:10098000022824FE122829FEF9202A11CA2ECD5D44
:1009900011C3301111892ED5CD5A11D1CD4411C3B7
:1009A000361111902E18F011892ECD4C11C325113E
:1009B00011902E18F5FE40DA4D0AFE803028FE76A2
:1009C0002006114812C30A11CD6E09CD891021A845
:1009D000EFCD5D11ED5B86EF1AE6074F0600E5CD22
:1009E0008910E1C33311FE883008CD0711CD5A11AB
:1009F00018E2FE90300B115112CD0A11CD5A111888
:100A0000D3FE983008115512CD0A1118C7FEA03038
:100A10000B115912CD0A11CD5A1118B8FEA8300881
:100A2000115D12CD0A1118ACFEB03008116112CD63
:100A30000A1118A0FEB83008116512CD0A111894D9
:100A4000FEC0D2C90A116812CD0A11188701080028
:100A5000219611EDB1200EF5116B12CD0A11F1CDD9
:100A60006E09C3DE09010800219E11EDB1200AF5CF
:100A7000116F12CD0A11F118E601040021A611ED43
:100A8000B1200F116B12CD0A11218813CD8010C334
:100A9000361101040021AA11EDB1200F116F12CD02
:100AA0000A11218813CD8010C3361101040021AE34
:100AB00011EDB12046CD071111972ECD5D11E52125
:100AC0008813CD8C10E1C3331101040021B211ED64
:100AD000B1200F117312CD0A11219013CD8010C3D4
:100AE000361101040021B611EDB1200F117712CD9E
:100AF0000A11219013CD8010C33611FE082817FE6D
:100B0000E32821FEEB202511902ECD5D11CD301173
:100B1000117C12C30A11112612CD5D11112912CDBB
:100B2000331118EC11CA2ECD4C1118E1FEE9200F3B
:100B3000113112CD0A1111972ECD4111C336110179
:100B40000800217C06EDB1200F112D12CD0A1121D4
:100B50007013CD8010C33611010800219906EDB144
:100B60002017114112CD0A11792FCB27CB27CB2784
:100B7000E6385F21A8EFC39510F53E02328CEFF105
:100B8000010800213A07EDB12016CD6E09CD89107C
:100B9000CD5D11ED5B86EF131A5FCDD810C3361112
:100BA000010A00214207EDB1C2F40BC521B213CDF9
:100BB0008C10CD0A11C179FE012814B7281AFE073E
:100BC0003803CD5A11ED5B86EF131A5FC39510CD34
:100BD0005A11CDE40BC3361121A8EFCDE40BCD8221
:100BE00011C32511CD6D11ED5B86EF131A5FCDD8C2
:100BF00010C37111FE1020051137121807FE1820BE
:100C00000C113412CD0A1121A8EFC3B91001040050
:100C1000218506EDB12012113412CD0A1121801365
:100C2000CD8010CD8211C3B910F53E03328CEFF1A7
:100C3000010400214C07EDB1C24A0C21C613CD8C32
:100C400010CD5D11CD720CC39B10FE222812FE3216
:100C50002814FE2A2826FE3AC28B0CCD5A111822DF
:100C6000CD6C0CC33011CD6C0CC32511CD720CC3EF
:100C7000A110E52A86EF235E2356E1C911972ECDF8
:100C80005D11CD720CCDB010C33611FEC32008111A
:100C90003112CD0A1118ADFECD2008113C12CD0A3B
:100CA0001118A1010800218906EDB120111131129E
:100CB000CD0A11217013CD8010CD82111886010844
:100CC00000219106EDB12005113C1218E32A86EFB0
:100CD00023F53E02328CEFF1FECBC2930D7E21A8AC
:100CE000EFFE08DA1C0DFE10DA250DFE18DA2E0DC7
:100CF000FE20DA370DFE28DA400DFE30DA490DFE0F
:100D000038DA6D0DFE40DA520DFE80DA5B0DFEC062
:100D1000DA640DCD730D113B13C30A11CD780D119B
:100D2000B612C30A11CD780D11BA12C30A11CD78CB
:100D30000D11BE12C30A11CD780D11C112C30A11D3
:100D4000CD780D11C412C30A11CD780D11C812C38C
:100D50000A11CD780D11CC12C30A11CD730D11D02B
:100D600012C30A11CD730D11D412C30A11113F130E
:100D7000C30A11F5CD850DF1E6074F0600E5CD89D3
:100D800010E1C33311E6380F0F0F473E30B0772321
:100D9000C38211FEDDC2390F11C42EED5388EF114D
:100DA000E213ED538AEF7EFEE3CAED0DFEE9CADBE6
:100DB0000DFEF9CAFC0D010400215407EDB1CA056E
:100DC0000E010400215807EDB1C21A0E21DA13CD2D
:100DD0008C10CD0A1121A8EFC32A11ED5B88EFD545
:100DE000113112CD0A11D1CD4111C33611117C122E
:100DF000CD0A1111CA2ECD4C11C32A1111CA2ECD04
:100E00005D11C32A11CD0711ED5B88EFCD5D11E5B2
:100E10002A8AEFCD8C10E1C33311F53E03328CEFFB
:100E2000F1010E0021BA11EDB1CA590EFE86CA8435
:100E30000EFE8ECA8F0EFE9ECA940E01070021C8B8
:100E400011EDB1C2990E21F213CD8C10CD0A11ED26
:100E50005B88EF21A8EFC3501079FE07D2710EED29
:100E60005B88EFCD4710E5210014CD8C10E1C33332
:100E700011D6074F210014CD8C10CD5D11ED5B888C
:100E8000EFC35010114D12CD0A11CD5A1118EE11A9
:100E9000511218F311591218EEF53E04328CEFF18D
:100EA000FE21CABF0EFE22CACC0EFE2ACAD50EFEF5
:100EB00036C2E50EED5B88EFCD47105AC39510EDB5
:100EC0005B88EFCD5D11CD7510C39B10CD7510CD36
:100ED000A110C32A11ED5B88EFCD5D11CD7510CD4A
:100EE000B010C33611FECBC26D0DCD75107A01075F
:100EF0000021CF11EDB1C2050F213814CD8C10CDDA
:100F00000A11C34F0E01180021D611EDB1C26D0DAB
:100F1000FE80DA290FFEC0DA310F113B13CD0A1122
:100F200021A8EFCD850DC37D0E11D012CD0A111869
:100F3000EF11D412CD0A1118E7FEEDC236107E0172
:100F4000380021EE11EDB1C26D0D79FE06DA1710F1
:100F5000FE1BDA0910FE1EDAF60FCAD60FFE1FCAF4
:100F6000DF0FFE20CAE80FFE21CAF10FFE26DAC508
:100F70000FFE2ADAAF0FFE31DA940F11B312CD0A49
:100F80001179D6314F210014CD8C10CD5D11114354
:100F900013C3331111AF12CD0A11114313CD5D11DB
:100FA00079D62A4FE5210014CD8C10E1C3331111FD
:100FB0005912CD0A1111972ECD5D1179D6264FE524
:100FC00021881318E3115112CD0A1111972ECD5D0E
:100FD0001179D62218E8CD5A1111D22EC33311CD72
:100FE0005A1111D02EC3331111D22ECD5D11C3254C
:100FF0001111D02E18F511DC12CD0A113E1D91C62B
:101000003021A8EF7723C33611D6064F0600210EF4
:1010100014CD8C10C30A113E04328CEFC57921CE59
:1010200013CD8C10C179FE03DAD90ED5CD7510CD54
:10103000A110D1C3331111C72EED5388EF11EA135C
:10104000ED538AEFC3A60D21A8EFCD5610C3821130
:10105000CD5610C33611CD6D11CD6511CD75107BF8
:10106000FE80380CED445FCD7E11CDD810C37111D8
:10107000CD7A1118F5E52A86EF23235E2356E1C9C0
:10108000CD8C1021A8EFC36511216013CB21CB10AB
:10109000095E2356C9CDD810C33611CDC710C3364B
:1010A0001121A8EFCD6D11CDC710CD7111C38211E3
:1010B000CD6D11CDC710C37111E52A86EFCD18068D
:1010C000EBE1CDC710186F7AFEA038043E307723CD
:1010D000CDE6103E48C373117BFEA038043E307746
:1010E00023CDEE1018ED7ACDF7107ACDFB107BCD25
:1010F000F7107BCDFB10C90F0F0F0FE60FF630FE78
:101100003A3870C607186C114D12F5C5060821A0B3
:10111000EF1AB728067723130518F63E2077230524
:1011200020FBC1F1C911872E1809ED5B88EF180368
:1011300011972ECD65113E0D77233E0A7723AF77A9
:10114000C921A8EFCD6D11CD6511182521A8EFCDCE
:101150006D11CD6511CD7111182811872E21A8EFC1
:10116000CD6511181D1A77B7C8231318F83E281833
:10117000023E297723C93E2018F93E2B18F53E2D53
:1011800018F13E2CCD731118ED00070F171F272FF4
:10119000373FC9D9F3FB040C141C242C343C050D37
:1011A000151D252D353D031323330B1B2B3B09192F
:1011B0002939C1D1E1F1C5D5E5F5464E565E666ED9
:1011C0007E7071727374757796A6AEB6BE343506AE
:1011D0000E161E262E3E464E565E666E767E868E17
:1011E000969EA6AEB6BEC6CED6DEE6EEF6FE40486B
:1011F0005058606878414951596169794252627228
:101200004A5A6A7A474F575F46565E44454D676F64
:10121000A0A1A2A3A8A9AAABB0B1B2B3B8B9BABBF6
:101220004353734B5B7B4146004146270052455474
:10123000004A50004A5200444A4E5A0043414C4C26
:1012400000525354004C440048414C540041444423
:1012500000414443005355420053424300414E4431
:1012600000584F52004F5200435000494E43004433
:10127000454300504F5000505553480045580045D5
:101280005858004E4F5000524C4341005252434177
:1012900000524C4100525241004441410043504CE5
:1012A0000053434600434346004449004549004F2C
:1012B000555400494E00524C430052524300524C88
:1012C00000525200534C41005352410053524C00C3
:1012D00042495400524553004E454700494D005283
:1012E000524400524C44004C444900435049004988
:1012F0004E49004F555449004C444400435044006B
:10130000494E44004F555444004C44495200435008
:10131000495200494E4952004F544952004C4444EE
:1013200052004350445200494E4452004F544452DC
:101330000052455449005245544E00534554003F15
:101340003F3F002843290028484C29004E5A005AA4
:10135000004E43004300504F0050450050004D00E8
:101360008C2E8E2E932E952E9A2E9C2E4713872EE2
:101370005E135C1359135613541351134F134C132C
:10138000541351134F134C13CA2E972E902E892E9F
:101390002612972E902E892EAC12A9127F122D1292
:1013A000A512A1129D129912951291128C128712F8
:1013B0008312AF12B3126812651261125D125512D8
:1013C000591251124D12CA2E972E902E892ECA2EC6
:1013D000902E892ECA2E902E892E731277126F129C
:1013E0006B12CA2EC42E902E892ECA2EC72E902E76
:1013F000892E6F126B126812651261125D125512FE
:10140000872E9C2E9A2E952E932E8E2E8C2E2C135C
:10141000271322131D13181313130E130913041388
:101420000013FC12F812F312EF12EB12E712E312A0
:10143000DF1231133613D812CC12C812C412C112E3
:10144000BE12BA12B612ED5B32EFED5347EF23CD69
:10145000EC26CDFC263003B7280A7AFEF0D27501BF
:10146000ED5347EFCDEC267EB72818FE2CC2750150
:1014700023CDEC26CDFC26DA75012160EFCD5E038D
:10148000DA75012A47EF2232EF3A50EFB7281A2ACD
:101490004DEF2232EF2150EF1152EFCD01152154C3
:1014A000EF1156EFCD0115181B2158EF115AEFCD52
:1014B0000115215CEF115EEFCD01152160EF116286
:1014C000EFCD01152A30EFF92A32EFE5DD2A2CEFB6
:1014D000FD2A2EEF2A24EFE5ED4B26EFED5B28EFFA
:1014E0002A2AEFD9F1082A1CEFE5ED4B1EEFED5B40
:1014F00020EF2A22EF3A34EFED473A35EFED4FF186
:10150000C97EB7C81A4F131A473EFF02C923CDEC54
:1015100026CDFC26DA7501CDEC267EB7C2750179A1
:10152000B72004ED5B17EFEBCD0B26E521A62CCD04
:101530000226E17EE5CD10263E20CDE52ECD6226A9
:10154000CDEC267EB72007E1232217EF18DAFE2D17
:101550002007E12B2217EF18CFFE2E2007E12217DC
:10156000EFC32C01CDFC26B7E1CA75017323221706
:10157000EFED5B5AEF1A3259EFED5B5EEF1A325D19
:10158000EF18A5AF4F3258EF325CEF3236EF23CD74
:10159000EC26FE4720063236EF231803CDFC26CD7D
:1015A000EC26B7C2750179B720031100003E2ECD9D
:1015B000E52ECDD42EFE532878FE3A280DFE0D28B8
:1015C000ECFE0A28E8CDD42E18F3CD27264F47CDC0
:1015D000272667814FCD27266F814F19CD2216CD43
:1015E0002726321AEF814F78B72814CD2726F581A8
:1015F0004F3A1AEFB72005F177231801F110ECCD1F
:1016000027268120143A1AEFB7CAC515CD4B263AC2
:1016100036EFB7280A2A37EFE9217D2CCD0226C301
:101620002C013A36EFFE47C02237EF3E013236EF4B
:10163000C9CDD42E321AEFCD2726474FCD272667A6
:10164000814FCD27266F814F19CD2216050505281C
:1016500015CD2726F5814F3A1AEFFE312005F17797
:10166000231801F110EBCD272681FEFF20123A1A34
:10167000EFFE3728AAFE3828A6FE39288FC3C515E5
:10168000218A2C1897237EFE492804FE5320042328
:101690003219EFCDEC26CDFC26B7281CD5DDE1CDE7
:1016A000EC267EFE2C201123CDEC26CDFC26B7287F
:1016B00007CDEC267EB72803C37501DDE5E1EB23FA
:1016C000B7ED52CDE3167CB520F93A19EFFE49206B
:1016D0000921A92CCD0226C32C0121B72CCD02262D
:1016E000C32C010E107CB720057DB930014F0600D8
:1016F000B7ED42413A19EFFE4920303E3ACDE52E92
:1017000078CD1026487ACD10267A814F7BCD1026D1
:101710007B814FAFCD10261AF5CD1026F1814F13E6
:1017200010F579ED44CD1026C34B263E53CDE52E62
:101730003E31CDE52E78C6034FCD10267ACD10264A
:101740007A814F7BCD10267B814F1AF5CD1026F183
:10175000814F1310F5792FCD1026C34B2623CDECE6
:1017600026B72006CDE317C32C01EB216D2DBE2833
:101770000D4F237EB72869790105000918F0237EF3
:10178000FE0F2009234E236669131A18E1B728506B
:101790004E235E2356D5237E23666FCD02263E3D23
:1017A000CDE52E79E607FE012008E17EE5CD102685
:1017B000180CE1E5237ECD10262B7ECD10263E2091
:1017C000CDE52EC5CD6226CDEC26CDFC26B7280D65
:1017D000C1E179FE012003731803732372C32C0146
:1017E000C3750121C42C5E2356237AB3CA4B26D578
:1017F000EBCD0226EBD13E2DBA20073E2FBB2002B7
:1018000018293E2DBA20053E56BB281F5E235623BD
:101810007E23EBFE0120077ECD1026EB18C8237E29
:10182000CD10262B7ECD1026EB18BB5E2356231A37
:10183000D5E52179EF015F18116718F5F1CB273055
:1018400006F50A77F11804F51A77F1031323F57EEC
:10185000B720E9F12179EFCD0226E1D12318875392
:101860005A2E482E504E432E2E2E2E2E2E2E2E49E0
:101870004E4952B9494E4452BB4F555449BD4F543D
:101880004952BE4F555444BF4F544452C048414C36
:1018900054B352455449AF5245544EB0444A4E5A3F
:1018A000AC43414C4CAD43504452A84C4449528344
:1018B0004C444452855055534888524C43418A52B7
:1018C0005243418E43504952A64C4449824C4444B1
:1018D0008445585887504F5089524C418B524C4345
:1018E0008C5252418F52524390534C419253524129
:1018F0009353524C944144449541444396494E433A
:101900009753554298534243994445439A414E4414
:101910009B584F529D43504C9E4E45479F434346D4
:10192000A0534346A1424954A2534554A3524553A0
:10193000A4435049A5435044A7524554AE52535472
:10194000B14E4F50B2494E49B8494E44BA4F555422
:10195000BC444141C1524C44C2525244C34F52470D
:10196000C4455886524C8D5252914F529C4350A9B7
:101970004A50AA4A52AB494DB6494EB74449B445BC
:1019800049B54C44814442C54457C60028424329C6
:101990009A284445299B28484C299C284958299D28
:1019A000284959299E28535029A02843299F414658
:1019B0002783414682424385444588484C8B495899
:1019C0008E49598F5350904E5A944E4395504F978D
:1019D00050459841814284438644874589488A4CD2
:1019E0008C498D52915A924D935096002849582B0C
:1019F000A12849592BA22849582DA42849592DA579
:101A00000023CD6C25B72811CDFC26DA7501ED53E6
:101A100064EFCD6C25B7C275012A64EF2266EFAF83
:101A20003268EF326AEF326BEF326CEF2A66EFCD3D
:101A30000B2621A62CCD02262182EFCBCECD62260D
:101A4000E52182EFCB8EE1CDBC257EFE1B280DFE6D
:101A50002E2809B7C2EB1ACD681A18C3CD681A2A06
:101A600066EF2264EFC32C013E0AC3E52E213F132B
:101A7000CD681ACD022621972CCD022618A13A6AEC
:101A8000EFFE442837FE452838FE46283F3E200E0C
:101A900026218DEF77230D20FB3E0D7723AF77CDE9
:101AA00002262A66EF118DEFD5CDF008E1CD022692
:101AB0002A66EFCDE31A2266EFC31F1ACD681A1803
:101AC000EFCDD91ACDE31A2212EF1808CDD91A2377
:101AD000232212EFCDB40718D7CD681A2A66EF2259
:101AE00010EFC93A69EF4FAF4709C9CD4524DA6D08
:101AF0001A3A68EFFE01CAC620FE02CA50213A6AAD
:101B0000EF010D0021161BEDB1C26D1A21231B0937
:101B1000094E2346C5C901061516192B373C2A2D37
:101B20002224234D1B6B1B891B0A1C171C371C40CE
:101B30001C801CB51CBD1C361DB81D421EC0C8D063
:101B4000D8E0E8F0F8C6CED6DEE6EEF6FE213D1B84
:101B50002275EF21451B2277EF183A80889098A0D4
:101B6000A8B0B8868E969EA6AEB6BE215B1B227527
:101B7000EF21631B2277EF181C40485058606870B3
:101B800078464E565E666E767E21791B2275EF2171
:101B9000811B2277EF3A6BEFFE19C26D1A2A6DEFA7
:101BA0007CB7C26D1A7DFE08D26D1A3A6CEFFE2129
:101BB000282CFE24283AFE22283BFE25283FED4B08
:101BC00075EF09563A6CEF21151E010800EDB1C200
:101BD0006D1A79FE0728033E069182C3F1233A74F9
:101BE000EF5F16DDED4B77EF094B5E3ECBC3142460
:101BF0003A73EF18EC3A72EF5F16FD18E73A71EF9F
:101C000018F6ECE4F4D4C4FCCCDC11021C180BEA8A
:101C1000E2F2D2C2FACADA110F1C216222010800D4
:101C20003A6BEFEDB1C26D1A3A6CEFFE19C26D1A44
:101C3000626B097EC3E52111D341ED4B6BEF180BAD
:101C400011DB403A6BEF473A6CEF4F79FE23281FC8
:101C5000FE1FC26D1A78FE01280F21FF1D0106002C
:101C6000CDA41CDA6D1A7A18037AC638C33F242A29
:101C70006FEF7CB7C26D1A7DF57B1825141215061F
:101C8000217C1C01040016203A6BEFCDA41CDA6DF8
:101C90001A3A6CEFFE19C26D1ACD8E25DA6D1AF55F
:101CA0007AC30722EDA1280C5F7AC6085779B07B6A
:101CB00020F237C9C9119F423EDE081806118F4A2B
:101CC0003ECE083A6BEFFE01282AFE0BC26D1A3A8F
:101CD0006CEFFE052819FE082811FE0B2809FE10DE
:101CE000C26D1A3E3018093E2018053E101801AF8B
:101CF00082C33F243A6CEF21151E010900EDB1208B
:101D00001879FE082810B728057B91C3D9202A6DC1
:101D1000EF0857C3D21E7B18F2211E1E010400EDEE
:101D2000B1C26D1A2171EF0956790EFDFE0238021B
:101D30000EDD1DC3151F1187093EC6083A6CEF471B
:101D40003A6BEFFE0128ADFE0B2847FE0E2809FE78
:101D50000FC26D1A0EFD18020EDD78FE052819FE61
:101D6000082819FE0E2819FE0FCA8A1DFE10C26D22
:101D70001A3E39F579C307223E0918F73E1918F3C0
:101D800079FEDDC26D1A3E2918E979FEFDC26D1A91
:101D900018F478FE052812FE082813FE0B2814FEFE
:101DA00010C26D1A3E39C30B1D3E09C30B1D3E19EF
:101DB000C30B1D3E29C30B1D3A6CEF473A6BEFFE78
:101DC000022826FE08282CFE20C26D1A781EE3FE8B
:101DD0000B2813FE0E16DD2807FE0FC26D1A16FD26
:101DE0007BF57AC307227B181278FE03C26D1A3E78
:101DF00008180878FE0BC26D1A3EEBC3D920010407
:101E00000607090A0C05080B0E0F212422250D10C8
:101E1000111A1B1C2301040607090A0C1C19212492
:101E200022251A1B0D1123686058504840788A1EDD
:101E30009B1EA01EA41EA91EAE1EBC1EC11EC91E36
:101E4000CE1E3A6BEF21FE1D010700EDB1C2E01E70
:101E500021271E09563A6CEF21151E010800EDB12D
:101E6000200C79FE0728033E0691B2C3D920211D1C
:101E70001E010A00EDB1C26D1A79FE0530067AFE28
:101E800078C26D1A212E1EC30F1B3E3A2A66EF77C9
:101E900023ED5B6FEF732372C3F1213E5FC33F24D9
:101EA0003E5718F93E1AC3D9203E0AC3D9203A71C9
:101EB000EF4F1EFD3E06B2577BC3FC223A72EF186D
:101EC000F03A73EF4F1EDD18EB3A74EF18F67AD63E
:101ED0003A572A6DEF7CB7C26D1A7DF57AC3072297
:101EE000010500EDB1207479B7286CFE01284EFE83
:101EF000022835FE03282916ED1E4B0E013A6CEF21
:101F0000FE19280A7B216FEF4E235EC31424216D36
:101F1000EF5E2356792A66EF7123732372C3F12192
:101F200016ED1E5B0E1118D50E21ED5B6DEF3A6CB0
:101F3000EFFE1928E00E2AED5B6FEF18D816DD0EC4
:101F400021216DEF3A6CEFFE1928050E2A216FEF63
:101F5000794E235EC3142416FD18E4010400EDB18C
:101F6000203F2171EF0956791EFDFE0238021EDD69
:101F70003A6CEFFE19281A21FE1D010700EDB1C2CF
:101F80006D1A79FE063E7728033E75914B5FC315A7
:101F90001F2A6DEF7CB7C26D1A3E364A535DC314DB
:101FA00024010700EDB1C26D1A21AF1FC30F1BCB77
:101FB0001F00206D20712076202F207B20010B0533
:101FC00008100E0F222273534322323A6CEF21BDC8
:101FD0001F010700EDB1C26D1A21C41F09794E2AF5
:101FE0006FEFFE0538055D54C3151FFE0238081655
:101FF000ED794D5CC3142416FDB728F516DD18F1F4
:102000003A6CEFFE192819FE01281121FF1D010667
:1020100000EDB1C26D1A3E7591C3D9203E7718F913
:102020002A6DEF7CB7C26D1A7DF53E36C307223AA2
:102030006CEFFE0B281DFE0E281DFE0F281DFE193D
:102040002822FE23C26D1A16ED3E7B2A6FEF4D5CEF
:10205000C314243EF9181C16DD180216FD3EF9F5CE
:102060007AC307220E31ED5B6DEFC3151F3E1218C8
:10207000023E02C3D9203E4FC33F243E47C33F2404
:10208000070A0B0E0F1E20212E323334354127FB59
:10209000F37600C9373F2F1F0F1707D927282526AA
:1020A0003A3B3839040502031F403E3F3D2F304282
:1020B00043676F454DA3ABB3BB44B0A0B8A8B2A271
:1020C000BAAAB1A1B9A93A6AEF010E00218020EDA8
:1020D000B1C2E520218E20097E2A66EF773E0132CB
:1020E00069EFC37E1A011500219C20EDB1C26D1A63
:1020F0002A66EF3EED7723EB21B120097E123E02E6
:1021000018DD0809171A181B1C1D292A2E312B2C23
:102110002D0C100D111213143644454664217921FB
:10212000B2212324BD23C223C723CC23D123D6230A
:10213000DB23DB21F621112224224E227222AC2243
:10214000B022B422B822BC223E2343238523892314
:102150003A6AEF011A00210221EDB1C26D1A211C69
:1021600021C30F1B3A6BEFFE19C26D1A2A66EFED01
:102170004B6DEF712370C3FE203A6BEFFE192820E0
:10218000FE26C26D1A2A6DEFAF4FED5B66EF7EFE45
:10219000222809B728061223130C18F279C3DF206E
:1021A000ED4B6DEF78B7C26D1A2A66EF713E01C331
:1021B000DF203A6BEFFE19C26D1AAF2A6DEF0100F6
:1021C000C0ED42DA6D1A0100F02A6DEFED42D26DDA
:1021D0001A2A6DEF2266EFAFC3DF203A6BEFFE19CC
:1021E000C26D1A3ECD2A66EF7723ED5B6DEF732348
:1021F000723E03C3DF203A6BEFFE19C26D1ACD8E1B
:1022000025DA6D1AF53E102A66EF7723F177C3FEC3
:10221000203A6BEFFE19C26D1ACD8E25DA6D1AF5D4
:102220003E1818E32A6DEF7CB7C26D1A7D213E225D
:10223000010800EDB1C26D1A214622C3D720000863
:10224000101820283038FFF7EFE7DFD7CFC73A6BF9
:10225000EF216222010800EDB1C26D1A216A22C38A
:10226000D7200612131415161718E8E0F0D0C0F89E
:10227000C8D83A6BEFFE1928212EE9FE1C2817FE5C
:102280001D280CFE1EC26D1A7DF53EFDC307227D82
:10229000F53EDDC307227DC3D9203EC3C3E5210639
:1022A00006060646060504030201000716B8180EC6
:1022B00016A8180A16B0180616A0180216903A6B3F
:1022C000EF21151E010D00EDB1C26D1A219F2209EB
:1022D0007EB25779FE05DADD227AC3D920FE0438B2
:1022E0000E2A6DEF7CB7C26D1A7DF57AC30722FE08
:1022F000023EFD38023EDD2171EF094E2A66EF777E
:102300007A23772371C3F121010405060708090A1E
:102310000B0C101C0E0F21242225353535352B2BA7
:10232000353B2D2B251D1B150D0B053D3434343449
:10233000232334332C23241C13140C03043C111AC0
:10234000231803112C233A6BEF210823011200ED0F
:10235000B1626BC26D1A7916FDFE06D2D720097ED6
:102360005F79FE043808280216DD7BC3EA22FE02EC
:10237000380216DD7A53C3F7220205080B0E0FE070
:10238000E0E0D0C0F01601180216052179230106FD
:10239000003A6BEFEDB1C26D1A217F23097EB2576F
:1023A00079FE027AD2D9201EFD79B728021EDD7A85
:1023B000F57BC307220605040302010007113E381E
:1023C000181C112E2818171126201812111E181863
:1023D0000D1116101808110E0818031106003A6B9B
:1023E000EF21151E010800EDB1200C21B523097E57
:1023F000B2F53ECBC30722211E1E010400EDB1C27F
:102400006D1A16FD79FE02380216DD2171EF094EB4
:1024100023463ECB2A66EF722377237123733E0453
:10242000C3DF203A6EEFB7C26D1A3A6DEFFE03D2EA
:102430006D1A0E46B728070E563D28020E5E79F536
:102440003EEDC30722CD0825D8326AEFCD7F247E2A
:10245000B7C8FE20C27D24CD8724D8326BEF08CDCB
:102460007F2408FE26C87EB7C8FE2C2010CD872406
:10247000D8326CEFCD7F247EB72002C9F137C93A3C
:1024800068EF3C3268EFC923CDFE24D0CD03253858
:1024900040F5CD3125DA7C247AB720E07EFE292074
:1024A000DB23F1F5FE2120050174EF1807FE222041
:1024B0000B0172EF7BFE8030C302F1C9FE24200CB9
:1024C0000173EF7BFE8130B4ED4418ED0171EF181C
:1024D000F27EFE28201223CD3125D87EFE29209DB4
:1024E00023ED536FEF3E23C9FE22200723226DEF19
:1024F0003E26C9CD3125D8ED536DEF3E19C9118C5B
:1025000019180B11EC191806218DEF116F18E51A27
:10251000BE2004231318F8E680200E131AE6802844
:10252000FA131AB72808E118E51AE67FD1C9E1378E
:10253000C911B0EF0E00CD7325D81213230CCD7D39
:1025400025380B1213230C79FE07282F18F008AF3B
:102550001208FE48280BE521B0EFCDB302E1505937
:10256000C923E521B0EFCDFC26E1B7C97EFE20C02E
:102570002318F97EFE3A3003FE30D037C97EFE3094
:10258000D8FE3A3807FE41D8FE4730EFB7C9E5D547
:10259000ED5B66EF13132A6DEFAFED52380D7CB78C
:1025A00020177DFE803012B7D1E1C97CFEFF2009E3
:1025B0007DED44FE817D3F18EF3718ECE5D5C52150
:1025C0008DEF545D0E20CD6C25CDE125B7280E0E84
:1025D0000023CD6C25B72803CDE1251B12C1D1E125
:1025E000C906001213B7C8B9C8FE2220060878EE43
:1025F000014708237EB928EBCB4020E7FE2028E9DD
:1026000018E17EA7C8CDE52E2318F77CCD10267DD6
:10261000F51F1F1F1FCD1926F1E60FC630FE3ADA4F
:10262000E52EC607C3E52EAFCD2F2607070707C542
:102630004FCDD42EFE303811FE3A380AFE4138090B
:10264000FE473005D607D630B1C1C93E0DCDE52EC7
:102650003E0AC3E52EE5215E26CD0226E1C91B5BBD
:102660003200218DEF0628D5E5581D0600CDD42E69
:10267000FE0D285AFE0A2856FE08283BFE7F283702
:10268000FE22200AF53A82EFEE043282EFF1FE20BC
:1026900038DBFE8030D74F78BB30D20479CDE52EC1
:1026A000FE61380FFE7B300BE52182EFCB56200216
:1026B000E6DFE1772318B678A728B2052B3E08CDD0
:1026C000E52E3E20CDE52E3E08CDE52E189FE521D6
:1026D00082EFCB4620053E0DCDE52ECB4E20053EAC
:1026E0000ACDE52ECB96E13600E1D1C97EFE20C0B1
:1026F0002318F9FE61D8FE7BD0C6E0C90E00110098
:10270000007EFE30382CFE3A380AFE413824FE475F
:102710003020D607D6301717171717CB13CB121741
:10272000CB13CB1217CB13CB1217CB13CB12230C1B
:1027300018CF79B72806FE053002B7C937C9E5C5F5
:10274000215B2706000909018727B7E5ED42E13043
:102750000746236668C1E3C9C1E1C97E008727E552
:102760002E0226D42EDF2EC9270B26102619265519
:10277000266726EC264B26F326FC269C29D22948E0
:102780002A0029F008B3023100EF3A60EFB72806BB
:102790002161EFCDB8283A50EFB728062151EFCD8F
:1027A000B8283A54EFB728062155EFCDB8283A5C3F
:1027B000EFB72806215DEFCDC4283A58EFB72806B9
:1027C0002159EFCDC428C38E28AFC9F5ED5F32354E
:1027D000EFED573234EF2222EFED5320EFED431EA1
:1027E000EFE1221CEF08F5D9222AEFED5328EFED97
:1027F0004326EFE12224EFDD222CEFFD222EEFE134
:102800002B2232EFED7330EF3100EFAF575F3A60BC
:10281000EFB7280911EE282161EFCDB8283A5CEF17
:10282000B7280911EE28215DEFCDC4283A58EFB73B
:10283000280911EE282159EFCDC4283A50EFB728C6
:102840000911F7282151EFCDB8283A54EFB72809DC
:1028500011F7282155EFCDB8287AB3200311E428C9
:102860001AFE54280CEBCD0226CDE317CDCB281849
:102870001D3A49EFFE46280AEBCD0226CDE317CDDF
:10288000CB28CDDF2E2813CDD42EFE03200CAF3263
:102890004FEF676F224BEFC32C013A4FEFB7C2AF38
:1028A000282A4BEF2B224BEF7DB42003C32C012AA7
:1028B00032EF224DEFC3DF04E57E234E234602E1D3
:1028C000AF2B77C97E234E234602C92A32EF2286D8
:1028D000EFCD4609CD0B09218DEFCD02262A32EF2F
:1028E0002286EFC9525354203338480D0A004272F1
:1028F00065616B210D0A005472616365210D0A0048
:10290000F5E5B7280FFE012814FE022816FE03285D
:1029100050E1F1C92100F83E9077E1F1C92100F8BA
:102920003E10773A10F83239EF3A11F8323AEF01A7
:10293000E1872A39EF7CB52006ED4339EF1805ED24
:10294000422239EF3A20F8323BEF3A21F8323CEF9D
:102950002A39EFCD8029ED433DEFED5B3BEFE1F10F
:10296000C9AF676F223DEF223BEF2239EF3220F8EB
:102970003221F83EE83210F83E863211F8E1F1C912
:10298000AF474F2A39EF7DFE1F3806D61F6F031859
:10299000F67CB7C87DD61FED442518F1F5C5D5E501
:1029A000DDE5E5DDE1EBE521050019AF77EBE101C0
:1029B00001003E0ACDD229F6301B120C7CB520F264
:1029C00079FE062806DDE5E1EBEDB0DDE1E1D1C100
:1029D000F1C9C5D54F060FAF291791380D292C170E
:1029E00091380C292C10F8C3F32929178138F429C0
:1029F00010F981D1C1C9223FEFED5341EFAF32430E
:102A0000EF3244EF3245EF3246EF06102143EFCB71
:102A10002623CB16213FEFCB2623CB162145EFCB28
:102A20001623CB162A41EF5D542A45EFAFED523005
:102A300002180B2245EF3A43EFF6013243EF10CC78
:102A40002A43EFED5B45EFC9F5C5B71804CB21CBA1
:102A5000101F30F90920F6C1F1C93F203A436F6DCC
:102A60006D616E642048656C700D0A234C7C3C6E71
:102A7000756D3E203A4C61756E63682070726F67A9
:102A800072616D0D0A415B3C616464726573733EF3
:102A90005D203A204D696E6920417373656D626CEB
:102AA00065206D6F64650D0A425B317C325B2C3CA6
:102AB0006164723E5D5D203A536574206F72204CF4
:102AC00069737420427265616B20506F696E740D7A
:102AD0000A42435B317C325D203A436C656172206F
:102AE000427265616B20506F696E740D0A445B3CE5
:102AF0006164723E5D203A44756D70204D656D6F66
:102B000072790D0A44495B3C6164723E5D5B2C73D3
:102B10003C73746570733E7C3C6164723E5D203A28
:102B2000446973617373656D626C650D0A475B3C44
:102B30006164723E5D5B2C3C73746F7020616472E3
:102B40003E5D203A476F20616E642053746F700DB4
:102B50000A4C5B477C3C6F66667365743E5D203A49
:102B60004C6F61642048657846696C652028616E09
:102B70006420474F290D0A505B497C535D203A532E
:102B80006176652048657846696C6528493A496EE2
:102B900074656C2C533A4D6F746F726F6C61290DB4
:102BA0000A525B3C7265673E5D203A536574206F44
:102BB000722044756D702072656769737465720D5B
:102BC0000A535B3C6164723E5D203A536574204D4C
:102BD000656D6F72790D0A545B3C6164723E5D5B9A
:102BE0002C3C73746570733E7C2D315D203A20540B
:102BF0007261636520636F6D6D616E640D0A544D83
:102C00005B497C535D203A5472616365204F707458
:102C1000696F6E20666F722043414C4C0D0A545010
:102C20005B4F4E7C4F46465D203A5472616365208F
:102C30005072696E74204D6F64650D0A000D0A456F
:102C40004D555A3830204D4F4E49544F5220526501
:102C5000762E4230350D0A54686973206D6F6E69A7
:102C6000746F72206973206261736564206F6E20D7
:102C7000756E696D6F6E2E0D0A005D2000457272D3
:102C80006F7220696865780D0A004572726F722054
:102C9000737265630D0A004572726F720D0A00202F
:102CA0003A00207C20002020003A30303030303094
:102CB000303146460D0A005339303330303030461B
:102CC000430D0A00192D1DEF011D2D1EEF02232DAE
:102CD00020EF02292D22EF022F2D1CEF01342D2C85
:102CE000EF02392D2EEF023E2D25EF01442D26EF68
:102CF000024A2D28EF02502D2AEF02562D24EF0113
:102D00005B2D30EF02602D32EF02652D34EF01694B
:102D10002D35EF01000000000041203D002042431E
:102D2000203D00204445203D0020484C203D00200F
:102D300046203D002049583D002049593D000D0ADC
:102D400041273D00204243273D00204445273D00C8
:102D500020484C273D002046273D002053503D0091
:102D60002050433D0020493D0020523D00410FB717
:102D70002D0000420FC52D0000430FE72D00004439
:102D80000FF52D0000450F172E0000460F252E00D1
:102D900000480F332E0000490F632E00004C0F55E2
:102DA0002E0000500F772E0000520135EFD22E5327
:102DB0000F7F2E0000000000011DEF872E27012548
:102DC000EFA02E000000011FEF8C2E270127EFA798
:102DD0002E430FD92D0000000000021EEF892E2780
:102DE0000226EFA32E000000011EEF8E2E270126E3
:102DF000EFAA2E0000000121EF932E270129EFB149
:102E00002E450F092E00000000000220EF902E2713
:102E10000228EFAD2E0000000120EF952E2701289B
:102E2000EFB42E000000011CEF9E2E270124EFC1FD
:102E30002E0000000123EF9A2E27012BEFBB2E4C12
:102E40000F472E00000000000222EF972E27022AD3
:102E5000EFB72E0000000122EF9C2E27012AEFBEC3
:102E60002E0000000134EFD02E58022CEFC42E5952
:102E7000022EEFC72E0000430232EFCD2E0000508D
:102E80000230EFCA2E0000410042430042004300DE
:102E900044450044004500484C0048004C004600B2
:102EA000412700424327004227004327004445278B
:102EB00000442700452700484C27004827004C279E
:102EC000004627004958004959005350005043001C
:102ED000490052003A01FFCB4728F93A00FFC93AAE
:102EE00001FFCB47C9F53A01FFCB4F28F9F132007A
:102EF000FFC9FFFFFFFFFFFFFFFFFFFFFFFFFFFF18
:102F0000C3062FC36B2FC30D2FAC37223F2145C003
:102F1000F9C3374B11D53106632145C01A77231306
:102F200005C21C2FF9CDD633CDA23932EFC0323EC7
:102F3000C121C0EE11A1C1CD6C35DA742F11CEFFC5
:102F400022F4C019229FC0CDB1332A9FC011EFFFD8
:102F500019113EC17D936F7C9A67E5218C2FCD407E
:102F600040E1CDE346217D2FCD404031ABC0CDD6F1
:102F700033C3EF3221C32FCD4040C37A2F20427993
:102F800074657320667265650D0A00005A3830203A
:102F900042415349432056657220342E37620D0A50
:102FA000436F70797269676874202843292031392A
:102FB0003738206279204D6963726F736F66740DC4
:102FC0000A00004D656D6F72792073697A65206E15
:102FD0006F7420656E6F7567680D0A54686520739D
:102FE000797374656D2069732073746F7070656494
:102FF0002E0D0A000058451C466E4548C0003F850E
:10300000422E3FE247C148FD43304836493C499D86
:1030100049B249D9421C4A96C0B241CA3F4C42C14A
:1030200041D2413E4AD14AE24112421C42C54E447D
:10303000C64F52CE455854C4415441C94E505554C0
:10304000C4494DD2454144CC4554C74F544FD25545
:103050004EC946D24553544F5245C74F535542D29D
:10306000455455524ED2454DD3544F50CF5554CF61
:103070004ECE554C4CD7414954C44546D04F4B4594
:10308000C44F4B45D3435245454ECC494E4553C39F
:103090004C53D749445448CD4F4E49544F52D345D1
:1030A00054D245534554D052494E54C34F4E54CC3C
:1030B000495354C34C454152C34C4F4144C35341FF
:1030C0005645CE4557D4414228D44FC64ED35043DF
:1030D00028D448454ECE4F54D3544550ABADAAAF3B
:1030E000DEC14E44CF52BEBDBCD3474EC94E54C1C3
:1030F0004253D55352C65245C94E50D04F53D35167
:1031000052D24E44CC4F47C55850C34F53D3494E6B
:10311000D4414EC1544ED045454BC445454BD04F8C
:10312000494E54CC454ED3545224D6414CC15343FE
:10313000C3485224C8455824C2494E24CC4546545D
:1031400024D24947485424CD494424804437413649
:103150001C3B9138233A583D523AA8384E38313802
:1031600020390A373D386C3893384237914202395A
:1031700083379742363FE042274A93380D4A014A47
:10318000054A334B99C09CC044397037B635EB378C
:1031900093389338B03379CA4679FE427C3C447CFC
:1031A0009D447FEB4750B13C46B03C4E46534E5297
:1031B000474F4446434F564F4D554C425344442F7E
:1031C000304944544D4F534C535354434E55464D40
:1031D0004F4858424EC36B2FC3C137D300C9D600E6
:1031E0006F7CDE006778DE00473E00C900000035D6
:1031F0004ACA99391C76982295B3980ADD479853A4
:10320000D199990A1A9F9865BCCD98D6773E985265
:10321000C74F80DB00C901FF1C0000140014000030
:10322000000000C3E934C30000C30000C30000A2D3
:10323000C1FEFF3FC1204572726F720020696E208F
:10324000004F6B0D0A0000427265616B00210400A3
:10325000397E23FE81C04E234623E569607AB3EBB5
:10326000CA6732EBCD6C35010D00E1C809C351329C
:10327000CD8A32C5E3C1CD6C357E02C80B2BC37637
:1032800032E52A1FC1060009093EE53ED0956F3E92
:10329000FF9CDA99326739E1D81E0CC3B8322A0E86
:1032A000C122A1C01E02011E14011E00011E120136
:1032B0001E22011E0A011E18CDD633328AC0CD95BA
:1032C0003921AB31573E3FCD7D35197ECD7D35CD92
:1032D000FA36CD7D35213532CD40402AA1C011FED0
:1032E000FFCD6C35CA0D2F7CA53CC4DB463EC1AF7B
:1032F000328AC0CD9539214132CD404021FFFF2295
:10330000A1C0CDE934DAFC32CDFA363C3DCAFC32FC
:10331000F5CDC637D5CD003447D1F1D2DA36D5C593
:10332000AF3211C1CDFA36B7F5CD9033DA3533F17E
:10333000F5CA6738B7C5D24C33EB2A1BC11A020352
:1033400013CD6C35C23D336069221BC1D1F1CA7304
:10335000332A1BC1E3C109E5CD7032E1221BC1EB69
:1033600074D123237323722311A6C01A772313B7B2
:10337000C26B33CDBC3323EB626B7E23B6CAFC3207
:10338000232323AFBE23C28433EB732372C378336A
:103390002AA3C0444D7E23B62BC823237E23666F09
:1033A000CD6C3560697E23666F3FC83FD0C39333D1
:1033B000C02AA3C0AF77237723221BC12AA3C02B27
:1033C0002213C12AF4C02208C1AFCD0A372A1BC17B
:1033D000221DC1221FC1C12A9FC0F921F8C022F6B7
:1033E000C0AF6F672219C13210C12223C1E5C52ABF
:1033F00013C1C93E3FCD7D353E20CD7D35C393C041
:10340000AF32F3C00E0511A6C07EFE20CA88344735
:10341000FE22CAA834B7CAAF343AF3C0B77EC28816
:1034200034FE3F3E9ECA88347EFE30DA3334FE3CA2
:10343000DA8834D5112C30C5018434C5067F7EFE70
:1034400061DA4C34FE7BD24C34E65F774EEB23B628
:10345000F24E34047EE67FC8B9C24E34EBE5131A4F
:10346000B7FA80344F78FE88C26F34CDFA362B23FA
:103470007EFE61DA7834E65FB9CA5E34E1C34C346B
:1034800048F1EBC9EB79C1D12312130CD63ACA9695
:1034900034FE49C2993432F3C0D654C20934477E4F
:1034A000B7CAAF34B8CA883423120C13C39F34216F
:1034B000A5C01213121312C93A89C0B73E0032894F
:1034C000C0C2CC3405CAE934CD7D353E052BCAE0F7
:1034D000347ECD7D35C3F234052BCD7D35C2F2343B
:1034E000CD7D35CDA239C3E93421A6C00601AF3266
:1034F00089C0CDA5354FFE7FCAB8343A89C0B7CA56
:103500000B353E00CD7D35AF3289C079FE07CA4FFD
:1035100035FE03CCA23937C8FE0DCA9D39FE15CA47
:10352000E334FE40CAE034FE5FCAD834FE08CAD88D
:1035300034FE12C24A35C5D5E53600CD464B21A62C
:10354000C0CD4040E1D1C1C3F234FE20DAF234787C
:10355000FE493E07D2643579713211C12304CD7D15
:1035600035C3F234CD7D353E08C35E357C92C07DD7
:1035700093C97EE3BE23E3CAFA36C3A432F53A8A7E
:10358000C0B7C27540F1C5F5FE20DAA1353A87C053
:10359000473AF0C004CA9D3505B8CCA2393C32F098
:1035A000C0F1C1CFC9CDFF49E67FFE0FC03A8AC046
:1035B0002F328AC0AFC9CDC637C0C1CD9033C5CD7B
:1035C0000C36E14E23462378B1CAEF32CD1536CD05
:1035D0002537C5CDA2395E235623E5EBCDE3463E24
:1035E00020E1CD7D357EB723CAC235F2E235D67FE4
:1035F0004F112D301A13B7F2F4350DC2F435E67FB2
:10360000CD7D351A13B7F2FE35C3E535E52A8DC0F9
:10361000228BC0E1C9E5D52A8BC011FFFFED5A22EC
:103620008BC0D1E1F0E52A8DC0228BC0CDFF49FED1
:1036300003CA3836E1C315362A8DC0228BC0C36E4B
:103640002F3E643210C1CDA838C1E5CD9138220C8F
:10365000C121020039CD5132D1C2713609D52B5664
:103660002B5E2323E52A0CC1CD6C35E1C25536D142
:10367000F9EB0E08CD8132E52A0CC1E3E52AA1C0A1
:10368000E3CD6A3BCD7235A6CD673BE5CD9545E1EF
:10369000C5D5010081515A7EFEAB3E01C2AD36CD8B
:1036A000FA36CD673BE5CD9545CD4945E1C5D5F524
:1036B00033E52A13C1E30681C533CD25372213C173
:1036C0007EFE3ACADA36B7C2A432237E23B6CA4C8B
:1036D00037235E2356EB22A1C0EBCDFA3611BA3662
:1036E000D5C8D680DAA838FE25D2A432074F060006
:1036F000EB214C31094E2346C5EB237EFE3AD0FE2A
:1037000020CAFA36FE303F3C3DC9EB2AA3C0CA1F8F
:1037100037EBCDC637E5CD90336069D1D267382B12
:103720002221C1EBC9DFC8D7FE1B2811FE03280DDB
:10373000FE13C0D7FE11C8FE03280718F63EFF325D
:1037400092C0C0F6C02213C121F6FFC12AA1C0F564
:103750007DA43CCA5F372217C12A13C12219C1AF09
:10376000328AC0CD9539F1214732C2D832C3EF3207
:103770002A19C17CB51E20CAB832EB2A17C122A172
:10378000C0EBC9CDC842C03286C0C9E52A8FC00689
:10379000004F09228FC0E1C97EFE41D8FE5B3FC9C0
:1037A000CDFA36CD673BCD4945FAC1373A2CC1FE3B
:1037B00090DAF145018090110000E5CDC445E1515A
:1037C000C81E08C3B8322B110000CDFA36D0E5F57B
:1037D000219819CD6C35DAA432626B19291929F1B7
:1037E000D6305F160019EBE1C3CA37CAC033CDA388
:1037F000372BCDFA36E52AF4C0CA0E38E1CD723542
:103800002CD5CDA3372BCDFA36C2A432E3EB7D9372
:103810005F7C9A57DA9932E52A1BC101280009CD4D
:103820006C35D29932EB229FC0E122F4C0E1C3C0D3
:1038300033CABC33CDC03301BA36C34D380E03CDC5
:103840008132C1E5E52AA1C0E33E8CF533C5CDC682
:1038500037CD9338E52AA1C0CD6C35E123DC933315
:10386000D4903360692BD81E0EC3B832C016FFCD7A
:103870004D32F9FE8C1E04C2B832E122A1C0237C75
:10388000B5C28B383A11C1B7C2EE3221BA36E33E27
:10389000E1013A0E0006007948477EB7C8B8C82350
:1038A000FE22CA9738C39A38CD5D3DCD7235B4D566
:1038B0003AF2C0F5CD793BF1E32213C11FCD6C3B49
:1038C000CAFB38E52A29C1E523235E23562AA3C073
:1038D000CD6C35D2EA382A9FC0CD6C35D1D2F238C2
:1038E0002104C1CD6C35D2F2383ED1CDA141EBCD12
:1038F000DA3FCDA141E1CDA445E1C9E5CDA145D156
:10390000E1C9CDC8427E47FE8CCA1139CD723588D7
:103910002B4B0D78CAE236CDC737FE2CC0C3123907
:10392000CD793B7EFE88CA2E39CD7235A92BCD6A62
:103930003BCD4945CA9338CDFA36DA4E38C3E13625
:103940002BCDFA36CAA239C8FEA5CAD539FEA8CAF7
:10395000D539E5FE2CCABE39FE3BCAF839C1CD794E
:103960003BE53AF2C0B7C28E39CDEE46CDFE3F36CA
:10397000202A29C1342A29C13A87C04704CA8A3972
:10398000043AF0C0863DB8D4A239CD4340AFC44319
:1039900040E1C340393AF0C0B7C8C3A2393600216C
:1039A000A5C03E0DCD7D353E0ACD7D35AF32F0C090
:1039B0003A86C03DC8F5AFCD7D35F1C3B3393A88FD
:1039C000C0473AF0C0B8D4A239D2F839D60ED2CC1A
:1039D000392FC3ED39F5CDC542CD7235292BF1D63E
:1039E000A8E5CAE8393AF0C02F83D2F8393C473EFF
:1039F00020CD7D3505C2F139E1CDFA36C347393FD7
:103A00005265646F2066726F6D2073746172740DFD
:103A10000A003A12C1B7C29E32C121FF39CD4040DF
:103A2000C3EF33CDAB3F7EFE223E00328AC0C23DA3
:103A30003ACDFF3FCD72353BE5CD43403EE5CDF37A
:103A400033C1DA4937237EB72BC5CA9038362CC329
:103A5000573AE52A21C1F6AF3212C1E3C3633ACD2A
:103A600072352CCD5D3DE3D57EFE2CCA8B3A3A12E1
:103A7000C1B7C2F83A3E3FCD7D35CDF333D1C1DA7F
:103A80004937237EB72BC5CA9038D53AF2C0B7CA9A
:103A9000B53ACDFA365747FE22CAA93A3A12C1B70B
:103AA00057CAA63A163A062C2BCD0240EB21C03A53
:103AB000E3D5C3C338CDFA36CD5046E3CDA145E1B9
:103AC0002BCDFA36CACC3AFE2CC2123AE32BCDFAF1
:103AD00036C25F3AD13A12C1B7EBC22037D5B62110
:103AE000E73AC44040E1C93F457874726120696794
:103AF0006E6F7265640D0A00CD9138B7C2113B2319
:103B00007E23B61E06CAB832235E2356EB220EC1B0
:103B1000EBCDFA36FE83C2F83AC38B3A110000C4EB
:103B20005D3D2213C1CD4D32C2AA32F9D57E23F5B7
:103B3000D5CD8745E3E5CDF442E1CDA145E1CD9872
:103B400045E5CDC445E1C190CD9845CA573BEB2230
:103B5000A1C06960C3B636F92A13C17EFE2CC2BA71
:103B600036CDFA36CD1F3BCD793BF6373AF2C08FD2
:103B7000B7E8C3B632CD7235282B1600D50E01CD6D
:103B80008132CDF03B2215C12A15C1C178FE78D40F
:103B90006A3B7E1600D6B3DAB13BFE03D2B13BFEE0
:103BA0000117AABA57DAA432220AC1CDFA36C39550
:103BB0003B7AB7C2D83C7E220AC1D6ACD8FE07D029
:103BC0005F3AF2C03DB37BCA364107835F2196312D
:103BD000197856BAD023CD6A3BC501883BC5434A04
:103BE000CD7A4558514E234623C52A0AC1C37C3B92
:103BF000AF32F2C0CDFA361E24CAB832DA5046CD02
:103C00009837D2573CFE262012CDFA36FE48CA938A
:103C10004AFE42CA034B1E02CAB832FEACCAF03B8F
:103C2000FE2ECA5046FEADCA463CFE22CAFF3FFEEB
:103C3000AACA383DFEA7CA633FD6B6D2683CCD7546
:103C40003BCD723529C9167DCD7C3B2A15C1E5CD0A
:103C50007245CD6A3BE1C9CD5D3DE5EB2229C13A14
:103C6000F2C0B7CC8745E1C90600074FC5CDFA368B
:103C700079FE31DA8F3CCD753BCD72352CCD6B3B67
:103C8000EB2A29C1E3E5EBCDC842EBE3C3973CCD7A
:103C90003E3CE311523CD501F52F094E236669E9FC
:103CA00015FEADC8FE2DC814FE2BC8FEACC82BC92E
:103CB000F6AFF5CD6A3BCDAC37F1EBC1E3EBCD8A86
:103CC00045F5CDAC37F1C17921213FC2D33CA34F9B
:103CD00078A2E9B34F78B2E921EA3C3AF2C01F7A00
:103CE000175F166478BAD0C3D93BEC3C79B71FC1D3
:103CF000D1F5CD6C3B212E3DE5CAC445AF32F2C0B3
:103D0000D5CD83417E23234E2346D1C5F5CD8741B2
:103D1000CD9845F157E17BB2C87AD601D8AFBB3C0C
:103D2000D0151D0ABE2303CA163D3FC354453C8F20
:103D3000C1A0C6FF9FC35B45165ACD7C3BCD6A3BF5
:103D4000CDAC377B2F4F7A2FCD213FC1C3883B2B82
:103D5000CDFA36C8CD72352C014F3DC5F6AF32F1E4
:103D6000C046CD9837DAA432AF4F32F2C0CDFA3622
:103D7000DA793DCD9837DA863D4FCDFA36DA7A3D9D
:103D8000CD9837D27A3DD624C2953D3C32F2C00F51
:103D9000814FCDFA363A10C13DCA423EF2A53D7E72
:103DA000D628CA1A3EAF3210C1E550592A23C1CDD8
:103DB0006C351125C1CA8A442A1DC1EB2A1BC1CD0D
:103DC0006C35CAD83D799623C2CD3D789623CA0C6E
:103DD0003E23232323C3BF3DE1E3D5115A3CCD6CE1
:103DE00035D1CA0F3EE3E5C50106002A1FC1E5092A
:103DF000C1E5CD7032E1221FC16069221DC12B36A1
:103E000000CD6C35C2FE3DD173237223EBE1C93284
:103E10002CC12140322229C1E1C9E52AF1C0E35772
:103E2000D5C5CDA037C1F1EBE3E5EB3C577EFE2CC9
:103E3000CA203ECD7235292215C1E122F1C01E00F3
:103E4000D511E5F52A1DC13E19EB2A1FC1EBCD6C3A
:103E500035CA7A3E7EB923C25C3E7EB8235E2356C5
:103E600023C2483E3AF1C0B7C2AD32F1444DCA8ACE
:103E70004496CAD83E1E10C3B832110400F1CAC11C
:103E800037712370234FCD81322323220AC171233E
:103E90003AF1C01779010B00D29D3EC10371237026
:103EA00023F5E5CD3546EBE1F13DC2953EF5424BBC
:103EB000EB19DA9932CD8A32221FC12B3600CD6C34
:103EC00035C2BB3E03572A0AC15EEB2909EB2B2BF7
:103ED00073237223F1DAFC3E474F7E2316E15E2303
:103EE0005623E3F5CD6C35D2753EE5CD3546D11977
:103EF000F13D444DC2DD3E2929C109EB2A15C1C956
:103F00002A1FC1EB210000393AF2C0B7CA1C3FCDCD
:103F10008341CD83402A9FC0EB2A08C17D934F7C0B
:103F20009A41501E0021F2C0730690C360453AF0DA
:103F3000C047AFC3223FCDB93FCDAB3F019138C59C
:103F4000D5CD723528CD5D3DE5EB2B562B5EE1CD11
:103F50006A3BCD723529CD7235B4444DE37123707F
:103F6000C3F83FCDB93FD5CD3E3CCD6A3BE35E23A0
:103F700056237AB3CAB0327E23666FE52A23C1E3A3
:103F80002223C12A27C1E52A25C1E52125C1D5CD96
:103F9000A145E1CD673B2BCDFA36C2A432E1222503
:103FA000C1E12227C1E12223C1E1C9E52AA1C02341
:103FB0007CB5E1C01E16C3B832CD7235A73E803243
:103FC00010C1B647CD623DC36A3BCD6A3BCDEE46DC
:103FD000CDFE3FCD834101DE41C57E2323E5CD5992
:103FE00040E14E2346CDF23FE56FCD7641D1C9CDBC
:103FF00059402104C1E5772323732372E1C92B06BD
:104000002250E50EFF237E0CB7CA1440BACA1440F2
:10401000B8C20540FE22CCFA36E323EB79CDF23F5D
:104020001104C12AF6C02229C13E0132F2C0CDA43A
:1040300045CD6C3522F6C0E17EC01E1EC3B83223CA
:10404000CDFE3FCD8341CD98451C1DC80ACD7D35A1
:10405000FE0DCCAC3903C34A40B70EF1F52A9FC020
:10406000EB2A08C12F4F06FF0923CD6C35DA7740C4
:104070002208C123EBF1C9F11E1ACAB832BFF501FB
:104080005B40C52AF4C02208C1210000E52A9FC078
:10409000E521F8C0EB2AF6C0EBCD6C35019440C2A7
:1040A000E8402A1BC1EB2A1DC1EBCD6C35CABB40D1
:1040B0007E2323B7CDEB40C3A540C1EB2A1FC1EB44
:1040C000CD6C35CA1141CD98457BE509B7F2BA40B0
:1040D000220AC1E14E0600090923EB2A0AC1EBCDF1
:1040E0006C35CABB4001DA40C5F6807E23235E23CF
:1040F0005623F0B7C8444D2A08C1CD6C356069D845
:10410000E1E3CD6C35E3E56069D0C1F1F1E5D5C5FA
:10411000C9D1E17DB4C82B462B4EE52B2B6E260072
:104120000950592B444D2A08C1CD7332E1712370D7
:1041300069602BC38640C5E52A29C1E3CDF03BE386
:10414000CD6B3B7EE52A29C1E5861E1CDAB832CD4F
:10415000EF3FD1CD8741E3CD8641E52A06C1EBCDC6
:104160006D41CD6D4121853BE3E5C32040E1E37E18
:1041700023234E23466F2C2DC80A120313C3774105
:10418000CD6B3B2A29C1EBCDA141EBC0D550591BCA
:104190004E2A08C1CD6C35C29F4147092208C1E1B2
:1041A000C92AF6C02B462B4E2B2BCD6C35C022F6E0
:1041B000C0C901313FC5CD8041AF5732F2C07EB793
:1041C000C901313FC5CDB641CAC13723235E23564D
:1041D0001AC93E01CDEF3FCDCB422A06C173C1C300
:1041E0002040CD7B42AFE34FE57EB8DAF041781155
:1041F0000E00C5CD5940C1E1E5232346236668067C
:104200000009444DCDF23F6FCD7641D1CD8741C3FA
:104210002040CD7B42D1D51A90C3E641EB7ECD80C4
:10422000420405CAC137C51EFFFE29CA3542CD72F8
:10423000352CCDC842CD723529F1E301E841C53DA9
:10424000BE0600D04F7E91BB47D843C9CDB641CA08
:1042500069435F23237E23666FE5194672E3C57EBB
:10426000FE24C26A42CD934A180DFE25C27442CD87
:10427000034B1803CD5046C1E170C9EBCD7235290F
:10428000C1D1C543C9CDCB423284C0CD83C0C33177
:104290003FCDB542C34BC0CDB542F51E002BCDFA84
:1042A00036CAAB42CD72352CCDC842C1CD83C0AB2E
:1042B000A0CAAC42C9CDC8423284C0324CC0CD7213
:1042C000352CC3C842CDFA36CD673BCDA6377AB779
:1042D000C2C1372BCDFA367BC9CDAC371AC3313FBB
:1042E000CD673BCDAC37D5CD72352CCDC842D11280
:1042F000C921C747CD9845C30343CD984521C1D1B6
:10430000CD724578B7C83A2CC1B7CA8A4590D21D3C
:10431000432F3CEBCD7A45EBCD8A45C1D1FE19D078
:10432000F5CDAF4567F1CDC843B42129C1F2434370
:10433000CDA843D289432334CAB3322E01CDDE4304
:10434000C38943AF90477E9B5F237E9A57237E9914
:104350004FDCB4436863AF4779B7C276434A5465CC
:104360006F78D608FEE0C25743AF322CC1C9052989
:104370007A1757798F4FF26E43785C45B7CA8943F5
:10438000212CC18677D26943C878212CC1B7FC9B08
:104390004346237EE680A94FC38A451CC014C00C47
:1043A000C00E8034C0C3B3327E835F237E8A57231E
:1043B0007E894FC9212DC17E2F77AF6F90477D9B9E
:1043C0005F7D9A577D994FC90600D608DAD74343D7
:1043D0005A510E00C3CA43C6096FAF2DC8791F4F8B
:1043E0007A1F577B1F5F781F47C3DA4300000081A5
:1043F00003AA561980F122768045AA3882CD494514
:10440000B7EAC137212CC17E01358011F30490F544
:1044100070D5C5CD0343C1D104CD9F4421EC43CD1C
:10442000FA4221F043CD9148018080110000CD0374
:1044300043F1CDC44601318011187221C1D1CD495B
:1044400045C82E00CD074579323BC1EB223CC10166
:1044500000005058215443E5216044E5E52129C17D
:104460007E23B7CA8C44E52E081F6779D27A44E5CB
:104470002A3CC119EBE13A3BC1891F4F7A1F577B98
:104480001F5F781F472D7CC26944E1C9435A514FD1
:10449000C9CD7A45012084110000CD8A45C1D1CD16
:1044A0004945CAA7322EFFCD074534342B7E3257FB
:1044B000C02B7E3253C02B7E324FC041EBAF4F57E3
:1044C0005F325AC0E5C57DCD4EC0DE003FD2D74435
:1044D000325AC0F1F137D2C1E1793C3D1FFA8A432B
:1044E000177B175F7A175779174F297817473A5A6A
:1044F000C017325AC079B2B3C2C444E5212CC135C9
:10450000E1C2C444C3B33278B7CA2B457D212CC164
:10451000AE80471FA878F22A45C68077CA8A44CD64
:10452000AF45772BC9CD49452FE1B7E1F26943C3C8
:10453000B332CD954578B7C8C602DAB33247CD035A
:1045400043212CC134C0C3B3323A2CC1B7C83A2B73
:10455000C1FE2F179FC03CC9CD49450688110000F8
:10456000212CC14F70060023368017C35143CD491B
:1045700045F0212BC17EEE8077C9EB2A29C1E3E506
:104580002A2BC1E3E5EBC9CD9845EB2229C160692F
:10459000222BC1EBC92129C15E2356234E2346237A
:1045A000C91129C106041A77132305C2A645C921DA
:1045B0002BC17E07371F773F1F2323777907371FCC
:1045C0004F1FAEC978B7CA4945215245E5CD494587
:1045D00079C8212BC1AE79F8CDDE451FA9C9237852
:1045E000BEC02B79BEC02B7ABEC02B7B96C0E1E14A
:1045F000C9474F575FB7C8E5CD9545CDAF45AE67C5
:10460000FC15463E9890CDC8437C17DC9B430600C2
:10461000DCB443E1C91B7AA33CC00BC9212CC17E89
:10462000FE983A29C1D07ECDF14536987BF57917B1
:10463000CD5143F1C921000078B1C83E1029DA7587
:104640003EEB29EBD24B4609DA753E3DC23D46C9E9
:10465000FE2DF5CA5C46FE2BCA5C462BCD6943474E
:10466000575F2F4FCDFA36DAAD46FE2ECA8846FE8A
:1046700045C28C46CDFA36CDA03CCDFA36DACF46CF
:1046800014C28C46AF935F0C0CCA6446E57B90F471
:10469000A546F29B46F5CD9144F13CC28F46D1F13F
:1046A000CC7245EBC9C8F5CD3245F13DC9D5577837
:1046B0008947C5E5D5CD3245F1D630CDC446E1C1F7
:1046C000D1C36446CD7A45CD5B45C1D1C303437B9D
:1046D0000707830786D6305FC37A46E5213C32CD93
:1046E0004040E1EBAF0698CD6045213F40E5212EEB
:1046F000C1E5CD49453620F2FC46362D233630CA79
:10470000B247E5FC7245AFF5CDB84701439111F8CA
:104710004FCDC445B7E22947F1CDA646F5C30B47B7
:10472000CD9144F13CF5CDB847CDF1423CCDF145BA
:10473000CD8A45010603F1813CFA4547FE08D24582
:10474000473C473E023D3DE1F511CB4705C2564788
:10475000362E2336302305362ECC9F45C5E5D5CDE4
:104760009545E1062F047B965F237A9E5723799E19
:104770004F2B2BD26547CDA84323CD8A45EBE17063
:1047800023C10DC2564705CA96472B7EFE30CA8A02
:1047900047FE2EC49F45F1CAB547364523362BF256
:1047A000A647362D2F3C062F04D60AD2A847C63A74
:1047B000237023772371E1C901749411F723CDC4C9
:1047C00045B7E1E22047E900000080A086011027FC
:1047D00000E803006400000A0000010000217245A7
:1047E000E3E9CD7A4521C747CD8745C1D1CD4945BC
:1047F00078CA3048F2FB47B7CAA732B7CA6A43D56E
:10480000C579F67FCD9545F21848D5C5CD1C46C172
:10481000D1F5CDC445E17C1FE1222BC1E12229C1A4
:10482000DCDD47CC7245D5C5CDFD43C1D1CD3E447D
:10483000CD7A45013881113BAACD3E443A2CC1FEC8
:1048400088D22545CD1C46C680C602DA2545F5210D
:10485000EC43CDF442CD3544F1C1D1F5CD0043CD8B
:104860007245217048CDA048110000C14AC33E44A2
:1048700008402E9474704F2E776E02887AE6A02A34
:104880007C50AAAA7EFFFF7F7F000080810000008D
:1048900081CD7A45113C44D5E5CD9545CD3E44E1E9
:1048A000CD7A457E23CD874506F1C1D13DC8D5C51A
:1048B000F5E5CD3E44E1CD9845E5CD0343E1C3A9FF
:1048C00048CD4945215EC0FA2249217FC0CD8745A8
:1048D000215EC0C886E6070600772387874F09CD8B
:1048E0009845CD3E443A5DC03CE6030600FE018893
:1048F000325DC021264987874F09CDF442CD9545C9
:104900007B59EE4F4F36802B463680215CC0347E7B
:10491000D6ABC21949770C151CCD5443217FC0C3B7
:10492000A145772B772B77C3FD4868B1466899E995
:10493000926910D17568218049CDF442CD7A450144
:10494000498311DB0FCD8A45C1D1CD9F44CD7A4536
:10495000CD1C46C1D1CD0043218449CDFA42CD4979
:104960004537F26C49CDF142CD4945B7F5F4724572
:10497000218449CDF442F1D47245218849C391483C
:10498000DB0F49810000007F05BAD71E8664269997
:104990008758342387E05DA586DA0F4983CD7A45B1
:1049A000CD3C49C1E1CD7A45EBCD8A45CD3649C3F1
:1049B0009D44CD4945FCDD47FC72453A2CC1FE8142
:1049C000DACF490100815159CD9F4421FA42E521B6
:1049D000D949CD9148218049C9094AD73B78026E0F
:1049E000847BFEC12F7C74319A7D843D5A7DC87FC3
:1049F000917EE4BB4C7E6CAAAA7F00000081C9D7DF
:104A0000C93E0CCFC9CDC8427B3287C0C9CD673BF8
:104A1000CDAC37ED538BC0ED538DC0C9CDAC37D580
:104A2000E146237EC3223FCD673BCDAC37D5CD7267
:104A3000352CCD673BCDAC37E3732372E1C9CD6A2A
:104A40003BCDAC37C5212EC17AFE00280CCD764A6D
:104A500078FE302802702371237BCD764A7AFE00DF
:104A6000200578FE30280270237123AF772377C1A9
:104A7000212EC1C3D03F47E60FFE0A3802C607C643
:104A8000304F780F0F0F0FE60FFE0A3802C607C629
:104A90003047C9EB210000CDAC4ADACC4A1805CD2D
:104AA000AC4A381F29292929B56F18F3131AFE209B
:104AB000CAAC4AD630D8FE0A3805D607FE0AD8FE58
:104AC000103FC9EB7A4BE5CD213FE1C91E26C3B8A3
:104AD00032CD6A3BCDAC37C5212EC106110578FE1B
:104AE000012808CB13CB1230F41804CB13CB123EA1
:104AF00030CE0077230520F3AF772377C1212EC175
:104B0000C3D03FEB210000CD204BDA2E4BD630290D
:104B1000B56FCD204B30F6EB7A4BE5CD213FE1C9A7
:104B2000131AFE20CA204BFE30D8FE323FC91E2881
:104B3000C3B8320E01F7C93E003292C0C3142FF53C
:104B4000A0C1B83E00C9CD7D35C3A239FFFFFFFF2C
:104B5000FFFFFFFFFFFFFFFFFFFFFFFFFFFFFFFF65
:104B6000FFFFFFFFFFFFFFFFFFFFFFFFFFFFFFFF55
:104B7000FFFFFFFFFFFFFFFFFFFFFFFFFFFFFFFF45
:104B8000FFFFFFFFFFFFFFFFFFFFFFFFFFFFFFFF35
:104B9000FFFFFFFFFFFFFFFFFFFFFFFFFFFFFFFF25
:104BA000FFFFFFFFFFFFFFFFFFFFFFFFFFFFFFFF15
:104BB000FFFFFFFFFFFFFFFFFFFFFFFFFFFFFFFF05
:104BC000FFFFFFFFFFFFFFFFFFFFFFFFFFFFFFFFF5
:104BD000FFFFFFFFFFFFFFFFFFFFFFFFFFFFFFFFE5
:104BE000FFFFFFFFFFFFFFFFFFFFFFFFFFFFFFFFD5
:104BF000FFFFFFFFFFFFFFFFFFFFFFFFFFFFFFFFC5
:104C0000C3064CC3274C3180EE2114C02200C0CD16
:104C1000B353116C5397CDA55311815397CDA55321
:104C200011965397CDA5533180EECDB35311585300
:104C300097CDA553213B4C2202C02100002208C081
:104C40002204C03E3ECDA34CD51137EDCDDA52CD76
:104C50007F4D7CB5C1CA384D1B7C121B7D12C5D55A
:104C60007993F5CDF44CD5C27A4CD5CD124DC12AED
:104C700000C0CD1E4D60692200C0C12A00C0F1E510
:104C8000FE03CA274C856F3E008C671100EDCD3BBB
:104C900052D229532200C0D1CD294DD1E1CD1E4D94
:104CA000C3434CCDB5531137EDCDC153CAA94CFE0A
:104CB0000ACAA94CB7CAA94CFE08CAD34CFE18CAE6
:104CC000EC4CCDB553CDCA531213FE0DC87BFE87F5
:104CD000C2A94C7BFE37CAA94C1B3E08CDB5533E3A
:104CE00020CDB5533E08CDB553C3A94CCDB3533EEB
:104CF00040C3A34C7CB7FA22531114C0E52A00C06C
:104D00002BCD3B52E1D81A9547131A9CDA134D1B51
:104D1000B0C913131AFE0DC2134D13C3FC4CCD3B87
:104D200052C81A021303C31E4D7892C2314D7993B3
:104D3000C81B2B1A77C3294D21864DCD7F4DD51A1F
:104D400013FE2ECA5C4D23BECA3F4D3E7F1BBEDA0A
:104D5000634D23BED2524D23D1C33E4D3E7F23BE71
:104D6000D25E4D7E236EE67F67F1E9E3CD7F4DBED7
:104D700023CA7B4DC54E060009C11B1323E3C91A84
:104D8000FE20C013C37F4D4C495354CF5052554E53
:104D9000D0CD4E4557CDE3425945CDE04E45585410
:104DA000CEA24C4554D09B494E505554D03F494615
:104DB000CF3C474F544FD0BC474F535542CDF25292
:104DC000455455524ECE1452454DCF44464F52CEC7
:104DD0002F5052494E54CF7D53544F50CDECD09369
:104DE0000E01F7CD05512114C02200C0CD0551C3DD
:104DF000274CCDF74ECD0E51D5CDF44CC223532ABE
:104E000002C0E52A04C0E52100002208C0392204BE
:104E1000C0C3DC50CD05512A04C07CB5CA1B53F970
:104E2000E12204C0E12202C0D1CD204FC3EC50CD1D
:104E3000F74ECDA6502B2208C0213E4EC33B4D5409
:104E40004FCE45D31BCD0E51220CC021504EC33B3B
:104E50004D53544550CE59CE5FCD0E51C3624E21B5
:104E60000100220AC02A02C0220EC0EB2210C0019B
:104E70000A002A08C0EB6068393E097E23B6CA9B47
:104E80004E7E2BBAC27A4E7EBBC27A4EEB21000018
:104E900039444D210A0019CD294DF92A10C0EBC320
:104EA000EC50CDA652DA1B532206C0D5EB2A08C01F
:104EB0007CB5CA1C53CD3B52CAC54ED1CD204F2A1A
:104EC00006C0C3AB4E5E23562A0AC0E519EB2A087A
:104ED000C07323722A0CC0F1B7F2DD4EEBCD355210
:104EE000D1DAF14E2A0EC02202C02A10C0EBC3EC68
:104EF00050CD204FC3EC5021A5EDCD2952C139D260
:104F000029532A08C07CB5CA1D4F2A10C0E52A0EB5
:104F1000C0E52A0CC0E52A0AC0E52A08C0E5C5C9D3
:104F2000C1E12208C07CB5CA3A4FE1220AC0E122A1
:104F30000CC0E1220EC0E12210C0C5C9CD0E517CCB
:104F4000B5C2E350210000CD144DD2DC50C3274C34
:104F5000CDDA52CD0551CDF44CDA274CCD684FCD8A
:104F6000C153CDFC4CC3594F1A6F131A67130E046B
:104F7000CDF34F3E20CDB55397CDA553C90E06CDE9
:104F80006B4D3B06CDB353C3E350CD6B4D0D06CDFA
:104F9000B353C3D350CD6B4D2307CD0E514DC3A793
:104FA0004FCDC34FC3B84FCD6B4D2C06CDF250C380
:104FB000954FCDB353C3EC50CD0E51C5CDF34FC17A
:104FC000C3A74FCD6B4D22053E22C3D44FCD6B4DB1
:104FD000270E3E27CDA553FE0DE1CAD350C3EE4F99
:104FE000CD6B4D5F0D3E8DCDB553CDB553E1232334
:104FF00023E9C9D5110A00D5420DCD2652F203503E
:10500000062D0DC5CD095278B1CA1450E32DE560C7
:1050100069C30450C10D79B7FA23503E20CDB55372
:10502000C3155078CDB5535D7BFE0AD1C8C630CDCF
:10503000B553C328502A06C0F9E12202C0D1D1D508
:10504000CDC34FC34F50CDA652DA8A50C36150D55D
:10505000CDA652DA1B531A4F9712D1CDA553791B07
:1050600012D5EB2A02C0E5213F502202C0210000E8
:10507000392206C0D53E3ACDA34C1137EDCD0E51A5
:10508000D1EB732372E12202C0D1F1CD6B4D2C5CC8
:10509000C33F50CDFB50FE0DCAEC50CDA650CD6B9A
:1050A0004D2C49C39B50CDA652DA1B53E5CD6B4D19
:1050B0003D3DCD0E51444DE1712370C9CD0E51D50A
:1050C000CD0551CDF44CC22353F1C3DC50CD055175
:1050D0001114C0210000CDFC4CDA274CEB2202C099
:1050E000EB1313CDC153219B4DC33B4DCDF250C3A8
:1050F0001B53CD6B4D3B04F1C3E350CD6B4D0D0401
:10510000F1C3D350C9CD7F4DFE0DC8C31B53CD6D28
:1051100051E5211751C33B4D3E3DD12F3C3ED1358A
:105120003ED13B3DD14A3C3DD1423CD150D156CD00
:105130005851D86FC9CD5851C86FC9CD5851C8D82A
:105140006FC9CD58516FC8D86CC9CD5851C06FC9FF
:10515000CD5851D06FC9E1C979E1C1E5C54FCD6DD9
:1051600051EBE3CD3552D12100003E01C9CD6B4D4D
:105170002D06210000C39151CD6B4D2B00CDA951BF
:10518000CD6B4D2B07E5CDA951C39851CD6B4D2D5E
:105190008DE5CDA951CD2952EBE37CAA7A19D1FA3C
:1051A0008051ACF28051C32253CD4152CD6B4D2A78
:1051B0002BE5CD41520600CD2652EBE3CD26527CA5
:1051C000B7CACA517AB2EBC223537D2E00B7CAFBCD
:1051D0005119DA23533DC2D151C3FB51CD6B4D2F31
:1051E0003DE5CD41520600CD2652EBE3CD26527A65
:1051F000B3CA2353C5CD09526069C1D17CB7FA2225
:105200005378B7FC2952C3AC51E56C2600CD14523B
:10521000417DE1670EFF0CCD1F52D2165219C97D98
:10522000936F7C9A67C97CB7F07C2F677D2F6F23C3
:1052300078EE8047C97CAAF23B52EB7CBAC07DBBBA
:10524000C9214652C33B4D524E44D259414253D2DA
:105250008253495A45D28ED29BCD0D537CB7FA2248
:1052600053B5CA2253D5E52A12C07CE60767110060
:105270004C195E23562212C0E1EBC5CD0952C1D1B3
:1052800023C9CD0D53CD26527CB4FA2253C92A002E
:10529000C0D5EB2100EDCD1F52D1C9CDA652DA0702
:1052A000537E23666FC9CD7F4DD640D8C2CA5213F4
:1052B000CD0D5329DA2253D5EBCD8E52CD3B52DAA8
:1052C0002A532100EDCD1F52D1C9FE1B3FD8132117
:1052D00000ED07856F3E008C67C921000044CD7F3B
:1052E0004DFE30D8FE3AD03EF0A4C2225304C5444D
:1052F0004D292909291A13E60F856F3E008C67C1D5
:105300001AFA2253C3E152CDDA5278B7C0CD6B4DB1
:105310002809CD0E51CD6B4D2901C9D5116053C35C
:105320002D53D5115B53C32D53D511665397CDA57E
:1053300053D11AF597122A02C0E57E23B6D1CA27A7
:105340004C7EB7FA3550CD684F1BF1123E3FCDB5BC
:105350005397CDA553C3274C4F4B0D484F573F0D87
:10536000574841543F0D534F5252590D50414C4FE5
:1053700020414C544F2054494E59204241534943F7
:105380000D504F525441424C45205A38302056451A
:105390005253494F4E0D5342435A383020454449E9
:1053A00054494F4E0D471A13B8C8CDB553FE0DC220
:1053B000A653C93E0DCFFE0DC03E0ACDB5533E0DDE
:1053C000C9DFC8D7FE1BC0C3274CFE61D8FE7BD007
:1053D000E6DFC9FFFFFFFFFFFFFFFFFFFFFFFFFF4C
:1053E000FFFFFFFFFFFFFFFFFFFFFFFFFFFFFFFFCD
:1053F000FFFFFFFFFFFFFFFFFFFFFFFFFFFFFFFFBD
:10540000C39E5AC35054C3955AC3D35AC3D55AC323
:10541000BC55C3A856C3B756C3D456C33A57C339AD
:1054200058C34558C36258C39158C38D59C3BA591C
:10543000C3D159C35B5AC3665AC3675AC38B5A2137
:1054400000C1227EC02250C036FF21B65ACDBC55C5
:1054500021BFEE2258C03100C121C4C02288C02122
:10546000AD5ACDBC55CDDB58D2B4542242C0CD3E4E
:1054700056CA9154CDF054FA91542242C023237E4F
:10548000FE20C29754CD2556C29D54237EA7C377D4
:1054900054CD8B5AC35654CD0555C377542A42C0B8
:1054A0002272C0CDF654FA91540E72CD9B55CA7437
:1054B00054C37D542274C0EB224AC0EB7EFE2FC23F
:1054C0000B55CDF054CD8B5A7EA7FA5654CDD354FC
:1054D000C3C5542242C056235EE50E05CDD159E125
:1054E00023C3BC552A42C023237EB7C2E85423C934
:1054F0002A7EC02242C07EA7F8EB2A4AC0EB237E58
:10550000932B7E9AD0CDE454C3F3542A4AC07AA791
:10551000FA9154B3CAC2542A50C07E3CC29154CDB1
:10552000F054FA4A5546236E600E4ACD9B55C24A46
:1055300055CDE454EB2A42C0EB0E50CD9B557E1264
:105540002313C23955EB2B2250C02A74C01E037E90
:10555000B7CA95551C237EB7C25455572A50C01957
:10556000E5EB2A58C0CD3958D291542A50C0EBE10E
:105570002250C0EB232B7E121B0E42CD9B55C275D1
:1055800055EB2A4AC0EB722373EB2A74C07E2313B7
:1055900012B7C28D553100C1C3655406C00ABDC0E3
:1055A000030ABCC92187C03600E5210A00CD9958FD
:1055B0007DC630E12B777BB2C2A955C9AF477E23A8
:1055C000B8CACA55CD0954C3BE55CD0C54D0CDD19F
:1055D0005AFE1BCA9154FE20C0C3D15AFE20CA25D0
:1055E000565797324AC0324BC0237E2B5FE6DF7A94
:1055F000C21156FE5DC2FE55CD2E59C33B56FE402C
:10560000C21156232246C097110000CD4456C33B19
:1056100056FE22C21D5623CDBD55C33E56FE2FC297
:105620002956CD8B5A23C33E562272C0CD6156CD2A
:10563000FE58CDCA552A4AC07CB5C02A46C07EA7AE
:10564000C2DC55C9EB226AC0EBCD5859216AC0C3F0
:105650006159D523CD6D56CD4456D1C93E3DC328A1
:105660005A7E23E6DFCA5C56FE1DC26156CD8F56B8
:105670007EE6DFCA8956FE09CA8D56FE0CCA52560E
:10568000CDB1572A5AC0C370562246C0C923C9CDCE
:10569000DE58D0FE2DC29F5623CD8F56C39158FEA3
:1056A0002BC2AE5623CD8F567AA7FA9158C9FE2346
:1056B000C2BC5623CD8F567AA7C3D357FE25C2CB83
:1056C0005623CD8F56EB2A4EC0EBC9FE27C2F256A9
:1056D00023CD8F56E5D52A52C011093DCD4558132B
:1056E000EB2252C0EBE15A1600CD45585A1600E1A4
:1056F00013C9FE22C2FE561600235E2323C9FE24D0
:10570000C235571600CD1057DA2657CD06545FC95B
:10571000237ED630DA2457FE0AD8D607FE0ADA24CA
:1057200057FE10C93FC95FCD1057D0EB2929292951
:10573000EB83C32657FE3FC24457E5CDE15ACD6DFA
:1057400056E123C9FE28C24D5723C36D56CD975746
:10575000FE3ACA5E57CD78575E2356C36457CD686C
:105760005716005E2A70C0C9CD86573A76C0835F4F
:105770003A77C08A57C3AA57FE28C2A157CD865789
:10578000EB29EBC36B57CDA1574E2366692276C038
:105790002A70C023C36D565E237EFE4157F2985790
:1057A000C916C07BE63FC602875F2270C0EB7CB59E
:1057B000C9D556235ED57BD63DCAC0573DC2C15719
:1057C00023CD8F56225AC0EBD17AFE3DC2E157D18C
:1057D000CD3958C204587BB7C20458110100F6FFF6
:1057E000C9FE3CC20A587BFE3DD1CAF857FE3EC2F4
:1057F000FE57CDD057C32558CD1C58C32558CD3999
:1058000058FADB57110000E600C9FE3EC22A587B59
:10581000FE3DD1C21C58CDFE57C32558CD3958FA8C
:105820000458CDD3577BEE015FC9D1FE2BC234584B
:10583000EB19EBC9FE2DC240587B955F7A9C57C986
:10584000FE2AC25D58D50E10110000E3CDC858E302
:10585000D25658EB19EB290DC24B58C1C9FE2FC2C5
:10586000285A06007CB7C27258B5C27B583E2FC377
:10587000285AF27B5804EBCD9158EB7AB7F2845852
:1058800005CD9158CD9958224EC02A68C03E00B827
:10589000C87A2F577B2F5F13C90E000C29D29B5853
:1058A000CDC958E5210000E3CD39583FDAB358EBB4
:1058B00019EBB7E37D176F7C1767E30DCAC558CDA9
:1058C000C858C3A858E1EBC9B77C1F677D1F6FC9D3
:1058D0007EFE3A37F0FE3037F83FC9CD835ACDD03F
:1058E00058D8EB2100001AD6304F060009444D135A
:1058F000EBCDD0583FD0EB29290929C3E6582A72AD
:10590000C0D57EFE40C2495923235ECDA157D1CDDB
:105910003859D5CD3C59E1CDFE57C22959CD2E5924
:1059200006062188C07E9077C906FCC322592E4600
:10593000CD35592E42CD3C59732372C94D2A88C0AA
:105940005E2356232288C069C9FE21C26F59D1EB5C
:10595000224AC0EBCDAD57C82142C0CD6159214686
:10596000C05E23562A88C02B722B732288C0C9FEC2
:105970003BC27F59D1CDAD57C03100C1C39754FE52
:105980003EC28759D1EBE9FE2EC29959D153141565
:10599000C83E20CD0954C38F59FE26C2B459237E78
:1059A0002BFE3DC2B459D1CDAD57C02A7EC0225086
:1059B000C036FFC9FE24C2BE59C17BC30954FE3F95
