:0400000081EF00F09C
:100008008740874087408740400045404000874000
:1000180087408740874087408740874087408740A0
:100028008740400040004000874087408740874025
:100038008740874087408740874087408740874080
:10004800874087408740874040004000874087407E
:1000580087408740874040008740874087408740E7
:100068008740874087408740874087408740874050
:1000780087408740874087404000874087408740C7
:100088008740874087408740874087408740874030
:1000980087408740874087404000874040004000B5
:1000A8008740874087408740874087408740874010
:1000B8008740874087408740874087408740874000
:1000C80087408740874087408740874087408740F0
:1000D80087408740874087408740874087408740E0
:1000E8004000874087408740400040004000400073
:0E00F8008740874087408740FF00F6EF80F08A
:10BFFE0000C34000C39E180000C3281F00000000AD
:10C00E0000C3171F0000000000C3221F0000000025
:10C01E0000C900000000000000C900000000000080
:10C02E0000C354180000000000C3E2180000000016
:10C03E0000F331008F21008022208F22278F2225AE
:10C04E008F3E4932298FAF212C8F061A772310FC91
:10C05E0021C08E22408F21008022428F06083E2E64
:10C06E00216B8F772310FCAF77061421578FAF7794
:10C07E002310FC3E4932518F3E4E32508F2E0065BA
:10C08E0022528FAF32568F21008022598F225D8F20
:10C09E0022618F22658F22698F7E32588F325C8F9C
:10C0AE0032608F32648F32688F21801CCD48172109
:10C0BE00BF1CCD4817CDA817CD0218B728F1FE44E6
:10C0CE00CA6006FE47CA4713FE53CA0E14FE4CCA78
:10C0DE008414FE50CA5E15FE52CA3616FE23CA0ED0
:10C0EE0001FE42CA2202FE54CAD702FE3F28082190
:10C0FE00DC1CCD481718B821D51ACD481718B02317
:10C10E00CD0218B728E9FE4C2825CDB60138E079C6
:10C11E00FE11D2FE00B7CAFE003D1716005F215C6D
:10C12E0001195E2356EB5E23567AB328C2EBE92142
:10C13E005C015E235623D5DDE1DD7E00DDB60128F0
:10C14E00091313EBCD4817EB18E8C3BE007C01981A
:10C15E0001B401B401B401B401B401B401B401B429
:10C16E0001B401B401B401B401B401B40100203131
:10C17E002E204241534943342E376220436F6C6464
:10C18E002053746172740D0A000320322E20424136
:10C19E00534943342E3762205761726D20537461B8
:10C1AE0072740D0A000000AF474FCD0218B7C8CD0C
:10C1BE00D401D8F508F1CDE301D80816005FCDFA09
:10C1CE0001D82318E5B7280AFE30D8FE3A3003D638
:10C1DE0030C937C9C5CB21CB10CB21CB10CB21CB4E
:10C1EE0010D1D8CDFA01D8CDFA01C9E5D5E109E5CE
:10C1FE00C1E1C93A5F8FB728082A618F3E31CDBDA4
:10C20E00023A638FB7CABE002A658F3E32CDBD0299
:10C21E00C3BE0023CD0218B728D9015F8FFE312887
:10C22E000E01638FFE322807FE43283EC3FE000830
:10C23E0023CD0218B7285AFE2CC2FE0023CD0218B9
:10C24E00C5CD1218E1DAFE00CD6002DAFE00C3BEE3
:10C25E00007AFE80DA7702FEE0D277023E01772383
:10C26E001A7723732372B7C937C923CD0218B7289B
:10C27E0014015F8FFE31280801638FFE32C2FE006B
:10C28E00AF02C3BE00AF015F8F0201638F02C3BE58
:10C29E00000AB7CABE00082A618FFE3128032A653C
:10C2AE008FCDBD02C3BE0042502800293A00E5F5ED
:10C2BE0021B602CD4817F1CD281F21BA02CD48175D
:10C2CE00E1CD5117CD9117C9E52E00260022528FD0
:10C2DE002A428F22548FAF32568FE123CD0218CDD2
:10C2EE001218D29D03CD02187EB7CAC603FE2CCA01
:10C2FE00AE03FE50284EFE4DC2FE0023CD02182185
:10C30E004503FE492810214B03FE532809B7C2FEF0
:10C31E00003A518F18E932518FE5213603CD481777
:10C32E00E1CD4817C3BE00544D206D6F64653A3C95
:10C33E0043414C4C2000494E3E0D0A00534B495090
:10C34E003E0D0A0023CD0218B720053A508F18096A
:10C35E00FE4FC2FE0023CD0218219203FE4E280886
:10C36E00219703FE46C2FE0032508FE5218803CD91
:10C37E004817E1CD4817C3BE005450206D6F646559
:10C38E003A20004F4E0D0A004F46460D0A00ED535F
:10C39E00548FCD0218B7281FFE2C2803C3FE00238E
:10C3AE00CD0218B7CAFE00FE2D2811CDB601DAFE59
:10C3BE0000ED43528F181B01010018F523CD021812
:10C3CE00FE31C2FE0023CD0218B7C2FE003E01327E
:10C3DE00568F2A548F7E010800217E05EDB1201361
:10C3EE000E01CD4705DA06050E02CD2705DA060544
:10C3FE00C30305010500218605EDB120190E012AA2
:10C40E00548FCD1A05CD5405DA06050E02CD2C0536
:10C41E00DA0605C30305010800218B05EDB12004E2
:10C42E000E011813010800219305EDB1201A0E011B
:10C43E003A518FFE532808CD3B05DA06050E02CD84
:10C44E003105DA0605C30305FEC9200B0E01CD47E3
:10C45E0005DA0605C30305010800219B05EDB12091
:10C46E000B0E01CD2705DA0605C30305FEED2013DD
:10C47E00237EFE452804FE4D20090E01CD470538CA
:10C48E007618712A548F7EFEE9200C2A328F0E0107
:10C49E00CD54053862185DFEDD200B237EFEE920AB
:10C4AE00052A3C8F18E82A548F7EFEFD200B237E32
:10C4BE00FEE920052A3E8F18D52A548F7EFE1820BD
:10C4CE000C0E01CD1A05CD5405382C1827FEC320AD
:10C4DE00090E01CD3B05381F181AFECDC2A3050E5D
:10C4EE00013A518FFE532807CD3B05380A1805CD6A
:10C4FE0031053803C38A13211005CD4817C3BE007A
:10C50E00FF416472204552520D0A00235E2316FF2E
:10C51E00CB7B2002160019C92A548F180A2A548F71
:10C52E0018042A548F232323CD5405C92A548F234C
:10C53E005E2356EBCD5405C9ED5B408F1A6F131A6F
:10C54E0067CD5405C97CFE803823FE8F301F79FEDF
:10C55E0001200D11578F1222598F7E32588F180BD2
:10C56E00115B8F12225D8F7E325C8FAFC937C9C0CF
:10C57E00C8D0D8E0E8F0F81020283038C2CAD2DA95
:10C58E00E2EAF2FAC4CCD4DCE4ECF4FCC7CFD7DF99
:10C59E00E7EFF7FF011200213C06EDB1CA170601C5
:10C5AE000800214E06EDB1CA22062A548FFECB2872
:10C5BE0057FEDD280AFEED2828FEFD2802183E2330
:10C5CE007EFECB2859FE212855FE222851FE2A2810
:10C5DE004DFE362849010A00215606EDB1282918CC
:10C5EE0032237EFE432837FE4B2833FE53282FFE80
:10C5FE005B282BFE732827FE7B2823180B0E01CDFC
:10C60E002705DA0605C303050E01CD2C05DA06054E
:10C61E00C303050E01CD3105DA0605C303050E0170
:10C62E002A548F23CD3405DA0605C30305060E16EC
:10C63E001E262E363EC6CEDED6E6EEF6FEDBD30147
:10C64E0011213122322A3A09192939232BE5E1E346
:10C65E00F9237EFE49CA6807CD0218CD1218380696
:10C66E00ED53208F1810E52A208F01800009222219
:10C67E008FE17EB7282BCD02187EFE2C280DB7C277
:10C68E00FE002180001922228F181623CD0218CD0C
:10C69E001218DAFE00CD0218B7C2FE0013ED5322B7
:10C6AE008F2A208F3EF0A56FAF32248FE5CDE206A4
:10C6BE00E101100009CD221F20103A248FFE02380E
:10C6CE00EB2A228F22208FC3BE0022208FCD171F70
:10C6DE00C3BE00CD5117E521E41CCD4817E1DD2185
:10C6EE00008F0610CD1C0710FB21E71CCD4817212B
:10C6FE00008F06107E23FE203809FE7F3005CD28E0
:10C70E001F18053E2ECD281F10EAC391173E20CDCF
:10C71E00281F3A248FB720203A208FBD20063A21B9
:10C72E008FBC280F3E20CD281FCD281FDD7700237C
:10C73E00DD23C93E0132248F3A248FFE0120E57E8F
:10C74E00DD7700CD561723DD233A228FBDC03A2365
:10C75E008FBCC03E0232248FC923CD0218CD1218D1
:10C76E003014CD02187EB7201326002E0A7D3276A5
:10C77E008F22748F1833ED53778F18E6FE2CC2FE7E
:10C78E000023CD0218FE5320123E0132768F23CDA8
:10C79E00B601DAFE00ED43748F180ECD1218DAFED4
:10C7AE0000ED53748FAF32768FCD221F2806CD1732
:10C7BE001FC3BE00CD4708CD0C08217E8FCD481774
:10C7CE003A768FB7200E2A748FED4B778FED42306D
:10C7DE00D8C3BE002A748F2B22748F7CB520CAC397
:10C7EE00BE0022778FD5CD4708CD0C08D1217E8F84
:10C7FE00012A00EDB0ED5B778F3A7D8FC9217E8FD8
:10C80E00ED5B778FCDE70FCD7710CD771006043A1D
:10C81E007D8F4F1A13D55FCDEF0FCD7710D1052831
:10C82E000F0D20EFCD7710CD7710CD77100520F4BA
:10C83E00CD7710ED53778FC93E01327D8F114611A2
:10C84E00CD0B1021998FCD37102A778F7E010D00D9
:10C85E00218A10EDB12012219912CD8D0FC30B102C
:10C86E00E6380F0F0F4F0600C9FE0A2819FE1A28C8
:10C87E0023FE022824FE122829FEF9202A110C1F5D
:10C88E00CD5E10C3311011CB1ED5CD5B10D1CD4571
:10C89E0010C3371011D21E18F011CB1ECD4D10C380
:10C8AE00261011D21E18F5FE40DA4E09FE803028F1
:10C8BE00FE762006114911C30B10CD6F08CD8A0FDD
:10C8CE0021998FCD5E10ED5B778F1AE6074F06002C
:10C8DE00E5CD8A0FE1C33410FE883008CD0810CDA7
:10C8EE005B1018E2FE90300B115211CD0B10CD5B88
:10C8FE001018D3FE983008115611CD0B1018C7FE24
:10C90E00A0300B115A11CD0B10CD5B1018B8FEA82C
:10C91E003008115E11CD0B1018ACFEB0300811624C
:10C92E0011CD0B1018A0FEB83008116611CD0B10EA
:10C93E001894FEC0D2CA09116911CD0B10188701C7
:10C94E000800219710EDB1200EF5116C11CD0B10D2
:10C95E00F1CD6F08C3DF08010800219F10EDB12053
:10C96E000AF5117011CD0B10F118E601040021A784
:10C97E0010EDB1200F116C11CD0B10218912CD814C
:10C98E000FC3371001040021AB10EDB1200F117051
:10C99E0011CD0B10218912CD810FC3371001040068
:10C9AE0021AF10EDB12046CD081011D91ECD5E106D
:10C9BE00E5218912CD8D0FE1C3341001040021B39E
:10C9CE0010EDB1200F117411CD0B10219112CD81EC
:10C9DE000FC3371001040021B710EDB1200F1178ED
:10C9EE0011CD0B10219112CD810FC33710FE0828E7
:10C9FE0017FEE32821FEEB202511D21ECD5E10CDB1
:10CA0E003110117D11C30B10112711CD5E10112A9B
:10CA1E0011CD341018EC110C1FCD4D1018E1FEE99C
:10CA2E00200F113211CD0B1011D91ECD4210C3376C
:10CA3E0010010800217E05EDB1200F112E11CD0B36
:10CA4E0010217112CD810FC33710010800219B05F3
:10CA5E00EDB12017114211CD0B10792FCB27CB271B
:10CA6E00CB27E6385F21998FC3960FF53E02327DB4
:10CA7E008FF1010800213C06EDB12016CD6F08CDD7
:10CA8E008A0FCD5E10ED5B778F131A5FCDD90FC372
:10CA9E003710010A00214406EDB1C2F50AC521B3D3
:10CAAE0012CD8D0FCD0B10C179FE012814B7281AA7
:10CABE00FE073803CD5B10ED5B778F131A5FC396BD
:10CACE000FCD5B10CDE50AC3371021998FCDE50A46
:10CADE00CD8310C32610CD6E10ED5B778F131A5FCA
:10CAEE00CDD90FC37210FE1020051138111807FE94
:10CAFE0018200C113511CD0B1021998FC3BA0F01CF
:10CB0E000400218705EDB12012113511CD0B102136
:10CB1E008112CD810FCD8310C3BA0FF53E03327D46
:10CB2E008FF1010400214E06EDB1C24B0B21C7124D
:10CB3E00CD8D0FCD5E10CD730BC39C0FFE22281230
:10CB4E00FE322814FE2A2826FE3AC28C0BCD5B102C
:10CB5E001822CD6D0BC33110CD6D0BC32610CD73C6
:10CB6E000BC3A20FE52A778F235E2356E1C911D995
:10CB7E001ECD5E10CD730BCDB10FC33710FEC3208B
:10CB8E0008113211CD0B1018ADFECD2008113D113C
:10CB9E00CD0B1018A1010800218B05EDB12011114C
:10CBAE003211CD0B10217112CD810FCD831018864D
:10CBBE00010800219305EDB12005113D1118E32A5E
:10CBCE00778F23F53E02327D8FF1FECBC2940C7E21
:10CBDE0021998FFE08DA1D0CFE10DA260CFE18DAEB
:10CBEE002F0CFE20DA380CFE28DA410CFE30DA4A21
:10CBFE000CFE38DA6E0CFE40DA530CFE80DA5C0C5A
:10CC0E00FEC0DA650CCD740C113C12C30B10CD793D
:10CC1E000C11B711C30B10CD790C11BB11C30B1036
:10CC2E00CD790C11BF11C30B10CD790C11C211C3EC
:10CC3E000B10CD790C11C511C30B10CD790C11C988
:10CC4E0011C30B10CD790C11CD11C30B10CD740C7B
:10CC5E0011D111C30B10CD740C11D511C30B1011C2
:10CC6E004012C30B10F5CD860CF1E6074F0600E51A
:10CC7E00CD8A0FE1C33410E6380F0F0F473E30B0A8
:10CC8E007723C38310FEDDC23A0E11061FED5379D2
:10CC9E008F11E312ED537B8F7EFEE3CAEE0CFEE99D
:10CCAE00CADC0CFEF9CAFD0C010400215606EDB1DA
:10CCBE00CA060D010400215A06EDB1C21B0D21DB7F
:10CCCE0012CD8D0FCD0B1021998FC32B10ED5B79EB
:10CCDE008FD5113211CD0B10D1CD4210C33710119B
:10CCEE007D11CD0B10110C1FCD4D10C32B10110C3F
:10CCFE001FCD5E10C32B10CD0810ED5B798FCD5E6E
:10CD0E0010E52A7B8FCD8D0FE1C33410F53E033233
:10CD1E007D8FF1010E0021BB10EDB1CA5A0DFE86BA
:10CD2E00CA850DFE8ECA900DFE9ECA950D01070096
:10CD3E0021C910EDB1C29A0D21F312CD8D0FCD0B7D
:10CD4E0010ED5B798F21998FC3510F79FE07D27247
:10CD5E000DED5B798FCD480FE5210113CD8D0FE1E0
:10CD6E00C33410D6074F210113CD8D0FCD5E10EDBC
:10CD7E005B798FC3510F114E11CD0B10CD5B101877
:10CD8E00EE11521118F3115A1118EEF53E04327DC0
:10CD9E008FF1FE21CAC00DFE22CACD0DFE2ACAD6C3
:10CDAE000DFE36C2E60DED5B798FCD480F5AC39658
:10CDBE000FED5B798FCD5E10CD760FC39C0FCD76C8
:10CDCE000FCDA20FC32B10ED5B798FCD5E10CD76FC
:10CDDE000FCDB10FC33710FECBC26E0CCD760F7ACE
:10CDEE0001070021D010EDB1C2060E213913CD8DF1
:10CDFE000FCD0B10C3500D01180021D710EDB1C28D
:10CE0E006E0CFE80DA2A0EFEC0DA320E113C12CD06
:10CE1E000B1021998FCD860CC37E0D11D111CD0B28
:10CE2E001018EF11D511CD0B1018E7FEEDC2370F0C
:10CE3E007E01380021EF10EDB1C26E0C79FE06DADC
:10CE4E00180FFE1BDA0A0FFE1EDAF70ECAD70EFEF9
:10CE5E001FCAE00EFE20CAE90EFE21CAF20EFE2601
:10CE6E00DAC60EFE2ADAB00EFE31DA950E11B411C4
:10CE7E00CD0B1079D6314F210113CD8D0FCD5E1014
:10CE8E00114412C3341011B011CD0B10114412CD38
:10CE9E005E1079D62A4FE5210113CD8D0FE1C334F3
:10CEAE0010115A11CD0B1011D91ECD5E1079D62648
:10CEBE004FE521891218E3115211CD0B1011D91E15
:10CECE00CD5E1079D62218E8CD5B1011141FC33435
:10CEDE0010CD5B1011121FC3341011141FCD5E1034
:10CEEE00C3261011121F18F511DD11CD0B103E1DAA
:10CEFE0091C63021998F7723C33710D6064F06007F
:10CF0E00210F13CD8D0FC30B103E04327D8FC579CB
:10CF1E0021CF12CD8D0FC179FE03DADA0DD5CD7684
:10CF2E000FCDA20FD1C3341011091FED53798F11FC
:10CF3E00EB12ED537B8FC3A70C21998FCD570FC3E7
:10CF4E008310CD570FC33710CD6E10CD6610CD7632
:10CF5E000F7BFE80380CED445FCD7F10CDD90FC313
:10CF6E007210CD7B1018F5E52A778F23235E23569A
:10CF7E00E1C9CD8D0F21998FC36610216112CB218E
:10CF8E00CB10095E2356C9CDD90FC33710CDC80FAC
:10CF9E00C3371021998FCD6E10CDC80FCD7210C32F
:10CFAE008310CD6E10CDC80FC37210E52A778FCDCA
:10CFBE001A05EBE1CDC80F186F7AFEA038043E308B
:10CFCE007723CDE70F3E48C374107BFEA038043E96
:10CFDE00307723CDEF0F18ED7ACDF80F7ACDFC0F09
:10CFEE007BCDF80F7BCDFC0FC90F0F0F0FE60FF6A1
:10CFFE0030FE3A3870C607186C114E11F5C506088A
:10D00E0021918F1AB728067723130518F63E20773D
:10D01E00230520FBC1F1C911C91E1809ED5B798FDB
:10D02E00180311D91ECD66103E0D77233E0A7723C5
:10D03E00AF77C921998FCD6E10CD66101825219925
:10D04E008FCD6E10CD6610CD7210182811C91E210D
:10D05E00998FCD6610181D1A77B7C8231318F83E8E
:10D06E002818023E297723C93E2018F93E2B18F5C1
:10D07E003E2D18F13E2CCD741018ED00070F171F22
:10D08E00272F373FC9D9F3FB040C141C242C343C36
:10D09E00050D151D252D353D031323330B1B2B3B82
:10D0AE0009192939C1D1E1F1C5D5E5F5464E565ECE
:10D0BE00666E7E7071727374757796A6AEB6BE3458
:10D0CE0035060E161E262E3E464E565E666E767E33
:10D0DE00868E969EA6AEB6BEC6CED6DEE6EEF6FE22
:10D0EE0040485058606878414951596169794252B7
:10D0FE0062724A5A6A7A474F575F46565E44454DAA
:10D10E00676FA0A1A2A3A8A9AAABB0B1B2B3B8B9D8
:10D11E00BABB4353734B5B7B4146004146270052DB
:10D12E004554004A50004A5200444A4E5A00434168
:10D13E004C4C00525354004C440048414C54004156
:10D14E00444400414443005355420053424300417E
:10D15E004E4400584F52004F5200435000494E4328
:10D16E000044454300504F50005055534800455819
:10D17E0000455858004E4F5000524C4341005252F9
:10D18E00434100524C410052524100444141004340
:10D19E00504C005343460043434600444900454922
:10D1AE00004F555400494E00524C4300525243001A
:10D1BE00524C00525200534C4100535241005352B4
:10D1CE004C0042495400524553004E454700494DCC
:10D1DE000052524400524C44004C444900435049C2
:10D1EE0000494E49004F555449004C4444004350A9
:10D1FE004400494E44004F555444004C444952009B
:10D20E004350495200494E4952004F544952004C26
:10D21E00444452004350445200494E4452004F542D
:10D22E0044520052455449005245544E0053455401
:10D23E00003F3F3F002843290028484C29004E5A02
:10D24E00005A004E43004300504F0050450050001E
:10D25E004D00CE1ED01ED51ED71EDC1EDE1E481261
:10D26E00C91E5F125D125A125712551252125012E7
:10D27E004D125512521250124D120C1FD91ED21EA3
:10D28E00CB1E2711D91ED21ECB1EAD11AA11801195
:10D29E002E11A611A2119E119A11961192118D1195
:10D2AE0088118411B011B4116911661162115E11E9
:10D2BE0056115A1152114E110C1FD91ED21ECB1ED1
:10D2CE000C1FD21ECB1E0C1FD21ECB1E741178113A
:10D2DE0070116C110C1F061FD21ECB1E0C1F091FC6
:10D2EE00D21ECB1E70116C116911661162115E1186
:10D2FE005611C91EDE1EDC1ED71ED51ED01ECE1E1A
:10D30E002D12281223121E12191214120F120A12A3
:10D31E0005120112FD11F911F411F011EC11E811C1
:10D32E00E411E01132123712D911CD11C911C51104
:10D33E00C211BF11BB11B711ED5B428FED534E8F72
:10D34E0023CD0218CD12183003B7280A7AFEE0D288
:10D35E00FE00ED534E8FCD02187EB72818FE2CC25C
:10D36E00FE0023CD0218CD1218DAFE0021678FCDF4
:10D37E006002DAFE002A4E8F22428F3A578FB7286C
:10D38E001A2A548F22428F21578F11598FCD021492
:10D39E00215B8F115D8FCD0214181B215F8F1161E0
:10D3AE008FCD021421638F11658FCD021421678FEB
:10D3BE0011698FCD02142A408FF92A428FE5DD2A9A
:10D3CE003C8FFD2A3E8F2A348FE5ED4B368FED5B79
:10D3DE00388F2A3A8FD9F1082A2C8FE5ED4B2E8FF4
:10D3EE00ED5B308F2A328F3A448FED473A458FED01
:10D3FE004FF1C97EB7C81A4F131A473EFF02C92311
:10D40E00CD0218CD1218DAFE00CD02187EB7C2FE7C
:10D41E000079B72004ED5B278FEBCD5117E521E79F
:10D42E001CCD4817E17EE5CD56173E20CD281FCDE9
:10D43E00A817CD02187EB72007E12322278F18DA0E
:10D44E00FE2D2007E12B22278F18CFFE2E2007E17D
:10D45E0022278FC3BE00CD1218B7E1CAFE00732378
:10D46E0022278FED5B618F1A32608FED5B658F1A0D
:10D47E0032648F18A5AF325F8F32638F23CD0218BF
:10D48E00CD1218CD02187EB7C2FE0079B720031157
:10D49E000000CD171FFE532861FE3A280DFE0D2801
:10D4AE00F1FE0A28EDCD171F18F33E2ECD281FCD05
:10D4BE006D174F47CD6D1767814FCD6D176F814F2C
:10D4CE0019CD6D17322A8F814F78B72814CD6D176D
:10D4DE00F5814F3A2A8FB72005F177231801F11005
:10D4EE00ECCD6D1781200A3A2A8FB7CAB414C3BE89
:10D4FE000021C21CCD4817C3BE00CD171F322A8F84
:10D50E00CD6D17474FCD6D1767814FCD6D176F815D
:10D51E004F190505052815CD6D17F5814F3A2A8F40
:10D52E00FE312005F177231801F110EBCD6D178137
:10D53E00FEFF20123A2A8FFE372811FE38280DFEE4
:10D54E00392809C3B41421CF1CCD4817C3BE0023FC
:10D55E007EFE492804FE5320042332298FCD021863
:10D56E00CD1218B7281CD5DDE1CD02187EFE2C2079
:10D57E001123CD0218CD1218B72807CD02187EB789
:10D58E002803C3FE00DDE5E1EB23B7ED52CDBC155C
:10D59E007CB520F93A298FFE49200921EB1CCD4894
:10D5AE0017C3BE0021F91CCD4817C3BE000E107C58
:10D5BE00B720057DB930014F0600B7ED42413A293B
:10D5CE008FFE4920303E3ACD281F78CD5617487A27
:10D5DE00CD56177A814F7BCD56177B814FAFCD56E7
:10D5EE00171AF5CD5617F1814F1310F579ED44CD7D
:10D5FE005617C391173E53CD281F3E31CD281F78A5
:10D60E00C6034FCD56177ACD56177A814F7BCD561E
:10D61E00177B814F1AF5CD5617F1814F1310F579FF
:10D62E002FCD5617C3911723CD0218B72006CDBCA8
:10D63E0016C3BE00EB21AF1DBE280D4F237EB728AB
:10D64E0069790105000918F0237EFE0F2009234E8B
:10D65E00236669131A18E1B728504E235E2356D558
:10D66E00237E23666FCD48173E3DCD281F79E607F2
:10D67E00FE012008E17EE5CD5617180CE1E5237E6C
:10D68E00CD56172B7ECD56173E20CD281FC5CDA8C3
:10D69E0017CD0218CD1218B7280DC1E179FE012061
:10D6AE0003731803732372C3BE00C3FE0021061D4D
:10D6BE005E2356237AB3CA9117D5EBCD4817EBD11B
:10D6CE003E1DBA20073E71BB200218293E1DBA200E
:10D6DE00053E98BB281F5E2356237E23EBFE0120BA
:10D6EE00077ECD5617EB18C8237ECD56172B7ECD51
:10D6FE005617EB18BB5E2356231AD5E5216B8F0107
:10D70E003817114017F5F1CB273006F50A77F118C7
:10D71E0004F51A77F1031323F57EB720E9F1216B97
:10D72E008FCD4817E1D1231887535A2E482E504ECD
:10D73E00432E2E2E2E2E2E2E2E7EA7C8CD281F2304
:10D74E0018F77CCD56177DF51F1F1F1FCD5F17F1E4
:10D75E00E60FC630FE3ADA281FC607C3281FAFCD24
:10D76E00751707070707C54FCD171FFE303811FE77
:10D77E003A380AFE413809FE473005D607D630B191
:10D78E00C1C93E0DCD281F3E0AC3281FE521A4178F
:10D79E00CD4817E1C91B5B320021008FC5E506009D
:10D7AE00CD171FFE0D2844FE0A2840FE082825FE30
:10D7BE007F2821FE2038E9FE8030E54F78FE1F30AD
:10D7CE00DF0479CD281FFE613806FE7B3002E6DFCE
:10D7DE00772318CC78A728C8052B3E08CD281F3EE6
:10D7EE0020CD281F3E08CD281F18B5CD9117360025
:10D7FE00E1C1C97EFE20C02318F9FE61D8FE7BD0A0
:10D80E00C6E0C90E001100007EFE30382CFE3A38FC
:10D81E000AFE413824FE473020D607D63017171798
:10D82E001717CB13CB1217CB13CB1217CB13CB125D
:10D83E0017CB13CB12230C18CF79B72806FE053061
:10D84E0002B7C937C9E5C521711806000909019B40
:10D85E0018B7E5ED42E1300746236668C1E3C9C15A
:10D86E00E1C99B189E18281F4817171F221FE01882
:10D87E00511756175F179B17AB17021891170918F8
:10D88E001218171A4D1AC31A6D18F107C34000313A
:10D89E00008F3A678FB7280621688FCDCF193A5778
:10D8AE008FB7280621588FCDCF193A5B8FB7280630
:10D8BE00215C8FCDCF193A638FB7280621648FCDA7
:10D8CE00DB193A5F8FB7280621608FCDDB19C3A510
:10D8DE0019AFC9F5ED5F32458FED5732448F2232C5
:10D8EE008FED53308FED432E8FE1222C8F08F5D91B
:10D8FE00223A8FED53388FED43368FE122348FDD90
:10D90E00223C8FFD223E8FE12B22428FED73408F02
:10D91E0031008FAF575F3A678FB7280911051A216B
:10D92E00688FCDCF193A638FB7280911051A216474
:10D93E008FCDDB193A5F8FB7280911051A21608F39
:10D94E00CDDB193A578FB72809110E1A21588FCDF2
:10D95E00CF193A5B8FB72809110E1A215C8FCDCFE4
:10D96E00197AB3200311FB191AFE54280CEBCD487B
:10D97E0017CDBC16CDE219181D3A508FFE46280A57
:10D98E00EBCD4817CDBC16CDE219CD221F2813CDF5
:10D99E00171FFE03200CAF32568F676F22528FC3B4
:10D9AE00BE003A568FB7C2C6192A528F2B22528FFB
:10D9BE007DB42003C3BE002A428F22548FC3E103DD
:10D9CE00E57E234E234602E1AF2B77C97E234E23FD
:10D9DE004602C92A428F22778FCD4708CD0C0821E7
:10D9EE007E8FCD48172A428F22778FC952535420EB
:10D9FE003338480D0A00427265616B210D0A0054DE
:10DA0E0072616365210D0A00F5C5D5E5DDE5E5DD3D
:10DA1E00E1EBE521050019AF77EBE10101003E0ACC
:10DA2E00CD4D1AF6301B120C7CB520F279FE06286D
:10DA3E0006DDE5E1EBEDB0DDE1E1D1C1F1C9C5D522
:10DA4E004F060FAF291791380D292C1791380C2935
:10DA5E002C10F8C36E1A29178138F42910F981D1C8
:10DA6E00C1C922468FED53488FAF324A8F324B8F4A
:10DA7E00324C8F324D8F0610214A8FCB2623CB1678
:10DA8E0021468FCB2623CB16214C8FCB1623CB16BC
:10DA9E002A488F5D542A4C8FAFED523002180B225C
:10DAAE004C8F3A4A8FF601324A8F10CC2A4A8FEDAC
:10DABE005B4C8FC9F5C5B71804CB21CB101F30F9BD
:10DACE000920F6C1F1C93F203A436F6D6D616E6456
:10DADE002048656C700D0A445B3C6164723E5D20AB
:10DAEE003A44756D70204D656D6F72790D0A535BFA
:10DAFE003C6164723E5D203A536574204D656D6FD6
:10DB0E0072790D0A525B3C7265673E5D203A536531
:10DB1E0074206F722044756D70207265676973741E
:10DB2E0065720D0A475B3C6164723E5D5B2C3C7313
:10DB3E00746F70206164723E5D203A476F20616E93
:10DB4E00642053746F700D0A4C203A4C6F61642040
:10DB5E0048657846696C650D0A505B497C535D20BB
:10DB6E003A536176652048657846696C6528493A6E
:10DB7E00496E74656C2C533A4D6F746F726F6C6195
:10DB8E00290D0A234C7C3C6E756D3E203A4C617516
:10DB9E006E63682070726F6772616D0D0A425B3141
:10DBAE007C325B2C3C6164723E5D5D203A53657441
:10DBBE00206F72204C69737420427265616B205025
:10DBCE006F696E740D0A42435B317C325D203A43BD
:10DBDE006C65617220427265616B20506F696E7464
:10DBEE000D0A545B3C6164723E5D5B2C3C73746544
:10DBFE0070733E7C2D315D203A2054726163652036
:10DC0E00636F6D6D616E640D0A54505B4F4E7C4FA9
:10DC1E0046465D203A5472616365205072696E7497
:10DC2E00204D6F64650D0A544D5B497C535D203A5F
:10DC3E005472616365204F7074696F6E20666F72E7
:10DC4E002043414C4C0D0A44495B3C6164723E5D7D
:10DC5E005B2C733C73746570733E7C3C6164723EE6
:10DC6E005D203A446973617373656D626C650D0A6C
:10DC7E00000D0A454D555A3830204D4F4E49544FE0
:10DC8E0052205265762E4230322E320D0A54686979
:10DC9E0073206D6F6E69746F722069732062617389
:10DCAE006564206F6E20756E696D6F6E2E0D0A00A5
:10DCBE005D20004572726F7220696865780D0A00EA
:10DCCE004572726F7220737265630D0A004572722F
:10DCDE006F720D0A00203A00203A20003A303030A0
:10DCEE00303030303146460D0A0053393033303043
:10DCFE00303046430D0A005B1D2D8F015F1D2E8FA8
:10DD0E0002651D308F026B1D328F02711D2C8F012B
:10DD1E00761D3C8F027B1D3E8F02801D358F018646
:10DD2E001D368F028C1D388F02921D3A8F02981D60
:10DD3E00348F019D1D408F02A21D428F02A71D44EC
:10DD4E008F01AB1D458F01000000000041203D00FA
:10DD5E00204243203D00204445203D0020484C20D9
:10DD6E003D002046203D002049583D002049593DA8
:10DD7E00000D0A41273D00204243273D0020444527
:10DD8E00273D0020484C273D002046273D002053CC
:10DD9E00503D002050433D0020493D0020523D00A3
:10DDAE00410FF91D0000420F071E0000430F291EF0
:10DDBE000000440F371E0000450F591E0000460F8D
:10DDCE00671E0000480F751E0000490FA51E0000BB
:10DDDE004C0F971E0000500FB91E00005201458FC8
:10DDEE00141F530FC11E0000000000012D8FC91E0D
:10DDFE002701358FE21E000000012F8FCE1E270156
:10DE0E00378FE91E430F1B1E0000000000022E8FED
:10DE1E00CB1E2702368FE51E000000012E8FD01E6E
:10DE2E002701368FEC1E00000001318FD51E270111
:10DE3E00398FF31E450F4B1E000000000002308F7D
:10DE4E00D21E2702388FEF1E00000001308FD71E22
:10DE5E002701388FF61E000000012C8FE01E2701CF
:10DE6E00348F031F00000001338FDC1E27013B8F10
:10DE7E00FD1E4C0F891E000000000002328FD91EBD
:10DE8E0027023A8FF91E00000001328FDE1E270195
:10DE9E003A8F001F00000001448F121F58023C8F62
:10DEAE00061F59023E8F091F00004302428F0F1FAB
:10DEBE0000005002408F0C1F000041004243004200
:10DECE0000430044450044004500484C0048004CC7
:10DEDE000046004127004243270042270043270007
:10DEEE0044452700442700452700484C2700482773
:10DEFE00004C27004627004958004959005350004E
:10DF0E0050430049005200C93A01E0CB4728F93A84
:10DF1E0000E0C93A01E0CB47C9F53A01E0CB4F2802
:10DF2E00F9F13200E0C9FFFFFFFFFFFFFFFFFFFF28
:10DF3E00FFFFFFFFFFFFFFFFFFFFFFFFFFFFFFFFE3
:10DF4E00FFFFFFFFFFFFFFFFFFFFFFFFFFFFFFFFD3
:10DF5E00FFFFFFFFFFFFFFFFFFFFFFFFFFFFFFFFC3
:10DF6E00FFFFFFFFFFFFFFFFFFFFFFFFFFFFFFFFB3
:10DF7E00FFFFFFFFFFFFFFFFFFFFFFFFFFFFFFFFA3
:10DF8E00FFFFFFFFFFFFFFFFFFFFFFFFFFFFFFFF93
:10DF9E00FFFFFFFFFFFFFFFFFFFFFFFFFFFFFFFF83
:10DFAE00FFFFFFFFFFFFFFFFFFFFFFFFFFFFFFFF73
:10DFBE00FFFFFFFFFFFFFFFFFFFFFFFFFFFFFFFF63
:10DFCE00FFFFFFFFFFFFFFFFFFFFFFFFFFFFFFFF53
:10DFDE00FFFFFFFFFFFFFFFFFFFFFFFFFFFFFFFF43
:10DFEE00FFFFFFFFFFFFFFFFFFFFFFFFFFFFFFFF33
:10DFFE00FFC30620C36B20C30D20AC282230214561
:10E00E0080F9C3373C11D52206632145801A772348
:10E01E001305C21C20F9CDD624CDA22A32EF8032B0
:10E02E003E8121C08E11A181CD6C26DA742011CED5
:10E03E00FF22F48019229F80CDB1242A9F8011EFF8
:10E04E00FF19113E817D936F7C9A67E5218C20CD5F
:10E05E004031E1CDE337217D20CD403131AB80CD54
:10E06E00D624C3EF2321C320CD4031C37A202042D2
:10E07E007974657320667265650D0A00005A383032
:10E08E002042415349432056657220342E37620D8B
:10E09E000A436F70797269676874202843292031AA
:10E0AE00393738206279204D6963726F736F6674E9
:10E0BE000D0A00004D656D6F72792073697A6520C7
:10E0CE006E6F7420656E6F7567680D0A54686520F3
:10E0DE0073797374656D2069732073746F707065D6
:10E0EE00642E0D0A000058361C376E3648800030FC
:10E0FE0085332E30E238C139FD343039363A3C3A68
:10E10E009D3AB23AD9331C3B9680B232CA304C3368
:10E11E00C132D2323E3BD13BE23212331C33C54EBA
:10E12E0044C64F52CE455854C4415441C94E505521
:10E13E0054C4494DD2454144CC4554C74F544FD297
:10E14E00554EC946D24553544F5245C74F5355426B
:10E15E00D2455455524ED2454DD3544F50CF5554AF
:10E16E00CF4ECE554C4CD7414954C44546D04F4B5B
:10E17E0045C44F4B45D3435245454ECC494E45536E
:10E18E00C34C53D749445448CD4F4E49544F52D3A4
:10E19E004554D245534554D052494E54C34F4E5414
:10E1AE00CC495354C34C454152C34C4F4144C353C5
:10E1BE00415645CE4557D4414228D44FC64ED35032
:10E1CE004328D448454ECE4F54D3544550ABADAAF8
:10E1DE00AFDEC14E44CF52BEBDBCD3474EC94E5426
:10E1EE00C14253D55352C65245C94E50D04F53D348
:10E1FE005152D24E44CC4F47C55850C34F53D349BA
:10E20E004ED4414EC1544ED045454BC445454BD0DE
:10E21E004F494E54CC454ED3545224D6414CC15343
:10E22E0043C3485224C8455824C2494E24CC4546BF
:10E23E005424D24947485424CD494424804428418B
:10E24E00271C2C9129232B582E522BA8294E2931CD
:10E25E0029202A0A283D296C299329422891330224
:10E26E002A832897333630E033273B93290D3B0121
:10E27E003B053B333C99809C80442A7028B626EBA4
:10E28E002893299329B02479CA3779FE337C3C35FB
:10E29E007C9D357FEB3850B12D46B02D4E46534EFA
:10E2AE0052474F4446434F564F4D554C42534444AC
:10E2BE002F304944544D4F534C535354434E5546AF
:10E2CE004D4F4858424EC36B20C3C128D300C9D608
:10E2DE00006F7CDE006778DE00473E00C90000005C
:10E2EE00354ACA99391C76982295B3980ADD479813
:10E2FE0053D199990A1A9F9865BCCD98D6773E98B6
:10E30E0052C74F80DB00C901FF1C0000140014002F
:10E31E0000000000C3E925C30000C30000C30000D5
:10E32E00A281FEFF3F81204572726F720020696EDE
:10E33E0020004F6B0D0A0000427265616B002104D4
:10E34E0000397E23FE81C04E234623E569607AB3F1
:10E35E00EBCA6723EBCD6C26010D00E1C809C35152
:10E36E0023CD8A23C5E3C1CD6C267E02C80B2BC3F9
:10E37E007623E52A1F81060009093EE53ED0956FFA
:10E38E003EFF9CDA99236739E1D81E0CC3B8232AC5
:10E39E000E8122A1801E02011E14011E00011E12FA
:10E3AE00011E22011E0A011E18CDD624328A80CDEE
:10E3BE00952A21AB22573E3FCD7D26197ECD7D2657
:10E3CE00CDFA27CD7D26213523CD40312AA18011CE
:10E3DE00FEFFCD6C26CA0D207CA53CC4DB373EC1AA
:10E3EE00AF328A80CD952A214123CD403121FFFFC6
:10E3FE0022A180CDE925DAFC23CDFA273C3DCAFCCB
:10E40E0023F5CDC628D5CD002547D1F1D2DA27D5B3
:10E41E00C5AF321181CDFA27B7F5CD9024DA352468
:10E42E00F1F5CA6729B7C5D24C24EB2A1B811A0213
:10E43E000313CD6C26C23D246069221B81D1F1CA23
:10E44E0073242A1B81E3C109E5CD7023E1221B81D0
:10E45E00EB74D123237323722311A6801A7723130F
:10E46E00B7C26B24CDBC2423EB626B7E23B6CAFCF1
:10E47E0023232323AFBE23C28424EB732372C378DA
:10E48E00242AA380444D7E23B62BC823237E2366E5
:10E49E006FCD6C2660697E23666F3FC83FD0C393F5
:10E4AE0024C02AA380AF77237723221B812AA3803F
:10E4BE002B2213812AF480220881AFCD0A282A1B31
:10E4CE0081221D81221F81C12A9F80F921F880227D
:10E4DE00F680AF6F67221981321081222381E5C544
:10E4EE002A1381C93E3FCD7D263E20CD7D26C39386
:10E4FE0080AF32F3800E0511A6807EFE20CA8825DD
:10E50E0047FE22CAA825B7CAAF253AF380B77EC206
:10E51E008825FE3F3E9ECA88257EFE30DA3325FED4
:10E52E003CDA8825D5112C21C5018425C5067F7EB0
:10E53E00FE61DA4C25FE7BD24C25E65F774EEB234F
:10E54E00B6F24E25047EE67FC8B9C24E25EBE51322
:10E55E001AB7FA80254F78FE88C26F25CDFA272B81
:10E56E00237EFE61DA7825E65FB9CA5E25E1C34CEB
:10E57E002548F1EBC9EB79C1D12312130CD63ACA57
:10E58E009625FE49C2992532F380D654C2092547F5
:10E59E007EB7CAAF25B8CA882523120C13C39F2590
:10E5AE0021A5801213121312C93A8980B73E003288
:10E5BE008980C2CC2505CAE925CD7D263E052BCA0C
:10E5CE00E0257ECD7D26C3F225052BCD7D26C2F21C
:10E5DE0025CD7D26CDA22AC3E92521A6800601AF31
:10E5EE00328980CDA5264FFE7FCAB8253A8980B7DD
:10E5FE00CA0B263E00CD7D26AF32898079FE07CA32
:10E60E004F26FE03CCA22A37C8FE0DCA9D2AFE1540
:10E61E00CAE325FE40CAE025FE5FCAD825FE08CA19
:10E62E00D825FE12C24A26C5D5E53600CD463C2178
:10E63E00A680CD4031E1D1C1C3F225FE20DAF2250C
:10E64E0078FE493E07D2642679713211812304CDBA
:10E65E007D26C3F225CD7D263E08C35E267C92C064
:10E66E007D93C97EE3BE23E3CAFA27C3A423F53AFA
:10E67E008A80B7C27531F1C5F5FE20DAA1263A8738
:10E68E0080473AF08004CA9D2605B8CCA22A3C32B7
:10E69E00F080F1C1CFC9CDFF3AE67FFE0FC03A8AB6
:10E6AE00802F328A80AFC9CDC628C0C1CD9024C577
:10E6BE00CD0C27E14E23462378B1CAEF23CD152783
:10E6CE00CD2528C5CDA22A5E235623E5EBCDE33713
:10E6DE003E20E1CD7D267EB723CAC226F2E226D6A3
:10E6EE007F4F112D211A13B7F2F4260DC2F426E630
:10E6FE007FCD7D261A13B7F2FE26C3E526E52A8DB9
:10E70E0080228B80E1C9E5D52A8B8011FFFFED5A5F
:10E71E00228B80D1E1F0E52A8D80228B80CDFF3ACD
:10E72E00FE03CA3827E1C315272A8D80228B80C3AA
:10E73E006E203E64321081CDA829C1E5CD912922EB
:10E74E000C8121020039CD5123D1C2712709D52B5D
:10E75E00562B5E2323E52A0C81CD6C26E1C255276C
:10E76E00D1F9EB0E08CD8123E52A0C81E3E52AA130
:10E77E0080E3CD6A2CCD7226A6CD672CE5CD9536DD
:10E78E00E1C5D5010081515A7EFEAB3E01C2AD27D7
:10E79E00CDFA27CD672CE5CD9536CD4936E1C5D5D9
:10E7AE00F533E52A1381E30681C533CD25282213DF
:10E7BE00817EFE3ACADA27B7C2A423237E23B6CAC5
:10E7CE004C28235E2356EB22A180EBCDFA2711BAFB
:10E7DE0027D5C8D680DAA829FE25D2A423074F064E
:10E7EE0000EB214C22094E2346C5EB237EFE3AD088
:10E7FE00FE20CAFA27FE303F3C3DC9EB2AA380CA51
:10E80E001F28EBCDC628E5CD90246069D1D26729AB
:10E81E002B222181EBC9DFC8D7FE1B2811FE03284E
:10E82E000DFE13C0D7FE11C8FE03280718F63EFFD3
:10E83E00329280C0F6C022138121F6FFC12AA18038
:10E84E00F57DA43CCA5F282217812A1381221981E3
:10E85E00AF328A80CD952AF1214723C2D823C3EF48
:10E86E00232A19817CB51E20CAB823EB2A178122D0
:10E87E00A180EBC9CDC833C0328680C9E52A8F800E
:10E88E0006004F09228F80E1C97EFE41D8FE5B3F14
:10E89E00C9CDFA27CD672CCD4936FAC1283A2C813D
:10E8AE00FE90DAF136018090110000E5CDC436E11C
:10E8BE0051C81E08C3B8232B110000CDFA27D0E58E
:10E8CE00F5219819CD6C26DAA423626B1929192922
:10E8DE00F1D6305F160019EBE1C3CA28CAC024CDA9
:10E8EE00A3282BCDFA27E52AF480CA0E29E1CD7292
:10E8FE00262CD5CDA3282BCDFA27C2A423E3EB7D5E
:10E90E00935F7C9A57DA9923E52A1B810128000927
:10E91E00CD6C26D29923EB229F80E122F480E1C3B5
:10E92E00C024CABC24CDC02401BA27C34D290E036E
:10E93E00CD8123C1E5E52AA180E33E8CF533C5CD1B
:10E94E00C628CD9329E52AA180CD6C26E123DC9340
:10E95E0024D4902460692BD81E0EC3B823C016FF92
:10E96E00CD4D23F9FE8C1E04C2B823E122A18023D3
:10E97E007CB5C28B293A1181B7C2EE2321BA27E3A7
:10E98E003EE1013A0E0006007948477EB7C8B8C886
:10E99E0023FE22CA9729C39A29CD5D2ECD7226B4A5
:10E9AE00D53AF280F5CD792CF1E32213811FCD6C8F
:10E9BE002CCAFB29E52A2981E523235E23562AA3A7
:10E9CE0080CD6C26D2EA292A9F80CD6C26D1D2F238
:10E9DE0029210481CD6C26D2F2293ED1CDA132EB74
:10E9EE00CDDA30CDA132E1CDA436E1C9E5CDA136E7
:10E9FE00D1E1C9CDC8337E47FE8CCA112ACD72260D
:10EA0E00882B4B0D78CAE227CDC728FE2CC0C31227
:10EA1E002ACD792C7EFE88CA2E2ACD7226A92BCD20
:10EA2E006A2CCD4936CA9329CDFA27DA4E29C3E18D
:10EA3E00272BCDFA27CAA22AC8FEA5CAD52AFEA818
:10EA4E00CAD52AE5FE2CCABE2AFE3BCAF82AC1CD7B
:10EA5E00792CE53AF280B7C28E2ACDEE37CDFE3054
:10EA6E0036202A2981342A29813A87804704CA8A86
:10EA7E002A043AF080863DB8D4A22ACD4331AFC4E1
:10EA8E004331E1C3402A3AF080B7C8C3A22A360008
:10EA9E0021A5803E0DCD7D263E0ACD7D26AF32F0DE
:10EAAE00803A86803DC8F5AFCD7D26F1C3B32A3AB4
:10EABE008880473AF080B8D4A22AD2F82AD60ED24D
:10EACE00CC2A2FC3ED2AF5CDC533CD7226292BF1D5
:10EADE00D6A8E5CAE82A3AF0802F83D2F82A3C4716
:10EAEE003E20CD7D2605C2F12AE1CDFA27C3472A65
:10EAFE003F5265646F2066726F6D2073746172741D
:10EB0E000D0A003A1281B7C29E23C121FF2ACD40C1
:10EB1E0031C3EF24CDAB307EFE223E00328A80C25E
:10EB2E003D2BCDFF30CD72263BE5CD43313EE5CDBD
:10EB3E00F324C1DA4928237EB72BC5CA9029362C77
:10EB4E00C3572BE52A2181F6AF321281E3C3632B23
:10EB5E00CD72262CCD5D2EE3D57EFE2CCA8B2B3AA4
:10EB6E001281B7C2F82B3E3FCD7D26CDF324D1C105
:10EB7E00DA4928237EB72BC5CA9029D53AF280B739
:10EB8E00CAB52BCDFA275747FE22CAA92B3A1281B6
:10EB9E00B757CAA62B163A062C2BCD0231EB21C045
:10EBAE002BE3D5C3C329CDFA27CD5037E3CDA136FC
:10EBBE00E12BCDFA27CACC2BFE2CC2122BE32BCD88
:10EBCE00FA27C25F2BD13A1281B7EBC22028D5B6F5
:10EBDE0021E72BC44031E1C93F4578747261206949
:10EBEE00676E6F7265640D0A00CD9129B7C2112C44
:10EBFE00237E23B61E06CAB823235E2356EB220EAF
:10EC0E0081EBCDFA27FE83C2F82BC38B2B110000AC
:10EC1E00C45D2E221381CD4D23C2AA23F9D57E23A6
:10EC2E00F5D5CD8736E3E5CDF433E1CDA136E1CD93
:10EC3E009836E5CDC436E1C190CD9836CA572CEB47
:10EC4E0022A1806960C3B627F92A13817EFE2CC2E9
:10EC5E00BA27CDFA27CD1F2CCD792CF6373AF28074
:10EC6E008FB7E8C3B623CD7226282B1600D50E011A
:10EC7E00CD8123CDF02C2215812A1581C178FE7805
:10EC8E00D46A2C7E1600D6B3DAB12CFE03D2B12C88
:10EC9E00FE0117AABA57DAA423220A81CDFA27C396
:10ECAE00952C7AB7C2D82D7E220A81D6ACD8FE0713
:10ECBE00D05F3AF2803DB37BCA363207835F21962E
:10ECCE0022197856BAD023CD6A2CC501882CC5439B
:10ECDE004ACD7A3658514E234623C52A0A81C37C23
:10ECEE002CAF32F280CDFA271E24CAB823DA503761
:10ECFE00CD9828D2572DFE262012CDFA27FE48CACF
:10ED0E00933BFE42CA033C1E02CAB823FEACCAF0B5
:10ED1E002CFE2ECA5037FEADCA462DFE22CAFF303B
:10ED2E00FEAACA382EFEA7CA6330D6B6D2682DCD3B
:10ED3E00752CCD722629C9167DCD7C2C2A1581E520
:10ED4E00CD7236CD6A2CE1C9CD5D2EE5EB2229813F
:10ED5E003AF280B7CC8736E1C90600074FC5CDFA27
:10ED6E002779FE31DA8F2DCD752CCD72262CCD6BF9
:10ED7E002CEB2A2981E3E5EBCDC833EBE3C3972DCA
:10ED8E00CD3E2DE311522DD501F520094E23666996
:10ED9E00E915FEADC8FE2DC814FE2BC8FEACC82B5F
:10EDAE00C9F6AFF5CD6A2CCDAC28F1EBC1E3EBCDB6
:10EDBE008A36F5CDAC28F1C179212130C2D32DA3ED
:10EDCE004F78A2E9B34F78B2E921EA2D3AF2801FCB
:10EDDE007A175F166478BAD0C3D92CEC2D79B71F89
:10EDEE00C1D1F5CD6C2C212E2EE5CAC436AF32F230
:10EDFE0080D5CD83327E23234E2346D1C5F5CD87D4
:10EE0E0032CD9836F157E17BB2C87AD601D8AFBB76
:10EE1E003CD0151D0ABE2303CA162E3FC354363CE2
:10EE2E008FC1A0C6FF9FC35B36165ACD7C2CCD6A10
:10EE3E002CCDAC287B2F4F7A2FCD2130C1C3882CFF
:10EE4E002BCDFA27C8CD72262C014F2EC5F6AF3228
:10EE5E00F18046CD9828DAA423AF4F32F280CDFA56
:10EE6E0027DA792ECD9828DA862E4FCDFA27DA7A40
:10EE7E002ECD9828D27A2ED624C2952E3C32F280F0
:10EE8E000F814FCDFA273A10813DCA422FF2A52E9F
:10EE9E007ED628CA1A2FAF321081E550592A238107
:10EEAE00CD6C26112581CA8A352A1D81EB2A1B813C
:10EEBE00CD6C26CAD82E799623C2CD2E789623CA2B
:10EECE000C2F23232323C3BF2EE1E3D5115A2DCDBF
:10EEDE006C26D1CA0F2FE3E5C50106002A1F81E576
:10EEEE0009C1E5CD7023E1221F816069221D812BAE
:10EEFE003600CD6C26C2FE2ED173237223EBE1C9F0
:10EF0E00322C81214023222981E1C9E52AF180E3B7
:10EF1E0057D5C5CDA028C1F1EBE3E5EB3C577EFEFE
:10EF2E002CCA202FCD722629221581E122F1801EB6
:10EF3E0000D511E5F52A1D813E19EB2A1F81EBCD77
:10EF4E006C26CA7A2F7EB923C25C2F7EB8235E232D
:10EF5E005623C2482F3AF180B7C2AD23F1444DCAB1
:10EF6E008A3596CAD82F1E10C3B823110400F1CAD1
:10EF7E00C128712370234FCD81232323220A81714F
:10EF8E00233AF1801779010B00D29D2FC103712313
:10EF9E007023F5E5CD3537EBE1F13DC2952FF54206
:10EFAE004BEB19DA9923CD8A23221F812B3600CD04
:10EFBE006C26C2BB2F03572A0A815EEB2909EB2B65
:10EFCE002B73237223F1DAFC2F474F7E2316E15E5B
:10EFDE00235623E3F5CD6C26D2752FE5CD3537D1EB
:10EFEE0019F13D444DC2DD2F2929C109EB2A1581A6
:10EFFE00C92A1F81EB210000393AF280B7CA1C30B2
:10F00E00CD8332CD83312A9F80EB2A08817D934FA9
:10F01E007C9A41501E0021F280730690C360363AEE
:10F02E00F08047AFC32230CDB930CDAB300191293E
:10F03E00C5D5CD722628CD5D2EE5EB2B562B5EE188
:10F04E00CD6A2CCD722629CD7226B4444DE37123A0
:10F05E0070C3F830CDB930D5CD3E2DCD6A2CE35EE0
:10F06E002356237AB3CAB0237E23666FE52A238103
:10F07E00E32223812A2781E52A2581E5212581D5D1
:10F08E00CDA136E1CD672C2BCDFA27C2A423E122E8
:10F09E002581E1222781E1222381E1C9E52AA18090
:10F0AE00237CB5E1C01E16C3B823CD7226A73E80C1
:10F0BE00321081B647CD622EC36A2CCD6A2CCDEEAE
:10F0CE0037CDFE30CD833201DE32C57E2323E5CD32
:10F0DE005931E14E2346CDF230E56FCD7632D1C9AE
:10F0EE00CD5931210481E5772323732372E1C92B96
:10F0FE00062250E50EFF237E0CB7CA1431BACA148D
:10F10E0031B8C20531FE22CCFA27E323EB79CDF2DA
:10F11E00301104812AF6802229813E0132F280CDFF
:10F12E00A436CD6C2622F680E17EC01E1EC3B82307
:10F13E0023CDFE30CD8332CD98361C1DC80ACD7D31
:10F14E0026FE0DCCAC2A03C34A31B70EF1F52A9F29
:10F15E0080EB2A08812F4F06FF0923CD6C26DA7724
:10F16E003122088123EBF1C9F11E1ACAB823BFF56B
:10F17E00015B31C52AF480220881210000E52A9F17
:10F18E0080E521F880EB2AF680EBCD6C26019431D8
:10F19E00C2E8312A1B81EB2A1D81EBCD6C26CABB3E
:10F1AE00317E2323B7CDEB31C3A531C1EB2A1F81AD
:10F1BE00EBCD6C26CA1132CD98367BE509B7F2BA83
:10F1CE0031220A81E14E0600090923EB2A0A81EB5E
:10F1DE00CD6C26CABB3101DA31C5F6807E23235EA3
:10F1EE00235623F0B7C8444D2A0881CD6C2660699A
:10F1FE00D8E1E3CD6C26E3E56069D0C1F1F1E5D548
:10F20E00C5C9D1E17DB4C82B462B4EE52B2B6E26FE
:10F21E00000950592B444D2A0881CD7323E17123E7
:10F22E007069602BC38631C5E52A2981E3CDF02CA8
:10F23E00E3CD6B2C7EE52A2981E5861E1CDAB823E8
:10F24E00CDEF30D1CD8732E3CD8632E52A0681EB84
:10F25E00CD6D32CD6D3221852CE3E5C32031E1E356
:10F26E007E23234E23466F2C2DC80A120313C37719
:10F27E0032CD6B2C2A2981EBCDA132EBC0D5505962
:10F28E001B4E2A0881CD6C26C29F32470922088167
:10F29E00E1C92AF6802B462B4E2B2BCD6C26C02295
:10F2AE00F680C9013130C5CD8032AF5732F2807E43
:10F2BE00B7C9013130C5CDB632CAC12823235E236A
:10F2CE00561AC93E01CDEF30CDCB332A068173C11C
:10F2DE00C32031CD7B33AFE34FE57EB8DAF0327821
:10F2EE00110E00C5CD5931C1E1E5232346236668D1
:10F2FE00060009444DCDF2306FCD7632D1CD873236
:10F30E00C32031CD7B33D1D51A90C3E632EB7ECDFF
:10F31E0080330405CAC128C51EFFFE29CA3533CD68
:10F32E0072262CCDC833CD722629F1E301E832C501
:10F33E003DBE0600D04F7E91BB47D843C9CDB632F5
:10F34E00CA69345F23237E23666FE5194672E3C5CF
:10F35E007EFE24C26A33CD933B180DFE25C2743354
:10F36E00CD033C1803CD5037C1E170C9EBCD7226E9
:10F37E0029C1D1C543C9CDCB33328480CD8380C35F
:10F38E003130CDB533C34B80CDB533F51E002BCD0B
:10F39E00FA27CAAB33CD72262CCDC833C1CD8380AC
:10F3AE00ABA0CAAC33C9CDC833328480324C80CDC9
:10F3BE0072262CC3C833CDFA27CD672CCDA6287A5A
:10F3CE00B7C2C1282BCDFA277BC9CDAC281AC331C1
:10F3DE0030CD672CCDAC28D5CD72262CCDC833D1EF
:10F3EE0012C921C738CD9836C30334CD983621C102
:10F3FE00D1CD723678B7C83A2C81B7CA8A3690D238
:10F40E001D342F3CEBCD7A36EBCD8A36C1D1FE19A9
:10F41E00D0F5CDAF3667F1CDC834B4212981F24392
:10F42E0034CDA834D289342334CAB3232E01CDDE91
:10F43E0034C38934AF90477E9B5F237E9A57237ED9
:10F44E00994FDCB4346863AF4779B7C276344A5407
:10F45E00656F78D608FEE0C25734AF322C81C905ED
:10F46E00297A1757798F4FF26E34785C45B7CA896F
:10F47E0034212C818677D26934C878212C81B7FC4F
:10F48E009B3446237EE680A94FC38A361CC014C027
:10F49E000CC00E8034C0C3B3237E835F237E8A5795
:10F4AE00237E894FC9212D817E2F77AF6F90477DA7
:10F4BE009B5F7D9A577D994FC90600D608DAD734DF
:10F4CE00435A510E00C3CA34C6096FAF2DC8791FF7
:10F4DE004F7A1F577B1F5F781F47C3DA3400000037
:10F4EE008103AA561980F122768045AA3882CD4929
:10F4FE0036B7EAC128212C817E01358011F30490A4
:10F50E00F570D5C5CD0334C1D104CD9F3521EC3472
:10F51E00CDFA3321F034CD9139018080110000CD28
:10F52E000334F1CDC43701318011187221C1D1CD10
:10F53E004936C82E00CD073679323B81EB223C810D
:10F54E000100005058215434E5216035E5E52129AC
:10F55E00817E23B7CA8C35E52E081F6779D27A359E
:10F56E00E52A3C8119EBE13A3B81891F4F7A1F57FF
:10F57E007B1F5F781F472D7CC26935E1C9435A5105
:10F58E004FC9CD7A36012084110000CD8A36C1D103
:10F59E00CD4936CAA7232EFFCD073634342B7E3203
:10F5AE0057802B7E3253802B7E324F8041EBAF4FF4
:10F5BE00575F325A80E5C57DCD4E80DE003FD2D7F3
:10F5CE0035325A80F1F137D2C1E1793C3D1FFA8ACA
:10F5DE0034177B175F7A175779174F297817473AE1
:10F5EE005A8017325A8079B2B3C2C435E5212C81C4
:10F5FE0035E1C2C435C3B32378B7CA2B367D212C6F
:10F60E0081AE80471FA878F22A36C68077CA8A351F
:10F61E00CDAF36772BC9CD49362FE1B7E1F269343C
:10F62E00C3B323CD953678B7C8C602DAB32347CD18
:10F63E000334212C8134C0C3B3233A2C81B7C83A8A
:10F64E002B81FE2F179FC03CC9CD4936068811006D
:10F65E0000212C814F70060023368017C35134CD04
:10F66E004936F0212B817EEE8077C9EB2A2981E382
:10F67E00E52A2B81E3E5EBC9CD9836EB2229816093
:10F68E0069222B81EBC92129815E2356234E234605
:10F69E0023C911298106041A77132305C2A636C978
:10F6AE00212B817E07371F773F1F2323777907375B
:10F6BE001F4F1FAEC978B7CA4936215236E5CD491C
:10F6CE003679C8212B81AE79F8CDDE361FA9C92334
:10F6DE0078BEC02B79BEC02B7ABEC02B7B96C0E104
:10F6EE00E1C9474F575FB7C8E5CD9536CDAF36AEBA
:10F6FE0067FC15373E9890CDC8347C17DC9B3406DA
:10F70E0000DCB434E1C91B7AA33CC00BC9212C81A7
:10F71E007EFE983A2981D07ECDF13636987BF579EA
:10F72E0017CD5134F1C921000078B1C83E1029DA45
:10F73E00752FEB29EBD24B3709DA752F3DC23D37CA
:10F74E00C9FE2DF5CA5C37FE2BCA5C372BCD69344A
:10F75E0047575F2F4FCDFA27DAAD37FE2ECA8837BF
:10F76E00FE45C28C37CDFA27CDA02DCDFA27DACFA4
:10F77E003714C28C37AF935F0C0CCA6437E57B909D
:10F78E00F4A537F29B37F5CD9135F13CC28F37D1C9
:10F79E00F1CC7236EBC9C8F5CD3236F13DC9D5572D
:10F7AE00788947C5E5D5CD3236F1D630CDC437E1AF
:10F7BE00C1D1C36437CD7A36CD5B36C1D1C30334E4
:10F7CE007B0707830786D6305FC37A37E5213C2354
:10F7DE00CD4031E1EBAF0698CD6036213F31E521CA
:10F7EE002E81E5CD49363620F2FC37362D233630C4
:10F7FE00CAB238E5FC7236AFF5CDB8380143911177
:10F80E00F84FCDC436B7E22938F1CDA637F5C30B84
:10F81E0038CD9135F13CF5CDB838CDF1333CCDF145
:10F82E0036CD8A36010603F1813CFA4538FE08D200
:10F83E0045383C473E023D3DE1F511CB3805C256F9
:10F84E0038362E2336302305362ECC9F36C5E5D5D9
:10F85E00CD9536E1062F047B965F237A9E5723794A
:10F86E009E4F2B2BD26538CDA83423CD8A36EBE1B3
:10F87E007023C10DC2563805CA96382B7EFE30CA8B
:10F88E008A38FE2EC49F36F1CAB538364523362B3C
:10F89E00F2A638362D2F3C062F04D60AD2A838C62B
:10F8AE003A237023772371E1C901749411F723CDA4
:10F8BE00C436B7E1E22038E900000080A0860110CE
:10F8CE002700E803006400000A0000010000217216
:10F8DE0036E3E9CD7A3621C738CD8736C1D1CD4949
:10F8EE003678CA3039F2FB38B7CAA723B7CA6A349A
:10F8FE00D5C579F67FCD9536F21839D5C5CD1C37DD
:10F90E00C1D1F5CDC436E17C1FE1222B81E1222944
:10F91E0081DCDD38CC7236D5C5CDFD34C1D1CD3EBE
:10F92E0035CD7A36013881113BAACD3E353A2C8140
:10F93E00FE88D22536CD1C37C680C602DA2536F5AE
:10F94E0021EC34CDF433CD3535F1C1D1F5CD0034C4
:10F95E00CD7236217039CDA039110000C14AC33E97
:10F96E003508402E9474704F2E776E02887AE6A07A
:10F97E002A7C50AAAA7EFFFF7F7F000080810000B4
:10F98E000081CD7A36113C35D5E5CD9536CD3E3557
:10F99E00E1CD7A367E23CD873606F1C1D13DC8D56D
:10F9AE00C5F5E5CD3E35E1CD9836E5CD0334E1C361
:10F9BE00A939CD4936215E80FA223A217F80CD8742
:10F9CE0036215E80C886E6070600772387874F09B3
:10F9DE00CD9836CD3E353A5D803CE6030600FE01FD
:10F9EE0088325D8021263A87874F09CDF433CD9535
:10F9FE00367B59EE4F4F36802B463680215C803455
:10FA0E007ED6ABC2193A770C151CCD5434217F80AB
:10FA1E00C3A136772B772B77C3FD3968B14668992A
:10FA2E00E9926910D1756821803ACDF433CD7A36DA
:10FA3E0001498311DB0FCD8A36C1D1CD9F35CD7AE9
:10FA4E0036CD1C37C1D1CD003421843ACDFA33CD19
:10FA5E00493637F26C3ACDF133CD4936B7F5F472FB
:10FA6E003621843ACDF433F1D4723621883AC391DB
:10FA7E0039DB0F49810000007F05BAD71E86642648
:10FA8E00998758342387E05DA586DA0F4983CD7AAE
:10FA9E0036CD3C3AC1E1CD7A36EBCD8A36CD363A0B
:10FAAE00C39D35CD4936FCDD38FC72363A2C81FECD
:10FABE0081DACF3A0100815159CD9F3521FA33E5D4
:10FACE0021D93ACD913921803AC9094AD73B7802DA
:10FADE006E847BFEC12F7C74319A7D843D5A7DC825
:10FAEE007F917EE4BB4C7E6CAAAA7F00000081C988
:10FAFE00D7C93E0CCFC9CDC8337B328780C9CD67FD
:10FB0E002CCDAC28ED538B80ED538D80C9CDAC2818
:10FB1E00D5E146237EC32230CD672CCDAC28D5CD82
:10FB2E0072262CCD672CCDAC28E3732372E1C9CDA0
:10FB3E006A2CCDAC28C5212E817AFE00280CCD76FC
:10FB4E003B78FE302802702371237BCD763B7AFE04
:10FB5E0000200578FE30280270237123AF772377BB
:10FB6E00C1212E81C3D03047E60FFE0A3802C607E8
:10FB7E00C6304F780F0F0F0FE60FFE0A3802C6077A
:10FB8E00C63047C9EB210000CDAC3BDACC3B1805A3
:10FB9E00CDAC3B381F29292929B56F18F3131AFE4E
:10FBAE0020CAAC3BD630D8FE0A3805D607FE0AD896
:10FBBE00FE103FC9EB7A4BE5CD2130E1C91E26C3BD
:10FBCE00B823CD6A2CCDAC28C5212E81061105781F
:10FBDE00FE012808CB13CB1230F41804CB13CB1232
:10FBEE003E30CE0077230520F3AF772377C1212E49
:10FBFE0081C3D030EB210000CD203CDA2E3CD63034
:10FC0E0029B56FCD203C30F6EB7A4BE5CD2130E1B6
:10FC1E00C9131AFE20CA203CFE30D8FE323FC91E40
:10FC2E0028C3B8230E01F7C93E00329280C31420B8
:10FC3E00F5A0C1B83E00C9CD7D26C3A22AFFFFFFA5
:10FC4E00FFFFFFFFFFFFFFFFFFFFFFFFFFFFFFFFB6
:10FC5E00FFFFFFFFFFFFFFFFFFFFFFFFFFFFFFFFA6
:10FC6E00FFFFFFFFFFFFFFFFFFFFFFFFFFFFFFFF96
:10FC7E00FFFFFFFFFFFFFFFFFFFFFFFFFFFFFFFF86
:10FC8E00FFFFFFFFFFFFFFFFFFFFFFFFFFFFFFFF76
:10FC9E00FFFFFFFFFFFFFFFFFFFFFFFFFFFFFFFF66
:10FCAE00FFFFFFFFFFFFFFFFFFFFFFFFFFFFFFFF56
:10FCBE00FFFFFFFFFFFFFFFFFFFFFFFFFFFFFFFF46
:10FCCE00FFFFFFFFFFFFFFFFFFFFFFFFFFFFFFFF36
:10FCDE00FFFFFFFFFFFFFFFFFFFFFFFFFFFFFFFF26
:10FCEE00FFFFFFFFFFFFFFFFFFFFFFFFFFFFFFFF16
:10FCFE00FF000000000000000000000000000000F7
:10FD0E0000000000000000000000000000000000E5
:10FD1E0000000000000000000000000000000000D5
:10FD2E0000000000000000000000000000000000C5
:10FD3E0000000000000000000000000000000000B5
:02FFFE00000001
:020000040001F9
:10000000080E0001B16F000E0401186F1969C9686C
:10001000000E086F0969C768000E106F1169C86883
:1000200020912181CA802093C292CA922095C284D5
:10003000CA9400910181C680009B018BC68A3F0E45
:100040000201046F04010097C6962F0E436F400E05
:10005000446F010E456F000E476F4691468B468FE9
:10006000010E0201D56FA00ED46FD189D18B04018E
:10007000009FC68E070E0201766F0401009DBE8CA4
:10008000C69C260E0201076FD28F040100930183E4
:10009000C682010E0201616F040100950185C684CC
:1000A000020E0201626F04010099BE88C698010E1B
:1000B0000201056F000E0001D56F820ED76F000E92
:1000C000D86F010ED96F7F0EDA6F7F0EDB6F010ED6
:1000D000DC6F040EDD6F000EDE6F000EDF6F000EB2
:1000E000D46F8C0ED66F550E0401596FAA0E596F3E
:1000F0005991080E5D6F000E5E6F000E5F6F550E1A
:10010000596FAA0E596F5981AE9A9E8AD68EC282B5
:02011000FFD717
:10011400F6C401F5F7C402F5F8C403F5F5C404F513
:10012400AE9AD1C406F5CFC405F5CEAA1BD0800E75
:10013400065CD8A00DD0900E065CD8B009D0000E95
:100144000524D96E950E0620DA6ED0C4DFF406D0ED
:10015400E00E06180510D8B4D0C4C9F20001D78542
:10016400D79539D0000EC86E400E065CD8B00AD0C0
:10017400FF0E0524F66EBF0E0620F76E0800F5C4C8
:10018400C0F423D0800E065CD8A00DD0900E065C7F
:10019400D8B009D0000E0524D96E950E0620DA6E6B
:1001A400DF50C06E12D0050407E1E00E0618D8A493
:1001B40003D0B7C4C0F409D0E00E06180510D8A4C3
:1001C40003D0C7C2C0F401D0C0680001D785D79559
:1001D400CEA2FED7C86804C5F5F403C5F8F402C579
:1001E400F7F401C5F6F4110005EE00F114EE00F089
:1001F400EE6AE550E150FCE1E250FAE1066A056A74
:100204000401080E5D6F000E5E6F000E5F6F000E3E
:0A021400F86E000100EF80F0110009
:020000040020DA
:10000000FF0FFF0FFF0FFF0FFF0FFF0FFF0FFF0F80
:10001000FF0FFF0FFF0FFF0FFF0FFF0FFF0FFF0F70
:10002000FF0FFF0FFF0FFF0FFF0FFF0FFF0FFF0F60
:10003000FF0FFF0FFF0FFF0FFF0FFF0FFF0FFF0F50
:020000040030CA
:0A0000008CFFFFF79FFFFFFFFFFFDB
:00000001FF
