:0400000085EF00F098
:1000080072717271727172717271727172717271D0
:1000180072717271727172717271727172717271C0
:1000280072717271727172717271727172717271B0
:1000380072717271727172717271727172716971A9
:100048007271727172717271727172717271727190
:100058007271727172717271727172717271727180
:100068007271727172717271727172717271727170
:100078007271727172717271420072717271727101
:100088007271727172717271727172717271727150
:10009800727172717271727142003D717271727116
:1000A80072715C7172717271727172717271727146
:1000B800727124717271727172717271727172716E
:1000C8007271727172717271727172717271727110
:1000D8007271727172717271727172717271727100
:1000E8004200727172717271727172717271727191
:1000F8007271AA70727172717271727172717271A9
:06010800FF009DEFE2F094
:02FFFE00000001
:020000040001F9
:10000000C34000C391180000C3B81F0000000000E7
:10001000C3A71F0000000000C3B21F0000000000C3
:10002000C900000000000000C9000000000000003E
:10003000C354180000000000C3D5180000000000E1
:10004000F33100EF2100C02220EF2227EF2225EF1D
:100050003E493229EFAF212CEF061A772310FC21FD
:10006000C0EE2240EF2100C02242EF06083E2E21C2
:1000700071EF772310FCAF770614215DEFAF772384
:1000800010FC3E493257EF3E4E3256EF2E006522AD
:1000900058EFAF325CEF2100C0225FEF2263EF2206
:1000A00067EF226BEF226FEF7E325EEF3262EF324C
:1000B00066EF326AEF326EEF21101DCD4817214FE7
:1000C0001DCD4817CDA817CD0218B728F1FE44CA98
:1000D0006006FE47CA4713FE53CA0E14FE4CCA847C
:1000E00014FE50CA5E15FE52CA3616FE23CA0E0111
:1000F000FE42CA2202FE54CAD702FE3F2808216CE3
:100100001DCD481718B821651BCD481718B023CD51
:100110000218B728E9FE4C2825CDB60138E079FE53
:1001200011D2FE00B7CAFE003D1716005F215C0128
:10013000195E2356EB5E23567AB328C2EBE9215CA5
:10014000015E235623D5DDE1DD7E00DDB601280901
:100150001313EBCD4817EB18E8C3BE007C019801E0
:10016000B401B401B401B401B401B401B401B401E7
:10017000B401B401B401B401B401B4010020312EC2
:10018000204241534943342E376220436F6C642030
:1001900053746172740D0A000320322E20424153C1
:1001A0004943342E3762205761726D205374617257
:1001B000740D0A000000AF474FCD0218B7C8CDD468
:1001C00001D8F508F1CDE301D80816005FCDFA019A
:1001D000D82318E5B7280AFE30D8FE3A3003D630C7
:1001E000C937C9C5CB21CB10CB21CB10CB21CB102C
:1001F000D1D8CDFA01D8CDFA01C9E5D5E109E5C1DB
:10020000E1C93A65EFB728082A67EF3E31CDBD0254
:100210003A69EFB7CABE002A6BEF3E32CDBD02C3CA
:10022000BE0023CD0218B728D90165EFFE31280E94
:100230000169EFFE322807FE43283EC3FE00082373
:10024000CD0218B7285AFE2CC2FE0023CD0218C5D5
:10025000CD1218E1DAFE00CD6002DAFE00C3BE0066
:100260007AFEC0DA7702FEF0D277023E0177231AD7
:100270007723732372B7C937C923CD0218B728145F
:100280000165EFFE3128080169EFFE32C2FE00AFC2
:1002900002C3BE00AF0165EF020169EF02C3BE00F9
:1002A0000AB7CABE00082A67EFFE3128032A6BEF9F
:1002B000CDBD02C3BE0042502800293A00E5F52119
:1002C000B602CD4817F1CDB81F21BA02CD4817E1CB
:1002D000CD5117CD9117C9E52E0026002258EF2ADF
:1002E00042EF225AEFAF325CEFE123CD0218CD127C
:1002F00018D29D03CD02187EB7CAC603FE2CCAAE23
:1003000003FE50284EFE4DC2FE0023CD02182145AB
:1003100003FE492810214B03FE532809B7C2FE00F3
:100320003A57EF18E93257EFE5213603CD4817E188
:10033000CD4817C3BE00544D206D6F64653A3C43F1
:10034000414C4C2000494E3E0D0A00534B49503E53
:100350000D0A0023CD0218B720053A56EF1809FE02
:100360004FC2FE0023CD0218219203FE4E28082121
:100370009703FE46C2FE003256EFE5218803CD48C2
:1003800017E1CD4817C3BE005450206D6F64653A25
:1003900020004F4E0D0A004F46460D0A00ED535AFD
:1003A000EFCD0218B7281FFE2C2803C3FE0023CD73
:1003B0000218B7CAFE00FE2D2811CDB601DAFE00E4
:1003C000ED4358EF181B01010018F523CD0218FE6C
:1003D00031C2FE0023CD0218B7C2FE003E01325CDE
:1003E000EF2A5AEF7E010800217E05EDB120130EA1
:1003F00001CD4705DA06050E02CD2705DA0605C34D
:100400000305010500218605EDB120190E012A5AC8
:10041000EFCD1A05CD5405DA06050E02CD2C05DA0E
:100420000605C30305010800218B05EDB120040E6C
:10043000011813010800219305EDB1201A0E013AAD
:1004400057EFFE532808CD3B05DA06050E02CD31E5
:1004500005DA0605C30305FEC9200B0E01CD4705CD
:10046000DA0605C30305010800219B05EDB1200B49
:100470000E01CD2705DA0605C30305FEED20132383
:100480007EFE452804FE4D20090E01CD4705387635
:1004900018712A5AEF7EFEE9200C2A32EF0E01CDA8
:1004A00054053862185DFEDD200B237EFEE9200531
:1004B0002A3CEF18E82A5AEF7EFEFD200B237EFE31
:1004C000E920052A3EEF18D52A5AEF7EFE18200CA7
:1004D0000E01CD1A05CD5405382C1827FEC320096E
:1004E0000E01CD3B05381F181AFECDC2A3050E0123
:1004F0003A57EFFE532807CD3B05380A1805CD3192
:10050000053803C38A13211005CD4817C3BE00FF69
:10051000416472204552520D0A00235E2316FFCB20
:100520007B2002160019C92A5AEF180A2A5AEF1816
:10053000042A5AEF232323CD5405C92A5AEF235EF8
:100540002356EBCD5405C9ED5B40EF1A6F131A67C4
:10055000CD5405C97CFEC03823FEF0301F79FE0162
:10056000200D115DEF12225FEF7E325EEF180B114E
:1005700061EF122263EF7E3262EFAFC937C9C0C8A4
:10058000D0D8E0E8F0F81020283038C2CAD2DAE239
:10059000EAF2FAC4CCD4DCE4ECF4FCC7CFD7DFE752
:1005A000EFF7FF011200213C06EDB1CA1706010862
:1005B00000214E06EDB1CA22062A5AEFFECB28577B
:1005C000FEDD280AFEED2828FEFD2802183E237EC7
:1005D000FECB2859FE212855FE222851FE2A284DFF
:1005E000FE362849010A00215606EDB128291832A5
:1005F000237EFE432837FE4B2833FE53282FFE5B15
:10060000282BFE732827FE7B2823180B0E01CD27ED
:1006100005DA0605C303050E01CD2C05DA0605C370
:1006200003050E01CD3105DA0605C303050E012AC7
:100630005AEF23CD3405DA0605C30305060E161E50
:10064000262E363EC6CEDED6E6EEF6FEDBD3011112
:10065000213122322A3A09192939232BE5E1E3F91C
:10066000237EFE49CA6807CD0218CD12183806ED60
:100670005320EF1810E52A20EF018000092222EF15
:10068000E17EB7282BCD02187EFE2C280DB7C2FEC6
:1006900000218000192222EF181623CD0218CD1256
:1006A00018DAFE00CD0218B7C2FE0013ED5322EF98
:1006B0002A20EF3EF0A56FAF3224EFE5CDE206E150
:1006C00001100009CDB21F20103A24EFFE0238EBD2
:1006D0002A22EF2220EFC3BE002220EFCDA71FC3A6
:1006E000BE00CD5117E521741DCD4817E1DD210075
:1006F000EF0610CD1C0710FB21771DCD48172100F8
:10070000EF06107E23FE203809FE7F3005CDB81F8E
:1007100018053E2ECDB81F10EAC391173E20CDB864
:100720001F3A24EFB720203A20EFBD20063A21EFF0
:10073000BC280F3E20CDB81FCDB81FDD770023DDCC
:1007400023C93E013224EF3A24EFFE0120E57EDD8D
:100750007700CD561723DD233A22EFBDC03A23EFB1
:10076000BCC03E023224EFC923CD0218CD1218308E
:1007700014CD02187EB7201326002E0A7D327CEF9E
:10078000227AEF1833ED537DEF18E6FE2CC2FE00FF
:1007900023CD0218FE5320123E01327CEF23CDB64A
:1007A00001DAFE00ED437AEF180ECD1218DAFE00E2
:1007B000ED537AEFAF327CEFCDB21F2806CDA71FE5
:1007C000C3BE00CD4708CD0C082184EFCD48173AB1
:1007D0007CEFB7200E2A7AEFED4B7DEFED4230D85B
:1007E000C3BE002A7AEF2B227AEF7CB520CAC3BEA3
:1007F00000227DEFD5CD4708CD0C08D12184EF0133
:100800002A00EDB0ED5B7DEF3A83EFC92184EFED77
:100810005B7DEFCDE70FCD7710CD771006043A83DF
:10082000EF4F1A13D55FCDEF0FCD7710D105280FFD
:100830000D20EFCD7710CD7710CD77100520F4CDBA
:100840007710ED537DEFC93E013283EF114611CD94
:100850000B10219FEFCD37102A7DEF7E010D002177
:100860008A10EDB12012219912CD8D0FC30B10E625
:10087000380F0F0F4F0600C9FE0A2819FE1A282349
:10088000FE022824FE122829FEF9202A119C1FCDE1
:100890005E10C33110115B1FD5CD5B10D1CD45105B
:1008A000C3371011621F18F0115B1FCD4D10C32606
:1008B0001011621F18F5FE40DA4E09FE803028FE46
:1008C000762006114911C30B10CD6F08CD8A0F2178
:1008D0009FEFCD5E10ED5B7DEF1AE6074F0600E55A
:1008E000CD8A0FE1C33410FE883008CD0810CD5BEF
:1008F0001018E2FE90300B115211CD0B10CD5B1091
:1009000018D3FE983008115611CD0B1018C7FEA051
:10091000300B115A11CD0B10CD5B1018B8FEA8305A
:1009200008115E11CD0B1018ACFEB0300811621129
:10093000CD0B1018A0FEB83008116611CD0B1018A1
:1009400094FEC0D2CA09116911CD0B101887010895
:1009500000219710EDB1200EF5116C11CD0B10F1A7
:10096000CD6F08C3DF08010800219F10EDB1200AF8
:10097000F5117011CD0B10F118E601040021A7103C
:10098000EDB1200F116C11CD0B10218912CD810F0B
:10099000C3371001040021AB10EDB1200F1170110D
:1009A000CD0B10218912CD810FC337100104002116
:1009B000AF10EDB12046CD081011691FCD5E10E5D6
:1009C000218912CD8D0FE1C3341001040021B31031
:1009D000EDB1200F117411CD0B10219112CD810FAB
:1009E000C3371001040021B710EDB1200F117811A9
:1009F000CD0B10219112CD810FC33710FE0828179F
:100A0000FEE32821FEEB202511621FCD5E10CD31C3
:100A100010117D11C30B10112711CD5E10112A1179
:100A2000CD341018EC119C1FCD4D1018E1FEE920BB
:100A30000F113211CD0B1011691FCD4210C33710A9
:100A4000010800217E05EDB1200F112E11CD0B10F4
:100A5000217112CD810FC33710010800219B05EDD4
:100A6000B12017114211CD0B10792FCB27CB27CBFB
:100A700027E6385F219FEFC3960FF53E023283EFE2
:100A8000F1010800213C06EDB12016CD6F08CD8A9A
:100A90000FCD5E10ED5B7DEF131A5FCDD90FC3371D
:100AA00010010A00214406EDB1C2F50AC521B312B6
:100AB000CD8D0FCD0B10C179FE012814B7281AFE79
:100AC000073803CD5B10ED5B7DEF131A5FC3960F04
:100AD000CD5B10CDE50AC33710219FEFCDE50ACDE0
:100AE0008310C32610CD6E10ED5B7DEF131A5FCD22
:100AF000D90FC37210FE1020051138111807FE1807
:100B0000200C113511CD0B10219FEFC3BA0F01043A
:100B100000218705EDB12012113511CD0B10218177
:100B200012CD810FCD8310C3BA0FF53E033283EF90
:100B3000F1010400214E06EDB1C24B0B21C712CDCD
:100B40008D0FCD5E10CD730BC39C0FFE222812FEBD
:100B5000322814FE2A2826FE3AC28C0BCD5B1018D0
:100B600022CD6D0BC33110CD6D0BC32610CD730B91
:100B7000C3A20FE52A7DEF235E2356E1C911691F49
:100B8000CD5E10CD730BCDB10FC33710FEC320085F
:100B9000113211CD0B1018ADFECD2008113D11CD35
:100BA0000B1018A1010800218B05EDB120111132A5
:100BB00011CD0B10217112CD810FCD83101886013C
:100BC0000800219305EDB12005113D1118E32A7DA0
:100BD000EF23F53E023283EFF1FECBC2940C7E216F
:100BE0009FEFFE08DA1D0CFE10DA260CFE18DA2F35
:100BF0000CFE20DA380CFE28DA410CFE30DA4A0C02
:100C0000FE38DA6E0CFE40DA530CFE80DA5C0CFE25
:100C1000C0DA650CCD740C113C12C30B10CD790CED
:100C200011B711C30B10CD790C11BB11C30B10CD33
:100C3000790C11BF11C30B10CD790C11C211C30B6C
:100C400010CD790C11C511C30B10CD790C113C12CC
:100C5000C30B10CD790C11CD11C30B10CD740C1139
:100C6000D111C30B10CD740C11D511C30B10114051
:100C700012C30B10F5CD860CF1E6074F0600E5CD4B
:100C80008A0FE1C33410E6380F0F0F473E30B077BC
:100C900023C38310FEDDC23A0E11961FED537FEF82
:100CA00011E312ED5381EF7EFEE3CAEE0CFEE9CABA
:100CB000DC0CFEF9CAFD0C010400215606EDB1CA98
:100CC000060D010400215A06EDB1C21B0D21DB12F5
:100CD000CD8D0FCD0B10219FEFC32B10ED5B7FEF60
:100CE000D5113211CD0B10D1CD4210C33710117D6B
:100CF00011CD0B10119C1FCD4D10C32B10119C1F3B
:100D0000CD5E10C32B10CD0810ED5B7FEFCD5E10D4
:100D1000E52A81EFCD8D0FE1C33410F53E03328318
:100D2000EFF1010E0021BB10EDB1CA5A0DFE86CACB
:100D3000850DFE8ECA900DFE9ECA950D01070021FD
:100D4000C910EDB1C29A0D21F312CD8D0FCD0B104C
:100D5000ED5B7FEF219FEFC3510F79FE07D2720D3C
:100D6000ED5B7FEFCD480FE5210113CD8D0FE1C382
:100D70003410D6074F210113CD8D0FCD5E10ED5BE2
:100D80007FEFC3510F114E11CD0B10CD5B1018EE3C
:100D900011521118F3115A1118EEF53E043283EF77
:100DA000F1FE21CAC00DFE22CACD0DFE2ACAD60D03
:100DB000FE36C2E60DED5B7FEFCD480F5AC3960FAE
:100DC000ED5B7FEFCD5E10CD760FC39C0FCD760F20
:100DD000CDA20FC32B10ED5B7FEFCD5E10CD760F54
:100DE000CDB10FC33710FECBC26E0CCD760F7A019A
:100DF000070021D010EDB1C2060E213913CD8D0FA1
:100E0000CD0B10C3500D01180021D710EDB1C26EEB
:100E10000CFE80DA2A0EFEC0DA320E113C12CD0B27
:100E200010219FEFCD860CC37E0D11D111CD0B107B
:100E300018EF11D511CD0B1018E7FEEDC2370F7E5C
:100E400001380021EF10EDB1C26E0C79FE06DA1800
:100E50000FFE1BDA0A0FFE1EDAF70ECAD70EFE1FB0
:100E6000CAE00EFE20CAE90EFE21CAF20EFE26DA04
:100E7000C60EFE2ADAB00EFE31DA950E11B411CD8F
:100E80000B1079D6314F210113CD8D0FCD5E10118E
:100E90004412C3341011B011CD0B10114412CD5EA9
:100EA0001079D62A4FE5210113CD8D0FE1C33410FF
:100EB000115A11CD0B1011691FCD5E1079D6264F36
:100EC000E521891218E3115211CD0B1011691FCDC4
:100ED0005E1079D62218E8CD5B1011A41FC3341020
:100EE000CD5B1011A21FC3341011A41FCD5E10C31F
:100EF000261011A21F18F511DD11CD0B103E1D910A
:100F0000C630219FEF7723C33710D6064F06002146
:100F10000F13CD8D0FC30B103E043283EFC5792123
:100F2000CF12CD8D0FC179FE03DADA0DD5CD760F54
:100F3000CDA20FD1C3341011991FED537FEF11EBE8
:100F400012ED5381EFC3A70C219FEFCD570FC38341
:100F500010CD570FC33710CD6E10CD6610CD760F64
:100F60007BFE80380CED445FCD7F10CDD90FC3726E
:100F700010CD7B1018F5E52A7DEF23235E2356E183
:100F8000C9CD8D0F219FEFC36610216112CB21CBFC
:100F900010095E2356C9CDD90FC33710CDC80FC372
:100FA0003710219FEFCD6E10CDC80FCD7210C383C7
:100FB00010CD6E10CDC80FC37210E52A7DEFCD1A8B
:100FC00005EBE1CDC80F186F7AFEA038043E3077EC
:100FD00023CDE70F3E48C374107BFEA038043E309B
:100FE0007723CDEF0F18ED7ACDF80F7ACDFC0F7B7C
:100FF000CDF80F7BCDFC0FC90F0F0F0FE60FF630AA
:10100000FE3A3870C607186C114E11F5C506082156
:1010100097EF1AB728067723130518F63E20772393
:101020000520FBC1F1C911591F1809ED5B7FEF18AD
:101030000311691FCD66103E0D77233E0A7723AF5B
:1010400077C9219FEFCD6E10CD66101825219FEF37
:10105000CD6E10CD6610CD7210182811591F219F2A
:10106000EFCD6610181D1A77B7C8231318F83E285D
:1010700018023E297723C93E2018F93E2B18F53E69
:101080002D18F13E2CCD741018ED00070F171F27F7
:101090002F373FC9D9F3FB040C141C242C343C0516
:1010A0000D151D252D353D031323330B1B2B3B093C
:1010B000192939C1D1E1F1C5D5E5F5464E565E662F
:1010C0006E7E7071727374757796A6AEB6BE343547
:1010D000060E161E262E3E464E565E666E767E86A0
:1010E0008E969EA6AEB6BEC6CED6DEE6EEF6FE4026
:1010F0004850586068784149515961697942526253
:10110000724A5A6A7A474F575F46565E44454D6762
:101110006FA0A1A2A3A8A9AAABB0B1B2B3B8B9BA43
:10112000BB4353734B5B7B4146004146270052450E
:1011300054004A50004A5200444A4E5A0043414C1F
:101140004C00525354004C440048414C540041441C
:101150004400414443005355420053424300414E32
:101160004400584F52004F5200435000494E430034
:1011700044454300504F50005055534800455800D7
:10118000455858004E4F5000524C43410052524374
:101190004100524C410052524100444141004350F1
:1011A0004C00534346004343460044490045490030
:1011B0004F555400494E00524C4300525243005286
:1011C0004C00525200534C41005352410053524C78
:1011D0000042495400524553004E454700494D00D6
:1011E00052524400524C44004C4449004350490080
:1011F000494E49004F555449004C44440043504423
:1012000000494E44004F555444004C444952004359
:1012100050495200494E4952004F544952004C44E3
:101220004452004350445200494E4452004F5444EB
:10123000520052455449005245544E005345540003
:101240003F3F3F002843290028484C29004E5A00C0
:101250005A004E43004300504F0050450050004D8F
:10126000005E1F601F651F671F6C1F6E1F481259AD
:101270001F5F125D125A1257125512521250124D20
:10128000125512521250124D129C1F691F621F5BA1
:101290001F2711691F621F5B1FAD11AA1180112E3C
:1012A00011A611A2119E119A11961192118D1188F9
:1012B000118411B011B4116911661162115E1156D9
:1012C000115A1152114E119C1F691F621F5B1F9C06
:1012D0001F621F5B1F9C1F621F5B1F7411781170C0
:1012E000116C119C1F961F621F5B1F9C1F991F6230
:1012F0001F5B1F70116C116911661162115E11562E
:1013000011591F6E1F6C1F671F651F601F5E1F2D09
:1013100012281223121E12191214120F120A120589
:10132000120112FD11F911F411F011EC11E811E4A0
:1013300011E01132123712D911CD11C911C511C2E4
:1013400011BF11BB11B711ED5B42EFED5354EF2309
:10135000CD0218CD12183003B7280A7AFEF0D2FE5B
:1013600000ED5354EFCD02187EB72818FE2CC2FEB4
:101370000023CD0218CD1218DAFE00216DEFCD60EA
:1013800002DAFE002A54EF2242EF3A5DEFB7281A44
:101390002A5AEF2242EF215DEF115FEFCD021421B7
:1013A00061EF1163EFCD0214181B2165EF1167EF98
:1013B000CD02142169EF116BEFCD0214216DEF11F5
:1013C0006FEFCD02142A40EFF92A42EFE5DD2A3C07
:1013D000EFFD2A3EEF2A34EFE5ED4B36EFED5B38BB
:1013E000EF2A3AEFD9F1082A2CEFE5ED4B2EEFED7D
:1013F0005B30EF2A32EF3A44EFED473A45EFED4FDD
:10140000F1C97EB7C81A4F131A473EFF02C923CD50
:101410000218CD1218DAFE00CD02187EB7C2FE0007
:1014200079B72004ED5B27EFEBCD5117E521771D50
:10143000CD4817E17EE5CD56173E20CDB81FCDA88B
:1014400017CD02187EB72007E1232227EF18DAFE16
:101450002D2007E12B2227EF18CFFE2E2007E122B7
:1014600027EFC3BE00CD1218B7E1CAFE00732322D6
:1014700027EFED5B67EF1A3266EFED5B6BEF1A3229
:101480006AEF18A5AF3265EF3269EF23CD0218CDB0
:101490001218CD02187EB7C2FE0079B720031100E2
:1014A00000CDA71FFE532861FE3A280DFE0D28F13E
:1014B000FE0A28EDCDA71F18F33E2ECDB81FCD6D27
:1014C000174F47CD6D1767814FCD6D176F814F193E
:1014D000CD6D17322AEF814F78B72814CD6D17F5EF
:1014E000814F3A2AEFB72005F177231801F110EC6C
:1014F000CD6D1781200A3A2AEFB7CAB414C3BE00D3
:1015000021521DCD4817C3BE00CDA71F322AEFCDF3
:101510006D17474FCD6D1767814FCD6D176F814F99
:10152000190505052815CD6D17F5814F3A2AEFFEEF
:10153000312005F177231801F110EBCD6D1781FEF5
:10154000FF20123A2AEFFE372811FE38280DFE3907
:101550002809C3B414215F1DCD4817C3BE00237EE4
:10156000FE492804FE532004233229EFCD0218CD72
:101570001218B7281CD5DDE1CD02187EFE2C2011F3
:1015800023CD0218CD1218B72807CD02187EB72830
:1015900003C3FE00DDE5E1EB23B7ED52CDBC157CC6
:1015A000B520F93A29EFFE492009217B1DCD4817C6
:1015B000C3BE0021891DCD4817C3BE000E107CB7E5
:1015C00020057DB930014F0600B7ED42413A29EFC1
:1015D000FE4920303E3ACDB81F78CD5617487ACD17
:1015E00056177A814F7BCD56177B814FAFCD56175B
:1015F0001AF5CD5617F1814F1310F579ED44CD56FC
:1016000017C391173E53CDB81F3E31CDB81F78C6D2
:10161000034FCD56177ACD56177A814F7BCD56178B
:101620007B814F1AF5CD5617F1814F1310F5792FA5
:10163000CD5617C3911723CD0218B72006CDBC167F
:10164000C3BE00EB213F1EBE280D4F237EB7286985
:10165000790105000918F0237EFE0F2009234E238F
:101660006669131A18E1B728504E235E2356D52316
:101670007E23666FCD48173E3DCDB81F79E607FE45
:10168000012008E17EE5CD5617180CE1E5237ECD5B
:1016900056172B7ECD56173E20CDB81FC5CDA817A7
:1016A000CD0218CD1218B7280DC1E179FE01200333
:1016B000731803732372C3BE00C3FE0021961D5E20
:1016C0002356237AB3CA9117D5EBCD4817EBD13EF9
:1016D0001EBA20073E01BB200218293E1EBA200573
:1016E0003E28BB281F5E2356237E23EBFE012007E6
:1016F0007ECD5617EB18C8237ECD56172B7ECD56C0
:1017000017EB18BB5E2356231AD5E52171EF01387C
:1017100017114017F5F1CB273006F50A77F11804B9
:10172000F51A77F1031323F57EB720E9F12171EF64
:10173000CD4817E1D1231887535A2E482E504E43D7
:101740002E2E2E2E2E2E2E2E7EA7C8CDB81F23185D
:10175000F77CCD56177DF51F1F1F1FCD5F17F1E6D4
:101760000FC630FE3ADAB81FC607C3B81FAFCD7533
:101770001707070707C54FCDA71FFE303811FE3AE0
:10178000380AFE413809FE473005D607D630B1C1C8
:10179000C93E0DCDB81F3E0AC3B81FE521A417CD21
:1017A0004817E1C91B5B32002100EFC5E50600CDFB
:1017B000A71FFE0D2844FE0A2840FE082825FE7FAC
:1017C0002821FE2038E9FE8030E54F78FE1F30DF0B
:1017D0000479CDB81FFE613806FE7B3002E6DF7764
:1017E0002318CC78A728C8052B3E08CDB81F3E206B
:1017F000CDB81F3E08CDB81F18B5CD91173600E102
:10180000C1C97EFE20C02318F9FE61D8FE7BD0C678
:10181000E0C90E001100007EFE30382CFE3A380A76
:10182000FE413824FE473020D607D6301717171749
:1018300017CB13CB1217CB13CB1217CB13CB12171B
:10184000CB13CB12230C18CF79B72806FE05300234
:10185000B7C937C9E5C521641806000909462366DA
:1018600068C1E3C98E189118B81F4817A71FB21F87
:10187000D318511756175F179B17AB1702189117FC
:1018800009181218A71ADD1A531B0A1AF107C340C8
:10189000003100EF3A6DEFB72806216EEFCDC21987
:1018A0003A5DEFB72806215EEFCDC2193A61EFB776
:1018B00028062162EFCDC2193A69EFB72806216ADE
:1018C000EFCDCE193A65EFB728062166EFCDCE19D8
:1018D000C39819AFC9F5ED5F3245EFED573244EFCC
:1018E0002232EFED5330EFED432EEFE1222CEF08E3
:1018F000F5D9223AEFED5338EFED4336EFE12234DC
:10190000EFDD223CEFFD223EEFE12B2242EFED73B3
:1019100040EF3100EFAF575F3A6DEFB7280911F88C
:1019200019216EEFCDC2193A69EFB7280911F819DC
:10193000216AEFCDCE193A65EFB7280911F81921C0
:1019400066EFCDCE193A5DEFB7280911011A215E75
:10195000EFCDC2193A61EFB7280911011A2162EFE0
:10196000CDC2197AB3200311EE191AFE54280CEBDC
:10197000CD4817CDBC16CDD519181D3A56EFFE46E9
:10198000280AEBCD4817CDBC16CDD519CDB21F28EE
:1019900013CDA71FFE03200CAF325CEF676F2258F8
:1019A000EFC3BE003A5CEFB7C2B9192A58EF2B2239
:1019B00058EF7DB42003C3BE002A42EF225AEFC382
:1019C000E103E57E234E234602E1AF2B77C97E2358
:1019D0004E234602C92A42EF227DEFCD4708CD0CA7
:1019E000082184EFCD48172A42EF227DEFC95253D8
:1019F00054203338480D0A00427265616B210D0A8C
:101A0000005472616365210D0A00F5E5FE00280FA0
:101A1000FE012814FE022816FE032850E1F1C92118
:101A200000F83E9077E1F1C92100F83E10773A10B6
:101A3000F83246EF3A11F83247EF01E1872A46EFD4
:101A40007CB52006ED4346EF1805ED422246EF3AFD
:101A500020F83248EF3A21F83249EF2A46EFCD8B91
:101A60001AED434AEFED5B48EFE1F1C9AF676F2232
:101A70004AEF2248EF2246EF3220F83221F83EE8C2
:101A80003210F83E863211F8E1F1C9AF474F2A46CD
:101A9000EF7DFE1F3806D61F6F0318F67CB7C87D92
:101AA000D61FED442518F1F5C5D5E5DDE5E5DDE109
:101AB000EBE521050019AF77EBE10101003E0ACD0E
:101AC000DD1AF6301B120C7CB520F279FE062806D2
:101AD000DDE5E1EBEDB0DDE1E1D1C1F1C9C5D54F07
:101AE000060FAF291791380D292C1791380C292C86
:101AF00010F8C3FE1A29178138F42910F981D1C1D1
:101B0000C9224CEFED534EEFAF3250EF3251EF326E
:101B100052EF3253EF06102150EFCB2623CB162184
:101B20004CEFCB2623CB162152EFCB1623CB162A14
:101B30004EEF5D542A52EFAFED523002180B225295
:101B4000EF3A50EFF6013250EF10CC2A50EFED5B38
:101B500052EFC9F5C5B71804CB21CB101F30F909D6
:101B600020F6C1F1C93F203A436F6D6D616E64206C
:101B700048656C700D0A445B3C6164723E5D203ABE
:101B800044756D70204D656D6F72790D0A535B3C25
:101B90006164723E5D203A536574204D656D6F72CD
:101BA000790D0A525B3C7265673E5D203A5365745D
:101BB000206F722044756D7020726567697374655B
:101BC000720D0A475B3C6164723E5D5B2C3C737432
:101BD0006F70206164723E5D203A476F20616E64D1
:101BE0002053746F700D0A4C203A4C6F616420488A
:101BF000657846696C650D0A505B497C535D203AF7
:101C0000536176652048657846696C6528493A498C
:101C10006E74656C2C533A4D6F746F726F6C6129E2
:101C20000D0A234C7C3C6E756D3E203A4C61756EFE
:101C300063682070726F6772616D0D0A425B317C60
:101C4000325B2C3C6164723E5D5D203A53657420CA
:101C50006F72204C69737420427265616B20506F03
:101C6000696E740D0A42435B317C325D203A436CED
:101C700065617220427265616B20506F696E740DF0
:101C80000A545B3C6164723E5D5B2C3C737465700E
:101C9000733E7C2D315D203A205472616365206370
:101CA0006F6D6D616E640D0A54505B4F4E7C4F46F4
:101CB000465D203A5472616365205072696E7420EB
:101CC0004D6F64650D0A544D5B497C535D203A5459
:101CD00072616365204F7074696F6E20666F722049
:101CE00043414C4C0D0A44495B3C6164723E5D5B70
:101CF0002C733C73746570733E7C3C6164723E5D12
:101D0000203A446973617373656D626C650D0A00F6
:101D10000D0A454D555A3830204D4F4E49544F52BB
:101D2000205265762E4230322E310D0A5468697386
:101D3000206D6F6E69746F722069732062617365C4
:101D400064206F6E20756E696D6F6E2E0D0A005DDA
:101D500020004572726F7220696865780D0A00452F
:101D600072726F7220737265630D0A004572726F32
:101D7000720D0A00203A00203A20003A303030300C
:101D80003030303146460D0A005339303330303070
:101D90003046430D0A00EB1D2DEF01EF1D2EEF0223
:101DA000F51D30EF02FB1D32EF02011E2CEF010684
:101DB0001E3CEF020B1E3EEF02101E35EF01161EF9
:101DC00036EF021C1E38EF02221E3AEF02281E34A4
:101DD000EF012D1E40EF02321E42EF02371E44EF8C
:101DE000013B1E45EF01000000000041203D0020A6
:101DF0004243203D00204445203D0020484C203DEA
:101E0000002046203D002049583D002049593D0012
:101E10000D0A41273D00204243273D00204445272D
:101E20003D0020484C273D002046273D00205350D0
:101E30003D002050433D0020493D0020523D0041DF
:101E40000F891E0000420F971E0000430FB91E00AD
:101E500000440FC71E0000450FE91E0000460FF7A3
:101E60001E0000480F051F0000490F351F00004CE1
:101E70000F271F0000500F491F0000520145EFA41B
:101E80001F530F511F0000000000012DEF591F27A5
:101E90000135EF721F000000012FEF5E1F27013791
:101EA000EF791F430FAB1E0000000000022EEF5B16
:101EB0001F270236EF751F000000012EEF601F275D
:101EC0000136EF7C1F0000000131EF651F2701394B
:101ED000EF831F450FDB1E00000000000230EF62A1
:101EE0001F270238EF7F1F0000000130EF671F2718
:101EF0000138EF861F000000012CEF701F2701340E
:101F0000EF931F0000000133EF6C1F27013BEF8DA3
:101F10001F4C0F191F00000000000232EF691F273D
:101F2000023AEF891F0000000132EF6E1F27013ACD
:101F3000EF901F0000000144EFA21F58023CEF96F3
:101F40001F59023EEF991F0000430242EF9F1F00FE
:101F500000500240EF9C1F0000410042430042003D
:101F6000430044450044004500484C0048004C00F4
:101F700046004127004243270042270043270044F0
:101F8000452700442700452700484C2700482700E4
:101F90004C2700462700495800495900535000502B
:101FA000430049005200C93A01FFCB4728F93A00E3
:101FB000FFC93A01FFCB47C9F53A01FFCB4F28F9DA
:101FC000F13200FFC9FFFFFFFFFFFFFFFFFFFFFF31
:101FD000FFFFFFFFFFFFFFFFFFFFFFFFFFFFFFFF11
:101FE000FFFFFFFFFFFFFFFFFFFFFFFFFFFFFFFF01
:101FF000FFFFFFFFFFFFFFFFFFFFFFFFFFFFFFFFF1
:10200000C30620C36B20C30D20AC2822302145C05D
:10201000F9C3373C11D52206632145C01A77231333
:1020200005C21C20F9CDD624CDA22A32EFC0323E03
:10203000C121C0EE11A1C1CD6C26DA742011CEFFF2
:1020400022F4C019229FC0CDB1242A9FC011EFFFF6
:1020500019113EC17D936F7C9A67E5218C20CD409C
:1020600031E1CDE337217D20CD403131ABC0CDD63C
:1020700024C3EF2321C320CD4031C37A20204279ED
:1020800074657320667265650D0A00005A38302049
:1020900042415349432056657220342E37620D0A5F
:1020A000436F707972696768742028432920313939
:1020B0003738206279204D6963726F736F66740DD3
:1020C0000A00004D656D6F72792073697A65206E24
:1020D0006F7420656E6F7567680D0A5468652073AC
:1020E000797374656D2069732073746F70706564A3
:1020F0002E0D0A000058361C376E3648C000308559
:10210000332E30E238C139FD343039363A3C3A9D0D
:102110003AB23AD9331C3B96C0B232CA304C33C1C2
:1021200032D2323E3BD13BE23212331C33C54E44F5
:10213000C64F52CE455854C4415441C94E505554CF
:10214000C4494DD2454144CC4554C74F544FD25554
:102150004EC946D24553544F5245C74F535542D2AC
:10216000455455524ED2454DD3544F50CF5554CF70
:102170004ECE554C4CD7414954C44546D04F4B45A3
:10218000C44F4B45D3435245454ECC494E4553C3AE
:102190004C53D749445448CD4F4E49544F52D345E0
:1021A00054D245534554D052494E54C34F4E54CC4B
:1021B000495354C34C454152C34C4F4144C353410E
:1021C0005645CE4557D4414228D44FC64ED35043EE
:1021D00028D448454ECE4F54D3544550ABADAAAF4A
:1021E000DEC14E44CF52BEBDBCD3474EC94E54C1D2
:1021F0004253D55352C65245C94E50D04F53D35176
:1022000052D24E44CC4F47C55850C34F53D3494E7A
:10221000D4414EC1544ED045454BC445454BD04F9B
:10222000494E54CC454ED3545224D6414CC153430D
:10223000C3485224C8455824C2494E24CC4546546C
:1022400024D24947485424CD494424804428412776
:102250001C2C9129232B582E522BA8294E29312989
:10226000202A0A283D296C29932942289133022AE1
:10227000832897333630E033273B93290D3B013BCE
:10228000053B333C99C09CC0442A7028B626EB28F5
:1022900093299329B02479CA3779FE337C3C357C65
:1022A0009D357FEB3850B12D46B02D4E46534E52E2
:1022B000474F4446434F564F4D554C425344442F8D
:1022C000304944544D4F534C535354434E55464D4F
:1022D0004F4858424EC36B20C3C128D300C9D60013
:1022E0006F7CDE006778DE00473E00C900000035E5
:1022F0004ACA99391C76982295B3980ADD479853B3
:10230000D199990A1A9F9865BCCD98D6773E985274
:10231000C74F80DB00C901FF1C000014001400003F
:10232000000000C3E925C30000C30000C30000A2F1
:10233000C1FEFF3FC1204572726F720020696E209E
:10234000004F6B0D0A0000427265616B00210400B2
:10235000397E23FE81C04E234623E569607AB3EBC4
:10236000CA6723EBCD6C26010D00E1C809C35123D8
:10237000CD8A23C5E3C1CD6C267E02C80B2BC37664
:1023800023E52A1FC1060009093EE53ED0956F3EB0
:10239000FF9CDA99236739E1D81E0CC3B8232A0EB3
:1023A000C122A1C01E02011E14011E00011E120145
:1023B0001E22011E0A011E18CDD624328AC0CD95D8
:1023C0002A21AB22573E3FCD7D26197ECD7D26CDDD
:1023D000FA27CD7D26213523CD40312AA1C011FE1B
:1023E000FFCD6C26CA0D207CA53CC4DB373EC1AFB7
:1023F000328AC0CD952A214123CD403121FFFF22D1
:10240000A1C0CDE925DAFC23CDFA273C3DCAFC2347
:10241000F5CDC628D5CD002547D1F1D2DA27D5C5CF
:10242000AF3211C1CDFA27B7F5CD9024DA3524F1BA
:10243000F5CA6729B7C5D24C24EB2A1BC11A02037F
:1024400013CD6C26C23D246069221BC1D1F1CA7331
:10245000242A1BC1E3C109E5CD7023E1221BC1EB96
:1024600074D123237323722311A6C01A772313B7C1
:10247000C26B24CDBC2423EB626B7E23B6CAFC2343
:10248000232323AFBE23C28424EB732372C3782497
:102490002AA3C0444D7E23B62BC823237E23666F18
:1024A000CD6C2660697E23666F3FC83FD0C39324FE
:1024B000C02AA3C0AF77237723221BC12AA3C02B36
:1024C0002213C12AF4C02208C1AFCD0A282A1BC199
:1024D000221DC1221FC1C12A9FC0F921F8C022F6C6
:1024E000C0AF6F672219C13210C12223C1E5C52ACE
:1024F00013C1C93E3FCD7D263E20CD7D26C393C06E
:10250000AF32F3C00E0511A6C07EFE20CA88254753
:10251000FE22CAA825B7CAAF253AF3C0B77EC28843
:1025200025FE3F3E9ECA88257EFE30DA3325FE3CDE
:10253000DA8825D5112C21C5018425C5067F7EFEAC
:1025400061DA4C25FE7BD24C25E65F774EEB23B655
:10255000F24E25047EE67FC8B9C24E25EBE5131A7C
:10256000B7FA80254F78FE88C26F25CDFA272B2336
:102570007EFE61DA7825E65FB9CA5E25E1C34C25A7
:1025800048F1EBC9EB79C1D12312130CD63ACA96A4
:1025900025FE49C2992532F3C0D654C20925477E8B
:1025A000B7CAAF25B8CA882523120C13C39F2521AB
:1025B000A5C01213121312C93A89C0B73E0032895E
:1025C000C0C2CC2505CAE925CD7D263E052BCAE033
:1025D000257ECD7D26C3F225052BCD7D26C2F22595
:1025E000CD7D26CDA22AC3E92521A6C00601AF32A2
:1025F00089C0CDA5264FFE7FCAB8253A89C0B7CA83
:102600000B263E00CD7D26AF3289C079FE07CA4F2A
:1026100026FE03CCA22A37C8FE0DCA9D2AFE15CA83
:10262000E325FE40CAE025FE5FCAD825FE08CAD8C9
:1026300025FE12C24A26C5D5E53600CD463C21A668
:10264000C0CD4031E1D1C1C3F225FE20DAF22578B8
:10265000FE493E07D2642679713211C12304CD7D33
:1026600026C3F225CD7D263E08C35E267C92C07D22
:1026700093C97EE3BE23E3CAFA27C3A423F53A8AAB
:10268000C0B7C27531F1C5F5FE20DAA1263A87C080
:10269000473AF0C004CA9D2605B8CCA22A3C32F0C5
:1026A000C0F1C1CFC9CDFF3AE67FFE0FC03A8AC064
:1026B0002F328AC0AFC9CDC628C0C1CD9024C5CDA8
:1026C0000C27E14E23462378B1CAEF23CD1527CD41
:1026D0002528C5CDA22A5E235623E5EBCDE3373E60
:1026E00020E1CD7D267EB723CAC226F2E226D67F20
:1026F0004F112D211A13B7F2F4260DC2F426E67FEE
:10270000CD7D261A13B7F2FE26C3E526E52A8DC035
:10271000228BC0E1C9E5D52A8BC011FFFFED5A22FB
:102720008BC0D1E1F0E52A8DC0228BC0CDFF3AFEEF
:1027300003CA3827E1C315272A8DC0228BC0C36E78
:10274000203E643210C1CDA829C1E5CD9129220CCB
:10275000C121020039CD5123D1C2712709D52B5691
:102760002B5E2323E52A0CC1CD6C26E1C25527D16F
:10277000F9EB0E08CD8123E52A0CC1E3E52AA1C0BF
:10278000E3CD6A2CCD7226A6CD672CE5CD9536E13A
:10279000C5D5010081515A7EFEAB3E01C2AD27CDA9
:1027A000FA27CD672CE5CD9536CD4936E1C5D5F56F
:1027B00033E52A13C1E30681C533CD25282213C191
:1027C0007EFE3ACADA27B7C2A423237E23B6CA4CB8
:1027D00028235E2356EB22A1C0EBCDFA2711BA279E
:1027E000D5C8D680DAA829FE25D2A423074F060033
:1027F000EB214C22094E2346C5EB237EFE3AD0FE48
:1028000020CAFA27FE303F3C3DC9EB2AA3C0CA1FAD
:1028100028EBCDC628E5CD90246069D1D267292B5D
:102820002221C1EBC9DFC8D7FE1B2811FE03280DEA
:10283000FE13C0D7FE11C8FE03280718F63EFF326C
:1028400092C0C0F6C02213C121F6FFC12AA1C0F573
:102850007DA43CCA5F282217C12A13C12219C1AF27
:10286000328AC0CD952AF1214723C2D823C3EF2352
:102870002A19C17CB51E20CAB823EB2A17C122A190
:10288000C0EBC9CDC833C03286C0C9E52A8FC006A7
:10289000004F09228FC0E1C97EFE41D8FE5B3FC9CF
:1028A000CDFA27CD672CCD4936FAC1283A2CC1FE86
:1028B00090DAF136018090110000E5CDC436E15187
:1028C000C81E08C3B8232B110000CDFA27D0E5F5A8
:1028D000219819CD6C26DAA423626B19291929F1E4
:1028E000D6305F160019EBE1C3CA28CAC024CDA3B5
:1028F000282BCDFA27E52AF4C0CA0E29E1CD72268D
:102900002CD5CDA3282BCDFA27C2A423E3EB7D93AE
:102910005F7C9A57DA9923E52A1BC101280009CD6B
:102920006C26D29923EB229FC0E122F4C0E1C3C000
:1029300024CABC24CDC02401BA27C34D290E03CD1F
:102940008123C1E5E52AA1C0E33E8CF533C5CDC6A0
:1029500028CD9329E52AA1C0CD6C26E123DC932460
:10296000D4902460692BD81E0EC3B823C016FFCDA7
:102970004D23F9FE8C1E04C2B823E122A1C0237CA2
:10298000B5C28B293A11C1B7C2EE2321BA27E33E63
:10299000E1013A0E0006007948477EB7C8B8C8235F
:1029A000FE22CA9729C39A29CD5D2ECD7226B4D5B1
:1029B0003AF2C0F5CD792CF1E32213C11FCD6C2C76
:1029C000CAFB29E52A29C1E523235E23562AA3C091
:1029D000CD6C26D2EA292A9FC0CD6C26D1D2F2290D
:1029E0002104C1CD6C26D2F2293ED1CDA132EBCD4E
:1029F000DA30CDA132E1CDA436E1C9E5CDA136D1A1
:102A0000E1C9CDC8337E47FE8CCA112ACD72268813
:102A10002B4B0D78CAE227CDC728FE2CC0C3122A43
:102A2000CD792C7EFE88CA2E2ACD7226A92BCD6A9E
:102A30002CCD4936CA9329CDFA27DA4E29C3E1278E
:102A40002BCDFA27CAA22AC8FEA5CAD52AFEA8CA33
:102A5000D52AE5FE2CCABE2AFE3BCAF82AC1CD798A
:102A60002CE53AF2C0B7C28E2ACDEE37CDFE303615
:102A7000202A29C1342A29C13A87C04704CA8A2A90
:102A8000043AF0C0863DB8D4A22ACD4331AFC44346
:102A900031E1C3402A3AF0C0B7C8C3A22A360021A8
:102AA000A5C03E0DCD7D263E0ACD7D26AF32F0C0BD
:102AB0003A86C03DC8F5AFCD7D26F1C3B32A3A882A
:102AC000C0473AF0C0B8D4A22AD2F82AD60ED2CC47
:102AD0002A2FC3ED2AF5CDC533CD7226292BF1D689
:102AE000A8E5CAE82A3AF0C02F83D2F82A3C473E2C
:102AF00020CD7D2605C2F12AE1CDFA27C3472A3F22
:102B00005265646F2066726F6D2073746172740D0C
:102B10000A003A12C1B7C29E23C121FF2ACD40311B
:102B2000C3EF24CDAB307EFE223E00328AC0C23DD0
:102B30002BCDFF30CD72263BE5CD43313EE5CDF3C5
:102B400024C1DA4928237EB72BC5CA9029362CC365
:102B5000572BE52A21C1F6AF3212C1E3C3632BCD57
:102B600072262CCD5D2EE3D57EFE2CCA8B2B3A121D
:102B7000C1B7C2F82B3E3FCD7D26CDF324D1C1DABB
:102B80004928237EB72BC5CA9029D53AF2C0B7CAC7
:102B9000B52BCDFA275747FE22CAA92B3A12C1B747
:102BA00057CAA62B163A062C2BCD0231EB21C02B8F
:102BB000E3D5C3C329CDFA27CD5037E3CDA136E104
:102BC0002BCDFA27CACC2BFE2CC2122BE32BCDFA2D
:102BD00027C25F2BD13A12C1B7EBC22028D5B6214C
:102BE000E72BC44031E1C93F4578747261206967C1
:102BF0006E6F7265640D0A00CD9129B7C2112C2346
:102C00007E23B61E06CAB823235E2356EB220EC1CE
:102C1000EBCDFA27FE83C2F82BC38B2B110000C427
:102C20005D2E2213C1CD4D23C2AA23F9D57E23F5F3
:102C3000D5CD8736E3E5CDF433E1CDA136E1CD98AE
:102C400036E5CDC436E1C190CD9836CA572CEB227B
:102C5000A1C06960C3B627F92A13C17EFE2CC2BA8F
:102C600027CDFA27CD1F2CCD792CF6373AF2C08F1D
:102C7000B7E8C3B623CD7226282B1600D50E01CD9A
:102C80008123CDF02C2215C12A15C1C178FE78D43C
:102C90006A2C7E1600D6B3DAB12CFE03D2B12CFE1C
:102CA0000117AABA57DAA423220AC1CDFA27C3957D
:102CB0002C7AB7C2D82D7E220AC1D6ACD8FE07D056
:102CC0005F3AF2C03DB37BCA363207835F2196225A
:102CD000197856BAD023CD6A2CC501882CC5434A31
:102CE000CD7A3658514E234623C52A0AC1C37C2CBF
:102CF000AF32F2C0CDFA271E24CAB823DA5037CD3E
:102D00009828D2572DFE262012CDFA27FE48CA93C6
:102D10003BFE42CA033C1E02CAB823FEACCAF02CDA
:102D2000FE2ECA5037FEADCA462DFE22CAFF30FE27
:102D3000AACA382EFEA7CA6330D6B6D2682DCD7582
:102D40002CCD722629C9167DCD7C2C2A15C1E5CD46
:102D50007236CD6A2CE1C9CD5D2EE5EB2229C13A50
:102D6000F2C0B7CC8736E1C90600074FC5CDFA27B8
:102D700079FE31DA8F2DCD752CCD72262CCD6B2CB2
:102D8000EB2A29C1E3E5EBCDC833EBE3C3972DCDA7
:102D90003E2DE311522DD501F520094E236669E938
:102DA00015FEADC8FE2DC814FE2BC8FEACC82BC93D
:102DB000F6AFF5CD6A2CCDAC28F1EBC1E3EBCD8AB3
:102DC00036F5CDAC28F1C179212130C2D32DA34FE6
:102DD00078A2E9B34F78B2E921EA2D3AF2C01F7A1E
:102DE000175F166478BAD0C3D92CEC2D79B71FC100
:102DF000D1F5CD6C2C212E2EE5CAC436AF32F2C0EF
:102E0000D5CD83327E23234E2346D1C5F5CD8732DF
:102E1000CD9836F157E17BB2C87AD601D8AFBB3C2A
:102E2000D0151D0ABE2303CA162E3FC354363C8F4D
:102E3000C1A0C6FF9FC35B36165ACD7C2CCD6A2C31
:102E4000CDAC287B2F4F7A2FCD2130C1C3882C2BBE
:102E5000CDFA27C8CD72262C014F2EC5F6AF32F120
:102E6000C046CD9828DAA423AF4F32F2C0CDFA275E
:102E7000DA792ECD9828DA862E4FCDFA27DA7A2EF7
:102E8000CD9828D27A2ED624C2952E3C32F2C00F8D
:102E9000814FCDFA273A10C13DCA422FF2A52E7EAE
:102EA000D628CA1A2FAF3210C1E550592A23C1CDF6
:102EB0006C261125C1CA8A352A1DC1EB2A1BC1CD3A
:102EC0006C26CAD82E799623C2CD2E789623CA0CAA
:102ED0002F23232323C3BF2EE1E3D5115A2DCD6C1D
:102EE00026D1CA0F2FE3E5C50106002A1FC1E50957
:102EF000C1E5CD7023E1221FC16069221DC12B36BF
:102F000000CD6C26C2FE2ED173237223EBE1C932B1
:102F10002CC12140232229C1E1C9E52AF1C0E35790
:102F2000D5C5CDA028C1F1EBE3E5EB3C577EFE2CE7
:102F3000CA202FCD7226292215C1E122F1C01E0020
:102F4000D511E5F52A1DC13E19EB2A1FC1EBCD6C49
:102F500026CA7A2F7EB923C25C2F7EB8235E235601
:102F600023C2482F3AF1C0B7C2AD23F1444DCA8AFB
:102F70003596CAD82F1E10C3B823110400F1CAC158
:102F800028712370234FCD81232323220AC171236B
:102F90003AF1C01779010B00D29D2FC10371237044
:102FA00023F5E5CD3537EBE1F13DC2952FF5424BE9
:102FB000EB19DA9923CD8A23221FC12B3600CD6C61
:102FC00026C2BB2F03572A0AC15EEB2909EB2B2B24
:102FD00073237223F1DAFC2F474F7E2316E15E2321
:102FE0005623E3F5CD6C26D2752FE5CD3537D119B3
:102FF000F13D444DC2DD2F2929C109EB2A15C1C974
:103000002A1FC1EB210000393AF2C0B7CA1C30CDEB
:103010008332CD83312A9FC0EB2A08C17D934F7C38
:103020009A41501E0021F2C0730690C360363AF0F8
:10303000C047AFC32230CDB930CDAB30019129C5E7
:10304000D5CD722628CD5D2EE5EB2B562B5EE1CD3E
:103050006A2CCD722629CD7226B4444DE3712370BB
:10306000C3F830CDB930D5CD3E2DCD6A2CE35E23EB
:1030700056237AB3CAB0237E23666FE52A23C1E3C1
:103080002223C12A27C1E52A25C1E52125C1D5CDA5
:10309000A136E1CD672C2BCDFA27C2A423E122254E
:1030A000C1E12227C1E12223C1E1C9E52AA1C02350
:1030B0007CB5E1C01E16C3B823CD7226A73E803270
:1030C00010C1B647CD622EC36A2CCD6A2CCDEE3727
:1030D000CDFE30CD833201DE32C57E2323E5CD59CE
:1030E00031E14E2346CDF230E56FCD7632D1C9CDF8
:1030F00059312104C1E5772323732372E1C92B06DB
:103100002250E50EFF237E0CB7CA1431BACA14311F
:10311000B8C20531FE22CCFA27E323EB79CDF23099
:103120001104C12AF6C02229C13E0132F2C0CDA449
:1031300036CD6C2622F6C0E17EC01E1EC3B8232306
:10314000CDFE30CD8332CD98361C1DC80ACD7D26EC
:10315000FE0DCCAC2A03C34A31B70EF1F52A9FC04D
:10316000EB2A08C12F4F06FF0923CD6C26DA7731F1
:103170002208C123EBF1C9F11E1ACAB823BFF50119
:103180005B31C52AF4C02208C1210000E52A9FC096
:10319000E521F8C0EB2AF6C0EBCD6C26019431C2D4
:1031A000E8312A1BC1EB2A1DC1EBCD6C26CABB310D
:1031B0007E2323B7CDEB31C3A531C1EB2A1FC1EB71
:1031C000CD6C26CA1132CD98367BE509B7F2BA31FB
:1031D000220AC1E14E0600090923EB2A0AC1EBCD00
:1031E0006C26CABB3101DA31C5F6807E23235E230B
:1031F0005623F0B7C8444D2A08C1CD6C266069D863
:10320000E1E3CD6C26E3E56069D0C1F1F1E5D5C518
:10321000C9D1E17DB4C82B462B4EE52B2B6E260081
:103220000950592B444D2A08C1CD7323E1712370F5
:1032300069602BC38631C5E52A29C1E3CDF02CE3B3
:10324000CD6B2C7EE52A29C1E5861E1CDAB823CD7C
:10325000EF30D1CD8732E3CD8632E52A06C1EBCD02
:103260006D32CD6D3221852CE3E5C32031E1E37E63
:1032700023234E23466F2C2DC80A120313C3773223
:10328000CD6B2C2A29C1EBCDA132EBC0D550591BF7
:103290004E2A08C1CD6C26C29F3247092208C1E1DF
:1032A000C92AF6C02B462B4E2B2BCD6C26C022F6FE
:1032B000C0C9013130C5CD8032AF5732F2C07EB7C0
:1032C000C9013130C5CDB632CAC12823235E235689
:1032D0001AC93E01CDEF30CDCB332A06C173C1C32D
:1032E0002031CD7B33AFE34FE57EB8DAF032781191
:1032F0000E00C5CD5931C1E1E5232346236668069A
:103300000009444DCDF2306FCD7632D1CD8732C336
:103310002031CD7B33D1D51A90C3E632EB7ECD8000
:10332000330405CAC128C51EFFFE29CA3533CD7234
:10333000262CCDC833CD722629F1E301E832C53DF4
:10334000BE0600D04F7E91BB47D843C9CDB632CA26
:1033500069345F23237E23666FE5194672E3C57ED9
:10336000FE24C26A33CD933B180DFE25C27433CDC3
:10337000033C1803CD5037C1E170C9EBCD7226294B
:10338000C1D1C543C9CDCB333284C0CD83C0C33195
:1033900030CDB533C34BC0CDB533F51E002BCDFAC0
:1033A00027CAAB33CD72262CCDC833C1CD83C0AB79
:1033B000A0CAAC33C9CDC8333284C0324CC0CD7240
:1033C000262CC3C833CDFA27CD672CCDA6287AB7D3
:1033D000C2C1282BCDFA277BC9CDAC281AC3313006
:1033E000CD672CCDAC28D5CD72262CCDC833D112CB
:1033F000C921C738CD9836C30334CD983621C1D101
:10340000CD723678B7C83A2CC1B7CA8A3690D21D69
:10341000342F3CEBCD7A36EBCD8A36C1D1FE19D0B4
:10342000F5CDAF3667F1CDC834B42129C1F24334AC
:10343000CDA834D289342334CAB3232E01CDDE344F
:10344000C38934AF90477E9B5F237E9A57237E9932
:103450004FDCB4346863AF4779B7C276344A5465F9
:103460006F78D608FEE0C25734AF322CC1C90529A7
:103470007A1757798F4FF26E34785C45B7CA893422
:10348000212CC18677D26934C878212CC1B7FC9B26
:103490003446237EE680A94FC38A361CC014C00C74
:1034A000C00E8034C0C3B3237E835F237E8A57233C
:1034B0007E894FC9212DC17E2F77AF6F90477D9BAD
:1034C0005F7D9A577D994FC90600D608DAD73443F5
:1034D0005A510E00C3CA34C6096FAF2DC8791F4FA9
:1034E0007A1F577B1F5F781F47C3DA3400000081C3
:1034F00003AA561980F122768045AA3882CD493632
:10350000B7EAC128212CC17E01358011F30490F562
:1035100070D5C5CD0334C1D104CD9F3521EC34CD58
:10352000FA3321F034CD9139018080110000CD03B0
:1035300034F1CDC43701318011187221C1D1CD4988
:1035400036C82E00CD073679323BC1EB223CC10193
:1035500000005058215434E5216035E5E52129C1AA
:103560007E23B7CA8C35E52E081F6779D27A35E5F8
:103570002A3CC119EBE13A3BC1891F4F7A1F577BA7
:103580001F5F781F472D7CC26935E1C9435A514FEF
:10359000C9CD7A36012084110000CD8A36C1D1CD43
:1035A0004936CAA7232EFFCD073634342B7E325737
:1035B000C02B7E3253C02B7E324FC041EBAF4F57F2
:1035C0005F325AC0E5C57DCD4EC0DE003FD2D73553
:1035D000325AC0F1F137D2C1E1793C3D1FFA8A3449
:1035E000177B175F7A175779174F297817473A5A79
:1035F000C017325AC079B2B3C2C435E5212CC135E7
:10360000E1C2C435C3B32378B7CA2B367D212CC1A0
:10361000AE80471FA878F22A36C68077CA8A35CD91
:10362000AF36772BC9CD49362FE1B7E1F26934C304
:10363000B323CD953678B7C8C602DAB32347CD0396
:1036400034212CC134C0C3B3233A2CC1B7C83A2BA0
:10365000C1FE2F179FC03CC9CD4936068811000016
:10366000212CC14F70060023368017C35134CD4939
:1036700036F0212BC17EEE8077C9EB2A29C1E3E524
:103680002A2BC1E3E5EBC9CD9836EB2229C160694D
:10369000222BC1EBC92129C15E2356234E23462389
:1036A000C91129C106041A77132305C2A636C921F8
:1036B0002BC17E07371F773F1F2323777907371FDB
:1036C0004F1FAEC978B7CA4936215236E5CD4936C3
:1036D00079C8212BC1AE79F8CDDE361FA9C9237870
:1036E000BEC02B79BEC02B7ABEC02B7B96C0E1E159
:1036F000C9474F575FB7C8E5CD9536CDAF36AE67F2
:10370000FC15373E9890CDC8347C17DC9B340600FE
:10371000DCB434E1C91B7AA33CC00BC9212CC17EA7
:10372000FE983A29C1D07ECDF13636987BF57917CF
:10373000CD5134F1C921000078B1C83E1029DA75A5
:103740002FEB29EBD24B3709DA752F3DC23D37C934
:10375000FE2DF5CA5C37FE2BCA5C372BCD6934478A
:10376000575F2F4FCDFA27DAAD37FE2ECA8837FEC6
:1037700045C28C37CDFA27CDA02DCDFA27DACF3729
:1037800014C28C37AF935F0C0CCA6437E57B90F49E
:10379000A537F29B37F5CD9135F13CC28F37D1F18A
:1037A000CC7236EBC9C8F5CD3236F13DC9D5577864
:1037B0008947C5E5D5CD3236F1D630CDC437E1C124
:1037C000D1C36437CD7A36CD5B36C1D1C303347BE8
:1037D0000707830786D6305FC37A37E5213C23CDC0
:1037E0004031E1EBAF0698CD6036213F31E5212E27
:1037F000C1E5CD49363620F2FC37362D233630CAA6
:10380000B238E5FC7236AFF5CDB83801439111F806
:103810004FCDC436B7E22938F1CDA637F5C30B3802
:10382000CD9135F13CF5CDB838CDF1333CCDF13605
:10383000CD8A36010603F1813CFA4538FE08D245AF
:10384000383C473E023D3DE1F511CB3805C25638C4
:10385000362E2336302305362ECC9F36C5E5D5CD02
:103860009536E1062F047B965F237A9E5723799E37
:103870004F2B2BD26538CDA83423CD8A36EBE1709F
:1038800023C10DC2563805CA96382B7EFE30CA8A2F
:1038900038FE2EC49F36F1CAB538364523362BF292
:1038A000A638362D2F3C062F04D60AD2A838C63AA1
:1038B000237023772371E1C901749411F723CDC4D8
:1038C00036B7E1E22038E900000080A08601102729
:1038D00000E803006400000A0000010000217236C5
:1038E000E3E9CD7A3621C738CD8736C1D1CD493607
:1038F00078CA3039F2FB38B7CAA723B7CA6A34D5B9
:10390000C579F67FCD9536F21839D5C5CD1C37C1AE
:10391000D1F5CDC436E17C1FE1222BC1E12229C1C2
:10392000DCDD38CC7236D5C5CDFD34C1D1CD3E35C8
:10393000CD7A36013881113BAACD3E353A2CC1FEF5
:1039400088D22536CD1C37C680C602DA2536F52149
:10395000EC34CDF433CD3535F1C1D1F5CD0034CDD6
:103960007236217039CDA039110000C14AC33E35ED
:1039700008402E9474704F2E776E02887AE6A02A43
:103980007C50AAAA7EFFFF7F7F000080810000009C
:1039900081CD7A36113C35D5E5CD9536CD3E35E134
:1039A000CD7A367E23CD873606F1C1D13DC8D5C547
:1039B000F5E5CD3E35E1CD9836E5CD0334E1C3A93B
:1039C00039CD4936215EC0FA223A217FC0CD8736F3
:1039D000215EC0C886E6070600772387874F09CD9A
:1039E0009836CD3E353A5DC03CE6030600FE0188C0
:1039F000325DC021263A87874F09CDF433CD953605
:103A00007B59EE4F4F36802B463680215CC0347E8A
:103A1000D6ABC2193A770C151CCD5434217FC0C3E4
:103A2000A136772B772B77C3FD3968B1466899E9C2
:103A3000926910D1756821803ACDF433CD7A360180
:103A4000498311DB0FCD8A36C1D1CD9F35CD7A3672
:103A5000CD1C37C1D1CD003421843ACDFA33CD49C4
:103A60003637F26C3ACDF133CD4936B7F5F47236CC
:103A700021843ACDF433F1D4723621883AC3913996
:103A8000DB0F49810000007F05BAD71E86642699A6
:103A90008758342387E05DA586DA0F4983CD7A36CF
:103AA000CD3C3AC1E1CD7A36EBCD8A36CD363AC33C
:103AB0009D35CD4936FCDD38FC72363A2CC1FE818D
:103AC000DACF3A0100815159CD9F3521FA33E521F2
:103AD000D93ACD913921803AC9094AD73B78026E4B
:103AE000847BFEC12F7C74319A7D843D5A7DC87FD2
:103AF000917EE4BB4C7E6CAAAA7F00000081C9D7EE
:103B0000C93E0CCFC9CDC8337B3287C0C9CD672C25
:103B1000CDAC28ED538BC0ED538DC0C9CDAC28D5AD
:103B2000E146237EC32230CD672CCDAC28D5CD72A3
:103B3000262CCD672CCDAC28E3732372E1C9CD6A66
:103B40002CCDAC28C5212EC17AFE00280CCD763BA9
:103B500078FE302802702371237BCD763B7AFE00FD
:103B6000200578FE30280270237123AF772377C1B8
:103B7000212EC1C3D03047E60FFE0A3802C607C661
:103B8000304F780F0F0F0FE60FFE0A3802C607C638
:103B90003047C9EB210000CDAC3BDACC3B1805CD5A
:103BA000AC3B381F29292929B56F18F3131AFE20B9
:103BB000CAAC3BD630D8FE0A3805D607FE0AD8FE76
:103BC000103FC9EB7A4BE5CD2130E1C91E26C3B8C1
:103BD00023CD6A2CCDAC28C5212EC106110578FE57
:103BE000012808CB13CB1230F41804CB13CB123EB0
:103BF00030CE0077230520F3AF772377C1212EC184
:103C0000C3D030EB210000CD203CDA2E3CD6302949
:103C1000B56FCD203C30F6EB7A4BE5CD2130E1C9D4
:103C2000131AFE20CA203CFE30D8FE323FC91E289F
:103C3000C3B8230E01F7C93E003292C0C31420F569
:103C4000A0C1B83E00C9CD7D26C3A22AFFFFFFFF59
:103C5000FFFFFFFFFFFFFFFFFFFFFFFFFFFFFFFF74
:103C6000FFFFFFFFFFFFFFFFFFFFFFFFFFFFFFFF64
:103C7000FFFFFFFFFFFFFFFFFFFFFFFFFFFFFFFF54
:103C8000FFFFFFFFFFFFFFFFFFFFFFFFFFFFFFFF44
:10C00000080E0001B16F3F0E0201046F040100979A
:10C01000C696010E456F400E446F2F0E436F000E03
:10C02000476F4691468F010E0201D56FA00ED46F67
:10C03000D189D18B0401009FC68E070E0201766F55
:10C040000401009DBE8CC69C260E0201076FD28F94
:10C05000000E0401186F1969C968000E086F09699C
:10C06000C768000E106F1169C86820912181CA80CD
:10C070002093C292CA922095C284CA9400910181F1
:10C08000C680009B018BC68A00930183C6820095FF
:10C090000185C6840099BE88C698010E0201616FB1
:10C0A000020E626F050E656F1F0E636F1E0E646FCA
:10C0B0001D0E676F1C0E686F010E056F000E0001EC
:10C0C000D56F000ED76F360ED86F370ED96F380E7A
:10C0D000DA6F3A0EDB6F020EDC6F080EDD6F200E9A
:10C0E000DE6F800EDF6F820ED66F010ED56F0D0EE4
:10C0F000D76F020ED86F030ED96F060EDA6F070ED8
:10C10000DB6F050EDC6F500EDD6F000EDE6F000E74
:10C11000DF6F820ED66F020ED56F8C0ED76F020EB8
:10C12000D86F030ED96F7F0EDA6F7F0EDB6F020EB2
:10C13000DC6F080EDD6F000EDE6F000EDF6F820E0B
:10C14000D66F030ED56F830ED76F000ED86F010E1A
:10C15000D96F340EDA6F040EDB6F820EDC6F140EB3
:10C16000DD6F000EDE6F000EDF6F040ED66FD78519
:10C17000D7958C0ED66F040ED56F820ED76F390E01
:10C18000D86F010ED96F340EDA6F040EDB6F010E1B
:10C19000DC6F540EDD6F000EDE6F000EDF6F040EDD
:10C1A000D66FD785D7958C0ED66F050ED56F830EBB
:10C1B000D76F000ED86F010ED96F350EDA6F040EEF
:10C1C000DB6F820EDC6F140EDD6F000EDE6F000E73
:10C1D000DF6F040ED66FD785D7958C0ED66F060EFF
:10C1E000D56F000ED76F080ED86F000ED96F7F0E77
:10C1F000DA6F7F0EDB6F020EDC6F080EDD6F000E54
:10C20000DE6F000EDF6F040ED66F840ED66F070E42
:10C21000D56F820ED76F000ED86F010ED96F340E16
:10C22000DA6F350EDB6F010EDC6FA40EDD6F000ED2
:10C23000DE6F000EDF6F040ED66FD785D7958C0E9C
:10C24000D66F100E03011A6F800E1B6FE10E186F70
:10C25000870E196F000E106E000E0F6E870E0E6E99
:10C26000E10E0D6E550E0401596FAA0E596F5991CA
:10C27000080E5D6F000E5E6F000E5F6F550E596FFA
:10C28000AA0E596F5981B79AB892B992BD92B19ED0
:10C29000D68EA78AA882A982AD82A18EC2824FEFD4
:06C2A000E1F085EF00F063
:10C2A800BD92D1C412F5CFC411F53AEFE2F0000EF9
:10C2B800C86E8AEFE1F0B7C4C0F4C7EFE1F0C7C2B7
:10C2C800C0F4C7EFE1F01AC3C0F4C7EFE1F01BC335
:10C2D800C0F4C7EFE1F018C3C0F4C7EFE1F019C329
:10C2E800C0F4C7EFE1F00FC5C0F4C7EFE1F010C527
:10C2F800C0F4C7EFE1F00DC5C0F4C7EFE1F00EC51B
:10C30800C0F4C7EFE1F0C068C7EFE1F011C50BF565
:10C3180012C50CF50C50F80AD8B499EFE1F0070AE9
:10C32800D8B4BCEFE1F087EFE1F00B50000AD8B4C5
:10C3380067EFE1F0010AD8B46BEFE1F0030AD8B473
:10C348007FEFE1F0010AD8B483EFE1F0130AD8B423
:10C358006FEFE1F0010AD8B473EFE1F0310AD8B415
:10C3680077EFE1F0010AD8B47BEFE1F087EFE1F075
:10C378000B50000AD8B463EFE1F0010AD8B45FEFBC
:10C38800E1F087EFE1F0070E0001D56FD785D7956B
:10C39800CEA2D1EFE1F0D3EFE1F0CCEFE1F0C86845
:10C3A80047EFE2F0D0C4C9F233EFE2F0D0C41AF399
:10C3B80033EFE2F0D0C41BF333EFE2F0D0C418F34C
:10C3C80033EFE2F0D0C419F333EFE2F0D0C40FF545
:10C3D80033EFE2F0D0C410F533EFE2F0D0C40DF53E
:10C3E80033EFE2F0D0C40EF533EFE2F011C50BF5F0
:10C3F80012C50CF50C50F80AD8B409EFE2F0070A98
:10C40800D8B42CEFE2F033EFE2F00B50000AD8B4C6
:10C41800DAEFE1F0010AD8B4DEEFE1F0030AD8B4AC
:10C42800F2EFE1F0010AD8B4F6EFE1F0130AD8B45C
:10C43800E2EFE1F0010AD8B4E6EFE1F0310AD8B44E
:10C44800EAEFE1F0010AD8B4EEEFE1F033EFE2F001
:10C458000B50000AD8B4D6EFE1F033EFE2F0070E44
:10C468000001D56FD785D79547EFE2F0000ECEBA19
:10C47800010E000AD8B45BEFE1F0010AD8B4FAEF74
:10C48800E1F047EFE2F01100F6C407F5F7C408F54C
:10C49800F8C409F5F5C40AF5B992000EC86ED1C4FE
:10C4A80012F5CFC411F5000E1124F66E000E1220FD
:10C4B800F76EF86A010EF8220800F5C4C0F4050EFC
:10C4C8000001D56FD785D795CEA26DEFE2F06FEF5B
:10C4D800E2F068EFE2F0C8680AC5F5F409C5F8F4B7
:0AC4E80008C5F7F407C5F6F41100CB
:10C4F400B79A000EC86ED1C412F5CFC411F5FF0E61
:10C504001114036E3F0E1214046E000E0324D96E30
:10C51400070E0420DA6EDF50C06E030E0001D56FE3
:10C52400D785D795CEA299EFE2F09BEFE2F094EF96
:10C53400E2F0C8681100126A116A106A0F6A0E6A82
:10C544000D6A01EE00F31CEE00F0EE6AE550E150D6
:10C55400FCE1E250FAE10401080E5D6F000E5E6F2B
:0AC56400000E5F6F000100EFE0F031
:10C57000B892D1C412F5CFC411F5FF0E1114056E97
:10C580003F0E1214066E000E0524D96E070E06200B
:10C59000DA6ED0C4DFF4040E0001D56FD785D795CD
:02C5A000110088
:10C5A400B19E18C301F519C302F50D500124016EA3
:10C5B4000E500220026E01C518F302C519F30F4A8A
:06C5C400102A1100110015
:020000040020DA
:10000000FF0FFF0FFF0FFF0FFF0FFF0FFF0FFF0F80
:10001000FF0FFF0FFF0FFF0FFF0FFF0FFF0FFF0F70
:10002000FF0FFF0FFF0FFF0FFF0FFF0FFF0FFF0F60
:10003000FF0FFF0FFF0FFF0FFF0FFF0FFF0FFF0F50
:020000040030CA
:100000008CEFFFF79FFFFFFFFFFFFFFFFFFFFFFFEB
:10001000FFFFFFFFFFFFFFFFFFFFFFFFFFFFFFFFF0
:04002000FFFFFFFFE0
:00000001FF
