:0400000085EF00F098
:10000800A540A540A540A540A5400040A540A54065
:10001800A540A540A540A540A540A540A540A540B0
:10002800A540A540A540A540A540A540A540A540A0
:10003800A540A540A540A540A540A540A540A54090
:10004800A540A540A540A540A540A540A540A54080
:10005800A540A540A540A540A540A540A540A54070
:10006800A540A540A540A540A540A540A540A54060
:10007800A540A540A540A5404200A540A540A540F3
:10008800A540A540A540A540A540A540A540A54040
:10009800A540A540A540A5404200A540A540A540D3
:1000A800A540A540A540A540A540A540A540A54020
:1000B800A540A540A540A540A540A540A540A54010
:1000C800A540A540A540A540A540A540A540A54000
:1000D800A540A540A540A540A540A540A540A540F0
:1000E8004200A540A540A540A540A540A540A54083
:1000F800A540A540A540A540A540A540A540A540D0
:06010800FF0031EF81F061
:10BFFE0000C34000C391180000C3181F00000000CA
:10C00E0000C3071F0000000000C900000000000070
:10C01E0000C900000000000000C900000000000080
:10C02E0000C354180000000000C3D5180000000023
:10C03E0000F331009F21008022209F22279F22257E
:10C04E009F3E4932299FAF212C9F061A772310FC61
:10C05E0021C09E22409F21008022429F06083E2E34
:10C06E00216B9F772310FCAF77061421579FAF7774
:10C07E002310FC3E4932519F3E4E32509F2E00659A
:10C08E0022529FAF32569F21008022599F225D9FE0
:10C09E0022619F22659F22699F7E32589F325C9F4C
:10C0AE0032609F32649F32689F21721CCD481721E7
:10C0BE00AF1CCD4817CDA817CD0218B728F1FE44F6
:10C0CE00CA6006FE47CA4713FE53CA0E14FE4CCA78
:10C0DE008414FE50CA5E15FE52CA3616FE23CA0ED0
:10C0EE0001FE42CA2202FE54CAD702FE3F28082190
:10C0FE00CC1CCD481718B821C81ACD481718B02334
:10C10E00CD0218B728E9FE4C2825CDB60138E079C6
:10C11E00FE11D2FE00B7CAFE003D1716005F215C6D
:10C12E0001195E2356EB5E23567AB328C2EBE92142
:10C13E005C015E235623D5DDE1DD7E00DDB60128F0
:10C14E00091313EBCD4817EB18E8C3BE007C01981A
:10C15E0001B401B401B401B401B401B401B401B429
:10C16E0001B401B401B401B401B401B40100203131
:10C17E002E204241534943342E376220436F6C6464
:10C18E002053746172740D0A000320322E20424136
:10C19E00534943342E3762205761726D20537461B8
:10C1AE0072740D0A000000AF474FCD0218B7C8CD0C
:10C1BE00D401D8F508F1CDE301D80816005FCDFA09
:10C1CE0001D82318E5B7280AFE30D8FE3A3003D638
:10C1DE0030C937C9C5CB21CB10CB21CB10CB21CB4E
:10C1EE0010D1D8CDFA01D8CDFA01C9E5D5E109E5CE
:10C1FE00C1E1C93A5F9FB728082A619F3E31CDBD84
:10C20E00023A639FB7CABE002A659F3E32CDBD0279
:10C21E00C3BE0023CD0218B728D9015F9FFE312877
:10C22E000E01639FFE322807FE43283EC3FE000820
:10C23E0023CD0218B7285AFE2CC2FE0023CD0218B9
:10C24E00C5CD1218E1DAFE00CD6002DAFE00C3BEE3
:10C25E00007AFE80DA7702FEE0D277023E01772383
:10C26E001A7723732372B7C937C923CD0218B7289B
:10C27E0014015F9FFE31280801639FFE32C2FE004B
:10C28E00AF02C3BE00AF015F9F0201639F02C3BE38
:10C29E00000AB7CABE00082A619FFE3128032A652C
:10C2AE009FCDBD02C3BE0042502800293A00E5F5DD
:10C2BE0021B602CD4817F1CD181F21BA02CD48176D
:10C2CE00E1CD5117CD9117C9E52E00260022529FC0
:10C2DE002A429F22549FAF32569FE123CD0218CDA2
:10C2EE001218D29D03CD02187EB7CAC603FE2CCA01
:10C2FE00AE03FE50284EFE4DC2FE0023CD02182185
:10C30E004503FE492810214B03FE532809B7C2FEF0
:10C31E00003A519F18E932519FE5213603CD481757
:10C32E00E1CD4817C3BE00544D206D6F64653A3C95
:10C33E0043414C4C2000494E3E0D0A00534B495090
:10C34E003E0D0A0023CD0218B720053A509F18095A
:10C35E00FE4FC2FE0023CD0218219203FE4E280886
:10C36E00219703FE46C2FE0032509FE5218803CD81
:10C37E004817E1CD4817C3BE005450206D6F646559
:10C38E003A20004F4E0D0A004F46460D0A00ED535F
:10C39E00549FCD0218B7281FFE2C2803C3FE00237E
:10C3AE00CD0218B7CAFE00FE2D2811CDB601DAFE59
:10C3BE0000ED43529F181B01010018F523CD021802
:10C3CE00FE31C2FE0023CD0218B7C2FE003E01327E
:10C3DE00569F2A549F7E010800217E05EDB1201341
:10C3EE000E01CD4705DA06050E02CD2705DA060544
:10C3FE00C30305010500218605EDB120190E012AA2
:10C40E00549FCD1A05CD5405DA06050E02CD2C0526
:10C41E00DA0605C30305010800218B05EDB12004E2
:10C42E000E011813010800219305EDB1201A0E011B
:10C43E003A519FFE532808CD3B05DA06050E02CD74
:10C44E003105DA0605C30305FEC9200B0E01CD47E3
:10C45E0005DA0605C30305010800219B05EDB12091
:10C46E000B0E01CD2705DA0605C30305FEED2013DD
:10C47E00237EFE452804FE4D20090E01CD470538CA
:10C48E007618712A549F7EFEE9200C2A329F0E01E7
:10C49E00CD54053862185DFEDD200B237EFEE920AB
:10C4AE00052A3C9F18E82A549F7EFEFD200B237E12
:10C4BE00FEE920052A3E9F18D52A549F7EFE18209D
:10C4CE000C0E01CD1A05CD5405382C1827FEC320AD
:10C4DE00090E01CD3B05381F181AFECDC2A3050E5D
:10C4EE00013A519FFE532807CD3B05380A1805CD5A
:10C4FE0031053803C38A13211005CD4817C3BE007A
:10C50E00FF416472204552520D0A00235E2316FF2E
:10C51E00CB7B2002160019C92A549F180A2A549F51
:10C52E0018042A549F232323CD5405C92A549F232C
:10C53E005E2356EBCD5405C9ED5B409F1A6F131A5F
:10C54E0067CD5405C97CFE803823FE9F301F79FECF
:10C55E0001200D11579F1222599F7E32589F180BA2
:10C56E00115B9F12225D9F7E325C9FAFC937C9C09F
:10C57E00C8D0D8E0E8F0F81020283038C2CAD2DA95
:10C58E00E2EAF2FAC4CCD4DCE4ECF4FCC7CFD7DF99
:10C59E00E7EFF7FF011200213C06EDB1CA170601C5
:10C5AE000800214E06EDB1CA22062A549FFECB2862
:10C5BE0057FEDD280AFEED2828FEFD2802183E2330
:10C5CE007EFECB2859FE212855FE222851FE2A2810
:10C5DE004DFE362849010A00215606EDB1282918CC
:10C5EE0032237EFE432837FE4B2833FE53282FFE80
:10C5FE005B282BFE732827FE7B2823180B0E01CDFC
:10C60E002705DA0605C303050E01CD2C05DA06054E
:10C61E00C303050E01CD3105DA0605C303050E0170
:10C62E002A549F23CD3405DA0605C30305060E16DC
:10C63E001E262E363EC6CEDED6E6EEF6FEDBD30147
:10C64E0011213122322A3A09192939232BE5E1E346
:10C65E00F9237EFE49CA6807CD0218CD1218380696
:10C66E00ED53209F1810E52A209F018000092222F9
:10C67E009FE17EB7282BCD02187EFE2C280DB7C267
:10C68E00FE002180001922229F181623CD0218CDFC
:10C69E001218DAFE00CD0218B7C2FE0013ED5322B7
:10C6AE009F2A209F3EF0A56FAF32249FE5CDE20674
:10C6BE00E101100009CD121F20103A249FFE02380E
:10C6CE00EB2A229F22209FC3BE0022209FCD071F50
:10C6DE00C3BE00CD5117E521D41CCD4817E1DD2195
:10C6EE00009F0610CD1C0710FB21D71CCD4817212B
:10C6FE00009F06107E23FE203809FE7F3005CD18E0
:10C70E001F18053E2ECD181F10EAC391173E20CDDF
:10C71E00181F3A249FB720203A209FBD20063A21A9
:10C72E009FBC280F3E20CD181FCD181FDD7700238C
:10C73E00DD23C93E0132249F3A249FFE0120E57E6F
:10C74E00DD7700CD561723DD233A229FBDC03A2355
:10C75E009FBCC03E0232249FC923CD0218CD1218B1
:10C76E003014CD02187EB7201326002E0A7D3276A5
:10C77E009F22749F1833ED53779F18E6FE2CC2FE4E
:10C78E000023CD0218FE5320123E0132769F23CD98
:10C79E00B601DAFE00ED43749F180ECD1218DAFEC4
:10C7AE0000ED53749FAF32769FCD121F2806CD0732
:10C7BE001FC3BE00CD4708CD0C08217E9FCD481764
:10C7CE003A769FB7200E2A749FED4B779FED42303D
:10C7DE00D8C3BE002A749F2B22749F7CB520CAC377
:10C7EE00BE0022779FD5CD4708CD0C08D1217E9F64
:10C7FE00012A00EDB0ED5B779F3A7D9FC9217E9FA8
:10C80E00ED5B779FCDE70FCD7710CD771006043A0D
:10C81E007D9F4F1A13D55FCDEF0FCD7710D1052821
:10C82E000F0D20EFCD7710CD7710CD77100520F4BA
:10C83E00CD7710ED53779FC93E01327D9F11461182
:10C84E00CD0B1021999FCD37102A779F7E010D00B9
:10C85E00218A10EDB12012219912CD8D0FC30B102C
:10C86E00E6380F0F0F4F0600C9FE0A2819FE1A28C8
:10C87E0023FE022824FE122829FEF9202A11FC1E6E
:10C88E00CD5E10C3311011BB1ED5CD5B10D1CD4581
:10C89E0010C3371011C21E18F011BB1ECD4D10C3A0
:10C8AE00261011C21E18F5FE40DA4E09FE80302801
:10C8BE00FE762006114911C30B10CD6F08CD8A0FDD
:10C8CE0021999FCD5E10ED5B779F1AE6074F06000C
:10C8DE00E5CD8A0FE1C33410FE883008CD0810CDA7
:10C8EE005B1018E2FE90300B115211CD0B10CD5B88
:10C8FE001018D3FE983008115611CD0B1018C7FE24
:10C90E00A0300B115A11CD0B10CD5B1018B8FEA82C
:10C91E003008115E11CD0B1018ACFEB0300811624C
:10C92E0011CD0B1018A0FEB83008116611CD0B10EA
:10C93E001894FEC0D2CA09116911CD0B10188701C7
:10C94E000800219710EDB1200EF5116C11CD0B10D2
:10C95E00F1CD6F08C3DF08010800219F10EDB12053
:10C96E000AF5117011CD0B10F118E601040021A784
:10C97E0010EDB1200F116C11CD0B10218912CD814C
:10C98E000FC3371001040021AB10EDB1200F117051
:10C99E0011CD0B10218912CD810FC3371001040068
:10C9AE0021AF10EDB12046CD081011C91ECD5E107D
:10C9BE00E5218912CD8D0FE1C3341001040021B39E
:10C9CE0010EDB1200F117411CD0B10219112CD81EC
:10C9DE000FC3371001040021B710EDB1200F1178ED
:10C9EE0011CD0B10219112CD810FC33710FE0828E7
:10C9FE0017FEE32821FEEB202511C21ECD5E10CDC1
:10CA0E003110117D11C30B10112711CD5E10112A9B
:10CA1E0011CD341018EC11FC1ECD4D1018E1FEE9AD
:10CA2E00200F113211CD0B1011C91ECD4210C3377C
:10CA3E0010010800217E05EDB1200F112E11CD0B36
:10CA4E0010217112CD810FC33710010800219B05F3
:10CA5E00EDB12017114211CD0B10792FCB27CB271B
:10CA6E00CB27E6385F21999FC3960FF53E02327DA4
:10CA7E009FF1010800213C06EDB12016CD6F08CDC7
:10CA8E008A0FCD5E10ED5B779F131A5FCDD90FC362
:10CA9E003710010A00214406EDB1C2F50AC521B3D3
:10CAAE0012CD8D0FCD0B10C179FE012814B7281AA7
:10CABE00FE073803CD5B10ED5B779F131A5FC396AD
:10CACE000FCD5B10CDE50AC3371021999FCDE50A36
:10CADE00CD8310C32610CD6E10ED5B779F131A5FBA
:10CAEE00CDD90FC37210FE1020051138111807FE94
:10CAFE0018200C113511CD0B1021999FC3BA0F01BF
:10CB0E000400218705EDB12012113511CD0B102136
:10CB1E008112CD810FCD8310C3BA0FF53E03327D46
:10CB2E009FF1010400214E06EDB1C24B0B21C7123D
:10CB3E00CD8D0FCD5E10CD730BC39C0FFE22281230
:10CB4E00FE322814FE2A2826FE3AC28C0BCD5B102C
:10CB5E001822CD6D0BC33110CD6D0BC32610CD73C6
:10CB6E000BC3A20FE52A779F235E2356E1C911C995
:10CB7E001ECD5E10CD730BCDB10FC33710FEC3208B
:10CB8E0008113211CD0B1018ADFECD2008113D113C
:10CB9E00CD0B1018A1010800218B05EDB12011114C
:10CBAE003211CD0B10217112CD810FCD831018864D
:10CBBE00010800219305EDB12005113D1118E32A5E
:10CBCE00779F23F53E02327D9FF1FECBC2940C7E01
:10CBDE0021999FFE08DA1D0CFE10DA260CFE18DADB
:10CBEE002F0CFE20DA380CFE28DA410CFE30DA4A21
:10CBFE000CFE38DA6E0CFE40DA530CFE80DA5C0C5A
:10CC0E00FEC0DA650CCD740C113C12C30B10CD793D
:10CC1E000C11B711C30B10CD790C11BB11C30B1036
:10CC2E00CD790C11BF11C30B10CD790C11C211C3EC
:10CC3E000B10CD790C11C511C30B10CD790C11C988
:10CC4E0011C30B10CD790C11CD11C30B10CD740C7B
:10CC5E0011D111C30B10CD740C11D511C30B1011C2
:10CC6E004012C30B10F5CD860CF1E6074F0600E51A
:10CC7E00CD8A0FE1C33410E6380F0F0F473E30B0A8
:10CC8E007723C38310FEDDC23A0E11F61EED5379E3
:10CC9E009F11E312ED537B9F7EFEE3CAEE0CFEE97D
:10CCAE00CADC0CFEF9CAFD0C010400215606EDB1DA
:10CCBE00CA060D010400215A06EDB1C21B0D21DB7F
:10CCCE0012CD8D0FCD0B1021999FC32B10ED5B79DB
:10CCDE009FD5113211CD0B10D1CD4210C33710118B
:10CCEE007D11CD0B1011FC1ECD4D10C32B1011FC60
:10CCFE001ECD5E10C32B10CD0810ED5B799FCD5E5F
:10CD0E0010E52A7B9FCD8D0FE1C33410F53E033223
:10CD1E007D9FF1010E0021BB10EDB1CA5A0DFE86AA
:10CD2E00CA850DFE8ECA900DFE9ECA950D01070096
:10CD3E0021C910EDB1C29A0D21F312CD8D0FCD0B7D
:10CD4E0010ED5B799F21999FC3510F79FE07D27227
:10CD5E000DED5B799FCD480FE5210113CD8D0FE1D0
:10CD6E00C33410D6074F210113CD8D0FCD5E10EDBC
:10CD7E005B799FC3510F114E11CD0B10CD5B101867
:10CD8E00EE11521118F3115A1118EEF53E04327DC0
:10CD9E009FF1FE21CAC00DFE22CACD0DFE2ACAD6B3
:10CDAE000DFE36C2E60DED5B799FCD480F5AC39648
:10CDBE000FED5B799FCD5E10CD760FC39C0FCD76B8
:10CDCE000FCDA20FC32B10ED5B799FCD5E10CD76EC
:10CDDE000FCDB10FC33710FECBC26E0CCD760F7ACE
:10CDEE0001070021D010EDB1C2060E213913CD8DF1
:10CDFE000FCD0B10C3500D01180021D710EDB1C28D
:10CE0E006E0CFE80DA2A0EFEC0DA320E113C12CD06
:10CE1E000B1021999FCD860CC37E0D11D111CD0B18
:10CE2E001018EF11D511CD0B1018E7FEEDC2370F0C
:10CE3E007E01380021EF10EDB1C26E0C79FE06DADC
:10CE4E00180FFE1BDA0A0FFE1EDAF70ECAD70EFEF9
:10CE5E001FCAE00EFE20CAE90EFE21CAF20EFE2601
:10CE6E00DAC60EFE2ADAB00EFE31DA950E11B411C4
:10CE7E00CD0B1079D6314F210113CD8D0FCD5E1014
:10CE8E00114412C3341011B011CD0B10114412CD38
:10CE9E005E1079D62A4FE5210113CD8D0FE1C334F3
:10CEAE0010115A11CD0B1011C91ECD5E1079D62658
:10CEBE004FE521891218E3115211CD0B1011C91E25
:10CECE00CD5E1079D62218E8CD5B1011041FC33445
:10CEDE0010CD5B1011021FC3341011041FCD5E1054
:10CEEE00C3261011021F18F511DD11CD0B103E1DBA
:10CEFE0091C63021999F7723C33710D6064F06006F
:10CF0E00210F13CD8D0FC30B103E04327D9FC579BB
:10CF1E0021CF12CD8D0FC179FE03DADA0DD5CD7684
:10CF2E000FCDA20FD1C3341011F91EED53799F11FD
:10CF3E00EB12ED537B9FC3A70C21999FCD570FC3C7
:10CF4E008310CD570FC33710CD6E10CD6610CD7632
:10CF5E000F7BFE80380CED445FCD7F10CDD90FC313
:10CF6E007210CD7B1018F5E52A779F23235E23568A
:10CF7E00E1C9CD8D0F21999FC36610216112CB217E
:10CF8E00CB10095E2356C9CDD90FC33710CDC80FAC
:10CF9E00C3371021999FCD6E10CDC80FCD7210C31F
:10CFAE008310CD6E10CDC80FC37210E52A779FCDBA
:10CFBE001A05EBE1CDC80F186F7AFEA038043E308B
:10CFCE007723CDE70F3E48C374107BFEA038043E96
:10CFDE00307723CDEF0F18ED7ACDF80F7ACDFC0F09
:10CFEE007BCDF80F7BCDFC0FC90F0F0F0FE60FF6A1
:10CFFE0030FE3A3870C607186C114E11F5C506088A
:10D00E0021919F1AB728067723130518F63E20772D
:10D01E00230520FBC1F1C911B91E1809ED5B799FDB
:10D02E00180311C91ECD66103E0D77233E0A7723D5
:10D03E00AF77C921999FCD6E10CD66101825219915
:10D04E009FCD6E10CD6610CD7210182811B91E210D
:10D05E00999FCD6610181D1A77B7C8231318F83E7E
:10D06E002818023E297723C93E2018F93E2B18F5C1
:10D07E003E2D18F13E2CCD741018ED00070F171F22
:10D08E00272F373FC9D9F3FB040C141C242C343C36
:10D09E00050D151D252D353D031323330B1B2B3B82
:10D0AE0009192939C1D1E1F1C5D5E5F5464E565ECE
:10D0BE00666E7E7071727374757796A6AEB6BE3458
:10D0CE0035060E161E262E3E464E565E666E767E33
:10D0DE00868E969EA6AEB6BEC6CED6DEE6EEF6FE22
:10D0EE0040485058606878414951596169794252B7
:10D0FE0062724A5A6A7A474F575F46565E44454DAA
:10D10E00676FA0A1A2A3A8A9AAABB0B1B2B3B8B9D8
:10D11E00BABB4353734B5B7B4146004146270052DB
:10D12E004554004A50004A5200444A4E5A00434168
:10D13E004C4C00525354004C440048414C54004156
:10D14E00444400414443005355420053424300417E
:10D15E004E4400584F52004F5200435000494E4328
:10D16E000044454300504F50005055534800455819
:10D17E0000455858004E4F5000524C4341005252F9
:10D18E00434100524C410052524100444141004340
:10D19E00504C005343460043434600444900454922
:10D1AE00004F555400494E00524C4300525243001A
:10D1BE00524C00525200534C4100535241005352B4
:10D1CE004C0042495400524553004E454700494DCC
:10D1DE000052524400524C44004C444900435049C2
:10D1EE0000494E49004F555449004C4444004350A9
:10D1FE004400494E44004F555444004C444952009B
:10D20E004350495200494E4952004F544952004C26
:10D21E00444452004350445200494E4452004F542D
:10D22E0044520052455449005245544E0053455401
:10D23E00003F3F3F002843290028484C29004E5A02
:10D24E00005A004E43004300504F0050450050001E
:10D25E004D00BE1EC01EC51EC71ECC1ECE1E4812C1
:10D26E00B91E5F125D125A125712551252125012F7
:10D27E004D125512521250124D12FC1EC91EC21ED4
:10D28E00BB1E2711C91EC21EBB1EAD11AA118011D5
:10D29E002E11A611A2119E119A11961192118D1195
:10D2AE0088118411B011B4116911661162115E11E9
:10D2BE0056115A1152114E11FC1EC91EC21EBB1E12
:10D2CE00FC1EC21EBB1EFC1EC21EBB1E741178119C
:10D2DE0070116C11FC1EF61EC21EBB1EFC1EF91E2A
:10D2EE00C21EBB1E70116C116911661162115E11A6
:10D2FE005611B91ECE1ECC1EC71EC51EC01EBE1E8A
:10D30E002D12281223121E12191214120F120A12A3
:10D31E0005120112FD11F911F411F011EC11E811C1
:10D32E00E411E01132123712D911CD11C911C51104
:10D33E00C211BF11BB11B711ED5B429FED534E9F52
:10D34E0023CD0218CD12183003B7280A7AFEE0D288
:10D35E00FE00ED534E9FCD02187EB72818FE2CC24C
:10D36E00FE0023CD0218CD1218DAFE0021679FCDE4
:10D37E006002DAFE002A4E9F22429F3A579FB7283C
:10D38E001A2A549F22429F21579F11599FCD021452
:10D39E00215B9F115D9FCD0214181B215F9F1161B0
:10D3AE009FCD021421639F11659FCD021421679FAB
:10D3BE0011699FCD02142A409FF92A429FE5DD2A6A
:10D3CE003C9FFD2A3E9F2A349FE5ED4B369FED5B39
:10D3DE00389F2A3A9FD9F1082A2C9FE5ED4B2E9FB4
:10D3EE00ED5B309F2A329F3A449FED473A459FEDC1
:10D3FE004FF1C97EB7C81A4F131A473EFF02C92311
:10D40E00CD0218CD1218DAFE00CD02187EB7C2FE7C
:10D41E000079B72004ED5B279FEBCD5117E521D79F
:10D42E001CCD4817E17EE5CD56173E20CD181FCDF9
:10D43E00A817CD02187EB72007E12322279F18DAFE
:10D44E00FE2D2007E12B22279F18CFFE2E2007E16D
:10D45E0022279FC3BE00CD1218B7E1CAFE00732368
:10D46E0022279FED5B619F1A32609FED5B659F1ACD
:10D47E0032649F18A5AF325F9F32639F23CD02188F
:10D48E00CD1218CD02187EB7C2FE0079B720031157
:10D49E000000CD071FFE532861FE3A280DFE0D2811
:10D4AE00F1FE0A28EDCD071F18F33E2ECD181FCD25
:10D4BE006D174F47CD6D1767814FCD6D176F814F2C
:10D4CE0019CD6D17322A9F814F78B72814CD6D175D
:10D4DE00F5814F3A2A9FB72005F177231801F110F5
:10D4EE00ECCD6D1781200A3A2A9FB7CAB414C3BE79
:10D4FE000021B21CCD4817C3BE00CD071F322A9F94
:10D50E00CD6D17474FCD6D1767814FCD6D176F815D
:10D51E004F190505052815CD6D17F5814F3A2A9F30
:10D52E00FE312005F177231801F110EBCD6D178137
:10D53E00FEFF20123A2A9FFE372811FE38280DFED4
:10D54E00392809C3B41421BF1CCD4817C3BE00230C
:10D55E007EFE492804FE5320042332299FCD021853
:10D56E00CD1218B7281CD5DDE1CD02187EFE2C2079
:10D57E001123CD0218CD1218B72807CD02187EB789
:10D58E002803C3FE00DDE5E1EB23B7ED52CDBC155C
:10D59E007CB520F93A299FFE49200921DB1CCD4894
:10D5AE0017C3BE0021E91CCD4817C3BE000E107C68
:10D5BE00B720057DB930014F0600B7ED42413A293B
:10D5CE009FFE4920303E3ACD181F78CD5617487A27
:10D5DE00CD56177A814F7BCD56177B814FAFCD56E7
:10D5EE00171AF5CD5617F1814F1310F579ED44CD7D
:10D5FE005617C391173E53CD181F3E31CD181F78C5
:10D60E00C6034FCD56177ACD56177A814F7BCD561E
:10D61E00177B814F1AF5CD5617F1814F1310F579FF
:10D62E002FCD5617C3911723CD0218B72006CDBCA8
:10D63E0016C3BE00EB219F1DBE280D4F237EB728BB
:10D64E0069790105000918F0237EFE0F2009234E8B
:10D65E00236669131A18E1B728504E235E2356D558
:10D66E00237E23666FCD48173E3DCD181F79E60702
:10D67E00FE012008E17EE5CD5617180CE1E5237E6C
:10D68E00CD56172B7ECD56173E20CD181FC5CDA8D3
:10D69E0017CD0218CD1218B7280DC1E179FE012061
:10D6AE0003731803732372C3BE00C3FE0021F61C5E
:10D6BE005E2356237AB3CA9117D5EBCD4817EBD11B
:10D6CE003E1DBA20073E61BB200218293E1DBA201E
:10D6DE00053E88BB281F5E2356237E23EBFE0120CA
:10D6EE00077ECD5617EB18C8237ECD56172B7ECD51
:10D6FE005617EB18BB5E2356231AD5E5216B9F01F7
:10D70E003817114017F5F1CB273006F50A77F118C7
:10D71E0004F51A77F1031323F57EB720E9F1216B97
:10D72E009FCD4817E1D1231887535A2E482E504EBD
:10D73E00432E2E2E2E2E2E2E2E7EA7C8CD181F2314
:10D74E0018F77CCD56177DF51F1F1F1FCD5F17F1E4
:10D75E00E60FC630FE3ADA181FC607C3181FAFCD44
:10D76E00751707070707C54FCD071FFE303811FE87
:10D77E003A380AFE413809FE473005D607D630B191
:10D78E00C1C93E0DCD181F3E0AC3181FE521A417AF
:10D79E00CD4817E1C91B5B320021009FE5C506008D
:10D7AE00CD071FFE0D2844FE0A2840FE082825FE40
:10D7BE007F2821FE2038E9FE8030E54F78FE1F30AD
:10D7CE00DF0479CD181FFE613806FE7B3002E6DFDE
:10D7DE00772318CC78A728C8052B3E08CD181F3EF6
:10D7EE0020CD181F3E08CD181F18B5CD9117360045
:10D7FE00C1E1C97EFE20C02318F9FE61D8FE7BD0A0
:10D80E00C6E0C90E001100007EFE30382CFE3A38FC
:10D81E000AFE413824FE473020D607D63017171798
:10D82E001717CB13CB1217CB13CB1217CB13CB125D
:10D83E0017CB13CB12230C18CF79B72806FE053061
:10D84E0002B7C937C9E5C521641806000909462380
:10D85E006668C1E3C98E189118181F4817071F1262
:10D86E001FD318511756175F179B17AB1702189136
:10D87E0017091812180A1A401AB61A6318F107C3B4
:10D88E00400031009F3A679FB7280621689FCDC29E
:10D89E00193A579FB7280621589FCDC2193A5B9F58
:10D8AE00B72806215C9FCDC2193A639FB72806217F
:10D8BE00649FCDCE193A5F9FB7280621609FCDCECB
:10D8CE0019C39819AFC9F5ED5F32459FED57324434
:10D8DE009F22329FED53309FED432E9FE1222C9FCE
:10D8EE0008F5D9223A9FED53389FED43369FE1223A
:10D8FE00349FDD223C9FFD223E9FE12B22429FED75
:10D90E0073409F31009FAF575F3A679FB728091149
:10D91E00F81921689FCDC2193A639FB7280911F8EB
:10D92E001921649FCDCE193A5F9FB7280911F819B6
:10D93E0021609FCDCE193A579FB7280911011A21A0
:10D94E00589FCDC2193A5B9FB7280911011A215C65
:10D95E009FCDC2197AB3200311EE191AFE54280C6A
:10D96E00EBCD4817CDBC16CDD519181D3A509FFEDC
:10D97E0046280AEBCD4817CDBC16CDD519CD121FB2
:10D98E002813CD071FFE03200CAF32569F676F2260
:10D99E00529FC3BE003A569FB7C2B9192A529F2B47
:10D9AE0022529F7DB42003C3BE002A429F22549F61
:10D9BE00C3E103E57E234E234602E1AF2B77C97EFA
:10D9CE00234E234602C92A429F22779FCD4708CD78
:10D9DE000C08217E9FCD48172A429F22779FC9525D
:10D9EE005354203338480D0A00427265616B210D85
:10D9FE000A005472616365210D0A00F5C5D5E5DD97
:10DA0E00E5E5DDE1EBE521050019AF77EBE101017D
:10DA1E00003E0ACD401AF6301B120C7CB520F2796E
:10DA2E00FE062806DDE5E1EBEDB0DDE1E1D1C1F169
:10DA3E00C9C5D54F060FAF291791380D292C17914F
:10DA4E00380C292C10F8C3611A29178138F42910C3
:10DA5E00F981D1C1C922469FED53489FAF324A9FEB
:10DA6E00324B9F324C9F324D9F0610214A9FCB2640
:10DA7E0023CB1621469FCB2623CB16214C9FCB16AC
:10DA8E0023CB162A489F5D542A4C9FAFED5230028D
:10DA9E00180B224C9F3A4A9FF601324A9F10CC2A0D
:10DAAE004A9FED5B4C9FC9F5C5B71804CB21CB102F
:10DABE001F30F90920F6C1F1C93F203A436F6D6D51
:10DACE00616E642048656C700D0A445B3C61647243
:10DADE003E5D203A44756D70204D656D6F72790D07
:10DAEE000A535B3C6164723E5D203A536574204D6F
:10DAFE00656D6F72790D0A525B3C7265673E5D20F3
:10DB0E003A536574206F722044756D70207265678C
:10DB1E0069737465720D0A475B3C6164723E5D5BAE
:10DB2E002C3C73746F70206164723E5D203A476FB7
:10DB3E0020616E642053746F700D0A4C203A4C6F46
:10DB4E0061642048657846696C650D0A505B497CB6
:10DB5E00535D203A536176652048657846696C6559
:10DB6E0028493A496E74656C2C533A4D6F746F7236
:10DB7E006F6C610D0A234C7C3C6E756D3E203A4CE9
:10DB8E0061756E63682070726F6772616D0D0A4207
:10DB9E005B317C325B2C3C6164723E5D5D203A539E
:10DBAE006574206F72204C69737420427265616BCC
:10DBBE0020506F696E740D0A42435B317C325D20DA
:10DBCE003A436C65617220427265616B20506F69D9
:10DBDE006E740D0A545B3C6164723E5D5B2C3C734B
:10DBEE00746570733E7C2D315D203A2054726163F2
:10DBFE006520636F6D6D616E640D0A54505B4F4E00
:10DC0E007C4F46465D203A547261636520507269BE
:10DC1E006E74204D6F64650D0A544D5B497C535DE7
:10DC2E00203A5472616365204F7074696F6E20667E
:10DC3E006F722043414C4C0D0A44495B3C61647247
:10DC4E003E5D5B2C733C73746570733E7C3C61640B
:10DC5E00723E5D203A446973617373656D626C65E3
:10DC6E000D0A000D0A454D555A3830204D4F4E497C
:10DC7E00544F52205265762E4230320D0A54686946
:10DC8E0073206D6F6E69746F722069732062617399
:10DC9E006564206F6E20756E696D6F6E2E0D0A00B5
:10DCAE005D20004572726F7220696865780D0A00FA
:10DCBE004572726F7220737265630D0A004572723F
:10DCCE006F720D0A00203A00203A20003A303030B0
:10DCDE00303030303146460D0A0053393033303053
:10DCEE00303046430D0A004B1D2D9F014F1D2E9FB8
:10DCFE0002551D309F025B1D329F02611D2C9F013C
:10DD0E00661D3C9F026B1D3E9F02701D359F017666
:10DD1E001D369F027C1D389F02821D3A9F02881D70
:10DD2E00349F018D1D409F02921D429F02971D44FC
:10DD3E009F019B1D459F01000000000041203D00FA
:10DD4E00204243203D00204445203D0020484C20E9
:10DD5E003D002046203D002049583D002049593DB8
:10DD6E00000D0A41273D00204243273D0020444537
:10DD7E00273D0020484C273D002046273D002053DC
:10DD8E00503D002050433D0020493D0020523D00B3
:10DD9E00410FE91D0000420FF71D0000430F191E31
:10DDAE000000440F271E0000450F491E0000460FBD
:10DDBE00571E0000480F651E0000490F951E0000FB
:10DDCE004C0F871E0000500FA91E00005201459FE8
:10DDDE00041F530FB11E0000000000012D9FB91E3D
:10DDEE002701359FD21E000000012F9FBE1E270166
:10DDFE00379FD91E430F0B1E0000000000022E9FFE
:10DE0E00BB1E2702369FD51E000000012E9FC01E8E
:10DE1E002701369FDC1E00000001319FC51E270121
:10DE2E00399FE31E450F3B1E000000000002309F8D
:10DE3E00C21E2702389FDF1E00000001309FC71E42
:10DE4E002701389FE61E000000012C9FD01E2701DF
:10DE5E00349FF31E00000001339FCC1E27013B9F11
:10DE6E00ED1E4C0F791E000000000002329FC91EED
:10DE7E0027023A9FE91E00000001329FCE1E2701A5
:10DE8E003A9FF01E00000001449F021F58023C9F63
:10DE9E00F61E59023E9FF91E00004302429FFF1ECE
:10DEAE0000005002409FFC1E000041004243004211
:10DEBE0000430044450044004500484C0048004CD7
:10DECE000046004127004243270042270043270017
:10DEDE0044452700442700452700484C2700482783
:10DEEE00004C27004627004958004959005350005E
:10DEFE0050430049005200C93A01E0CB4728F93A95
:10DF0E0000E0C93A01E0CB47C9F53A01E0CB4F2812
:10DF1E00F9F13200E0C9FFFFFFFFFFFFFFFFFFFF38
:10DF2E00FFFFFFFFFFFFFFFFFFFFFFFFFFFFFFFFF3
:10DF3E00FFFFFFFFFFFFFFFFFFFFFFFFFFFFFFFFE3
:10DF4E00FFFFFFFFFFFFFFFFFFFFFFFFFFFFFFFFD3
:10DF5E00FFFFFFFFFFFFFFFFFFFFFFFFFFFFFFFFC3
:10DF6E00FFFFFFFFFFFFFFFFFFFFFFFFFFFFFFFFB3
:10DF7E00FFFFFFFFFFFFFFFFFFFFFFFFFFFFFFFFA3
:10DF8E00FFFFFFFFFFFFFFFFFFFFFFFFFFFFFFFF93
:10DF9E00FFFFFFFFFFFFFFFFFFFFFFFFFFFFFFFF83
:10DFAE00FFFFFFFFFFFFFFFFFFFFFFFFFFFFFFFF73
:10DFBE00FFFFFFFFFFFFFFFFFFFFFFFFFFFFFFFF63
:10DFCE00FFFFFFFFFFFFFFFFFFFFFFFFFFFFFFFF53
:10DFDE00FFFFFFFFFFFFFFFFFFFFFFFFFFFFFFFF43
:10DFEE00FFFFFFFFFFFFFFFFFFFFFFFFFFFFFFFF33
:10DFFE00FFC30620C37B20C30D20BC283230214531
:10E00E0080F9C3463C11E52206632145801A772329
:10E01E001305C21C20F9CDE624CDB22A32EF803290
:10E02E003E8121A281237CB5CA43207E472F77BE35
:10E03E0070CA34202B11A181CD7C26DA842011CE1A
:10E04E00FF22F48019229F80CDC1242A9F8011EFD8
:10E05E00FF19113E817D936F7C9A67E5219C20CD3F
:10E06E005031E1CDF337218D20CD503131AB80CD04
:10E07E00E624C3FF2321D320CD5031C38A20204272
:10E08E007974657320667265650D0A00005A383022
:10E09E002042415349432056657220342E37620D7B
:10E0AE000A436F707972696768742028432920319A
:10E0BE00393738206279204D6963726F736F6674D9
:10E0CE000D0A00004D656D6F72792073697A6520B7
:10E0DE006E6F7420656E6F7567680D0A54686520E3
:10E0EE0073797374656D2069732073746F707065C6
:10E0FE00642E0D0A000068362C377E3648801030AC
:10E10E0095333E30F238D1390D354039463A4C3AD6
:10E11E00AD3AC23AE9332C3B9680C232DA305C33E8
:10E12E00D132E2324E3BE13BF23222332C33C54E3A
:10E13E0044C64F52CE455854C4415441C94E505511
:10E14E0054C4494DD2454144CC4554C74F544FD287
:10E15E00554EC946D24553544F5245C74F5355425B
:10E16E00D2455455524ED2454DD3544F50CF55549F
:10E17E00CF4ECE554C4CD7414954C44546D04F4B4B
:10E18E0045C44F4B45D3435245454ECC494E45535E
:10E19E00C34C53D749445448CD4F4E49544F52D394
:10E1AE004554D245534554D052494E54C34F4E5404
:10E1BE00CC495354C34C454152C34C4F4144C353B5
:10E1CE00415645CE4557D4414228D44FC64ED35022
:10E1DE004328D448454ECE4F54D3544550ABADAAE8
:10E1EE00AFDEC14E44CF52BEBDBCD3474EC94E5416
:10E1FE00C14253D55352C65245C94E50D04F53D338
:10E20E005152D24E44CC4F47C55850C34F53D349A9
:10E21E004ED4414EC1544ED045454BC445454BD0CE
:10E22E004F494E54CC454ED3545224D6414CC15333
:10E23E0043C3485224C8455824C2494E24CC4546AF
:10E24E005424D24947485424CD494424805428515B
:10E25E00272C2CA129332B682E622BB8295E29413D
:10E26E0029302A1A284D297C29A3295228A1331294
:10E27E002A9328A7334630F033373BA3291D3B1191
:10E28E003B153B433C99809C80542A8028C626FB34
:10E29E0028A329A329C02479DA37790E347C4C358A
:10E2AE007CAD357FFB3850C12D46C02D4E46534EAA
:10E2BE0052474F4446434F564F4D554C425344449C
:10E2CE002F304944544D4F534C535354434E55469F
:10E2DE004D4F4858424EC37B20C3D128D300C9D6D8
:10E2EE00006F7CDE006778DE00473E00C90000004C
:10E2FE00354ACA99391C76982295B3980ADD479803
:10E30E0053D199990A1A9F9865BCCD98D6773E98A5
:10E31E0052C74F80DB00C901FF1C0000140014001F
:10E32E0000000000C3F925C30000C30000C30000B5
:10E33E00A281FEFF3F81204572726F720020696ECE
:10E34E0020004F6B0D0A0000427265616B002104C4
:10E35E0000397E23FE81C04E234623E569607AB3E1
:10E36E00EBCA7723EBCD7C26010D00E1C809C36112
:10E37E0023CD9A23C5E3C1CD7C267E02C80B2BC3C9
:10E38E008623E52A1F81060009093EE53ED0956FDA
:10E39E003EFF9CDAA9236739E1D81E0CC3C8232A95
:10E3AE000E8122A1801E02011E14011E00011E12EA
:10E3BE00011E22011E0A011E18CDE624328A80CDCE
:10E3CE00A52A21BB22573E3FCD8D26197ECD8D2607
:10E3DE00CD0A28CD8D26214523CD50312AA180117D
:10E3EE00FEFFCD7C26CA0D207CA53CC4EB373EC17A
:10E3FE00AF328A80CDA52A215123CD503121FFFF86
:10E40E0022A180CDF925DA0C24CD0A283C3DCA0C78
:10E41E0024F5CDD628D5CD102547D1F1D2EA27D572
:10E42E00C5AF321181CD0A28B7F5CDA024DA452427
:10E43E00F1F5CA7729B7C5D25C24EB2A1B811A02E3
:10E44E000313CD7C26C24D246069221B81D1F1CAF3
:10E45E0083242A1B81E3C109E5CD8023E1221B81A0
:10E46E00EB74D123237323722311A6801A772313FF
:10E47E00B7C27B24CDCC2423EB626B7E23B6CA0CB1
:10E48E0024232323AFBE23C29424EB732372C388A9
:10E49E00242AA380444D7E23B62BC823237E2366D5
:10E4AE006FCD7C2660697E23666F3FC83FD0C3A3C5
:10E4BE0024C02AA380AF77237723221B812AA3802F
:10E4CE002B2213812AF480220881AFCD1A282A1B11
:10E4DE0081221D81221F81C12A9F80F921F880226D
:10E4EE00F680AF6F67221981321081222381E5C534
:10E4FE002A1381C93E3FCD8D263E20CD8D26C39356
:10E50E0080AF32F3800E0511A6807EFE20CA9825BC
:10E51E0047FE22CAB825B7CABF253AF380B77EC2D6
:10E52E009825FE3F3E9ECA98257EFE30DA4325FE94
:10E53E003CDA9825D5113C21C5019425C5067F7E70
:10E54E00FE61DA5C25FE7BD25C25E65F774EEB231F
:10E55E00B6F25E25047EE67FC8B9C25E25EBE513F2
:10E56E001AB7FA90254F78FE88C27F25CD0A282B40
:10E57E00237EFE61DA8825E65FB9CA6E25E1C35CAB
:10E58E002548F1EBC9EB79C1D12312130CD63ACA47
:10E59E00A625FE49C2A92532F380D654C2192547B5
:10E5AE007EB7CABF25B8CA982523120C13C3AF2550
:10E5BE0021A5801213121312C93A8980B73E003278
:10E5CE008980C2DC2505CAF925CD8D263E052BCACC
:10E5DE00F0257ECD8D26C30226052BCD8D26C202BB
:10E5EE0026CD8D26CDB22AC3F92521A6800601AFF0
:10E5FE00328980CDB5264FFE7FCAC8253A8980B7AD
:10E60E00CA1B263E00CD8D26AF32898079FE07CA01
:10E61E005F26FE03CCB22A37C8FE0DCAAD2AFE1500
:10E62E00CAF325FE40CAF025FE5FCAE825FE08CAD9
:10E63E00E825FE12C25A26C5D5E53600CD553C2139
:10E64E00A680CD5031E1D1C1C30226FE20DA0226CA
:10E65E0078FE493E07D2742679713211812304CD9A
:10E66E008D26C30226CD8D263E08C36E267C92C013
:10E67E007D93C97EE3BE23E3CA0A28C3B423F53AC9
:10E68E008A80B7C28531F1C5F5FE20DAB1263A8708
:10E69E0080473AF08004CAAD2605B8CCB22A3C3287
:10E6AE00F080F1C1CFC9CD0F3BE67FFE0FC03A8A95
:10E6BE00802F328A80AFC9CDD628C0C1CDA024C547
:10E6CE00CD1C27E14E23462378B1CAFF23CD252743
:10E6DE00CD3528C5CDB22A5E235623E5EBCDF337D3
:10E6EE003E20E1CD8D267EB723CAD226F2F226D663
:10E6FE007F4F113D211A13B7F204270DC20427E6EE
:10E70E007FCD8D261A13B7F20E27C3F526E52A8D77
:10E71E0080228B80E1C9E5D52A8B8011FFFFED5A4F
:10E72E00228B80D1E1F0E52A8D80228B80CD0F3BAC
:10E73E00FE03CA4827E1C325272A8D80228B80C37A
:10E74E007E203E64321081CDB829C1E5CDA12922AB
:10E75E000C8121020039CD6123D1C2812709D52B2D
:10E76E00562B5E2323E52A0C81CD7C26E1C265273C
:10E77E00D1F9EB0E08CD9123E52A0C81E3E52AA110
:10E78E0080E3CD7A2CCD8226A6CD772CE5CDA5368D
:10E79E00E1C5D5010081515A7EFEAB3E01C2BD27B7
:10E7AE00CD0A28CD772CE5CDA536CD5936E1C5D588
:10E7BE00F533E52A1381E30681C533CD35282213BF
:10E7CE00817EFE3ACAEA27B7C2B423237E23B6CA95
:10E7DE005C28235E2356EB22A180EBCD0A2811CABA
:10E7EE0027D5C8D680DAB829FE25D2B423074F061E
:10E7FE0000EB215C22094E2346C5EB237EFE3AD068
:10E80E00FE20CA0A28FE303F3C3DC9EB2AA380CA2F
:10E81E002F28EBCDD628E5CDA0246069D1D277295B
:10E82E002B222181EBC9DFC8D7FE1B2811FE03283E
:10E83E000DFE13C0D7FE11C8FE03280718F63EFFC3
:10E84E00329280C0F6C022138121F6FFC12AA18028
:10E85E00F57DA43CCA6F282217812A1381221981C3
:10E86E00AF328A80CDA52AF1215723C2E823C3FFF8
:10E87E00232A19817CB51E20CAC823EB2A178122B0
:10E88E00A180EBC9CDD833C0328680C9E52A8F80EE
:10E89E0006004F09228F80E1C97EFE41D8FE5B3F04
:10E8AE00C9CD0A28CD772CCD5936FAD1283A2C81EC
:10E8BE00FE90DA0137018090110000E5CDD436E1EB
:10E8CE0051C81E08C3C8232B110000CD0A28D0E55D
:10E8DE00F5219819CD7C26DAB423626B19291929F2
:10E8EE00F1D6305F160019EBE1C3DA28CAD024CD79
:10E8FE00B3282BCD0A28E52AF480CA1E29E1CD8241
:10E90E00262CD5CDB3282BCD0A28C2B423E3EB7D1C
:10E91E00935F7C9A57DAA923E52A1B810128000907
:10E92E00CD7C26D2A923EB229F80E122F480E1C385
:10E93E00D024CACC24CDD02401CA27C35D290E030E
:10E94E00CD9123C1E5E52AA180E33E8CF533C5CDFB
:10E95E00D628CDA329E52AA180CD7C26E123DCA3F0
:10E96E0024D4A02460692BD81E0EC3C823C016FF62
:10E97E00CD5D23F9FE8C1E04C2C823E122A18023A3
:10E98E007CB5C29B293A1181B7C2FE2321CA27E367
:10E99E003EE1013A0E0006007948477EB7C8B8C876
:10E9AE0023FE22CAA729C3AA29CD6D2ECD8226B455
:10E9BE00D53AF280F5CD892CF1E32213811FCD7C5F
:10E9CE002CCA0B2AE52A2981E523235E23562AA386
:10E9DE0080CD7C26D2FA292A9F80CD7C26D1D202E8
:10E9EE002A210481CD7C26D2022A3ED1CDB132EB32
:10E9FE00CDEA30CDB132E1CDB436E1C9E5CDB13697
:10EA0E00D1E1C9CDD8337E47FE8CCA212ACD8226CC
:10EA1E00882B4B0D78CAF227CDD728FE2CC0C322E7
:10EA2E002ACD892C7EFE88CA3E2ACD8226A92BCDE0
:10EA3E007A2CCD5936CAA329CD0A28DA5E29C3F11C
:10EA4E00272BCD0A28CAB22AC8FEA5CAE52AFEA8D7
:10EA5E00CAE52AE5FE2CCACE2AFE3BCA082BC1CD3A
:10EA6E00892CE53AF280B7C29E2ACDFE37CD0E3103
:10EA7E0036202A2981342A29813A87804704CA9A66
:10EA8E002A043AF080863DB8D4B22ACD5331AFC4B1
:10EA9E005331E1C3502A3AF080B7C8C3B22A3600C8
:10EAAE0021A5803E0DCD8D263E0ACD8D26AF32F0AE
:10EABE00803A86803DC8F5AFCD8D26F1C3C32A3A84
:10EACE008880473AF080B8D4B22AD2082BD60ED21C
:10EADE00DC2A2FC3FD2AF5CDD533CD8226292BF185
:10EAEE00D6A8E5CAF82A3AF0802F83D2082B3C47E5
:10EAFE003E20CD8D2605C2012BE1CD0A28C3572A13
:10EB0E003F5265646F2066726F6D2073746172740C
:10EB1E000D0A003A1281B7C2AE23C1210F2BCD5080
:10EB2E0031C3FF24CDBB307EFE223E00328A80C22E
:10EB3E004D2BCD0F31CD82263BE5CD53313EE5CD6C
:10EB4E000325C1DA5928237EB72BC5CAA029362C36
:10EB5E00C3672BE52A2181F6AF321281E3C3732BF3
:10EB6E00CD82262CCD6D2EE3D57EFE2CCA9B2B3A64
:10EB7E001281B7C2082C3E3FCD8D26CD0325D1C1C3
:10EB8E00DA5928237EB72BC5CAA029D53AF280B709
:10EB9E00CAC52BCD0A285747FE22CAB92B3A128175
:10EBAE00B757CAB62B163A062C2BCD1231EB21D005
:10EBBE002BE3D5C3D329CD0A28CD6037E3CDB136AB
:10EBCE00E12BCD0A28CADC2BFE2CC2222BE32BCD47
:10EBDE000A28C26F2BD13A1281B7EBC23028D5B6B4
:10EBEE0021F72BC45031E1C93F4578747261206919
:10EBFE00676E6F7265640D0A00CDA129B7C2212C14
:10EC0E00237E23B61E06CAC823235E2356EB220E8E
:10EC1E0081EBCD0A28FE83C2082CC39B2B1100006A
:10EC2E00C46D2E221381CD5D23C2BA23F9D57E2366
:10EC3E00F5D5CD9736E3E5CD0434E1CDB136E1CD52
:10EC4E00A836E5CDD436E1C190CDA836CA672CEBF7
:10EC5E0022A1806960C3C627F92A13817EFE2CC2C9
:10EC6E00CA27CD0A28CD2F2CCD892CF6373AF28023
:10EC7E008FB7E8C3C623CD8226282B1600D50E01EA
:10EC8E00CD9123CD002D2215812A1581C178FE78D4
:10EC9E00D47A2C7E1600D6B3DAC12CFE03D2C12C48
:10ECAE00FE0117AABA57DAB423220A81CD0A28C365
:10ECBE00A52C7AB7C2E82D7E220A81D6ACD8FE07E3
:10ECCE00D05F3AF2803DB37BCA463207835F21A6FE
:10ECDE0022197856BAD023CD7A2CC501982CC5436B
:10ECEE004ACD8A3658514E234623C52A0A81C38CF3
:10ECFE002CAF32F280CD0A281E24CAC823DA603720
:10ED0E00CDA828D2672DFE262012CD0A28FE48CA8D
:10ED1E00A33BFE42CA133C1E02CAC823FEACCA0065
:10ED2E002DFE2ECA6037FEADCA562DFE22CA0F31F9
:10ED3E00FEAACA482EFEA7CA7330D6B6D2782DCDFB
:10ED4E00852CCD822629C9167DCD8C2C2A1581E5E0
:10ED5E00CD8236CD7A2CE1C9CD6D2EE5EB222981FF
:10ED6E003AF280B7CC9736E1C90600074FC5CD0AF7
:10ED7E002879FE31DA9F2DCD852CCD82262CCD7BA8
:10ED8E002CEB2A2981E3E5EBCDD833EBE3C3A72D9A
:10ED9E00CD4E2DE311622DD5010521094E23666955
:10EDAE00E915FEADC8FE2DC814FE2BC8FEACC82B4F
:10EDBE00C9F6AFF5CD7A2CCDBC28F1EBC1E3EBCD86
:10EDCE009A36F5CDBC28F1C179213130C2E32DA39D
:10EDDE004F78A2E9B34F78B2E921FA2D3AF2801FAB
:10EDEE007A175F166478BAD0C3E92CFC2D79B71F59
:10EDFE00C1D1F5CD7C2C213E2EE5CAD436AF32F2F0
:10EE0E0080D5CD93327E23234E2346D1C5F5CD97A3
:10EE1E0032CDA836F157E17BB2C87AD601D8AFBB56
:10EE2E003CD0151D0ABE2303CA262E3FC364363CB2
:10EE3E008FC1A0C6FF9FC36B36165ACD8C2CCD7AD0
:10EE4E002CCDBC287B2F4F7A2FCD3130C1C3982CBF
:10EE5E002BCD0A28C8CD82262C015F2EC5F6AF32E7
:10EE6E00F18046CDA828DAB423AF4F32F280CD0A16
:10EE7E0028DA892ECDA828DA962E4FCD0A28DA8ADE
:10EE8E002ECDA828D28A2ED624C2A52E3C32F280B0
:10EE9E000F814FCD0A283A10813DCA522FF2B52E5E
:10EEAE007ED628CA2A2FAF321081E550592A2381E7
:10EEBE00CD7C26112581CA9A352A1D81EB2A1B810C
:10EECE00CD7C26CAE82E799623C2DD2E789623CAEB
:10EEDE001C2F23232323C3CF2EE1E3D5116A2DCD7F
:10EEEE007C26D1CA1F2FE3E5C50106002A1F81E546
:10EEFE0009C1E5CD8023E1221F816069221D812B8E
:10EF0E003600CD7C26C20E2FD173237223EBE1C9BE
:10EF1E00322C81215023222981E1C9E52AF180E397
:10EF2E0057D5C5CDB028C1F1EBE3E5EB3C577EFEDE
:10EF3E002CCA302FCD822629221581E122F1801E86
:10EF4E0000D511E5F52A1D813E19EB2A1F81EBCD67
:10EF5E007C26CA8A2F7EB923C26C2F7EB8235E23ED
:10EF6E005623C2582F3AF180B7C2BD23F1444DCA81
:10EF7E009A3596CAE82F1E10C3C823110400F1CA91
:10EF8E00D128712370234FCD91232323220A81711F
:10EF9E00233AF1801779010B00D2AD2FC1037123F3
:10EFAE007023F5E5CD4537EBE1F13DC2A52FF542D6
:10EFBE004BEB19DAA923CD9A23221F812B3600CDD4
:10EFCE007C26C2CB2F03572A0A815EEB2909EB2B35
:10EFDE002B73237223F1DA0C30474F7E2316E15E3A
:10EFEE00235623E3F5CD7C26D2852FE5CD4537D1AB
:10EFFE0019F13D444DC2ED2F2929C109EB2A158186
:10F00E00C92A1F81EB210000393AF280B7CA2C3091
:10F01E00CD9332CD93312A9F80EB2A08817D934F79
:10F02E007C9A41501E0021F280730690C370363ACE
:10F03E00F08047AFC33230CDC930CDBB3001A129EE
:10F04E00C5D5CD822628CD6D2EE5EB2B562B5EE158
:10F05E00CD7A2CCD822629CD8226B4444DE3712360
:10F06E0070C30831CDC930D5CD4E2DCD7A2CE35E8F
:10F07E002356237AB3CAC0237E23666FE52A2381E3
:10F08E00E32223812A2781E52A2581E5212581D5C1
:10F09E00CDB136E1CD772C2BCD0A28C2B423E12297
:10F0AE002581E1222781E1222381E1C9E52AA18080
:10F0BE00237CB5E1C01E16C3C823CD8226A73E8091
:10F0CE00321081B647CD722EC37A2CCD7A2CCDFE5E
:10F0DE0037CD0E31CD933201EE32C57E2323E5CDF1
:10F0EE006931E14E2346CD0231E56FCD8632D1C96D
:10F0FE00CD6931210481E5772323732372E1C92B76
:10F10E00062250E50EFF237E0CB7CA2431BACA245C
:10F11E0031B8C21531FE22CC0A28E323EB79CD0299
:10F12E00311104812AF6802229813E0132F280CDEE
:10F13E00B436CD7C2622F680E17EC01E1EC3C823C7
:10F14E0023CD0E31CD9332CDA8361C1DC80ACD8DE0
:10F15E0026FE0DCCBC2A03C35A31B70EF1F52A9FF9
:10F16E0080EB2A08812F4F06FF0923CD7C26DA87F4
:10F17E003122088123EBF1C9F11E1ACAC823BFF54B
:10F18E00016B31C52AF480220881210000E52A9FF7
:10F19E0080E521F880EB2AF680EBCD7C2601A431A8
:10F1AE00C2F8312A1B81EB2A1D81EBCD7C26CACBFE
:10F1BE00317E2323B7CDFB31C3B531C1EB2A1F817D
:10F1CE00EBCD7C26CA2132CDA8367BE509B7F2CA33
:10F1DE0031220A81E14E0600090923EB2A0A81EB4E
:10F1EE00CD7C26CACB3101EA31C5F6807E23235E63
:10F1FE00235623F0B7C8444D2A0881CD7C2660697A
:10F20E00D8E1E3CD7C26E3E56069D0C1F1F1E5D527
:10F21E00C5C9D1E17DB4C82B462B4EE52B2B6E26EE
:10F22E00000950592B444D2A0881CD8323E17123C7
:10F23E007069602BC39631C5E52A2981E3CD002D77
:10F24E00E3CD7B2C7EE52A2981E5861E1CDAC823B8
:10F25E00CDFF30D1CD9732E3CD9632E52A0681EB44
:10F26E00CD7D32CD7D3221952CE3E5C33031E1E306
:10F27E007E23234E23466F2C2DC80A120313C387F9
:10F28E0032CD7B2C2A2981EBCDB132EBC0D5505932
:10F29E001B4E2A0881CD7C26C2AF32470922088137
:10F2AE00E1C92AF6802B462B4E2B2BCD7C26C02275
:10F2BE00F680C9014130C5CD9032AF5732F2807E13
:10F2CE00B7C9014130C5CDC632CAD12823235E232A
:10F2DE00561AC93E01CDFF30CDDB332A068173C1EC
:10F2EE00C33031CD8B33AFE34FE57EB8DA003378E0
:10F2FE00110E00C5CD6931C1E1E5232346236668B1
:10F30E00060009444DCD02316FCD8632D1CD9732F4
:10F31E00C33031CD8B33D1D51A90C3F632EB7ECDBF
:10F32E0090330405CAD128C51EFFFE29CA4533CD28
:10F33E0082262CCDD833CD822629F1E301F832C5B1
:10F34E003DBE0600D04F7E91BB47D843C9CDC632D5
:10F35E00CA79345F23237E23666FE5194672E3C5AF
:10F36E007EFE24C27A33CDA33B180DFE25C2843314
:10F37E00CD133C1803CD6037C1E170C9EBCD8226A9
:10F38E0029C1D1C543C9CDDB33328480CD8380C33F
:10F39E004130CDC533C34B80CDC533F51E002BCDCB
:10F3AE000A28CABB33CD82262CCDD833C1CD83805B
:10F3BE00ABA0CABC33C9CDD833328480324C80CD99
:10F3CE0082262CC3D833CD0A28CD772CCDB6287AF9
:10F3DE00B7C2D1282BCD0A287BC9CDBC281AC34170
:10F3EE0030CD772CCDBC28D5CD82262CCDD833D19F
:10F3FE0012C921D738CDA836C31334CDA83621C1B2
:10F40E00D1CD823678B7C83A2C81B7CA9A3690D207
:10F41E002D342F3CEBCD8A36EBCD9A36C1D1FE1969
:10F42E00D0F5CDBF3667F1CDD834B4212981F25352
:10F43E0034CDB834D299342334CAC3232E01CDEE41
:10F44E0034C39934AF90477E9B5F237E9A57237EB9
:10F45E00994FDCC4346863AF4779B7C286344A54D7
:10F46E00656F78D608FEE0C26734AF322C81C905CD
:10F47E00297A1757798F4FF27E34785C45B7CA993F
:10F48E0034212C818677D27934C878212C81B7FC2F
:10F49E00AB3446237EE680A94FC39A361CC014C0F7
:10F4AE000CC00E8034C0C3C3237E835F237E8A5775
:10F4BE00237E894FC9212D817E2F77AF6F90477D97
:10F4CE009B5F7D9A577D994FC90600D608DAE734BF
:10F4DE00435A510E00C3DA34C6096FAF2DC8791FD7
:10F4EE004F7A1F577B1F5F781F47C3EA3400000017
:10F4FE008103AA561980F122768045AA3882CD5909
:10F50E0036B7EAD128212C817E01358011F3049083
:10F51E00F570D5C5CD1334C1D104CDAF3521FC3432
:10F52E00CD0A34210035CDA139018080110000CDE6
:10F53E001334F1CDD43701318011187221C1D1CDE0
:10F54E005936C82E00CD173679323B81EB223C81DD
:10F55E000100005058216434E5217035E5E521297C
:10F56E00817E23B7CA9C35E52E081F6779D28A356E
:10F57E00E52A3C8119EBE13A3B81891F4F7A1F57EF
:10F58E007B1F5F781F472D7CC27935E1C9435A51E5
:10F59E004FC9CD8A36012084110000CD9A36C1D1D3
:10F5AE00CD5936CAB7232EFFCD173634342B7E32C3
:10F5BE0057802B7E3253802B7E324F8041EBAF4FE4
:10F5CE00575F325A80E5C57DCD4E80DE003FD2E7D3
:10F5DE0035325A80F1F137D2C1E1793C3D1FFA9AAA
:10F5EE0034177B175F7A175779174F297817473AD1
:10F5FE005A8017325A8079B2B3C2D435E5212C81A4
:10F60E0035E1C2D435C3C32378B7CA3B367D212C2E
:10F61E0081AE80471FA878F23A36C68077CA9A35EF
:10F62E00CDBF36772BC9CD59362FE1B7E1F27934FC
:10F63E00C3C323CDA53678B7C8C602DAC32347CDD8
:10F64E001334212C8134C0C3C3233A2C81B7C83A5A
:10F65E002B81FE2F179FC03CC9CD5936068811004D
:10F66E0000212C814F70060023368017C36134CDE4
:10F67E005936F0212B817EEE8077C9EB2A2981E362
:10F68E00E52A2B81E3E5EBC9CDA836EB2229816073
:10F69E0069222B81EBC92129815E2356234E2346F5
:10F6AE0023C911298106041A77132305C2B636C958
:10F6BE00212B817E07371F773F1F2323777907374B
:10F6CE001F4F1FAEC978B7CA5936216236E5CD59DC
:10F6DE003679C8212B81AE79F8CDEE361FA9C92314
:10F6EE0078BEC02B79BEC02B7ABEC02B7B96C0E1F4
:10F6FE00E1C9474F575FB7C8E5CDA536CDBF36AE8A
:10F70E0067FC25373E9890CDD8347C17DCAB340699
:10F71E0000DCC434E1C91B7AA33CC00BC9212C8187
:10F72E007EFE983A2981D07ECD013736987BF579C9
:10F73E0017CD6134F1C921000078B1C83E1029DA25
:10F74E00852FEB29EBD25B3709DA852F3DC24D377A
:10F75E00C9FE2DF5CA6C37FE2BCA6C372BCD79340A
:10F76E0047575F2F4FCD0A28DABD37FE2ECA98377E
:10F77E00FE45C29C37CD0A28CDB02DCD0A28DADF42
:10F78E003714C29C37AF935F0C0CCA7437E57B906D
:10F79E00F4B537F2AB37F5CDA135F13CC29F37D179
:10F7AE00F1CC8236EBC9C8F5CD4236F13DC9D557FD
:10F7BE00788947C5E5D5CD4236F1D630CDD437E17F
:10F7CE00C1D1C37437CD8A36CD6B36C1D1C3133494
:10F7DE007B0707830786D6305FC38A37E5214C2324
:10F7EE00CD5031E1EBAF0698CD7036214F31E5218A
:10F7FE002E81E5CD59363620F20C38362D23363093
:10F80E00CAC238E5FC8236AFF5CDC8380143911136
:10F81E00F84FCDD436B7E23938F1CDB637F5C31B34
:10F82E0038CDA135F13CF5CDC838CD01343CCD01F4
:10F83E0037CD9A36010603F1813CFA5538FE08D2CF
:10F84E0055383C473E023D3DE1F511DB3805C266B9
:10F85E0038362E2336302305362ECCAF36C5E5D5B9
:10F86E00CDA536E1062F047B965F237A9E5723792A
:10F87E009E4F2B2BD27538CDB83423CD9A36EBE173
:10F88E007023C10DC2663805CAA6382B7EFE30CA5B
:10F89E009A38FE2EC4AF36F1CAC538364523362BFC
:10F8AE00F2B638362D2F3C062F04D60AD2B838C6FB
:10F8BE003A237023772371E1C901749411F723CD94
:10F8CE00D436B7E1E23038E900000080A08601109E
:10F8DE002700E803006400000A00000100002182F6
:10F8EE0036E3E9CD8A3621D738CD9736C1D1CD59F9
:10F8FE003678CA4039F20B39B7CAB723B7CA7A3449
:10F90E00D5C579F67FCDA536F22839D5C5CD2C379C
:10F91E00C1D1F5CDD436E17C1FE1222B81E1222924
:10F92E0081DCED38CC8236D5C5CD0D35C1D1CD4E6D
:10F93E0035CD8A36013881113BAACD4E353A2C8110
:10F94E00FE88D23536CD2C37C680C602DA3536F56E
:10F95E0021FC34CD0434CD4535F1C1D1F5CD103473
:10F96E00CD8236218039CDB039110000C14AC34E47
:10F97E003508402E9474704F2E776E02887AE6A06A
:10F98E002A7C50AAAA7EFFFF7F7F000080810000A4
:10F99E000081CD8A36114C35D5E5CDA536CD4E3507
:10F9AE00E1CD8A367E23CD973606F1C1D13DC8D53D
:10F9BE00C5F5E5CD4E35E1CDA836E5CD1334E1C321
:10F9CE00B939CD5936215E80FA323A217F80CD97F2
:10F9DE0036215E80C886E6070600772387874F09A3
:10F9EE00CDA836CD4E353A5D803CE6030600FE01CD
:10F9FE0088325D8021363A87874F09CD0434CDA5F4
:10FA0E00367B59EE4F4F36802B463680215C803444
:10FA1E007ED6ABC2293A770C151CCD6434217F807B
:10FA2E00C3B136772B772B77C30D3A68B1466899F9
:10FA3E00E9926910D1756821903ACD0434CD8A3699
:10FA4E0001498311DB0FCD9A36C1D1CDAF35CD8AA9
:10FA5E0036CD2C37C1D1CD103421943ACD0A34CDC8
:10FA6E00593637F27C3ACD0134CD5936B7F5F4829A
:10FA7E003621943ACD0434F1D4823621983AC3A17A
:10FA8E0039DB0F49810000007F05BAD71E86642638
:10FA9E00998758342387E05DA586DA0F4983CD8A8E
:10FAAE0036CD4C3AC1E1CD8A36EBCD9A36CD463ABB
:10FABE00C3AD35CD5936FCED38FC82363A2C81FE7D
:10FACE0081DADF3A0100815159CDAF35210A34E593
:10FADE0021E93ACDA13921903AC9094AD73B78029A
:10FAEE006E847BFEC12F7C74319A7D843D5A7DC815
:10FAFE007F917EE4BB4C7E6CAAAA7F00000081C978
:10FB0E00D7C93E0CCFC9CDD8337B328780C9CD77CC
:10FB1E002CCDBC28ED538B80ED538D80C9CDBC28E8
:10FB2E00D5E146237EC33230CD772CCDBC28D5CD42
:10FB3E0082262CCD772CCDBC28E3732372E1C9CD60
:10FB4E007A2CCDBC28C5212E817AFE00280CCD86BC
:10FB5E003B78FE302802702371237BCD863B7AFEE4
:10FB6E0000200578FE30280270237123AF772377AB
:10FB7E00C1212E81C3E03047E60FFE0A3802C607C8
:10FB8E00C6304F780F0F0F0FE60FFE0A3802C6076A
:10FB9E00C63047C9EB210000CDBC3BDADC3B180573
:10FBAE00CDBC3B381F29292929B56F18F3131AFE2E
:10FBBE0020CABC3BD630D8FE0A3805D607FE0AD876
:10FBCE00FE103FC9EB7A4BE5CD3130E1C91E26C39D
:10FBDE00C823CD7A2CCDBC28C5212E8106110578DF
:10FBEE00FE012808CB13CB1230F41804CB13CB1222
:10FBFE003E30CE0077230520F3AF772377C1212E39
:10FC0E0081C3E030EB210000CD303CDA3E3CD630F3
:10FC1E0029B56FCD303C30F6EB7A4BE5CD3130E186
:10FC2E00C9131AFE20CA303CFE30D8FE323FC91E20
:10FC3E0028C3C823C300003E00329280C31420F5AF
:10FC4E00A0C1B83E00C9CD8D26C3B22AFFFFFFFF6B
:10FC5E00FFFFFFFFFFFFFFFFFFFFFFFFFFFFFFFFA6
:10FC6E00FFFFFFFFFFFFFFFFFFFFFFFFFFFFFFFF96
:10FC7E00FFFFFFFFFFFFFFFFFFFFFFFFFFFFFFFF86
:10FC8E00FFFFFFFFFFFFFFFFFFFFFFFFFFFFFFFF76
:10FC9E00FFFFFFFFFFFFFFFFFFFFFFFFFFFFFFFF66
:10FCAE00FFFFFFFFFFFFFFFFFFFFFFFFFFFFFFFF56
:10FCBE00FFFFFFFFFFFFFFFFFFFFFFFFFFFFFFFF46
:10FCCE00FFFFFFFFFFFFFFFFFFFFFFFFFFFFFFFF36
:10FCDE00FFFFFFFFFFFFFFFFFFFFFFFFFFFFFFFF26
:10FCEE00FFFFFFFFFFFFFFFFFFFFFFFFFFFFFFFF16
:10FCFE00FF000000000000000000000000000000F7
:10FD0E0000000000000000000000000000000000E5
:10FD1E0000000000000000000000000000000000D5
:10FD2E0000000000000000000000000000000000C5
:10FD3E0000000000000000000000000000000000B5
:02FFFE00000001
:020000040001F9
:10000000F6C401F5F7C402F5F8C403F5F5C404F528
:10001000AE9AD1C406F5CFC405F5CEAA12EF80F092
:1000200014EF80F041EF80F0800E065CD8A01BEF4B
:1000300080F01DEF80F030EF80F0A00E065CD8B0AD
:1000400024EF80F026EF80F030EF80F0000E0524E2
:10005000D96E970E0620DA6ED0C4DFF43CEF80F044
:10006000E00E06180510D8A438EF80F03AEF80F0C3
:100070003CEF80F0D0C4C9F20001D785D7959CEF42
:1000800080F0000EC86E400E065CD8B04AEF80F0DB
:100090004CEF80F057EF80F0FF0E0524F66EBF0E98
:1000A0000620F76E0800F5C4C0F491EF80F0800ED2
:1000B000065CD8A05EEF80F060EF80F073EF80F018
:1000C000A00E065CD8B067EF80F069EF80F073EFA8
:1000D00080F0000E0524D96E970E0620DA6EDF50F0
:1000E000C06E91EF80F0050407E1E00E0618D8A479
:1000F0007CEF80F07EEF80F082EF80F0B7C4C0F438
:1001000091EF80F0E00E06180510D8A48AEF80F079
:100110008CEF80F090EF80F0C7C2C0F491EF80F0D8
:10012000C0680001D785D795CEA299EF80F09BEFEC
:1001300080F094EF80F0C86804C5F5F403C5F8F4C6
:1001400002C5F7F401C5F6F41100080E0001B16F05
:10015000000E0401186F1969C968000E086F09695B
:10016000C768000E106F1169C86820912181CA808C
:100170002093C292CA922095C284CA9400910181B0
:10018000C680009B018BC68A3F0E0201046F0401EA
:100190000097C6962F0E436F400E446F010E456FB9
:1001A000000E476F4691468B468F010E0201D56FB8
:1001B000A00ED46FD189D18B0401009FC68E070E8B
:1001C0000201766F0401009DBE8CC69C260E0201C2
:1001D000076FD28F040100930183C682010E0201D2
:1001E000616F040100950185C684020E0201626FF1
:1001F00004010099BE88C698010E0201056F000E29
:100200000001D56F820ED76F000ED86F010ED96F27
:100210007F0EDA6F7F0EDB6F010EDC6F040EDD6F79
:10022000000EDE6F000EDF6F000ED46F8C0ED66FE7
:10023000550E0401596FAA0E596F5991080E5D6F42
:10024000000E5E6F000E5F6F550E596FAA0E596F4C
:100250005981AE9A9E8AD68EC2822DEF81F085EFAB
:1002600000F005EE00F318EE00F0EE6AE550E15004
:10027000FCE1E250FAE1066A056A0401080E5D6FCE
:10028000000E5E6F000E5F6F000EF86E0001A5EFAE
:0202900080F0FC
:02029400110057
:020000040020DA
:10000000FF0FFF0FFF0FFF0FFF0FFF0FFF0FFF0F80
:10001000FF0FFF0FFF0FFF0FFF0FFF0FFF0FFF0F70
:10002000FF0FFF0FFF0FFF0FFF0FFF0FFF0FFF0F60
:10003000FF0FFF0FFF0FFF0FFF0FFF0FFF0FFF0F50
:020000040030CA
:100000008CEFFFF79FFFFFFFFFFFFFFFFFFFFFFFEB
:10001000FFFFFFFFFFFFFFFFFFFFFFFFFFFFFFFFF0
:04002000FFFFFFFFE0
:00000001FF
