:0400000085EF00F098
:10000800A540A540A540A540A5400040A540A54065
:10001800A540A540A540A540A540A540A540A540B0
:10002800A540A540A540A540A540A540A540A540A0
:10003800A540A540A540A540A540A540A540A54090
:10004800A540A540A540A540A540A540A540A54080
:10005800A540A540A540A540A540A540A540A54070
:10006800A540A540A540A540A540A540A540A54060
:10007800A540A540A540A5404200A540A540A540F3
:10008800A540A540A540A540A540A540A540A54040
:10009800A540A540A540A5404200A540A540A540D3
:1000A800A540A540A540A540A540A540A540A54020
:1000B800A540A540A540A540A540A540A540A54010
:1000C800A540A540A540A540A540A540A540A54000
:1000D800A540A540A540A540A540A540A540A540F0
:1000E8004200A540A540A540A540A540A540A54083
:1000F800A540A540A540A540A540A540A540A540D0
:06010800FF0031EF81F061
:10BFFE0000C34000C390180000C3181F00000000CB
:10C00E0000C3071F0000000000C900000000000070
:10C01E0000C900000000000000C900000000000080
:10C02E0000C353180000000000C3D4180000000025
:10C03E0000F331009F21008022209F22279F22257E
:10C04E009F3E4932299FAF212C9F061A772310FC61
:10C05E0021C09E22409F21008022429F06083E2E34
:10C06E00216B9F772310FCAF77061421579FAF7774
:10C07E002310FC3E4932519F3E4E32509F2E00659A
:10C08E0022529FAF32569F21008022599F225D9FE0
:10C09E0022619F22659F22699F7E32589F325C9F4C
:10C0AE0032609F32649F32689F21721CCD471721E8
:10C0BE00AF1CCD4717CDA717CD0118B728F1FE44F9
:10C0CE00CA6006FE47CA4613FE53CA0D14FE4CCA7A
:10C0DE008314FE50CA5D15FE52CA3516FE23CA0ED3
:10C0EE0001FE42CA2202FE54CAD702FE3F28082190
:10C0FE00CC1CCD471718B821C71ACD471718B02337
:10C10E00CD0118B728E9FE4C2825CDB60138E079C7
:10C11E00FE11D2FE00B7CAFE003D1716005F215C6D
:10C12E0001195E2356EB5E23567AB328C2EBE92142
:10C13E005C015E235623D5DDE1DD7E00DDB60128F0
:10C14E00091313EBCD4717EB18E8C3BE007C01981B
:10C15E0001B401B401B401B401B401B401B401B429
:10C16E0001B401B401B401B401B401B40100203131
:10C17E002E204241534943342E376220436F6C6464
:10C18E002053746172740D0A000320322E20424136
:10C19E00534943342E3762205761726D20537461B8
:10C1AE0072740D0A000000AF474FCD0118B7C8CD0D
:10C1BE00D401D8F508F1CDE301D80816005FCDFA09
:10C1CE0001D82318E5B7280AFE30D8FE3A3003D638
:10C1DE0030C937C9C5CB21CB10CB21CB10CB21CB4E
:10C1EE0010D1D8CDFA01D8CDFA01C9E5D5E109E5CE
:10C1FE00C1E1C93A5F9FB728082A619F3E31CDBD84
:10C20E00023A639FB7CABE002A659F3E32CDBD0279
:10C21E00C3BE0023CD0118B728D9015F9FFE312878
:10C22E000E01639FFE322807FE43283EC3FE000820
:10C23E0023CD0118B7285AFE2CC2FE0023CD0118BB
:10C24E00C5CD1118E1DAFE00CD6002DAFE00C3BEE4
:10C25E00007AFE80DA7702FEE0D277023E01772383
:10C26E001A7723732372B7C937C923CD0118B7289C
:10C27E0014015F9FFE31280801639FFE32C2FE004B
:10C28E00AF02C3BE00AF015F9F0201639F02C3BE38
:10C29E00000AB7CABE00082A619FFE3128032A652C
:10C2AE009FCDBD02C3BE0042502800293A00E5F5DD
:10C2BE0021B602CD4717F1CD181F21BA02CD47176F
:10C2CE00E1CD5017CD9017C9E52E00260022529FC2
:10C2DE002A429F22549FAF32569FE123CD0118CDA3
:10C2EE001118D29D03CD01187EB7CAC603FE2CCA03
:10C2FE00AE03FE50284EFE4DC2FE0023CD01182186
:10C30E004503FE492810214B03FE532809B7C2FEF0
:10C31E00003A519F18E932519FE5213603CD471758
:10C32E00E1CD4717C3BE00544D206D6F64653A3C96
:10C33E0043414C4C2000494E3E0D0A00534B495090
:10C34E003E0D0A0023CD0118B720053A509F18095B
:10C35E00FE4FC2FE0023CD0118219203FE4E280887
:10C36E00219703FE46C2FE0032509FE5218803CD81
:10C37E004717E1CD4717C3BE005450206D6F64655B
:10C38E003A20004F4E0D0A004F46460D0A00ED535F
:10C39E00549FCD0118B7281FFE2C2803C3FE00237F
:10C3AE00CD0118B7CAFE00FE2D2811CDB601DAFE5A
:10C3BE0000ED43529F181B01010018F523CD011803
:10C3CE00FE31C2FE0023CD0118B7C2FE003E01327F
:10C3DE00569F2A549F7E010800217E05EDB1201341
:10C3EE000E01CD4705DA06050E02CD2705DA060544
:10C3FE00C30305010500218605EDB120190E012AA2
:10C40E00549FCD1A05CD5405DA06050E02CD2C0526
:10C41E00DA0605C30305010800218B05EDB12004E2
:10C42E000E011813010800219305EDB1201A0E011B
:10C43E003A519FFE532808CD3B05DA06050E02CD74
:10C44E003105DA0605C30305FEC9200B0E01CD47E3
:10C45E0005DA0605C30305010800219B05EDB12091
:10C46E000B0E01CD2705DA0605C30305FEED2013DD
:10C47E00237EFE452804FE4D20090E01CD470538CA
:10C48E007618712A549F7EFEE9200C2A329F0E01E7
:10C49E00CD54053862185DFEDD200B237EFEE920AB
:10C4AE00052A3C9F18E82A549F7EFEFD200B237E12
:10C4BE00FEE920052A3E9F18D52A549F7EFE18209D
:10C4CE000C0E01CD1A05CD5405382C1827FEC320AD
:10C4DE00090E01CD3B05381F181AFECDC2A3050E5D
:10C4EE00013A519FFE532807CD3B05380A1805CD5A
:10C4FE0031053803C38913211005CD4717C3BE007C
:10C50E00FF416472204552520D0A00235E2316FF2E
:10C51E00CB7B2002160019C92A549F180A2A549F51
:10C52E0018042A549F232323CD5405C92A549F232C
:10C53E005E2356EBCD5405C9ED5B409F1A6F131A5F
:10C54E0067CD5405C97CFE803823FE9F301F79FECF
:10C55E0001200D11579F1222599F7E32589F180BA2
:10C56E00115B9F12225D9F7E325C9FAFC937C9C09F
:10C57E00C8D0D8E0E8F0F81020283038C2CAD2DA95
:10C58E00E2EAF2FAC4CCD4DCE4ECF4FCC7CFD7DF99
:10C59E00E7EFF7FF011200213C06EDB1CA170601C5
:10C5AE000800214E06EDB1CA22062A549FFECB2862
:10C5BE0057FEDD280AFEED2828FEFD2802183E2330
:10C5CE007EFECB2859FE212855FE222851FE2A2810
:10C5DE004DFE362849010A00215606EDB1282918CC
:10C5EE0032237EFE432837FE4B2833FE53282FFE80
:10C5FE005B282BFE732827FE7B2823180B0E01CDFC
:10C60E002705DA0605C303050E01CD2C05DA06054E
:10C61E00C303050E01CD3105DA0605C303050E0170
:10C62E002A549F23CD3405DA0605C30305060E16DC
:10C63E001E262E363EC6CEDED6E6EEF6FEDBD30147
:10C64E0011213122322A3A09192939232BE5E1E346
:10C65E00F923CD0118CD11183014CD01187EB7C2B3
:10C66E0064072A209F0180000922229F182FED5374
:10C67E00209FCD01187EFE2C280DB7C2FE00218012
:10C68E00001922229F181623CD0118CD1118DAFE9B
:10C69E0000CD0118B7C2FE0013ED53229F2A209F32
:10C6AE003EF0A56FAF32249FE5CDDE06E10110000E
:10C6BE0009CD121F20103A249FFE0238EB2A229F2A
:10C6CE0022209FC3BE0022209FCD071FC3BE00CDD8
:10C6DE005017E521D41CCD4717E1DD21009F061030
:10C6EE00CD180710FB21D71CCD471721009F061030
:10C6FE007E23FE203809FE7F3005CD181F18053E1B
:10C70E002ECD181F10EAC390173E20CD181F3A24C5
:10C71E009FB720203A209FBD20063A219FBC280FAC
:10C72E003E20CD181FCD181FDD770023DD23C93E17
:10C73E000132249F3A249FFE0120E57EDD7700CD55
:10C74E00551723DD233A229FBDC03A239FBCC03E1E
:10C75E000232249FC9FE49C2FE0023CD0118CD111D
:10C76E00183011CD01187EB720113E0A32769F3255
:10C77E00749F1834ED53779F2318E8FE2CC2FE00E9
:10C78E0023CD0118FE5320123E0132769F23CDB6E3
:10C79E0001DAFE00ED43749F180ECD1118DAFE007B
:10C7AE00ED53749FAF32769FCD121F2806CD071F13
:10C7BE00C3BE00CD4608CD0B08217E9FCD47173A4C
:10C7CE00769FB7200E2A749FED4B779FED4230D89F
:10C7DE00C3BE002A749F2B22749F7CB520CAC3BE91
:10C7EE000022779FD5CD4608CD0B08D1217E9F0123
:10C7FE002A00EDB0ED5B779F3A7D9FC9217E9FEDBC
:10C80E005B779FCDE60FCD7610CD761006043A7D80
:10C81E009F4F1A13D55FCDEE0FCD7610D105280F91
:10C82E000D20EFCD7610CD7610CD76100520F4CDFF
:10C83E007610ED53779FC93E01327D9F114511CD84
:10C84E000A1021999FCD36102A779F7E010D002167
:10C85E008910EDB12012219812CD8C0FC30A10E66B
:10C86E00380F0F0F4F0600C9FE0A2819FE1A28238B
:10C87E00FE022824FE122829FEF9202A11FC1ECDC4
:10C88E005D10C3301011BB1ED5CD5A10D1CD441042
:10C89E00C3361011C21E18F011BB1ECD4C10C3258D
:10C8AE001011C21E18F5FE40DA4D09FE803028FE2A
:10C8BE00762006114811C30A10CD6E08CD890F21BE
:10C8CE00999FCD5D10ED5B779F1AE6074F0600E549
:10C8DE00CD890FE1C33310FE883008CD0710CD5A35
:10C8EE001018E2FE90300B115111CD0A10CD5A10D6
:10C8FE0018D3FE983008115511CD0A1018C7FEA096
:10C90E00300B115911CD0A10CD5A1018B8FEA8309F
:10C91E0008115D11CD0A1018ACFEB030081161116E
:10C92E00CD0A1018A0FEB83008116511CD0A1018E6
:10C93E0094FEC0D2C909116811CD0A1018870108DA
:10C94E0000219610EDB1200EF5116B11CD0A10F1EC
:10C95E00CD6E08C3DE08010800219E10EDB1200A3D
:10C96E00F5116F11CD0A10F118E601040021A61081
:10C97E00EDB1200F116B11CD0A10218812CD800F51
:10C98E00C3361001040021AA10EDB1200F116F1152
:10C99E00CD0A10218812CD800FC33610010400215C
:10C9AE00AE10EDB12046CD071011C91ECD5D10E5BC
:10C9BE00218812CD8C0FE1C3331001040021B21077
:10C9CE00EDB1200F117311CD0A10219012CD800FF1
:10C9DE00C3361001040021B610EDB1200F117711EE
:10C9EE00CD0A10219012CD800FC33610FE082817E5
:10C9FE00FEE32821FEEB202511C21ECD5D10CD30A9
:10CA0E0010117C11C30A10112611CD5D10112911C0
:10CA1E00CD331018EC11FC1ECD4C1018E1FEE920A0
:10CA2E000F113111CD0A1011C91ECD4110C3361090
:10CA3E00010800217E05EDB1200F112D11CD0A1038
:10CA4E00217012CD800FC33610010800219B05ED19
:10CA5E00B12017114111CD0A10792FCB27CB27CB3F
:10CA6E0027E6385F21999FC3950FF53E02327D9FD1
:10CA7E00F1010800213C06EDB12016CD6E08CD89DE
:10CA8E000FCD5D10ED5B779F131A5FCDD80FC336B8
:10CA9E0010010A00214406EDB1C2F40AC521B212FA
:10CAAE00CD8C0FCD0A10C179FE012814B7281AFEBD
:10CABE00073803CD5A10ED5B779F131A5FC3950F9E
:10CACE00CD5A10CDE40AC3361021999FCDE40ACD7C
:10CADE008210C32510CD6D10ED5B779F131A5FCDBD
:10CAEE00D80FC37110FE1020051137111807FE184C
:10CAFE00200C113411CD0A1021999FC3B90F0104D6
:10CB0E0000218705EDB12012113411CD0A102180BC
:10CB1E0012CD800FCD8210C3B90FF53E03327D9F2B
:10CB2E00F1010400214E06EDB1C24A0B21C612CD11
:10CB3E008C0FCD5D10CD720BC39B0FFE222812FE03
:10CB4E00322814FE2A2826FE3AC28B0BCD5A101814
:10CB5E0022CD6C0BC33010CD6C0BC32510CD720BD8
:10CB6E00C3A10FE52A779F235E2356E1C911C91E83
:10CB7E00CD5D10CD720BCDB00FC33610FEC32008A5
:10CB8E00113111CD0A1018ADFECD2008113C11CD7A
:10CB9E000A1018A1010800218B05EDB120111131E9
:10CBAE0011CD0A10217012CD800FCD821018860182
:10CBBE000800219305EDB12005113C1118E32A77E9
:10CBCE009F23F53E02327D9FF1FECBC2930C7E2158
:10CBDE00999FFE08DA1C0CFE10DA250CFE18DA2ED0
:10CBEE000CFE20DA370CFE28DA400CFE30DA490C47
:10CBFE00FE38DA6D0CFE40DA520CFE80DA5B0CFE6B
:10CC0E00C0DA640CCD730C113B12C30A10CD780C34
:10CC1E0011B611C30A10CD780C11BA11C30A10CD7A
:10CC2E00780C11BE11C30A10CD780C11C111C30AB4
:10CC3E0010CD780C11C411C30A10CD780C113B1213
:10CC4E00C30A10CD780C11CC11C30A10CD730C1180
:10CC5E00D011C30A10CD730C11D411C30A10113F99
:10CC6E0012C30A10F5CD850CF1E6074F0600E5CD8F
:10CC7E00890FE1C33310E6380F0F0F473E30B07700
:10CC8E0023C38210FEDDC2390E11F61EED53799FBD
:10CC9E0011E212ED537B9F7EFEE3CAED0CFEE9CA54
:10CCAE00DB0CFEF9CAFC0C010400215606EDB1CADC
:10CCBE00050D010400215A06EDB1C21A0D21DA123A
:10CCCE00CD8C0FCD0A1021999FC32A10ED5B799F51
:10CCDE00D5113111CD0A10D1CD4110C33610117CB2
:10CCEE0011CD0A1011FC1ECD4C10C32A1011FC1EC2
:10CCFE00CD5D10C32A10CD0710ED5B799FCD5D1071
:10CD0E00E52A7B9FCD8C0FE1C33310F53E03327DB8
:10CD1E009FF1010E0021BA10EDB1CA590DFE86CA5F
:10CD2E00840DFE8ECA8F0DFE9ECA940D0107002142
:10CD3E00C810EDB1C2990D21F212CD8C0FCD0A1093
:10CD4E00ED5B799F21999FC3500F79FE07D2710D2C
:10CD5E00ED5B799FCD470FE5210013CD8C0FE1C31D
:10CD6E003310D6074F210013CD8C0FCD5D10ED5B28
:10CD7E00799FC3500F114D11CD0A10CD5A1018EED8
:10CD8E0011511118F311591118EEF53E04327D9F11
:10CD9E00F1FE21CABF0DFE22CACC0DFE2ACAD50D48
:10CDAE00FE36C2E50DED5B799FCD470F5AC3950F49
:10CDBE00ED5B799FCD5D10CD750FC39B0FCD750FBC
:10CDCE00CDA10FC32A10ED5B799FCD5D10CD750FF0
:10CDDE00CDB00FC33610FECBC26D0CCD750F7A01E0
:10CDEE00070021CF10EDB1C2050E213813CD8C0FE7
:10CDFE00CD0A10C34F0D01180021D610EDB1C26D32
:10CE0E000CFE80DA290EFEC0DA310E113B12CD0A6D
:10CE1E001021999FCD850CC37D0D11D011CD0A1017
:10CE2E0018EF11D411CD0A1018E7FEEDC2360F7EA1
:10CE3E0001380021EE10EDB1C26D0C79FE06DA1745
:10CE4E000FFE1BDA090FFE1EDAF60ECAD60EFE1FF5
:10CE5E00CADF0EFE20CAE80EFE21CAF10EFE26DA49
:10CE6E00C50EFE2ADAAF0EFE31DA940E11B311CDD5
:10CE7E000A1079D6314F210013CD8C0FCD5D1011D4
:10CE8E004312C3331011AF11CD0A10114312CD5DF1
:10CE9E001079D62A4FE5210013CD8C0FE1C3331044
:10CEAE00115911CD0A1011C91ECD5D1079D6264F1C
:10CEBE00E521881218E3115111CD0A1011C91ECDAA
:10CECE005D1079D62218E8CD5A1011041FC3331005
:10CEDE00CD5A1011021FC3331011041FCD5D10C3A4
:10CEEE00251011021F18F511DC11CD0A103E1D91EF
:10CEFE00C63021999F7723C33610D6064F060021E0
:10CF0E000E13CD8C0FC30A103E04327D9FC57921BE
:10CF1E00CE12CD8C0FC179FE03DAD90DD5CD750F9A
:10CF2E00CDA10FD1C3331011F91EED53799F11EA24
:10CF3E0012ED537B9FC3A60C21999FCD560FC38232
:10CF4E0010CD560FC33610CD6D10CD6510CD750FAB
:10CF5E007BFE80380CED445FCD7E10CDD80FC371B3
:10CF6E0010CD7A1018F5E52A779F23235E2356E11C
:10CF7E00C9CD8C0F21999FC36510216012CB21CB97
:10CF8E0010095E2356C9CDD80FC33610CDC70FC3B7
:10CF9E00361021999FCD6D10CDC70FCD7110C38264
:10CFAE0010CD6D10CDC70FC37110E52A779FCD1A26
:10CFBE0005EBE1CDC70F186F7AFEA038043E30772F
:10CFCE0023CDE60F3E48C373107BFEA038043E30DF
:10CFDE007723CDEE0F18ED7ACDF70F7ACDFB0F7BC1
:10CFEE00CDF70F7BCDFB0FC90F0F0F0FE60FF630EE
:10CFFE00FE3A3870C607186C114D11F5C50608219A
:10D00E00919F1AB728067723130518F63E2077232B
:10D01E000520FBC1F1C911B91E1809ED5B799F18E6
:10D02E000311C91ECD65103E0D77233E0A7723AF3F
:10D03E0077C921999FCD6D10CD6510182521999F27
:10D04E00CD6D10CD6510CD7110182811B91E219916
:10D05E009FCD6510181D1A77B7C8231318F83E28F0
:10D06E0018023E297723C93E2018F93E2B18F53EAB
:10D07E002D18F13E2CCD731018ED00070F171F273A
:10D08E002F373FC9D9F3FB040C141C242C343C0558
:10D09E000D151D252D353D031323330B1B2B3B097E
:10D0AE00192939C1D1E1F1C5D5E5F5464E565E6671
:10D0BE006E7E7071727374757796A6AEB6BE343589
:10D0CE00060E161E262E3E464E565E666E767E86E2
:10D0DE008E969EA6AEB6BEC6CED6DEE6EEF6FE4068
:10D0EE004850586068784149515961697942526295
:10D0FE00724A5A6A7A474F575F46565E44454D67A5
:10D10E006FA0A1A2A3A8A9AAABB0B1B2B3B8B9BA85
:10D11E00BB4353734B5B7B41460041462700524550
:10D12E0054004A50004A5200444A4E5A0043414C61
:10D13E004C00525354004C440048414C540041445E
:10D14E004400414443005355420053424300414E74
:10D15E004400584F52004F5200435000494E430076
:10D16E0044454300504F5000505553480045580019
:10D17E00455858004E4F5000524C434100525243B6
:10D18E004100524C41005252410044414100435033
:10D19E004C00534346004343460044490045490072
:10D1AE004F555400494E00524C43005252430052C8
:10D1BE004C00525200534C41005352410053524CBA
:10D1CE000042495400524553004E454700494D0018
:10D1DE0052524400524C44004C44490043504900C2
:10D1EE00494E49004F555449004C44440043504465
:10D1FE0000494E44004F555444004C44495200439C
:10D20E0050495200494E4952004F544952004C4425
:10D21E004452004350445200494E4452004F54442D
:10D22E00520052455449005245544E005345540045
:10D23E003F3F3F002843290028484C29004E5A0002
:10D24E005A004E43004300504F0050450050004DD1
:10D25E0000BE1EC01EC51EC71ECC1ECE1E4712B956
:10D26E001E5E125C1259125612541251124F124C6B
:10D27E0012541251124F124C12FC1EC91EC21EBB6A
:10D28E001E2611C91EC21EBB1EAC11A9117F112D67
:10D29E0011A511A1119D119911951191118C118743
:10D2AE00118311AF11B3116811651161115D115523
:10D2BE0011591151114D11FC1EC91EC21EBB1EFC6F
:10D2CE001EC21EBB1EFC1EC21EBB1E731177116F2B
:10D2DE00116B11FC1EF61EC21EBB1EFC1EF91EC2D9
:10D2EE001EBB1E6F116B116811651161115D115519
:10D2FE0011B91ECE1ECC1EC71EC51EC01EBE1E2CB4
:10D30E0012271222121D12181213120E12091204D3
:10D31E00120012FC11F811F311EF11EB11E711E3EA
:10D32E0011DF1131123612D811CC11C811C411C12E
:10D33E0011BE11BA11B611ED5B429FED534E9F23F4
:10D34E00CD0118CD11183003B7280A7AFEE0D2FEAF
:10D35E0000ED534E9FCD01187EB72818FE2CC2FE4D
:10D36E000023CD0118CD1118DAFE0021679FCD6084
:10D37E0002DAFE002A4E9F22429F3A579FB7281A82
:10D38E002A549F22429F21579F11599FCD0114214C
:10D39E005B9F115D9FCD0114181B215F9F11619F33
:10D3AE00CD011421639F11659FCD011421679F113B
:10D3BE00699FCD01142A409FF92A429FE5DD2A3C40
:10D3CE009FFD2A3E9F2A349FE5ED4B369FED5B383D
:10D3DE009F2A3A9FD9F1082A2C9FE5ED4B2E9FEDFF
:10D3EE005B309F2A329F3A449FED473A459FED4F5F
:10D3FE00F1C97EB7C81A4F131A473EFF02C923CD93
:10D40E000118CD1118DAFE00CD01187EB7C2FE004C
:10D41E0079B72004ED5B279FEBCD5017E521D71C84
:10D42E00CD4717E17EE5CD55173E20CD181FCDA770
:10D43E0017CD01187EB72007E12322279F18DAFEA9
:10D44E002D2007E12B22279F18CFFE2E2007E12249
:10D45E00279FC3BE00CD1118B7E1CAFE0073232269
:10D46E00279FED5B619F1A32609FED5B659F1A32BD
:10D47E00649F18A5AF325F9F32639F23CD0118CDF5
:10D48E001118CD01187EB7C2FE0079B72003110026
:10D49E0000CD071FFE532861FE3A280DFE0D28F120
:10D4AE00FE0A28EDCD071F18F33E2ECD181FCD6CAA
:10D4BE00174F47CD6C1767814FCD6C176F814F1982
:10D4CE00CD6C17322A9F814F78B72814CD6C17F583
:10D4DE00814F3A2A9FB72005F177231801F110ECFE
:10D4EE00CD6C1781200A3A2A9FB7CAB314C3BE0067
:10D4FE0021B21CCD4717C3BE00CD071F322A9FCDC8
:10D50E006C17474FCD6C1767814FCD6C176F814FDE
:10D51E00190505052815CD6C17F5814F3A2A9FFE82
:10D52E00312005F177231801F110EBCD6C1781FE38
:10D53E00FF20123A2A9FFE372811FE38280DFE3999
:10D54E002809C3B31421BF1CCD4717C3BE00237EC9
:10D55E00FE492804FE5320042332299FCD0118CD05
:10D56E001118B7281CD5DDE1CD01187EFE2C201137
:10D57E0023CD0118CD1118B72807CD01187EB72875
:10D58E0003C3FE00DDE5E1EB23B7ED52CDBB157C09
:10D59E00B520F93A299FFE49200921DB1CCD4717FA
:10D5AE00C3BE0021E91CCD4717C3BE000E107CB7C9
:10D5BE0020057DB930014F0600B7ED42413A299F53
:10D5CE00FE4920303E3ACD181F78CD5517487ACDFA
:10D5DE0055177A814F7BCD55177B814FAFCD5517A0
:10D5EE001AF5CD5517F1814F1310F579ED44CD5540
:10D5FE0017C390173E53CD181F3E31CD181F78C656
:10D60E00034FCD55177ACD55177A814F7BCD5517D0
:10D61E007B814F1AF5CD5517F1814F1310F5792FE8
:10D62E00CD5517C3901723CD0118B72006CDBB16C5
:10D63E00C3BE00EB219F1DBE280D4F237EB7286968
:10D64E00790105000918F0237EFE0F2009234E23D1
:10D65E006669131A18E1B728504E235E2356D52358
:10D66E007E23666FCD47173E3DCD181F79E607FE28
:10D67E00012008E17EE5CD5517180CE1E5237ECD9E
:10D68E0055172B7ECD55173E20CD181FC5CDA7178C
:10D69E00CD0118CD1118B7280DC1E179FE01200377
:10D6AE00731803732372C3BE00C3FE0021F61C5E03
:10D6BE002356237AB3CA9017D5EBCD4717EBD13E3D
:10D6CE001DBA20073E61BB200218293E1DBA200557
:10D6DE003E88BB281F5E2356237E23EBFE012007C8
:10D6EE007ECD5517EB18C8237ECD55172B7ECD5505
:10D6FE0017EB18BB5E2356231AD5E5216B9F013716
:10D70E0017113F17F5F1CB273006F50A77F11804FC
:10D71E00F51A77F1031323F57EB720E9F1216B9FFC
:10D72E00CD4717E1D1231887535A2E482E504E431A
:10D73E002E2E2E2E2E2E2E2E7EA7C8CD181F23183F
:10D74E00F77CCD55177DF51F1F1F1FCD5E17F1E618
:10D75E000FC630FE3ADA181FC607C3181FAFCD74B6
:10D76E001707070707C54FCD071FFE303811FE3AC2
:10D77E00380AFE413809FE473005D607D630B1C10A
:10D78E00C93E0DCD181F3E0AC3181FE521A317CDA4
:10D79E004717E1C91B5B320021009FC5E50600CD8E
:10D7AE00071FFE0D2844FE0A2840FE082825FE7F8E
:10D7BE002821FE2038E9FE8030E54F78FE1F30DF4D
:10D7CE000479CD181FFE613806FE7B3002E6DF7746
:10D7DE002318CC78A728C8052B3E08CD181F3E204D
:10D7EE00CD181F3E08CD181F18B5CD90173600E185
:10D7FE00C1C97EFE20C02318F9FE61D8FE7BD0C6BB
:10D80E00E0C90E001100007EFE30382CFE3A380AB8
:10D81E00FE413824FE473020D607D630171717178B
:10D82E0017CB13CB1217CB13CB1217CB13CB12175D
:10D83E00CB13CB12230C18CF79B72806FE05300276
:10D84E00B7C937C9E5C5216318060009094623661D
:10D85E0068C1E3C98D189018181F4717071F121FAC
:10D86E00D218501755175E179A17AA170118901746
:10D87E0008181118091A3F1AB51A6218F007C34092
:10D88E000031009F3A679FB7280621689FCDC119C6
:10D89E003A579FB7280621589FCDC1193A5B9FB7BB
:10D8AE002806215C9FCDC1193A639FB728062164D3
:10D8BE009FCDCD193A5F9FB7280621609FCDCD1918
:10D8CE00C39719AFC9F5ED5F32459FED5732449FAF
:10D8DE0022329FED53309FED432E9FE1222C9F0865
:10D8EE00F5D9223A9FED53389FED43369FE122340E
:10D8FE009FDD223C9FFD223E9FE12B22429FED7336
:10D90E00409F31009FAF575F3A679FB7280911F7C5
:10D91E001921689FCDC1193A639FB7280911F719CC
:10D92E0021649FCDCD193A5F9FB7280911F71921B0
:10D93E00609FCDCD193A579FB7280911001A21586B
:10D94E009FCDC1193A5B9FB7280911001A215C9F20
:10D95E00CDC1197AB3200311ED191AFE54280CEB20
:10D96E00CD4717CDBB16CDD419181D3A509FFE4684
:10D97E00280AEBCD4717CDBB16CDD419CD121F28D3
:10D98E0013CD071FFE03200CAF32569F676F225236
:10D99E009FC3BE003A569FB7C2B8192A529F2B2278
:10D9AE00529F7DB42003C3BE002A429F22549FC3C0
:10D9BE00E103E57E234E234602E1AF2B77C97E239A
:10D9CE004E234602C92A429F22779FCD4608CD0B91
:10D9DE0008217E9FCD47172A429F22779FC9525317
:10D9EE0054203338480D0A00427265616B210D0ACE
:10D9FE00005472616365210D0A00F5C5D5E5DDE5BC
:10DA0E00E5DDE1EBE521050019AF77EBE101010062
:10DA1E003E0ACD3F1AF6301B120C7CB520F279FE71
:10DA2E00062806DDE5E1EBEDB0DDE1E1D1C1F1C99E
:10DA3E00C5D54F060FAF291791380D292C179138E0
:10DA4E000C292C10F8C3601A29178138F42910F903
:10DA5E0081D1C1C922469FED53489FAF324A9F32B2
:10DA6E004B9F324C9F324D9F0610214A9FCB26234F
:10DA7E00CB1621469FCB2623CB16214C9FCB1623AC
:10DA8E00CB162A489F5D542A4C9FAFED5230021898
:10DA9E000B224C9F3A4A9FF601324A9F10CC2A4ADB
:10DAAE009FED5B4C9FC9F5C5B71804CB21CB101F5A
:10DABE0030F90920F6C1F1C93F203A436F6D6D610F
:10DACE006E642048656C700D0A445B3C6164723E66
:10DADE005D203A44756D70204D656D6F72790D0A3B
:10DAEE00535B3C6164723E5D203A536574204D6514
:10DAFE006D6F72790D0A525B3C7265673E5D203A1E
:10DB0E00536574206F722044756D7020726567695D
:10DB1E00737465720D0A475B3C6164723E5D5B2CEB
:10DB2E003C73746F70206164723E5D203A476F20C3
:10DB3E00616E642053746F700D0A4C203A4C6F6105
:10DB4E00642048657846696C650D0A505B497C53C4
:10DB5E005D203A536176652048657846696C652884
:10DB6E00493A496E74656C2C533A4D6F746F726FEF
:10DB7E006C61290D0A234C7C3C6E756D3E203A4C2F
:10DB8E0061756E63682070726F6772616D0D0A4207
:10DB9E005B317C325B2C3C6164723E5D5D203A539E
:10DBAE006574206F72204C69737420427265616BCC
:10DBBE0020506F696E740D0A42435B317C325D20DA
:10DBCE003A436C65617220427265616B20506F69D9
:10DBDE006E740D0A545B3C6164723E5D5B2C3C734B
:10DBEE00746570733E7C2D315D203A2054726163F2
:10DBFE006520636F6D6D616E640D0A54505B4F4E00
:10DC0E007C4F46465D203A547261636520507269BE
:10DC1E006E74204D6F64650D0A544D5B497C535DE7
:10DC2E00203A5472616365204F7074696F6E20667E
:10DC3E006F722043414C4C0D0A44495B3C61647247
:10DC4E003E5D5B2C733C73746570733E7C3C61640B
:10DC5E00723E5D203A446973617373656D626C65E3
:10DC6E000D0A000D0A454D555A3830204D4F4E497C
:10DC7E00544F52205265762E4230320D0A54686946
:10DC8E0073206D6F6E69746F722069732062617399
:10DC9E006564206F6E20756E696D6F6E2E0D0A00B5
:10DCAE005D20004572726F7220696865780D0A00FA
:10DCBE004572726F7220737265630D0A004572723F
:10DCCE006F720D0A00203A00203A20003A303030B0
:10DCDE00303030303146460D0A0053393033303053
:10DCEE00303046430D0A004B1D2D9F014F1D2E9FB8
:10DCFE0002551D309F025B1D329F02611D2C9F013C
:10DD0E00661D3C9F026B1D3E9F02701D359F017666
:10DD1E001D369F027C1D389F02821D3A9F02881D70
:10DD2E00349F018D1D409F02921D429F02971D44FC
:10DD3E009F019B1D459F01000000000041203D00FA
:10DD4E00204243203D00204445203D0020484C20E9
:10DD5E003D002046203D002049583D002049593DB8
:10DD6E00000D0A41273D00204243273D0020444537
:10DD7E00273D0020484C273D002046273D002053DC
:10DD8E00503D002050433D0020493D0020523D00B3
:10DD9E00410FE91D0000420FF71D0000430F191E31
:10DDAE000000440F271E0000450F491E0000460FBD
:10DDBE00571E0000480F651E0000490F951E0000FB
:10DDCE004C0F871E0000500FA91E00005201459FE8
:10DDDE00041F530FB11E0000000000012D9FB91E3D
:10DDEE002701359FD21E000000012F9FBE1E270166
:10DDFE00379FD91E430F0B1E0000000000022E9FFE
:10DE0E00BB1E2702369FD51E000000012E9FC01E8E
:10DE1E002701369FDC1E00000001319FC51E270121
:10DE2E00399FE31E450F3B1E000000000002309F8D
:10DE3E00C21E2702389FDF1E00000001309FC71E42
:10DE4E002701389FE61E000000012C9FD01E2701DF
:10DE5E00349FF31E00000001339FCC1E27013B9F11
:10DE6E00ED1E4C0F791E000000000002329FC91EED
:10DE7E0027023A9FE91E00000001329FCE1E2701A5
:10DE8E003A9FF01E00000001449F021F58023C9F63
:10DE9E00F61E59023E9FF91E00004302429FFF1ECE
:10DEAE0000005002409FFC1E000041004243004211
:10DEBE0000430044450044004500484C0048004CD7
:10DECE000046004127004243270042270043270017
:10DEDE0044452700442700452700484C2700482783
:10DEEE00004C27004627004958004959005350005E
:10DEFE0050430049005200C93A01E0CB4728F93A95
:10DF0E0000E0C93A01E0CB47C9F53A01E0CB4F2812
:10DF1E00F9F13200E0C9FFFFFFFFFFFFFFFFFFFF38
:10DF2E00FFFFFFFFFFFFFFFFFFFFFFFFFFFFFFFFF3
:10DF3E00FFFFFFFFFFFFFFFFFFFFFFFFFFFFFFFFE3
:10DF4E00FFFFFFFFFFFFFFFFFFFFFFFFFFFFFFFFD3
:10DF5E00FFFFFFFFFFFFFFFFFFFFFFFFFFFFFFFFC3
:10DF6E00FFFFFFFFFFFFFFFFFFFFFFFFFFFFFFFFB3
:10DF7E00FFFFFFFFFFFFFFFFFFFFFFFFFFFFFFFFA3
:10DF8E00FFFFFFFFFFFFFFFFFFFFFFFFFFFFFFFF93
:10DF9E00FFFFFFFFFFFFFFFFFFFFFFFFFFFFFFFF83
:10DFAE00FFFFFFFFFFFFFFFFFFFFFFFFFFFFFFFF73
:10DFBE00FFFFFFFFFFFFFFFFFFFFFFFFFFFFFFFF63
:10DFCE00FFFFFFFFFFFFFFFFFFFFFFFFFFFFFFFF53
:10DFDE00FFFFFFFFFFFFFFFFFFFFFFFFFFFFFFFF43
:10DFEE00FFFFFFFFFFFFFFFFFFFFFFFFFFFFFFFF33
:10DFFE00FFC30620C36B20C30D20AC282230214561
:10E00E0080F9C3373C11D52206632145801A772348
:10E01E001305C21C20F9CDD624CDA22A32EF8032B0
:10E02E003E8121C09E11A181CD6C26DA742011CEC5
:10E03E00FF22F48019229F80CDB1242A9F8011EFF8
:10E04E00FF19113E817D936F7C9A67E5218C20CD5F
:10E05E004031E1CDE337217D20CD403131AB80CD54
:10E06E00D624C3EF2321C320CD4031C37A202042D2
:10E07E007974657320667265650D0A00005A383032
:10E08E002042415349432056657220342E37620D8B
:10E09E000A436F70797269676874202843292031AA
:10E0AE00393738206279204D6963726F736F6674E9
:10E0BE000D0A00004D656D6F72792073697A6520C7
:10E0CE006E6F7420656E6F7567680D0A54686520F3
:10E0DE0073797374656D2069732073746F707065D6
:10E0EE00642E0D0A000058361C376E3648800030FC
:10E0FE0085332E30E238C139FD343039363A3C3A68
:10E10E009D3AB23AD9331C3B9680B232CA304C3368
:10E11E00C132D2323E3BD13BE23212331C33C54EBA
:10E12E0044C64F52CE455854C4415441C94E505521
:10E13E0054C4494DD2454144CC4554C74F544FD297
:10E14E00554EC946D24553544F5245C74F5355426B
:10E15E00D2455455524ED2454DD3544F50CF5554AF
:10E16E00CF4ECE554C4CD7414954C44546D04F4B5B
:10E17E0045C44F4B45D3435245454ECC494E45536E
:10E18E00C34C53D749445448CD4F4E49544F52D3A4
:10E19E004554D245534554D052494E54C34F4E5414
:10E1AE00CC495354C34C454152C34C4F4144C353C5
:10E1BE00415645CE4557D4414228D44FC64ED35032
:10E1CE004328D448454ECE4F54D3544550ABADAAF8
:10E1DE00AFDEC14E44CF52BEBDBCD3474EC94E5426
:10E1EE00C14253D55352C65245C94E50D04F53D348
:10E1FE005152D24E44CC4F47C55850C34F53D349BA
:10E20E004ED4414EC1544ED045454BC445454BD0DE
:10E21E004F494E54CC454ED3545224D6414CC15343
:10E22E0043C3485224C8455824C2494E24CC4546BF
:10E23E005424D24947485424CD494424804428418B
:10E24E00271C2C9129232B582E522BA8294E2931CD
:10E25E0029202A0A283D296C299329422891330224
:10E26E002A832897333630E033273B93290D3B0121
:10E27E003B053B333C99809C80442A7028B626EBA4
:10E28E002893299329B02479CA3779FE337C3C35FB
:10E29E007C9D357FEB3850B12D46B02D4E46534EFA
:10E2AE0052474F4446434F564F4D554C42534444AC
:10E2BE002F304944544D4F534C535354434E5546AF
:10E2CE004D4F4858424EC36B20C3C128D300C9D608
:10E2DE00006F7CDE006778DE00473E00C90000005C
:10E2EE00354ACA99391C76982295B3980ADD479813
:10E2FE0053D199990A1A9F9865BCCD98D6773E98B6
:10E30E0052C74F80DB00C901FF1C0000140014002F
:10E31E0000000000C3E925C30000C30000C30000D5
:10E32E00A281FEFF3F81204572726F720020696EDE
:10E33E0020004F6B0D0A0000427265616B002104D4
:10E34E0000397E23FE81C04E234623E569607AB3F1
:10E35E00EBCA6723EBCD6C26010D00E1C809C35152
:10E36E0023CD8A23C5E3C1CD6C267E02C80B2BC3F9
:10E37E007623E52A1F81060009093EE53ED0956FFA
:10E38E003EFF9CDA99236739E1D81E0CC3B8232AC5
:10E39E000E8122A1801E02011E14011E00011E12FA
:10E3AE00011E22011E0A011E18CDD624328A80CDEE
:10E3BE00952A21AB22573E3FCD7D26197ECD7D2657
:10E3CE00CDFA27CD7D26213523CD40312AA18011CE
:10E3DE00FEFFCD6C26CA0D207CA53CC4DB373EC1AA
:10E3EE00AF328A80CD952A214123CD403121FFFFC6
:10E3FE0022A180CDE925DAFC23CDFA273C3DCAFCCB
:10E40E0023F5CDC628D5CD002547D1F1D2DA27D5B3
:10E41E00C5AF321181CDFA27B7F5CD9024DA352468
:10E42E00F1F5CA6729B7C5D24C24EB2A1B811A0213
:10E43E000313CD6C26C23D246069221B81D1F1CA23
:10E44E0073242A1B81E3C109E5CD7023E1221B81D0
:10E45E00EB74D123237323722311A6801A7723130F
:10E46E00B7C26B24CDBC2423EB626B7E23B6CAFCF1
:10E47E0023232323AFBE23C28424EB732372C378DA
:10E48E00242AA380444D7E23B62BC823237E2366E5
:10E49E006FCD6C2660697E23666F3FC83FD0C393F5
:10E4AE0024C02AA380AF77237723221B812AA3803F
:10E4BE002B2213812AF480220881AFCD0A282A1B31
:10E4CE0081221D81221F81C12A9F80F921F880227D
:10E4DE00F680AF6F67221981321081222381E5C544
:10E4EE002A1381C93E3FCD7D263E20CD7D26C39386
:10E4FE0080AF32F3800E0511A6807EFE20CA8825DD
:10E50E0047FE22CAA825B7CAAF253AF380B77EC206
:10E51E008825FE3F3E9ECA88257EFE30DA3325FED4
:10E52E003CDA8825D5112C21C5018425C5067F7EB0
:10E53E00FE61DA4C25FE7BD24C25E65F774EEB234F
:10E54E00B6F24E25047EE67FC8B9C24E25EBE51322
:10E55E001AB7FA80254F78FE88C26F25CDFA272B81
:10E56E00237EFE61DA7825E65FB9CA5E25E1C34CEB
:10E57E002548F1EBC9EB79C1D12312130CD63ACA57
:10E58E009625FE49C2992532F380D654C2092547F5
:10E59E007EB7CAAF25B8CA882523120C13C39F2590
:10E5AE0021A5801213121312C93A8980B73E003288
:10E5BE008980C2CC2505CAE925CD7D263E052BCA0C
:10E5CE00E0257ECD7D26C3F225052BCD7D26C2F21C
:10E5DE0025CD7D26CDA22AC3E92521A6800601AF31
:10E5EE00328980CDA5264FFE7FCAB8253A8980B7DD
:10E5FE00CA0B263E00CD7D26AF32898079FE07CA32
:10E60E004F26FE03CCA22A37C8FE0DCA9D2AFE1540
:10E61E00CAE325FE40CAE025FE5FCAD825FE08CA19
:10E62E00D825FE12C24A26C5D5E53600CD463C2178
:10E63E00A680CD4031E1D1C1C3F225FE20DAF2250C
:10E64E0078FE493E07D2642679713211812304CDBA
:10E65E007D26C3F225CD7D263E08C35E267C92C064
:10E66E007D93C97EE3BE23E3CAFA27C3A423F53AFA
:10E67E008A80B7C27531F1C5F5FE20DAA1263A8738
:10E68E0080473AF08004CA9D2605B8CCA22A3C32B7
:10E69E00F080F1C1CFC9CDFF3AE67FFE0FC03A8AB6
:10E6AE00802F328A80AFC9CDC628C0C1CD9024C577
:10E6BE00CD0C27E14E23462378B1CAEF23CD152783
:10E6CE00CD2528C5CDA22A5E235623E5EBCDE33713
:10E6DE003E20E1CD7D267EB723CAC226F2E226D6A3
:10E6EE007F4F112D211A13B7F2F4260DC2F426E630
:10E6FE007FCD7D261A13B7F2FE26C3E526E52A8DB9
:10E70E0080228B80E1C9E5D52A8B8011FFFFED5A5F
:10E71E00228B80D1E1F0E52A8D80228B80CDFF3ACD
:10E72E00FE03CA3827E1C315272A8D80228B80C3AA
:10E73E006E203E64321081CDA829C1E5CD912922EB
:10E74E000C8121020039CD5123D1C2712709D52B5D
:10E75E00562B5E2323E52A0C81CD6C26E1C255276C
:10E76E00D1F9EB0E08CD8123E52A0C81E3E52AA130
:10E77E0080E3CD6A2CCD7226A6CD672CE5CD9536DD
:10E78E00E1C5D5010081515A7EFEAB3E01C2AD27D7
:10E79E00CDFA27CD672CE5CD9536CD4936E1C5D5D9
:10E7AE00F533E52A1381E30681C533CD25282213DF
:10E7BE00817EFE3ACADA27B7C2A423237E23B6CAC5
:10E7CE004C28235E2356EB22A180EBCDFA2711BAFB
:10E7DE0027D5C8D680DAA829FE25D2A423074F064E
:10E7EE0000EB214C22094E2346C5EB237EFE3AD088
:10E7FE00FE20CAFA27FE303F3C3DC9EB2AA380CA51
:10E80E001F28EBCDC628E5CD90246069D1D26729AB
:10E81E002B222181EBC9DFC8D7FE1B2811FE03284E
:10E82E000DFE13C0D7FE11C8FE03280718F63EFFD3
:10E83E00329280C0F6C022138121F6FFC12AA18038
:10E84E00F57DA43CCA5F282217812A1381221981E3
:10E85E00AF328A80CD952AF1214723C2D823C3EF48
:10E86E00232A19817CB51E20CAB823EB2A178122D0
:10E87E00A180EBC9CDC833C0328680C9E52A8F800E
:10E88E0006004F09228F80E1C97EFE41D8FE5B3F14
:10E89E00C9CDFA27CD672CCD4936FAC1283A2C813D
:10E8AE00FE90DAF136018090110000E5CDC436E11C
:10E8BE0051C81E08C3B8232B110000CDFA27D0E58E
:10E8CE00F5219819CD6C26DAA423626B1929192922
:10E8DE00F1D6305F160019EBE1C3CA28CAC024CDA9
:10E8EE00A3282BCDFA27E52AF480CA0E29E1CD7292
:10E8FE00262CD5CDA3282BCDFA27C2A423E3EB7D5E
:10E90E00935F7C9A57DA9923E52A1B810128000927
:10E91E00CD6C26D29923EB229F80E122F480E1C3B5
:10E92E00C024CABC24CDC02401BA27C34D290E036E
:10E93E00CD8123C1E5E52AA180E33E8CF533C5CD1B
:10E94E00C628CD9329E52AA180CD6C26E123DC9340
:10E95E0024D4902460692BD81E0EC3B823C016FF92
:10E96E00CD4D23F9FE8C1E04C2B823E122A18023D3
:10E97E007CB5C28B293A1181B7C2EE2321BA27E3A7
:10E98E003EE1013A0E0006007948477EB7C8B8C886
:10E99E0023FE22CA9729C39A29CD5D2ECD7226B4A5
:10E9AE00D53AF280F5CD792CF1E32213811FCD6C8F
:10E9BE002CCAFB29E52A2981E523235E23562AA3A7
:10E9CE0080CD6C26D2EA292A9F80CD6C26D1D2F238
:10E9DE0029210481CD6C26D2F2293ED1CDA132EB74
:10E9EE00CDDA30CDA132E1CDA436E1C9E5CDA136E7
:10E9FE00D1E1C9CDC8337E47FE8CCA112ACD72260D
:10EA0E00882B4B0D78CAE227CDC728FE2CC0C31227
:10EA1E002ACD792C7EFE88CA2E2ACD7226A92BCD20
:10EA2E006A2CCD4936CA9329CDFA27DA4E29C3E18D
:10EA3E00272BCDFA27CAA22AC8FEA5CAD52AFEA818
:10EA4E00CAD52AE5FE2CCABE2AFE3BCAF82AC1CD7B
:10EA5E00792CE53AF280B7C28E2ACDEE37CDFE3054
:10EA6E0036202A2981342A29813A87804704CA8A86
:10EA7E002A043AF080863DB8D4A22ACD4331AFC4E1
:10EA8E004331E1C3402A3AF080B7C8C3A22A360008
:10EA9E0021A5803E0DCD7D263E0ACD7D26AF32F0DE
:10EAAE00803A86803DC8F5AFCD7D26F1C3B32A3AB4
:10EABE008880473AF080B8D4A22AD2F82AD60ED24D
:10EACE00CC2A2FC3ED2AF5CDC533CD7226292BF1D5
:10EADE00D6A8E5CAE82A3AF0802F83D2F82A3C4716
:10EAEE003E20CD7D2605C2F12AE1CDFA27C3472A65
:10EAFE003F5265646F2066726F6D2073746172741D
:10EB0E000D0A003A1281B7C29E23C121FF2ACD40C1
:10EB1E0031C3EF24CDAB307EFE223E00328A80C25E
:10EB2E003D2BCDFF30CD72263BE5CD43313EE5CDBD
:10EB3E00F324C1DA4928237EB72BC5CA9029362C77
:10EB4E00C3572BE52A2181F6AF321281E3C3632B23
:10EB5E00CD72262CCD5D2EE3D57EFE2CCA8B2B3AA4
:10EB6E001281B7C2F82B3E3FCD7D26CDF324D1C105
:10EB7E00DA4928237EB72BC5CA9029D53AF280B739
:10EB8E00CAB52BCDFA275747FE22CAA92B3A1281B6
:10EB9E00B757CAA62B163A062C2BCD0231EB21C045
:10EBAE002BE3D5C3C329CDFA27CD5037E3CDA136FC
:10EBBE00E12BCDFA27CACC2BFE2CC2122BE32BCD88
:10EBCE00FA27C25F2BD13A1281B7EBC22028D5B6F5
:10EBDE0021E72BC44031E1C93F4578747261206949
:10EBEE00676E6F7265640D0A00CD9129B7C2112C44
:10EBFE00237E23B61E06CAB823235E2356EB220EAF
:10EC0E0081EBCDFA27FE83C2F82BC38B2B110000AC
:10EC1E00C45D2E221381CD4D23C2AA23F9D57E23A6
:10EC2E00F5D5CD8736E3E5CDF433E1CDA136E1CD93
:10EC3E009836E5CDC436E1C190CD9836CA572CEB47
:10EC4E0022A1806960C3B627F92A13817EFE2CC2E9
:10EC5E00BA27CDFA27CD1F2CCD792CF6373AF28074
:10EC6E008FB7E8C3B623CD7226282B1600D50E011A
:10EC7E00CD8123CDF02C2215812A1581C178FE7805
:10EC8E00D46A2C7E1600D6B3DAB12CFE03D2B12C88
:10EC9E00FE0117AABA57DAA423220A81CDFA27C396
:10ECAE00952C7AB7C2D82D7E220A81D6ACD8FE0713
:10ECBE00D05F3AF2803DB37BCA363207835F21962E
:10ECCE0022197856BAD023CD6A2CC501882CC5439B
:10ECDE004ACD7A3658514E234623C52A0A81C37C23
:10ECEE002CAF32F280CDFA271E24CAB823DA503761
:10ECFE00CD9828D2572DFE262012CDFA27FE48CACF
:10ED0E00933BFE42CA033C1E02CAB823FEACCAF0B5
:10ED1E002CFE2ECA5037FEADCA462DFE22CAFF303B
:10ED2E00FEAACA382EFEA7CA6330D6B6D2682DCD3B
:10ED3E00752CCD722629C9167DCD7C2C2A1581E520
:10ED4E00CD7236CD6A2CE1C9CD5D2EE5EB2229813F
:10ED5E003AF280B7CC8736E1C90600074FC5CDFA27
:10ED6E002779FE31DA8F2DCD752CCD72262CCD6BF9
:10ED7E002CEB2A2981E3E5EBCDC833EBE3C3972DCA
:10ED8E00CD3E2DE311522DD501F520094E23666996
:10ED9E00E915FEADC8FE2DC814FE2BC8FEACC82B5F
:10EDAE00C9F6AFF5CD6A2CCDAC28F1EBC1E3EBCDB6
:10EDBE008A36F5CDAC28F1C179212130C2D32DA3ED
:10EDCE004F78A2E9B34F78B2E921EA2D3AF2801FCB
:10EDDE007A175F166478BAD0C3D92CEC2D79B71F89
:10EDEE00C1D1F5CD6C2C212E2EE5CAC436AF32F230
:10EDFE0080D5CD83327E23234E2346D1C5F5CD87D4
:10EE0E0032CD9836F157E17BB2C87AD601D8AFBB76
:10EE1E003CD0151D0ABE2303CA162E3FC354363CE2
:10EE2E008FC1A0C6FF9FC35B36165ACD7C2CCD6A10
:10EE3E002CCDAC287B2F4F7A2FCD2130C1C3882CFF
:10EE4E002BCDFA27C8CD72262C014F2EC5F6AF3228
:10EE5E00F18046CD9828DAA423AF4F32F280CDFA56
:10EE6E0027DA792ECD9828DA862E4FCDFA27DA7A40
:10EE7E002ECD9828D27A2ED624C2952E3C32F280F0
:10EE8E000F814FCDFA273A10813DCA422FF2A52E9F
:10EE9E007ED628CA1A2FAF321081E550592A238107
:10EEAE00CD6C26112581CA8A352A1D81EB2A1B813C
:10EEBE00CD6C26CAD82E799623C2CD2E789623CA2B
:10EECE000C2F23232323C3BF2EE1E3D5115A2DCDBF
:10EEDE006C26D1CA0F2FE3E5C50106002A1F81E576
:10EEEE0009C1E5CD7023E1221F816069221D812BAE
:10EEFE003600CD6C26C2FE2ED173237223EBE1C9F0
:10EF0E00322C81214023222981E1C9E52AF180E3B7
:10EF1E0057D5C5CDA028C1F1EBE3E5EB3C577EFEFE
:10EF2E002CCA202FCD722629221581E122F1801EB6
:10EF3E0000D511E5F52A1D813E19EB2A1F81EBCD77
:10EF4E006C26CA7A2F7EB923C25C2F7EB8235E232D
:10EF5E005623C2482F3AF180B7C2AD23F1444DCAB1
:10EF6E008A3596CAD82F1E10C3B823110400F1CAD1
:10EF7E00C128712370234FCD81232323220A81714F
:10EF8E00233AF1801779010B00D29D2FC103712313
:10EF9E007023F5E5CD3537EBE1F13DC2952FF54206
:10EFAE004BEB19DA9923CD8A23221F812B3600CD04
:10EFBE006C26C2BB2F03572A0A815EEB2909EB2B65
:10EFCE002B73237223F1DAFC2F474F7E2316E15E5B
:10EFDE00235623E3F5CD6C26D2752FE5CD3537D1EB
:10EFEE0019F13D444DC2DD2F2929C109EB2A1581A6
:10EFFE00C92A1F81EB210000393AF280B7CA1C30B2
:10F00E00CD8332CD83312A9F80EB2A08817D934FA9
:10F01E007C9A41501E0021F280730690C360363AEE
:10F02E00F08047AFC32230CDB930CDAB300191293E
:10F03E00C5D5CD722628CD5D2EE5EB2B562B5EE188
:10F04E00CD6A2CCD722629CD7226B4444DE37123A0
:10F05E0070C3F830CDB930D5CD3E2DCD6A2CE35EE0
:10F06E002356237AB3CAB0237E23666FE52A238103
:10F07E00E32223812A2781E52A2581E5212581D5D1
:10F08E00CDA136E1CD672C2BCDFA27C2A423E122E8
:10F09E002581E1222781E1222381E1C9E52AA18090
:10F0AE00237CB5E1C01E16C3B823CD7226A73E80C1
:10F0BE00321081B647CD622EC36A2CCD6A2CCDEEAE
:10F0CE0037CDFE30CD833201DE32C57E2323E5CD32
:10F0DE005931E14E2346CDF230E56FCD7632D1C9AE
:10F0EE00CD5931210481E5772323732372E1C92B96
:10F0FE00062250E50EFF237E0CB7CA1431BACA148D
:10F10E0031B8C20531FE22CCFA27E323EB79CDF2DA
:10F11E00301104812AF6802229813E0132F280CDFF
:10F12E00A436CD6C2622F680E17EC01E1EC3B82307
:10F13E0023CDFE30CD8332CD98361C1DC80ACD7D31
:10F14E0026FE0DCCAC2A03C34A31B70EF1F52A9F29
:10F15E0080EB2A08812F4F06FF0923CD6C26DA7724
:10F16E003122088123EBF1C9F11E1ACAB823BFF56B
:10F17E00015B31C52AF480220881210000E52A9F17
:10F18E0080E521F880EB2AF680EBCD6C26019431D8
:10F19E00C2E8312A1B81EB2A1D81EBCD6C26CABB3E
:10F1AE00317E2323B7CDEB31C3A531C1EB2A1F81AD
:10F1BE00EBCD6C26CA1132CD98367BE509B7F2BA83
:10F1CE0031220A81E14E0600090923EB2A0A81EB5E
:10F1DE00CD6C26CABB3101DA31C5F6807E23235EA3
:10F1EE00235623F0B7C8444D2A0881CD6C2660699A
:10F1FE00D8E1E3CD6C26E3E56069D0C1F1F1E5D548
:10F20E00C5C9D1E17DB4C82B462B4EE52B2B6E26FE
:10F21E00000950592B444D2A0881CD7323E17123E7
:10F22E007069602BC38631C5E52A2981E3CDF02CA8
:10F23E00E3CD6B2C7EE52A2981E5861E1CDAB823E8
:10F24E00CDEF30D1CD8732E3CD8632E52A0681EB84
:10F25E00CD6D32CD6D3221852CE3E5C32031E1E356
:10F26E007E23234E23466F2C2DC80A120313C37719
:10F27E0032CD6B2C2A2981EBCDA132EBC0D5505962
:10F28E001B4E2A0881CD6C26C29F32470922088167
:10F29E00E1C92AF6802B462B4E2B2BCD6C26C02295
:10F2AE00F680C9013130C5CD8032AF5732F2807E43
:10F2BE00B7C9013130C5CDB632CAC12823235E236A
:10F2CE00561AC93E01CDEF30CDCB332A068173C11C
:10F2DE00C32031CD7B33AFE34FE57EB8DAF0327821
:10F2EE00110E00C5CD5931C1E1E5232346236668D1
:10F2FE00060009444DCDF2306FCD7632D1CD873236
:10F30E00C32031CD7B33D1D51A90C3E632EB7ECDFF
:10F31E0080330405CAC128C51EFFFE29CA3533CD68
:10F32E0072262CCDC833CD722629F1E301E832C501
:10F33E003DBE0600D04F7E91BB47D843C9CDB632F5
:10F34E00CA69345F23237E23666FE5194672E3C5CF
:10F35E007EFE24C26A33CD933B180DFE25C2743354
:10F36E00CD033C1803CD5037C1E170C9EBCD7226E9
:10F37E0029C1D1C543C9CDCB33328480CD8380C35F
:10F38E003130CDB533C34B80CDB533F51E002BCD0B
:10F39E00FA27CAAB33CD72262CCDC833C1CD8380AC
:10F3AE00ABA0CAAC33C9CDC833328480324C80CDC9
:10F3BE0072262CC3C833CDFA27CD672CCDA6287A5A
:10F3CE00B7C2C1282BCDFA277BC9CDAC281AC331C1
:10F3DE0030CD672CCDAC28D5CD72262CCDC833D1EF
:10F3EE0012C921C738CD9836C30334CD983621C102
:10F3FE00D1CD723678B7C83A2C81B7CA8A3690D238
:10F40E001D342F3CEBCD7A36EBCD8A36C1D1FE19A9
:10F41E00D0F5CDAF3667F1CDC834B4212981F24392
:10F42E0034CDA834D289342334CAB3232E01CDDE91
:10F43E0034C38934AF90477E9B5F237E9A57237ED9
:10F44E00994FDCB4346863AF4779B7C276344A5407
:10F45E00656F78D608FEE0C25734AF322C81C905ED
:10F46E00297A1757798F4FF26E34785C45B7CA896F
:10F47E0034212C818677D26934C878212C81B7FC4F
:10F48E009B3446237EE680A94FC38A361CC014C027
:10F49E000CC00E8034C0C3B3237E835F237E8A5795
:10F4AE00237E894FC9212D817E2F77AF6F90477DA7
:10F4BE009B5F7D9A577D994FC90600D608DAD734DF
:10F4CE00435A510E00C3CA34C6096FAF2DC8791FF7
:10F4DE004F7A1F577B1F5F781F47C3DA3400000037
:10F4EE008103AA561980F122768045AA3882CD4929
:10F4FE0036B7EAC128212C817E01358011F30490A4
:10F50E00F570D5C5CD0334C1D104CD9F3521EC3472
:10F51E00CDFA3321F034CD9139018080110000CD28
:10F52E000334F1CDC43701318011187221C1D1CD10
:10F53E004936C82E00CD073679323B81EB223C810D
:10F54E000100005058215434E5216035E5E52129AC
:10F55E00817E23B7CA8C35E52E081F6779D27A359E
:10F56E00E52A3C8119EBE13A3B81891F4F7A1F57FF
:10F57E007B1F5F781F472D7CC26935E1C9435A5105
:10F58E004FC9CD7A36012084110000CD8A36C1D103
:10F59E00CD4936CAA7232EFFCD073634342B7E3203
:10F5AE0057802B7E3253802B7E324F8041EBAF4FF4
:10F5BE00575F325A80E5C57DCD4E80DE003FD2D7F3
:10F5CE0035325A80F1F137D2C1E1793C3D1FFA8ACA
:10F5DE0034177B175F7A175779174F297817473AE1
:10F5EE005A8017325A8079B2B3C2C435E5212C81C4
:10F5FE0035E1C2C435C3B32378B7CA2B367D212C6F
:10F60E0081AE80471FA878F22A36C68077CA8A351F
:10F61E00CDAF36772BC9CD49362FE1B7E1F269343C
:10F62E00C3B323CD953678B7C8C602DAB32347CD18
:10F63E000334212C8134C0C3B3233A2C81B7C83A8A
:10F64E002B81FE2F179FC03CC9CD4936068811006D
:10F65E0000212C814F70060023368017C35134CD04
:10F66E004936F0212B817EEE8077C9EB2A2981E382
:10F67E00E52A2B81E3E5EBC9CD9836EB2229816093
:10F68E0069222B81EBC92129815E2356234E234605
:10F69E0023C911298106041A77132305C2A636C978
:10F6AE00212B817E07371F773F1F2323777907375B
:10F6BE001F4F1FAEC978B7CA4936215236E5CD491C
:10F6CE003679C8212B81AE79F8CDDE361FA9C92334
:10F6DE0078BEC02B79BEC02B7ABEC02B7B96C0E104
:10F6EE00E1C9474F575FB7C8E5CD9536CDAF36AEBA
:10F6FE0067FC15373E9890CDC8347C17DC9B3406DA
:10F70E0000DCB434E1C91B7AA33CC00BC9212C81A7
:10F71E007EFE983A2981D07ECDF13636987BF579EA
:10F72E0017CD5134F1C921000078B1C83E1029DA45
:10F73E00752FEB29EBD24B3709DA752F3DC23D37CA
:10F74E00C9FE2DF5CA5C37FE2BCA5C372BCD69344A
:10F75E0047575F2F4FCDFA27DAAD37FE2ECA8837BF
:10F76E00FE45C28C37CDFA27CDA02DCDFA27DACFA4
:10F77E003714C28C37AF935F0C0CCA6437E57B909D
:10F78E00F4A537F29B37F5CD9135F13CC28F37D1C9
:10F79E00F1CC7236EBC9C8F5CD3236F13DC9D5572D
:10F7AE00788947C5E5D5CD3236F1D630CDC437E1AF
:10F7BE00C1D1C36437CD7A36CD5B36C1D1C30334E4
:10F7CE007B0707830786D6305FC37A37E5213C2354
:10F7DE00CD4031E1EBAF0698CD6036213F31E521CA
:10F7EE002E81E5CD49363620F2FC37362D233630C4
:10F7FE00CAB238E5FC7236AFF5CDB8380143911177
:10F80E00F84FCDC436B7E22938F1CDA637F5C30B84
:10F81E0038CD9135F13CF5CDB838CDF1333CCDF145
:10F82E0036CD8A36010603F1813CFA4538FE08D200
:10F83E0045383C473E023D3DE1F511CB3805C256F9
:10F84E0038362E2336302305362ECC9F36C5E5D5D9
:10F85E00CD9536E1062F047B965F237A9E5723794A
:10F86E009E4F2B2BD26538CDA83423CD8A36EBE1B3
:10F87E007023C10DC2563805CA96382B7EFE30CA8B
:10F88E008A38FE2EC49F36F1CAB538364523362B3C
:10F89E00F2A638362D2F3C062F04D60AD2A838C62B
:10F8AE003A237023772371E1C901749411F723CDA4
:10F8BE00C436B7E1E22038E900000080A0860110CE
:10F8CE002700E803006400000A0000010000217216
:10F8DE0036E3E9CD7A3621C738CD8736C1D1CD4949
:10F8EE003678CA3039F2FB38B7CAA723B7CA6A349A
:10F8FE00D5C579F67FCD9536F21839D5C5CD1C37DD
:10F90E00C1D1F5CDC436E17C1FE1222B81E1222944
:10F91E0081DCDD38CC7236D5C5CDFD34C1D1CD3EBE
:10F92E0035CD7A36013881113BAACD3E353A2C8140
:10F93E00FE88D22536CD1C37C680C602DA2536F5AE
:10F94E0021EC34CDF433CD3535F1C1D1F5CD0034C4
:10F95E00CD7236217039CDA039110000C14AC33E97
:10F96E003508402E9474704F2E776E02887AE6A07A
:10F97E002A7C50AAAA7EFFFF7F7F000080810000B4
:10F98E000081CD7A36113C35D5E5CD9536CD3E3557
:10F99E00E1CD7A367E23CD873606F1C1D13DC8D56D
:10F9AE00C5F5E5CD3E35E1CD9836E5CD0334E1C361
:10F9BE00A939CD4936215E80FA223A217F80CD8742
:10F9CE0036215E80C886E6070600772387874F09B3
:10F9DE00CD9836CD3E353A5D803CE6030600FE01FD
:10F9EE0088325D8021263A87874F09CDF433CD9535
:10F9FE00367B59EE4F4F36802B463680215C803455
:10FA0E007ED6ABC2193A770C151CCD5434217F80AB
:10FA1E00C3A136772B772B77C3FD3968B14668992A
:10FA2E00E9926910D1756821803ACDF433CD7A36DA
:10FA3E0001498311DB0FCD8A36C1D1CD9F35CD7AE9
:10FA4E0036CD1C37C1D1CD003421843ACDFA33CD19
:10FA5E00493637F26C3ACDF133CD4936B7F5F472FB
:10FA6E003621843ACDF433F1D4723621883AC391DB
:10FA7E0039DB0F49810000007F05BAD71E86642648
:10FA8E00998758342387E05DA586DA0F4983CD7AAE
:10FA9E0036CD3C3AC1E1CD7A36EBCD8A36CD363A0B
:10FAAE00C39D35CD4936FCDD38FC72363A2C81FECD
:10FABE0081DACF3A0100815159CD9F3521FA33E5D4
:10FACE0021D93ACD913921803AC9094AD73B7802DA
:10FADE006E847BFEC12F7C74319A7D843D5A7DC825
:10FAEE007F917EE4BB4C7E6CAAAA7F00000081C988
:10FAFE00D7C93E0CCFC9CDC8337B328780C9CD67FD
:10FB0E002CCDAC28ED538B80ED538D80C9CDAC2818
:10FB1E00D5E146237EC32230CD672CCDAC28D5CD82
:10FB2E0072262CCD672CCDAC28E3732372E1C9CDA0
:10FB3E006A2CCDAC28C5212E817AFE00280CCD76FC
:10FB4E003B78FE302802702371237BCD763B7AFE04
:10FB5E0000200578FE30280270237123AF772377BB
:10FB6E00C1212E81C3D03047E60FFE0A3802C607E8
:10FB7E00C6304F780F0F0F0FE60FFE0A3802C6077A
:10FB8E00C63047C9EB210000CDAC3BDACC3B1805A3
:10FB9E00CDAC3B381F29292929B56F18F3131AFE4E
:10FBAE0020CAAC3BD630D8FE0A3805D607FE0AD896
:10FBBE00FE103FC9EB7A4BE5CD2130E1C91E26C3BD
:10FBCE00B823CD6A2CCDAC28C5212E81061105781F
:10FBDE00FE012808CB13CB1230F41804CB13CB1232
:10FBEE003E30CE0077230520F3AF772377C1212E49
:10FBFE0081C3D030EB210000CD203CDA2E3CD63034
:10FC0E0029B56FCD203C30F6EB7A4BE5CD2130E1B6
:10FC1E00C9131AFE20CA203CFE30D8FE323FC91E40
:10FC2E0028C3B8230E01F7C93E00329280C31420B8
:10FC3E00F5A0C1B83E00C9CD7D26C3A22AFFFFFFA5
:10FC4E00FFFFFFFFFFFFFFFFFFFFFFFFFFFFFFFFB6
:10FC5E00FFFFFFFFFFFFFFFFFFFFFFFFFFFFFFFFA6
:10FC6E00FFFFFFFFFFFFFFFFFFFFFFFFFFFFFFFF96
:10FC7E00FFFFFFFFFFFFFFFFFFFFFFFFFFFFFFFF86
:10FC8E00FFFFFFFFFFFFFFFFFFFFFFFFFFFFFFFF76
:10FC9E00FFFFFFFFFFFFFFFFFFFFFFFFFFFFFFFF66
:10FCAE00FFFFFFFFFFFFFFFFFFFFFFFFFFFFFFFF56
:10FCBE00FFFFFFFFFFFFFFFFFFFFFFFFFFFFFFFF46
:10FCCE00FFFFFFFFFFFFFFFFFFFFFFFFFFFFFFFF36
:10FCDE00FFFFFFFFFFFFFFFFFFFFFFFFFFFFFFFF26
:10FCEE00FFFFFFFFFFFFFFFFFFFFFFFFFFFFFFFF16
:10FCFE00FF000000000000000000000000000000F7
:10FD0E0000000000000000000000000000000000E5
:10FD1E0000000000000000000000000000000000D5
:10FD2E0000000000000000000000000000000000C5
:10FD3E0000000000000000000000000000000000B5
:02FFFE00000001
:020000040001F9
:10000000F6C401F5F7C402F5F8C403F5F5C404F528
:10001000AE9AD1C406F5CFC405F5CEAA12EF80F092
:1000200014EF80F041EF80F0800E065CD8A01BEF4B
:1000300080F01DEF80F030EF80F0A00E065CD8B0AD
:1000400024EF80F026EF80F030EF80F0000E0524E2
:10005000D96E970E0620DA6ED0C4DFF43CEF80F044
:10006000E00E06180510D8A438EF80F03AEF80F0C3
:100070003CEF80F0D0C4C9F20001D785D7959CEF42
:1000800080F0000EC86E400E065CD8B04AEF80F0DB
:100090004CEF80F057EF80F0FF0E0524F66EBF0E98
:1000A0000620F76E0800F5C4C0F491EF80F0800ED2
:1000B000065CD8A05EEF80F060EF80F073EF80F018
:1000C000A00E065CD8B067EF80F069EF80F073EFA8
:1000D00080F0000E0524D96E970E0620DA6EDF50F0
:1000E000C06E91EF80F0050407E1E00E0618D8A479
:1000F0007CEF80F07EEF80F082EF80F0B7C4C0F438
:1001000091EF80F0E00E06180510D8A48AEF80F079
:100110008CEF80F090EF80F0C7C2C0F491EF80F0D8
:10012000C0680001D785D795CEA299EF80F09BEFEC
:1001300080F094EF80F0C86804C5F5F403C5F8F4C6
:1001400002C5F7F401C5F6F41100080E0001B16F05
:10015000000E0401186F1969C968000E086F09695B
:10016000C768000E106F1169C86820912181CA808C
:100170002093C292CA922095C284CA9400910181B0
:10018000C680009B018BC68A3F0E0201046F0401EA
:100190000097C6962F0E436F400E446F010E456FB9
:1001A000000E476F4691468B468F010E0201D56FB8
:1001B000A00ED46FD189D18B0401009FC68E070E8B
:1001C0000201766F0401009DBE8CC69C260E0201C2
:1001D000076FD28F040100930183C682010E0201D2
:1001E000616F040100950185C684020E0201626FF1
:1001F00004010099BE88C698010E0201056F000E29
:100200000001D56F820ED76F000ED86F010ED96F27
:100210007F0EDA6F7F0EDB6F010EDC6F040EDD6F79
:10022000000EDE6F000EDF6F000ED46F8C0ED66FE7
:10023000550E0401596FAA0E596F5991080E5D6F42
:10024000000E5E6F000E5F6F550E596FAA0E596F4C
:100250005981AE9A9E8AD68EC2822DEF81F085EFAB
:1002600000F005EE00F318EE00F0EE6AE550E15004
:10027000FCE1E250FAE1066A056A0401080E5D6FCE
:10028000000E5E6F000E5F6F000EF86E0001A5EFAE
:0202900080F0FC
:02029400110057
:020000040020DA
:10000000FF0FFF0FFF0FFF0FFF0FFF0FFF0FFF0F80
:10001000FF0FFF0FFF0FFF0FFF0FFF0FFF0FFF0F70
:10002000FF0FFF0FFF0FFF0FFF0FFF0FFF0FFF0F60
:10003000FF0FFF0FFF0FFF0FFF0FFF0FFF0FFF0F50
:020000040030CA
:100000008CEFFFF79FFFFFFFFFFFFFFFFFFFFFFFEB
:10001000FFFFFFFFFFFFFFFFFFFFFFFFFFFFFFFFF0
:04002000FFFFFFFFE0
:00000001FF
