:0400000085EF00F098
:1000080072717271727172717271727172717271D0
:1000180072717271727172717271727172717271C0
:1000280072717271727172717271727172717271B0
:1000380072717271727172717271727172716971A9
:100048007271727172717271727172717271727190
:100058007271727172717271727172717271727180
:100068007271727172717271727172717271727170
:100078007271727172717271420072717271727101
:100088007271727172717271727172717271727150
:10009800727172717271727142003D717271727116
:1000A80072715C7172717271727172717271727146
:1000B800727124717271727172717271727172716E
:1000C8007271727172717271727172717271727110
:1000D8007271727172717271727172717271727100
:1000E8004200727172717271727172717271727191
:1000F8007271AA70727172717271727172717271A9
:06010800FF009DEFE2F094
:02FFFE00000001
:020000040001F9
:10000000C34000C391180000C3B51F0000000000EA
:10001000C3A41F0000000000C90000000000000091
:10002000C900000000000000C9000000000000003E
:10003000C354180000000000C3D5180000000000E1
:10004000F33100EF2100C02220EF2227EF2225EF1D
:100050003E493229EFAF212CEF061A772310FC21FD
:10006000C0EE2240EF2100C02242EF06083E2E21C2
:1000700071EF772310FCAF770614215DEFAF772384
:1000800010FC3E493257EF3E4E3256EF2E006522AD
:1000900058EFAF325CEF2100C0225FEF2263EF2206
:1000A00067EF226BEF226FEF7E325EEF3262EF324C
:1000B00066EF326AEF326EEF210F1DCD4817214CEB
:1000C0001DCD4817CDA817CD0218B728F1FE44CA98
:1000D0006006FE47CA4713FE53CA0E14FE4CCA847C
:1000E00014FE50CA5E15FE52CA3616FE23CA0E0111
:1000F000FE42CA2202FE54CAD702FE3F28082169E6
:100100001DCD481718B821651BCD481718B023CD51
:100110000218B728E9FE4C2825CDB60138E079FE53
:1001200011D2FE00B7CAFE003D1716005F215C0128
:10013000195E2356EB5E23567AB328C2EBE9215CA5
:10014000015E235623D5DDE1DD7E00DDB601280901
:100150001313EBCD4817EB18E8C3BE007C019801E0
:10016000B401B401B401B401B401B401B401B401E7
:10017000B401B401B401B401B401B4010020312EC2
:10018000204241534943342E376220436F6C642030
:1001900053746172740D0A000320322E20424153C1
:1001A0004943342E3762205761726D205374617257
:1001B000740D0A000000AF474FCD0218B7C8CDD468
:1001C00001D8F508F1CDE301D80816005FCDFA019A
:1001D000D82318E5B7280AFE30D8FE3A3003D630C7
:1001E000C937C9C5CB21CB10CB21CB10CB21CB102C
:1001F000D1D8CDFA01D8CDFA01C9E5D5E109E5C1DB
:10020000E1C93A65EFB728082A67EF3E31CDBD0254
:100210003A69EFB7CABE002A6BEF3E32CDBD02C3CA
:10022000BE0023CD0218B728D90165EFFE31280E94
:100230000169EFFE322807FE43283EC3FE00082373
:10024000CD0218B7285AFE2CC2FE0023CD0218C5D5
:10025000CD1218E1DAFE00CD6002DAFE00C3BE0066
:100260007AFEC0DA7702FEF0D277023E0177231AD7
:100270007723732372B7C937C923CD0218B728145F
:100280000165EFFE3128080169EFFE32C2FE00AFC2
:1002900002C3BE00AF0165EF020169EF02C3BE00F9
:1002A0000AB7CABE00082A67EFFE3128032A6BEF9F
:1002B000CDBD02C3BE0042502800293A00E5F52119
:1002C000B602CD4817F1CDB51F21BA02CD4817E1CE
:1002D000CD5117CD9117C9E52E0026002258EF2ADF
:1002E00042EF225AEFAF325CEFE123CD0218CD127C
:1002F00018D29D03CD02187EB7CAC603FE2CCAAE23
:1003000003FE50284EFE4DC2FE0023CD02182145AB
:1003100003FE492810214B03FE532809B7C2FE00F3
:100320003A57EF18E93257EFE5213603CD4817E188
:10033000CD4817C3BE00544D206D6F64653A3C43F1
:10034000414C4C2000494E3E0D0A00534B49503E53
:100350000D0A0023CD0218B720053A56EF1809FE02
:100360004FC2FE0023CD0218219203FE4E28082121
:100370009703FE46C2FE003256EFE5218803CD48C2
:1003800017E1CD4817C3BE005450206D6F64653A25
:1003900020004F4E0D0A004F46460D0A00ED535AFD
:1003A000EFCD0218B7281FFE2C2803C3FE0023CD73
:1003B0000218B7CAFE00FE2D2811CDB601DAFE00E4
:1003C000ED4358EF181B01010018F523CD0218FE6C
:1003D00031C2FE0023CD0218B7C2FE003E01325CDE
:1003E000EF2A5AEF7E010800217E05EDB120130EA1
:1003F00001CD4705DA06050E02CD2705DA0605C34D
:100400000305010500218605EDB120190E012A5AC8
:10041000EFCD1A05CD5405DA06050E02CD2C05DA0E
:100420000605C30305010800218B05EDB120040E6C
:10043000011813010800219305EDB1201A0E013AAD
:1004400057EFFE532808CD3B05DA06050E02CD31E5
:1004500005DA0605C30305FEC9200B0E01CD4705CD
:10046000DA0605C30305010800219B05EDB1200B49
:100470000E01CD2705DA0605C30305FEED20132383
:100480007EFE452804FE4D20090E01CD4705387635
:1004900018712A5AEF7EFEE9200C2A32EF0E01CDA8
:1004A00054053862185DFEDD200B237EFEE9200531
:1004B0002A3CEF18E82A5AEF7EFEFD200B237EFE31
:1004C000E920052A3EEF18D52A5AEF7EFE18200CA7
:1004D0000E01CD1A05CD5405382C1827FEC320096E
:1004E0000E01CD3B05381F181AFECDC2A3050E0123
:1004F0003A57EFFE532807CD3B05380A1805CD3192
:10050000053803C38A13211005CD4817C3BE00FF69
:10051000416472204552520D0A00235E2316FFCB20
:100520007B2002160019C92A5AEF180A2A5AEF1816
:10053000042A5AEF232323CD5405C92A5AEF235EF8
:100540002356EBCD5405C9ED5B40EF1A6F131A67C4
:10055000CD5405C97CFEC03823FEF0301F79FE0162
:10056000200D115DEF12225FEF7E325EEF180B114E
:1005700061EF122263EF7E3262EFAFC937C9C0C8A4
:10058000D0D8E0E8F0F81020283038C2CAD2DAE239
:10059000EAF2FAC4CCD4DCE4ECF4FCC7CFD7DFE752
:1005A000EFF7FF011200213C06EDB1CA1706010862
:1005B00000214E06EDB1CA22062A5AEFFECB28577B
:1005C000FEDD280AFEED2828FEFD2802183E237EC7
:1005D000FECB2859FE212855FE222851FE2A284DFF
:1005E000FE362849010A00215606EDB128291832A5
:1005F000237EFE432837FE4B2833FE53282FFE5B15
:10060000282BFE732827FE7B2823180B0E01CD27ED
:1006100005DA0605C303050E01CD2C05DA0605C370
:1006200003050E01CD3105DA0605C303050E012AC7
:100630005AEF23CD3405DA0605C30305060E161E50
:10064000262E363EC6CEDED6E6EEF6FEDBD3011112
:10065000213122322A3A09192939232BE5E1E3F91C
:10066000237EFE49CA6807CD0218CD12183806ED60
:100670005320EF1810E52A20EF018000092222EF15
:10068000E17EB7282BCD02187EFE2C280DB7C2FEC6
:1006900000218000192222EF181623CD0218CD1256
:1006A00018DAFE00CD0218B7C2FE0013ED5322EF98
:1006B0002A20EF3EF0A56FAF3224EFE5CDE206E150
:1006C00001100009CDAF1F20103A24EFFE0238EBD5
:1006D0002A22EF2220EFC3BE002220EFCDA41FC3A9
:1006E000BE00CD5117E521711DCD4817E1DD210078
:1006F000EF0610CD1C0710FB21741DCD48172100FB
:10070000EF06107E23FE203809FE7F3005CDB51F91
:1007100018053E2ECDB51F10EAC391173E20CDB56A
:100720001F3A24EFB720203A20EFBD20063A21EFF0
:10073000BC280F3E20CDB51FCDB51FDD770023DDD2
:1007400023C93E013224EF3A24EFFE0120E57EDD8D
:100750007700CD561723DD233A22EFBDC03A23EFB1
:10076000BCC03E023224EFC923CD0218CD1218308E
:1007700014CD02187EB7201326002E0A7D327CEF9E
:10078000227AEF1833ED537DEF18E6FE2CC2FE00FF
:1007900023CD0218FE5320123E01327CEF23CDB64A
:1007A00001DAFE00ED437AEF180ECD1218DAFE00E2
:1007B000ED537AEFAF327CEFCDAF1F2806CDA41FEB
:1007C000C3BE00CD4708CD0C082184EFCD48173AB1
:1007D0007CEFB7200E2A7AEFED4B7DEFED4230D85B
:1007E000C3BE002A7AEF2B227AEF7CB520CAC3BEA3
:1007F00000227DEFD5CD4708CD0C08D12184EF0133
:100800002A00EDB0ED5B7DEF3A83EFC92184EFED77
:100810005B7DEFCDE70FCD7710CD771006043A83DF
:10082000EF4F1A13D55FCDEF0FCD7710D105280FFD
:100830000D20EFCD7710CD7710CD77100520F4CDBA
:100840007710ED537DEFC93E013283EF114611CD94
:100850000B10219FEFCD37102A7DEF7E010D002177
:100860008A10EDB12012219912CD8D0FC30B10E625
:10087000380F0F0F4F0600C9FE0A2819FE1A282349
:10088000FE022824FE122829FEF9202A11991FCDE4
:100890005E10C3311011581FD5CD5B10D1CD45105E
:1008A000C33710115F1F18F011581FCD4D10C3260C
:1008B00010115F1F18F5FE40DA4E09FE803028FE49
:1008C000762006114911C30B10CD6F08CD8A0F2178
:1008D0009FEFCD5E10ED5B7DEF1AE6074F0600E55A
:1008E000CD8A0FE1C33410FE883008CD0810CD5BEF
:1008F0001018E2FE90300B115211CD0B10CD5B1091
:1009000018D3FE983008115611CD0B1018C7FEA051
:10091000300B115A11CD0B10CD5B1018B8FEA8305A
:1009200008115E11CD0B1018ACFEB0300811621129
:10093000CD0B1018A0FEB83008116611CD0B1018A1
:1009400094FEC0D2CA09116911CD0B101887010895
:1009500000219710EDB1200EF5116C11CD0B10F1A7
:10096000CD6F08C3DF08010800219F10EDB1200AF8
:10097000F5117011CD0B10F118E601040021A7103C
:10098000EDB1200F116C11CD0B10218912CD810F0B
:10099000C3371001040021AB10EDB1200F1170110D
:1009A000CD0B10218912CD810FC337100104002116
:1009B000AF10EDB12046CD081011661FCD5E10E5D9
:1009C000218912CD8D0FE1C3341001040021B31031
:1009D000EDB1200F117411CD0B10219112CD810FAB
:1009E000C3371001040021B710EDB1200F117811A9
:1009F000CD0B10219112CD810FC33710FE0828179F
:100A0000FEE32821FEEB2025115F1FCD5E10CD31C6
:100A100010117D11C30B10112711CD5E10112A1179
:100A2000CD341018EC11991FCD4D1018E1FEE920BE
:100A30000F113211CD0B1011661FCD4210C33710AC
:100A4000010800217E05EDB1200F112E11CD0B10F4
:100A5000217112CD810FC33710010800219B05EDD4
:100A6000B12017114211CD0B10792FCB27CB27CBFB
:100A700027E6385F219FEFC3960FF53E023283EFE2
:100A8000F1010800213C06EDB12016CD6F08CD8A9A
:100A90000FCD5E10ED5B7DEF131A5FCDD90FC3371D
:100AA00010010A00214406EDB1C2F50AC521B312B6
:100AB000CD8D0FCD0B10C179FE012814B7281AFE79
:100AC000073803CD5B10ED5B7DEF131A5FC3960F04
:100AD000CD5B10CDE50AC33710219FEFCDE50ACDE0
:100AE0008310C32610CD6E10ED5B7DEF131A5FCD22
:100AF000D90FC37210FE1020051138111807FE1807
:100B0000200C113511CD0B10219FEFC3BA0F01043A
:100B100000218705EDB12012113511CD0B10218177
:100B200012CD810FCD8310C3BA0FF53E033283EF90
:100B3000F1010400214E06EDB1C24B0B21C712CDCD
:100B40008D0FCD5E10CD730BC39C0FFE222812FEBD
:100B5000322814FE2A2826FE3AC28C0BCD5B1018D0
:100B600022CD6D0BC33110CD6D0BC32610CD730B91
:100B7000C3A20FE52A7DEF235E2356E1C911661F4C
:100B8000CD5E10CD730BCDB10FC33710FEC320085F
:100B9000113211CD0B1018ADFECD2008113D11CD35
:100BA0000B1018A1010800218B05EDB120111132A5
:100BB00011CD0B10217112CD810FCD83101886013C
:100BC0000800219305EDB12005113D1118E32A7DA0
:100BD000EF23F53E023283EFF1FECBC2940C7E216F
:100BE0009FEFFE08DA1D0CFE10DA260CFE18DA2F35
:100BF0000CFE20DA380CFE28DA410CFE30DA4A0C02
:100C0000FE38DA6E0CFE40DA530CFE80DA5C0CFE25
:100C1000C0DA650CCD740C113C12C30B10CD790CED
:100C200011B711C30B10CD790C11BB11C30B10CD33
:100C3000790C11BF11C30B10CD790C11C211C30B6C
:100C400010CD790C11C511C30B10CD790C11C91140
:100C5000C30B10CD790C11CD11C30B10CD740C1139
:100C6000D111C30B10CD740C11D511C30B10114051
:100C700012C30B10F5CD860CF1E6074F0600E5CD4B
:100C80008A0FE1C33410E6380F0F0F473E30B077BC
:100C900023C38310FEDDC23A0E11931FED537FEF85
:100CA00011E312ED5381EF7EFEE3CAEE0CFEE9CABA
:100CB000DC0CFEF9CAFD0C010400215606EDB1CA98
:100CC000060D010400215A06EDB1C21B0D21DB12F5
:100CD000CD8D0FCD0B10219FEFC32B10ED5B7FEF60
:100CE000D5113211CD0B10D1CD4210C33710117D6B
:100CF00011CD0B1011991FCD4D10C32B1011991F41
:100D0000CD5E10C32B10CD0810ED5B7FEFCD5E10D4
:100D1000E52A81EFCD8D0FE1C33410F53E03328318
:100D2000EFF1010E0021BB10EDB1CA5A0DFE86CACB
:100D3000850DFE8ECA900DFE9ECA950D01070021FD
:100D4000C910EDB1C29A0D21F312CD8D0FCD0B104C
:100D5000ED5B7FEF219FEFC3510F79FE07D2720D3C
:100D6000ED5B7FEFCD480FE5210113CD8D0FE1C382
:100D70003410D6074F210113CD8D0FCD5E10ED5BE2
:100D80007FEFC3510F114E11CD0B10CD5B1018EE3C
:100D900011521118F3115A1118EEF53E043283EF77
:100DA000F1FE21CAC00DFE22CACD0DFE2ACAD60D03
:100DB000FE36C2E60DED5B7FEFCD480F5AC3960FAE
:100DC000ED5B7FEFCD5E10CD760FC39C0FCD760F20
:100DD000CDA20FC32B10ED5B7FEFCD5E10CD760F54
:100DE000CDB10FC33710FECBC26E0CCD760F7A019A
:100DF000070021D010EDB1C2060E213913CD8D0FA1
:100E0000CD0B10C3500D01180021D710EDB1C26EEB
:100E10000CFE80DA2A0EFEC0DA320E113C12CD0B27
:100E200010219FEFCD860CC37E0D11D111CD0B107B
:100E300018EF11D511CD0B1018E7FEEDC2370F7E5C
:100E400001380021EF10EDB1C26E0C79FE06DA1800
:100E50000FFE1BDA0A0FFE1EDAF70ECAD70EFE1FB0
:100E6000CAE00EFE20CAE90EFE21CAF20EFE26DA04
:100E7000C60EFE2ADAB00EFE31DA950E11B411CD8F
:100E80000B1079D6314F210113CD8D0FCD5E10118E
:100E90004412C3341011B011CD0B10114412CD5EA9
:100EA0001079D62A4FE5210113CD8D0FE1C33410FF
:100EB000115A11CD0B1011661FCD5E1079D6264F39
:100EC000E521891218E3115211CD0B1011661FCDC7
:100ED0005E1079D62218E8CD5B1011A11FC3341023
:100EE000CD5B10119F1FC3341011A11FCD5E10C325
:100EF0002610119F1F18F511DD11CD0B103E1D910D
:100F0000C630219FEF7723C33710D6064F06002146
:100F10000F13CD8D0FC30B103E043283EFC5792123
:100F2000CF12CD8D0FC179FE03DADA0DD5CD760F54
:100F3000CDA20FD1C3341011961FED537FEF11EBEB
:100F400012ED5381EFC3A70C219FEFCD570FC38341
:100F500010CD570FC33710CD6E10CD6610CD760F64
:100F60007BFE80380CED445FCD7F10CDD90FC3726E
:100F700010CD7B1018F5E52A7DEF23235E2356E183
:100F8000C9CD8D0F219FEFC36610216112CB21CBFC
:100F900010095E2356C9CDD90FC33710CDC80FC372
:100FA0003710219FEFCD6E10CDC80FCD7210C383C7
:100FB00010CD6E10CDC80FC37210E52A7DEFCD1A8B
:100FC00005EBE1CDC80F186F7AFEA038043E3077EC
:100FD00023CDE70F3E48C374107BFEA038043E309B
:100FE0007723CDEF0F18ED7ACDF80F7ACDFC0F7B7C
:100FF000CDF80F7BCDFC0FC90F0F0F0FE60FF630AA
:10100000FE3A3870C607186C114E11F5C506082156
:1010100097EF1AB728067723130518F63E20772393
:101020000520FBC1F1C911561F1809ED5B7FEF18B0
:101030000311661FCD66103E0D77233E0A7723AF5E
:1010400077C9219FEFCD6E10CD66101825219FEF37
:10105000CD6E10CD6610CD7210182811561F219F2D
:10106000EFCD6610181D1A77B7C8231318F83E285D
:1010700018023E297723C93E2018F93E2B18F53E69
:101080002D18F13E2CCD741018ED00070F171F27F7
:101090002F373FC9D9F3FB040C141C242C343C0516
:1010A0000D151D252D353D031323330B1B2B3B093C
:1010B000192939C1D1E1F1C5D5E5F5464E565E662F
:1010C0006E7E7071727374757796A6AEB6BE343547
:1010D000060E161E262E3E464E565E666E767E86A0
:1010E0008E969EA6AEB6BEC6CED6DEE6EEF6FE4026
:1010F0004850586068784149515961697942526253
:10110000724A5A6A7A474F575F46565E44454D6762
:101110006FA0A1A2A3A8A9AAABB0B1B2B3B8B9BA43
:10112000BB4353734B5B7B4146004146270052450E
:1011300054004A50004A5200444A4E5A0043414C1F
:101140004C00525354004C440048414C540041441C
:101150004400414443005355420053424300414E32
:101160004400584F52004F5200435000494E430034
:1011700044454300504F50005055534800455800D7
:10118000455858004E4F5000524C43410052524374
:101190004100524C410052524100444141004350F1
:1011A0004C00534346004343460044490045490030
:1011B0004F555400494E00524C4300525243005286
:1011C0004C00525200534C41005352410053524C78
:1011D0000042495400524553004E454700494D00D6
:1011E00052524400524C44004C4449004350490080
:1011F000494E49004F555449004C44440043504423
:1012000000494E44004F555444004C444952004359
:1012100050495200494E4952004F544952004C44E3
:101220004452004350445200494E4452004F5444EB
:10123000520052455449005245544E005345540003
:101240003F3F3F002843290028484C29004E5A00C0
:101250005A004E43004300504F0050450050004D8F
:10126000005B1F5D1F621F641F691F6B1F481256C2
:101270001F5F125D125A1257125512521250124D20
:10128000125512521250124D12991F661F5F1F58AD
:101290001F2711661F5F1F581FAD11AA1180112E45
:1012A00011A611A2119E119A11961192118D1188F9
:1012B000118411B011B4116911661162115E1156D9
:1012C000115A1152114E11991F661F5F1F581F9915
:1012D0001F5F1F581F991F5F1F581F7411781170CF
:1012E000116C11991F931F5F1F581F991F961F5F45
:1012F0001F581F70116C116911661162115E115631
:1013000011561F6B1F691F641F621F5D1F5B1F2D1E
:1013100012281223121E12191214120F120A120589
:10132000120112FD11F911F411F011EC11E811E4A0
:1013300011E01132123712D911CD11C911C511C2E4
:1013400011BF11BB11B711ED5B42EFED5354EF2309
:10135000CD0218CD12183003B7280A7AFEF0D2FE5B
:1013600000ED5354EFCD02187EB72818FE2CC2FEB4
:101370000023CD0218CD1218DAFE00216DEFCD60EA
:1013800002DAFE002A54EF2242EF3A5DEFB7281A44
:101390002A5AEF2242EF215DEF115FEFCD021421B7
:1013A00061EF1163EFCD0214181B2165EF1167EF98
:1013B000CD02142169EF116BEFCD0214216DEF11F5
:1013C0006FEFCD02142A40EFF92A42EFE5DD2A3C07
:1013D000EFFD2A3EEF2A34EFE5ED4B36EFED5B38BB
:1013E000EF2A3AEFD9F1082A2CEFE5ED4B2EEFED7D
:1013F0005B30EF2A32EF3A44EFED473A45EFED4FDD
:10140000F1C97EB7C81A4F131A473EFF02C923CD50
:101410000218CD1218DAFE00CD02187EB7C2FE0007
:1014200079B72004ED5B27EFEBCD5117E521741D53
:10143000CD4817E17EE5CD56173E20CDB51FCDA88E
:1014400017CD02187EB72007E1232227EF18DAFE16
:101450002D2007E12B2227EF18CFFE2E2007E122B7
:1014600027EFC3BE00CD1218B7E1CAFE00732322D6
:1014700027EFED5B67EF1A3266EFED5B6BEF1A3229
:101480006AEF18A5AF3265EF3269EF23CD0218CDB0
:101490001218CD02187EB7C2FE0079B720031100E2
:1014A00000CDA41FFE532861FE3A280DFE0D28F141
:1014B000FE0A28EDCDA41F18F33E2ECDB51FCD6D2D
:1014C000174F47CD6D1767814FCD6D176F814F193E
:1014D000CD6D17322AEF814F78B72814CD6D17F5EF
:1014E000814F3A2AEFB72005F177231801F110EC6C
:1014F000CD6D1781200A3A2AEFB7CAB414C3BE00D3
:10150000214F1DCD4817C3BE00CDA41F322AEFCDF9
:101510006D17474FCD6D1767814FCD6D176F814F99
:10152000190505052815CD6D17F5814F3A2AEFFEEF
:10153000312005F177231801F110EBCD6D1781FEF5
:10154000FF20123A2AEFFE372811FE38280DFE3907
:101550002809C3B414215C1DCD4817C3BE00237EE7
:10156000FE492804FE532004233229EFCD0218CD72
:101570001218B7281CD5DDE1CD02187EFE2C2011F3
:1015800023CD0218CD1218B72807CD02187EB72830
:1015900003C3FE00DDE5E1EB23B7ED52CDBC157CC6
:1015A000B520F93A29EFFE49200921781DCD4817C9
:1015B000C3BE0021861DCD4817C3BE000E107CB7E8
:1015C00020057DB930014F0600B7ED42413A29EFC1
:1015D000FE4920303E3ACDB51F78CD5617487ACD1A
:1015E00056177A814F7BCD56177B814FAFCD56175B
:1015F0001AF5CD5617F1814F1310F579ED44CD56FC
:1016000017C391173E53CDB51F3E31CDB51F78C6D8
:10161000034FCD56177ACD56177A814F7BCD56178B
:101620007B814F1AF5CD5617F1814F1310F5792FA5
:10163000CD5617C3911723CD0218B72006CDBC167F
:10164000C3BE00EB213C1EBE280D4F237EB7286988
:10165000790105000918F0237EFE0F2009234E238F
:101660006669131A18E1B728504E235E2356D52316
:101670007E23666FCD48173E3DCDB51F79E607FE48
:10168000012008E17EE5CD5617180CE1E5237ECD5B
:1016900056172B7ECD56173E20CDB51FC5CDA817AA
:1016A000CD0218CD1218B7280DC1E179FE01200333
:1016B000731803732372C3BE00C3FE0021931D5E23
:1016C0002356237AB3CA9117D5EBCD4817EBD13EF9
:1016D0001DBA20073EFEBB200218293E1EBA200577
:1016E0003E25BB281F5E2356237E23EBFE012007E9
:1016F0007ECD5617EB18C8237ECD56172B7ECD56C0
:1017000017EB18BB5E2356231AD5E52171EF01387C
:1017100017114017F5F1CB273006F50A77F11804B9
:10172000F51A77F1031323F57EB720E9F12171EF64
:10173000CD4817E1D1231887535A2E482E504E43D7
:101740002E2E2E2E2E2E2E2E7EA7C8CDB51F231860
:10175000F77CCD56177DF51F1F1F1FCD5F17F1E6D4
:101760000FC630FE3ADAB51FC607C3B51FAFCD7539
:101770001707070707C54FCDA41FFE303811FE3AE3
:10178000380AFE413809FE473005D607D630B1C1C8
:10179000C93E0DCDB51F3E0AC3B51FE521A417CD27
:1017A0004817E1C91B5B32002100EFE5C50600CDFB
:1017B000A41FFE0D2844FE0A2840FE082825FE7FAF
:1017C0002821FE2038E9FE8030E54F78FE1F30DF0B
:1017D0000479CDB51FFE613806FE7B3002E6DF7767
:1017E0002318CC78A728C8052B3E08CDB51F3E206E
:1017F000CDB51F3E08CDB51F18B5CD91173600C128
:10180000E1C97EFE20C02318F9FE61D8FE7BD0C658
:10181000E0C90E001100007EFE30382CFE3A380A76
:10182000FE413824FE473020D607D6301717171749
:1018300017CB13CB1217CB13CB1217CB13CB12171B
:10184000CB13CB12230C18CF79B72806FE05300234
:10185000B7C937C9E5C521641806000909462366DA
:1018600068C1E3C98E189118B51F4817A41FAF1F90
:10187000D318511756175F179B17AB1702189117FC
:1018800009181218A71ADD1A531B0A1AF107C340C8
:10189000003100EF3A6DEFB72806216EEFCDC21987
:1018A0003A5DEFB72806215EEFCDC2193A61EFB776
:1018B00028062162EFCDC2193A69EFB72806216ADE
:1018C000EFCDCE193A65EFB728062166EFCDCE19D8
:1018D000C39819AFC9F5ED5F3245EFED573244EFCC
:1018E0002232EFED5330EFED432EEFE1222CEF08E3
:1018F000F5D9223AEFED5338EFED4336EFE12234DC
:10190000EFDD223CEFFD223EEFE12B2242EFED73B3
:1019100040EF3100EFAF575F3A6DEFB7280911F88C
:1019200019216EEFCDC2193A69EFB7280911F819DC
:10193000216AEFCDCE193A65EFB7280911F81921C0
:1019400066EFCDCE193A5DEFB7280911011A215E75
:10195000EFCDC2193A61EFB7280911011A2162EFE0
:10196000CDC2197AB3200311EE191AFE54280CEBDC
:10197000CD4817CDBC16CDD519181D3A56EFFE46E9
:10198000280AEBCD4817CDBC16CDD519CDAF1F28F1
:1019900013CDA41FFE03200CAF325CEF676F2258FB
:1019A000EFC3BE003A5CEFB7C2B9192A58EF2B2239
:1019B00058EF7DB42003C3BE002A42EF225AEFC382
:1019C000E103E57E234E234602E1AF2B77C97E2358
:1019D0004E234602C92A42EF227DEFCD4708CD0CA7
:1019E000082184EFCD48172A42EF227DEFC95253D8
:1019F00054203338480D0A00427265616B210D0A8C
:101A0000005472616365210D0A00F5E5FE00280FA0
:101A1000FE012814FE022816FE032850E1F1C92118
:101A200000F83E9077E1F1C92100F83E10773A10B6
:101A3000F83246EF3A11F83247EF01E1872A46EFD4
:101A40007CB52006ED4346EF1805ED422246EF3AFD
:101A500020F83248EF3A21F83249EF2A46EFCD8B91
:101A60001AED434AEFED5B48EFE1F1C9AF676F2232
:101A70004AEF2248EF2246EF3220F83221F83EE8C2
:101A80003210F83E863211F8E1F1C9AF474F2A46CD
:101A9000EF7DFE1F3806D61F6F0318F67CB7C87D92
:101AA000D61FED442518F1F5C5D5E5DDE5E5DDE109
:101AB000EBE521050019AF77EBE10101003E0ACD0E
:101AC000DD1AF6301B120C7CB520F279FE062806D2
:101AD000DDE5E1EBEDB0DDE1E1D1C1F1C9C5D54F07
:101AE000060FAF291791380D292C1791380C292C86
:101AF00010F8C3FE1A29178138F42910F981D1C1D1
:101B0000C9224CEFED534EEFAF3250EF3251EF326E
:101B100052EF3253EF06102150EFCB2623CB162184
:101B20004CEFCB2623CB162152EFCB1623CB162A14
:101B30004EEF5D542A52EFAFED523002180B225295
:101B4000EF3A50EFF6013250EF10CC2A50EFED5B38
:101B500052EFC9F5C5B71804CB21CB101F30F909D6
:101B600020F6C1F1C93F203A436F6D6D616E64206C
:101B700048656C700D0A445B3C6164723E5D203ABE
:101B800044756D70204D656D6F72790D0A535B3C25
:101B90006164723E5D203A536574204D656D6F72CD
:101BA000790D0A525B3C7265673E5D203A5365745D
:101BB000206F722044756D7020726567697374655B
:101BC000720D0A475B3C6164723E5D5B2C3C737432
:101BD0006F70206164723E5D203A476F20616E64D1
:101BE0002053746F700D0A4C203A4C6F616420488A
:101BF000657846696C650D0A505B497C535D203AF7
:101C0000536176652048657846696C6528493A498C
:101C10006E74656C2C533A4D6F746F726F6C610DFE
:101C20000A234C7C3C6E756D3E203A4C61756E63A8
:101C3000682070726F6772616D0D0A425B317C3291
:101C40005B2C3C6164723E5D5D203A536574206F8D
:101C500072204C69737420427265616B20506F6909
:101C60006E740D0A42435B317C325D203A436C65F1
:101C7000617220427265616B20506F696E740D0A4B
:101C8000545B3C6164723E5D5B2C3C7374657073A5
:101C90003E7C2D315D203A20547261636520636F74
:101CA0006D6D616E640D0A54505B4F4E7C4F46461D
:101CB0005D203A5472616365205072696E74204DE4
:101CC0006F64650D0A544D5B497C535D203A547234
:101CD000616365204F7074696F6E20666F72204378
:101CE000414C4C0D0A44495B3C6164723E5D5B2C87
:101CF000733C73746570733E7C3C6164723E5D201E
:101D00003A446973617373656D626C650D0A000D09
:101D10000A454D555A3830204D4F4E49544F5220A8
:101D20005265762E4230320D0A54686973206D6F09
:101D30006E69746F72206973206261736564206FCD
:101D40006E20756E696D6F6E2E0D0A005D20004568
:101D500072726F7220696865780D0A004572726F41
:101D60007220737265630D0A004572726F720D0AFC
:101D700000203A00203A20003A3030303030303005
:101D80003146460D0A005339303330303030464347
:101D90000D0A00E81D2DEF01EC1D2EEF02F21D30A3
:101DA000EF02F81D32EF02FE1D2CEF01031E3CEF87
:101DB00002081E3EEF020D1E35EF01131E36EF0224
:101DC000191E38EF021F1E3AEF02251E34EF012ABA
:101DD0001E40EF022F1E42EF02341E44EF01381E58
:101DE00045EF01000000000041203D00204243205B
:101DF0003D00204445203D0020484C203D00204629
:101E0000203D002049583D002049593D000D0A4120
:101E1000273D00204243273D00204445273D002028
:101E2000484C273D002046273D002053503D0020D0
:101E300050433D0020493D0020523D00410F861E89
:101E40000000420F941E0000430FB61E0000440F16
:101E5000C41E0000450FE61E0000460FF41E0000E1
:101E6000480F021F0000490F321F00004C0F241FB3
:101E70000000500F461F0000520145EFA11F530FF5
:101E80004E1F0000000000012DEF561F270135EF07
:101E90006F1F000000012FEF5B1F270137EF761F38
:101EA000430FA81E0000000000022EEF581F27025B
:101EB00036EF721F000000012EEF5D1F270136EF85
:101EC000791F0000000131EF621F270139EF801FE9
:101ED000450FD81E00000000000230EF5F1F2702F0
:101EE00038EF7C1F0000000130EF641F270138EF3E
:101EF000831F000000012CEF6D1F270134EF901F9E
:101F00000000000133EF691F27013BEF8A1F4C0FD0
:101F1000161F00000000000232EF661F27023AEF92
:101F2000861F0000000132EF6B1F27013AEF8D1F63
:101F30000000000144EF9F1F58023CEF931F59021D
:101F40003EEF961F0000430242EF9C1F000050022C
:101F500040EF991F0000410042430042004300440B
:101F6000450044004500484C0048004C00460041F4
:101F7000270042432700422700432700444527000B
:101F8000442700452700484C27004827004C2700DD
:101F90004627004958004959005350005043004912
:101FA000005200C93A01FFCB4728F93A00FFC93A6D
:101FB00001FFCB47C9F53A01FFCB4F28F9F13200B9
:101FC000FFC9FFFFFFFFFFFFFFFFFFFFFFFFFFFF57
:101FD000FFFFFFFFFFFFFFFFFFFFFFFFFFFFFFFF11
:101FE000FFFFFFFFFFFFFFFFFFFFFFFFFFFFFFFF01
:101FF000FFFFFFFFFFFFFFFFFFFFFFFFFFFFFFFFF1
:10200000C30620C37B20C30D20BC2832302145C02D
:10201000F9C3463C11E52206632145C01A77231314
:1020200005C21C20F9CDE624CDB22A32EFC0323EE3
:10203000C121A2C1237CB5CA43207E472F77BE7041
:10204000CA34202B11A1C1CD7C26DA842011CEFF09
:1020500022F4C019229FC0CDC1242A9FC011EFFFD6
:1020600019113EC17D936F7C9A67E5219C20CD506C
:1020700031E1CDF337218D20CD503131ABC0CDE6EC
:1020800024C3FF2321D320CD5031C38A202042799D
:1020900074657320667265650D0A00005A38302039
:1020A00042415349432056657220342E37620D0A4F
:1020B000436F707972696768742028432920313929
:1020C0003738206279204D6963726F736F66740DC3
:1020D0000A00004D656D6F72792073697A65206E14
:1020E0006F7420656E6F7567680D0A54686520739C
:1020F000797374656D2069732073746F7070656493
:102100002E0D0A000068362C377E3648C0103095F8
:10211000333E30F238D1390D354039463A4C3AAD7C
:102120003AC23AE9332C3B96C0C232DA305C33D142
:1021300032E2324E3BE13BF23222332C33C54E4485
:10214000C64F52CE455854C4415441C94E505554BF
:10215000C4494DD2454144CC4554C74F544FD25544
:102160004EC946D24553544F5245C74F535542D29C
:10217000455455524ED2454DD3544F50CF5554CF60
:102180004ECE554C4CD7414954C44546D04F4B4593
:10219000C44F4B45D3435245454ECC494E4553C39E
:1021A0004C53D749445448CD4F4E49544F52D345D0
:1021B00054D245534554D052494E54C34F4E54CC3B
:1021C000495354C34C454152C34C4F4144C35341FE
:1021D0005645CE4557D4414228D44FC64ED35043DE
:1021E00028D448454ECE4F54D3544550ABADAAAF3A
:1021F000DEC14E44CF52BEBDBCD3474EC94E54C1C2
:102200004253D55352C65245C94E50D04F53D35165
:1022100052D24E44CC4F47C55850C34F53D3494E6A
:10222000D4414EC1544ED045454BC445454BD04F8B
:10223000494E54CC454ED3545224D6414CC15343FD
:10224000C3485224C8455824C2494E24CC4546545C
:1022500024D24947485424CD494424805428512746
:102260002C2CA129332B682E622BB8295E294129F9
:10227000302A1A284D297C29A3295228A133122A51
:102280009328A7334630F033373BA3291D3B113B3E
:10229000153B433C99C09CC0542A8028C626FB2885
:1022A000A329A329C02479DA37790E347C4C357CF4
:1022B000AD357FFB3850C12D46C02D4E46534E5292
:1022C000474F4446434F564F4D554C425344442F7D
:1022D000304944544D4F534C535354434E55464D3F
:1022E0004F4858424EC37B20C3D128D300C9D600E3
:1022F0006F7CDE006778DE00473E00C900000035D5
:102300004ACA99391C76982295B3980ADD479853A2
:10231000D199990A1A9F9865BCCD98D6773E985264
:10232000C74F80DB00C901FF1C000014001400002F
:10233000000000C3F925C30000C30000C30000A2D1
:10234000C1FEFF3FC1204572726F720020696E208E
:10235000004F6B0D0A0000427265616B00210400A2
:10236000397E23FE81C04E234623E569607AB3EBB4
:10237000CA7723EBCD7C26010D00E1C809C3612398
:10238000CD9A23C5E3C1CD7C267E02C80B2BC38624
:1023900023E52A1FC1060009093EE53ED0956F3EA0
:1023A000FF9CDAA9236739E1D81E0CC3C8232A0E83
:1023B000C122A1C01E02011E14011E00011E120135
:1023C0001E22011E0A011E18CDE624328AC0CDA5A8
:1023D0002A21BB22573E3FCD8D26197ECD8D26CD9D
:1023E0000A28CD8D26214523CD50312AA1C011FECA
:1023F000FFCD7C26CA0D207CA53CC4EB373EC1AF87
:10240000328AC0CDA52A215123CD503121FFFF2290
:10241000A1C0CDF925DA0C24CD0A283C3DCA0C24F4
:10242000F5CDD628D5CD102547D1F1D2EA27D5C58F
:10243000AF3211C1CD0A28B7F5CDA024DA4524F179
:10244000F5CA7729B7C5D25C24EB2A1BC11A02034F
:1024500013CD7C26C24D246069221BC1D1F1CA83F1
:10246000242A1BC1E3C109E5CD8023E1221BC1EB76
:1024700074D123237323722311A6C01A772313B7B1
:10248000C27B24CDCC2423EB626B7E23B6CA0C2402
:10249000232323AFBE23C29424EB732372C3882467
:1024A0002AA3C0444D7E23B62BC823237E23666F08
:1024B000CD7C2660697E23666F3FC83FD0C3A324CE
:1024C000C02AA3C0AF77237723221BC12AA3C02B26
:1024D0002213C12AF4C02208C1AFCD1A282A1BC179
:1024E000221DC1221FC1C12A9FC0F921F8C022F6B6
:1024F000C0AF6F672219C13210C12223C1E5C52ABE
:1025000013C1C93E3FCD8D263E20CD8D26C393C03D
:10251000AF32F3C00E0511A6C07EFE20CA98254733
:10252000FE22CAB825B7CABF253AF3C0B77EC29803
:1025300025FE3F3E9ECA98257EFE30DA4325FE3CAE
:10254000DA9825D5113C21C5019425C5067F7EFE6C
:1025500061DA5C25FE7BD25C25E65F774EEB23B625
:10256000F25E25047EE67FC8B9C25E25EBE5131A4C
:10257000B7FA90254F78FE88C27F25CD0A282B23F5
:102580007EFE61DA8825E65FB9CA6E25E1C35C2567
:1025900048F1EBC9EB79C1D12312130CD63ACAA684
:1025A00025FE49C2A92532F3C0D654C21925477E5B
:1025B000B7CABF25B8CA982523120C13C3AF25216B
:1025C000A5C01213121312C93A89C0B73E0032894E
:1025D000C0C2DC2505CAF925CD8D263E052BCAF0E3
:1025E000257ECD8D26C30226052BCD8D26C2022643
:1025F000CD8D26CDB22AC3F92521A6C00601AF3262
:1026000089C0CDB5264FFE7FCAC8253A89C0B7CA52
:102610001B263E00CD8D26AF3289C079FE07CA5FEA
:1026200026FE03CCB22A37C8FE0DCAAD2AFE15CA53
:10263000F325FE40CAF025FE5FCAE825FE08CAE879
:1026400025FE12C25A26C5D5E53600CD553C21A639
:10265000C0CD5031E1D1C1C30226FE20DA02267876
:10266000FE493E07D2742679713211C12304CD8D03
:1026700026C30226CD8D263E08C36E267C92C07DE1
:1026800093C97EE3BE23E3CA0A28C3B423F53A8A7A
:10269000C0B7C28531F1C5F5FE20DAB1263A87C050
:1026A000473AF0C004CAAD2605B8CCB22A3C32F095
:1026B000C0F1C1CFC9CD0F3BE67FFE0FC03A8AC043
:1026C0002F328AC0AFC9CDD628C0C1CDA024C5CD78
:1026D0001C27E14E23462378B1CAFF23CD2527CD01
:1026E0003528C5CDB22A5E235623E5EBCDF3373E20
:1026F00020E1CD8D267EB723CAD226F2F226D67FE0
:102700004F113D211A13B7F204270DC20427E67FAB
:10271000CD8D261A13B7F20E27C3F526E52A8DC0F4
:10272000228BC0E1C9E5D52A8BC011FFFFED5A22EB
:102730008BC0D1E1F0E52A8DC0228BC0CD0F3BFECE
:1027400003CA4827E1C325272A8DC0228BC0C37E38
:10275000203E643210C1CDB829C1E5CDA129220C9B
:10276000C121020039CD6123D1C2812709D52B5661
:102770002B5E2323E52A0CC1CD7C26E1C26527D13F
:10278000F9EB0E08CD9123E52A0CC1E3E52AA1C09F
:10279000E3CD7A2CCD8226A6CD772CE5CDA536E1EA
:1027A000C5D5010081515A7EFEAB3E01C2BD27CD89
:1027B0000A28CD772CE5CDA536CD5936E1C5D5F51E
:1027C00033E52A13C1E30681C533CD35282213C171
:1027D0007EFE3ACAEA27B7C2B423237E23B6CA5C78
:1027E00028235E2356EB22A1C0EBCD0A2811CA276D
:1027F000D5C8D680DAB829FE25D2B423074F060003
:10280000EB215C22094E2346C5EB237EFE3AD0FE27
:1028100020CA0A28FE303F3C3DC9EB2AA3C0CA2F7C
:1028200028EBCDD628E5CDA0246069D1D277292B1D
:102830002221C1EBC9DFC8D7FE1B2811FE03280DDA
:10284000FE13C0D7FE11C8FE03280718F63EFF325C
:1028500092C0C0F6C02213C121F6FFC12AA1C0F563
:102860007DA43CCA6F282217C12A13C12219C1AF07
:10287000328AC0CDA52AF1215723C2E823C3FF2302
:102880002A19C17CB51E20CAC823EB2A17C122A170
:10289000C0EBC9CDD833C03286C0C9E52A8FC00687
:1028A000004F09228FC0E1C97EFE41D8FE5B3FC9BF
:1028B000CD0A28CD772CCD5936FAD1283A2CC1FE35
:1028C00090DA0137018090110000E5CDD436E15156
:1028D000C81E08C3C8232B110000CD0A28D0E5F577
:1028E000219819CD7C26DAB423626B19291929F1B4
:1028F000D6305F160019EBE1C3DA28CAD024CDB375
:10290000282BCD0A28E52AF4C0CA1E29E1CD82264B
:102910002CD5CDB3282BCD0A28C2B423E3EB7D936D
:102920005F7C9A57DAA923E52A1BC101280009CD4B
:102930007C26D2A923EB229FC0E122F4C0E1C3D0C0
:1029400024CACC24CDD02401CA27C35D290E03CDCF
:102950009123C1E5E52AA1C0E33E8CF533C5CDD670
:1029600028CDA329E52AA1C0CD7C26E123DCA32420
:10297000D4A02460692BD81E0EC3C823C016FFCD77
:102980005D23F9FE8C1E04C2C823E122A1C0237C72
:10299000B5C29B293A11C1B7C2FE2321CA27E33E23
:1029A000E1013A0E0006007948477EB7C8B8C8234F
:1029B000FE22CAA729C3AA29CD6D2ECD8226B4D561
:1029C0003AF2C0F5CD892CF1E32213C11FCD7C2C46
:1029D000CA0B2AE52A29C1E523235E23562AA3C070
:1029E000CD7C26D2FA292A9FC0CD7C26D1D2022ABC
:1029F0002104C1CD7C26D2022A3ED1CDB132EBCD0D
:102A0000EA30CDB132E1CDB436E1C9E5CDB136D150
:102A1000E1C9CDD8337E47FE8CCA212ACD822688D3
:102A20002B4B0D78CAF227CDD728FE2CC0C3222A03
:102A3000CD892C7EFE88CA3E2ACD8226A92BCD7A4E
:102A40002CCD5936CAA329CD0A28DA5E29C3F1272D
:102A50002BCD0A28CAB22AC8FEA5CAE52AFEA8CAF2
:102A6000E52AE5FE2CCACE2AFE3BCA082BC1CD8939
:102A70002CE53AF2C0B7C29E2ACDFE37CD0E3136D4
:102A8000202A29C1342A29C13A87C04704CA9A2A70
:102A9000043AF0C0863DB8D4B22ACD5331AFC45306
:102AA00031E1C3502A3AF0C0B7C8C3B22A36002178
:102AB000A5C03E0DCD8D263E0ACD8D26AF32F0C08D
:102AC0003A86C03DC8F5AFCD8D26F1C3C32A3A88FA
:102AD000C0473AF0C0B8D4B22AD2082BD60ED2DC06
:102AE0002A2FC3FD2AF5CDD533CD8226292BF1D649
:102AF000A8E5CAF82A3AF0C02F83D2082B3C473EFB
:102B000020CD8D2605C2012BE1CD0A28C3572A3FCF
:102B10005265646F2066726F6D2073746172740DFC
:102B20000A003A12C1B7C2AE23C1210F2BCD5031DA
:102B3000C3FF24CDBB307EFE223E00328AC0C24D90
:102B40002BCD0F31CD82263BE5CD53313EE5CD0374
:102B500025C1DA5928237EB72BC5CAA029362CC334
:102B6000672BE52A21C1F6AF3212C1E3C3732BCD27
:102B700082262CCD6D2EE3D57EFE2CCA9B2B3A12DD
:102B8000C1B7C2082C3E3FCD8D26CD0325D1C1DA79
:102B90005928237EB72BC5CAA029D53AF2C0B7CA97
:102BA000C52BCD0A285747FE22CAB92B3A12C1B706
:102BB00057CAB62B163A062C2BCD1231EB21D02B4F
:102BC000E3D5C3D329CD0A28CD6037E3CDB136E1B3
:102BD0002BCD0A28CADC2BFE2CC2222BE32BCD0ADC
:102BE00028C26F2BD13A12C1B7EBC23028D5B6211B
:102BF000F72BC45031E1C93F457874726120696791
:102C00006E6F7265640D0A00CDA129B7C2212C2315
:102C10007E23B61E06CAC823235E2356EB220EC1AE
:102C2000EBCD0A28FE83C2082CC39B2B110000C4E5
:102C30006D2E2213C1CD5D23C2BA23F9D57E23F5B3
:102C4000D5CD9736E3E5CD0434E1CDB136E1CDA85D
:102C500036E5CDD436E1C190CDA836CA672CEB223B
:102C6000A1C06960C3C627F92A13C17EFE2CC2CA5F
:102C700027CD0A28CD2F2CCD892CF6373AF2C08FDC
:102C8000B7E8C3C623CD8226282B1600D50E01CD6A
:102C90009123CD002D2215C12A15C1C178FE78D40B
:102CA0007A2C7E1600D6B3DAC12CFE03D2C12CFEDC
:102CB0000117AABA57DAB423220AC1CD0A28C3A53C
:102CC0002C7AB7C2E82D7E220AC1D6ACD8FE07D036
:102CD0005F3AF2C03DB37BCA463207835F21A6222A
:102CE000197856BAD023CD7A2CC501982CC5434A01
:102CF000CD8A3658514E234623C52A0AC1C38C2C8F
:102D0000AF32F2C0CD0A281E24CAC823DA6037CDFC
:102D1000A828D2672DFE262012CD0A28FE48CAA375
:102D20003BFE42CA133C1E02CAC823FEACCA002D99
:102D3000FE2ECA6037FEADCA562DFE22CA0F31FEE6
:102D4000AACA482EFEA7CA7330D6B6D2782DCD8532
:102D50002CCD822629C9167DCD8C2C2A15C1E5CD16
:102D60008236CD7A2CE1C9CD6D2EE5EB2229C13A10
:102D7000F2C0B7CC9736E1C90600074FC5CD0A2887
:102D800079FE31DA9F2DCD852CCD82262CCD7B2C62
:102D9000EB2A29C1E3E5EBCDD833EBE3C3A72DCD77
:102DA0004E2DE311622DD5010521094E236669E9F7
:102DB00015FEADC8FE2DC814FE2BC8FEACC82BC92D
:102DC000F6AFF5CD7A2CCDBC28F1EBC1E3EBCD9A73
:102DD00036F5CDBC28F1C179213130C2E32DA34FA6
:102DE00078A2E9B34F78B2E921FA2D3AF2C01F7AFE
:102DF000175F166478BAD0C3E92CFC2D79B71FC1D0
:102E0000D1F5CD7C2C213E2EE5CAD436AF32F2C0AE
:102E1000D5CD93327E23234E2346D1C5F5CD9732AF
:102E2000CDA836F157E17BB2C87AD601D8AFBB3C0A
:102E3000D0151D0ABE2303CA262E3FC364363C8F1D
:102E4000C1A0C6FF9FC36B36165ACD8C2CCD7A2CF1
:102E5000CDBC287B2F4F7A2FCD3130C1C3982C2B7E
:102E6000CD0A28C8CD82262C015F2EC5F6AF32F1DF
:102E7000C046CDA828DAB423AF4F32F2C0CD0A281D
:102E8000DA892ECDA828DA962E4FCD0A28DA8A2E96
:102E9000CDA828D28A2ED624C2A52E3C32F2C00F4D
:102EA000814FCD0A283A10C13DCA522FF2B52E7E6D
:102EB000D628CA2A2FAF3210C1E550592A23C1CDD6
:102EC0007C261125C1CA9A352A1DC1EB2A1BC1CD0A
:102ED0007C26CAE82E799623C2DD2E789623CA1C5A
:102EE0002F23232323C3CF2EE1E3D5116A2DCD7CDD
:102EF00026D1CA1F2FE3E5C50106002A1FC1E50937
:102F0000C1E5CD8023E1221FC16069221DC12B369E
:102F100000CD7C26C20E2FD173237223EBE1C93280
:102F20002CC12150232229C1E1C9E52AF1C0E35770
:102F3000D5C5CDB028C1F1EBE3E5EB3C577EFE2CC7
:102F4000CA302FCD8226292215C1E122F1C01E00F0
:102F5000D511E5F52A1DC13E19EB2A1FC1EBCD7C29
:102F600026CA8A2F7EB923C26C2F7EB8235E2356D1
:102F700023C2582F3AF1C0B7C2BD23F1444DCA9ABB
:102F80003596CAE82F1E10C3C823110400F1CAD118
:102F900028712370234FCD91232323220AC171234B
:102FA0003AF1C01779010B00D2AD2FC10371237024
:102FB00023F5E5CD4537EBE1F13DC2A52FF5424BB9
:102FC000EB19DAA923CD9A23221FC12B3600CD7C21
:102FD00026C2CB2F03572A0AC15EEB2909EB2B2B04
:102FE00073237223F1DA0C30474F7E2316E15E2300
:102FF0005623E3F5CD7C26D2852FE5CD4537D11973
:10300000F13D444DC2ED2F2929C109EB2A15C1C953
:103010002A1FC1EB210000393AF2C0B7CA2C30CDCB
:103020009332CD93312A9FC0EB2A08C17D934F7C08
:103030009A41501E0021F2C0730690C370363AF0D8
:10304000C047AFC33230CDC930CDBB3001A129C597
:10305000D5CD822628CD6D2EE5EB2B562B5EE1CD0E
:103060007A2CCD822629CD8226B4444DE37123707B
:10307000C30831CDC930D5CD4E2DCD7A2CE35E239A
:1030800056237AB3CAC0237E23666FE52A23C1E3A1
:103090002223C12A27C1E52A25C1E52125C1D5CD95
:1030A000B136E1CD772C2BCD0A28C2B423E12225FD
:1030B000C1E12227C1E12223C1E1C9E52AA1C02340
:1030C0007CB5E1C01E16C3C823CD8226A73E803240
:1030D00010C1B647CD722EC37A2CCD7A2CCDFE37D7
:1030E000CD0E31CD933201EE32C57E2323E5CD697D
:1030F00031E14E2346CD0231E56FCD8632D1C9CDC7
:1031000069312104C1E5772323732372E1C92B06BA
:103110002250E50EFF237E0CB7CA2431BACA2431EF
:10312000B8C21531FE22CC0A28E323EB79CD023157
:103130001104C12AF6C02229C13E0132F2C0CDB429
:1031400036CD7C2622F6C0E17EC01E1EC3C82323D6
:10315000CD0E31CD9332CDA8361C1DC80ACD8D269B
:10316000FE0DCCBC2A03C35A31B70EF1F52A9FC01D
:10317000EB2A08C12F4F06FF0923CD7C26DA8731C1
:103180002208C123EBF1C9F11E1ACAC823BFF501F9
:103190006B31C52AF4C02208C1210000E52A9FC076
:1031A000E521F8C0EB2AF6C0EBCD7C2601A431C2A4
:1031B000F8312A1BC1EB2A1DC1EBCD7C26CACB31CD
:1031C0007E2323B7CDFB31C3B531C1EB2A1FC1EB41
:1031D000CD7C26CA2132CDA8367BE509B7F2CA31AB
:1031E000220AC1E14E0600090923EB2A0AC1EBCDF0
:1031F0007C26CACB3101EA31C5F6807E23235E23CB
:103200005623F0B7C8444D2A08C1CD7C266069D842
:10321000E1E3CD7C26E3E56069D0C1F1F1E5D5C5F8
:10322000C9D1E17DB4C82B462B4EE52B2B6E260071
:103230000950592B444D2A08C1CD8323E1712370D5
:1032400069602BC39631C5E52A29C1E3CD002DE382
:10325000CD7B2C7EE52A29C1E5861E1CDAC823CD4C
:10326000FF30D1CD9732E3CD9632E52A06C1EBCDC2
:103270007D32CD7D3221952CE3E5C33031E1E37E13
:1032800023234E23466F2C2DC80A120313C3873203
:10329000CD7B2C2A29C1EBCDB132EBC0D550591BC7
:1032A0004E2A08C1CD7C26C2AF3247092208C1E1AF
:1032B000C92AF6C02B462B4E2B2BCD7C26C022F6DE
:1032C000C0C9014130C5CD9032AF5732F2C07EB790
:1032D000C9014130C5CDC632CAD12823235E235649
:1032E0001AC93E01CDFF30CDDB332A06C173C1C3FD
:1032F0003031CD8B33AFE34FE57EB8DA0033781150
:103300000E00C5CD6931C1E1E52323462366680679
:103310000009444DCD02316FCD8632D1CD9732C3F5
:103320003031CD8B33D1D51A90C3F632EB7ECD90B0
:10333000330405CAD128C51EFFFE29CA4533CD82F4
:10334000262CCDD833CD822629F1E301F832C53DB4
:10335000BE0600D04F7E91BB47D843C9CDC632CA06
:1033600079345F23237E23666FE5194672E3C57EB9
:10337000FE24C27A33CDA33B180DFE25C28433CD83
:10338000133C1803CD6037C1E170C9EBCD8226290B
:10339000C1D1C543C9CDDB333284C0CD83C0C34165
:1033A00030CDC533C34BC0CDC533F51E002BCD0A80
:1033B00028CABB33CD82262CCDD833C1CD83C0AB38
:1033C000A0CABC33C9CDD8333284C0324CC0CD8200
:1033D000262CC3D833CD0A28CD772CCDB6287AB782
:1033E000C2D1282BCD0A287BC9CDBC281AC34130B5
:1033F000CD772CCDBC28D5CD82262CCDD833D1127B
:10340000C921D738CDA836C31334CDA83621C1D1B0
:10341000CD823678B7C83A2CC1B7CA9A3690D22D29
:10342000342F3CEBCD8A36EBCD9A36C1D1FE19D084
:10343000F5CDBF3667F1CDD834B42129C1F253346C
:10344000CDB834D299342334CAC3232E01CDEE34FF
:10345000C39934AF90477E9B5F237E9A57237E9912
:103460004FDCC4346863AF4779B7C286344A5465C9
:103470006F78D608FEE0C26734AF322CC1C9052987
:103480007A1757798F4FF27E34785C45B7CA9934F2
:10349000212CC18677D27934C878212CC1B7FCABF6
:1034A0003446237EE680A94FC39A361CC014C00C54
:1034B000C00E8034C0C3C3237E835F237E8A57231C
:1034C0007E894FC9212DC17E2F77AF6F90477D9B9D
:1034D0005F7D9A577D994FC90600D608DAE73443D5
:1034E0005A510E00C3DA34C6096FAF2DC8791F4F89
:1034F0007A1F577B1F5F781F47C3EA3400000081A3
:1035000003AA561980F122768045AA3882CD593611
:10351000B7EAD128212CC17E01358011F30490F542
:1035200070D5C5CD1334C1D104CDAF3521FC34CD18
:103530000A34210035CDA139018080110000CD135E
:1035400034F1CDD43701318011187221C1D1CD5958
:1035500036C82E00CD173679323BC1EB223CC10173
:1035600000005058216434E5217035E5E52129C17A
:103570007E23B7CA9C35E52E081F6779D28A35E5C8
:103580002A3CC119EBE13A3BC1891F4F7A1F577B97
:103590001F5F781F472D7CC27935E1C9435A514FCF
:1035A000C9CD8A36012084110000CD9A36C1D1CD13
:1035B0005936CAB7232EFFCD173634342B7E3257F7
:1035C000C02B7E3253C02B7E324FC041EBAF4F57E2
:1035D0005F325AC0E5C57DCD4EC0DE003FD2E73533
:1035E000325AC0F1F137D2C1E1793C3D1FFA9A3429
:1035F000177B175F7A175779174F297817473A5A69
:10360000C017325AC079B2B3C2D435E5212CC135C6
:10361000E1C2D435C3C32378B7CA3B367D212CC160
:10362000AE80471FA878F23A36C68077CA9A35CD61
:10363000BF36772BC9CD59362FE1B7E1F27934C3C4
:10364000C323CDA53678B7C8C602DAC32347CD1346
:1036500034212CC134C0C3C3233A2CC1B7C83A2B80
:10366000C1FE2F179FC03CC9CD59360688110000F6
:10367000212CC14F70060023368017C36134CD5909
:1036800036F0212BC17EEE8077C9EB2A29C1E3E514
:103690002A2BC1E3E5EBC9CDA836EB2229C160692D
:1036A000222BC1EBC92129C15E2356234E23462379
:1036B000C91129C106041A77132305C2B636C921D8
:1036C0002BC17E07371F773F1F2323777907371FCB
:1036D0004F1FAEC978B7CA5936216236E5CD593683
:1036E00079C8212BC1AE79F8CDEE361FA9C9237850
:1036F000BEC02B79BEC02B7ABEC02B7B96C0E1E149
:10370000C9474F575FB7C8E5CDA536CDBF36AE67C1
:10371000FC25373E9890CDD8347C17DCAB340600BE
:10372000DCC434E1C91B7AA33CC00BC9212CC17E87
:10373000FE983A29C1D07ECD013736987BF57917AE
:10374000CD6134F1C921000078B1C83E1029DA8575
:103750002FEB29EBD25B3709DA852F3DC24D37C9F4
:10376000FE2DF5CA6C37FE2BCA6C372BCD7934474A
:10377000575F2F4FCD0A28DABD37FE2ECA9837FE85
:1037800045C29C37CD0A28CDB02DCD0A28DADF37C7
:1037900014C29C37AF935F0C0CCA7437E57B90F46E
:1037A000B537F2AB37F5CDA135F13CC29F37D1F13A
:1037B000CC8236EBC9C8F5CD4236F13DC9D5577834
:1037C0008947C5E5D5CD4236F1D630CDD437E1C1F4
:1037D000D1C37437CD8A36CD6B36C1D1C313347B98
:1037E0000707830786D6305FC38A37E5214C23CD90
:1037F0005031E1EBAF0698CD7036214F31E5212EE7
:10380000C1E5CD59363620F20C38362D233630CA74
:10381000C238E5FC8236AFF5CDC83801439111F8C6
:103820004FCDD436B7E23938F1CDB637F5C31B38B2
:10383000CDA135F13CF5CDC838CD01343CCD0137B3
:10384000CD9A36010603F1813CFA5538FE08D2556F
:10385000383C473E023D3DE1F511DB3805C2663894
:10386000362E2336302305362ECCAF36C5E5D5CDE2
:10387000A536E1062F047B965F237A9E5723799E17
:103880004F2B2BD27538CDB83423CD9A36EBE1705F
:1038900023C10DC2663805CAA6382B7EFE30CA9AEF
:1038A00038FE2EC4AF36F1CAC538364523362BF262
:1038B000B638362D2F3C062F04D60AD2B838C63A71
:1038C000237023772371E1C901749411F723CDD4B8
:1038D00036B7E1E23038E900000080A08601102709
:1038E00000E803006400000A0000010000218236A5
:1038F000E3E9CD8A3621D738CD9736C1D1CD5936B7
:1039000078CA4039F20B39B7CAB723B7CA7A34D567
:10391000C579F67FCDA536F22839D5C5CD2C37C16E
:10392000D1F5CDD436E17C1FE1222BC1E12229C1A2
:10393000DCED38CC8236D5C5CD0D35C1D1CD4E3577
:10394000CD8A36013881113BAACD4E353A2CC1FEC5
:1039500088D23536CD2C37C680C602DA3536F52109
:10396000FC34CD0434CD4535F1C1D1F5CD1034CD85
:103970008236218039CDB039110000C14AC34E359D
:1039800008402E9474704F2E776E02887AE6A02A33
:103990007C50AAAA7EFFFF7F7F000080810000008C
:1039A00081CD8A36114C35D5E5CDA536CD4E35E1E4
:1039B000CD8A367E23CD973606F1C1D13DC8D5C517
:1039C000F5E5CD4E35E1CDA836E5CD1334E1C3B9EB
:1039D00039CD5936215EC0FA323A217FC0CD9736B3
:1039E000215EC0C886E6070600772387874F09CD8A
:1039F000A836CD4E353A5DC03CE6030600FE018890
:103A0000325DC021363A87874F09CD0434CDA536C3
:103A10007B59EE4F4F36802B463680215CC0347E7A
:103A2000D6ABC2293A770C151CCD6434217FC0C3B4
:103A3000B136772B772B77C30D3A68B1466899E991
:103A4000926910D1756821903ACD0434CD8A36013F
:103A5000498311DB0FCD9A36C1D1CDAF35CD8A3632
:103A6000CD2C37C1D1CD103421943ACD0A34CD5963
:103A70003637F27C3ACD0134CD5936B7F5F482367B
:103A800021943ACD0434F1D4823621983AC3A13935
:103A9000DB0F49810000007F05BAD71E8664269996
:103AA0008758342387E05DA586DA0F4983CD8A36AF
:103AB000CD4C3AC1E1CD8A36EBCD9A36CD463AC3EC
:103AC000AD35CD5936FCED38FC82363A2CC1FE813D
:103AD000DADF3A0100815159CDAF35210A34E521B1
:103AE000E93ACDA13921903AC9094AD73B78026E0B
:103AF000847BFEC12F7C74319A7D843D5A7DC87FC2
:103B0000917EE4BB4C7E6CAAAA7F00000081C9D7DD
:103B1000C93E0CCFC9CDD8337B3287C0C9CD772CF5
:103B2000CDBC28ED538BC0ED538DC0C9CDBC28D57D
:103B3000E146237EC33230CD772CCDBC28D5CD8253
:103B4000262CCD772CCDBC28E3732372E1C9CD7A26
:103B50002CCDBC28C5212EC17AFE00280CCD863B79
:103B600078FE302802702371237BCD863B7AFE00DD
:103B7000200578FE30280270237123AF772377C1A8
:103B8000212EC1C3E03047E60FFE0A3802C607C641
:103B9000304F780F0F0F0FE60FFE0A3802C607C628
:103BA0003047C9EB210000CDBC3BDADC3B1805CD2A
:103BB000BC3B381F29292929B56F18F3131AFE2099
:103BC000CABC3BD630D8FE0A3805D607FE0AD8FE56
:103BD000103FC9EB7A4BE5CD3130E1C91E26C3C891
:103BE00023CD7A2CCDBC28C5212EC106110578FE27
:103BF000012808CB13CB1230F41804CB13CB123EA0
:103C000030CE0077230520F3AF772377C1212EC173
:103C1000C3E030EB210000CD303CDA3E3CD6302909
:103C2000B56FCD303C30F6EB7A4BE5CD3130E1C9A4
:103C3000131AFE20CA303CFE30D8FE323FC91E287F
:103C4000C3C823C300003E003292C0C31420F5A0B5
:103C5000C1B83E00C9CD8D26C3B22AFFFFFFFFFFCA
:103C6000FFFFFFFFFFFFFFFFFFFFFFFFFFFFFFFF64
:103C7000FFFFFFFFFFFFFFFFFFFFFFFFFFFFFFFF54
:103C8000FFFFFFFFFFFFFFFFFFFFFFFFFFFFFFFF44
:103C9000FFFFFFFFFFFFFFFFFFFFFFFFFFFFFFFF34
:10C00000080E0001B16F3F0E0201046F040100979A
:10C01000C696010E456F400E446F2F0E436F000E03
:10C02000476F4691468F010E0201D56FA00ED46F67
:10C03000D189D18B0401009FC68E070E0201766F55
:10C040000401009DBE8CC69C260E0201076FD28F94
:10C05000000E0401186F1969C968000E086F09699C
:10C06000C768000E106F1169C86820912181CA80CD
:10C070002093C292CA922095C284CA9400910181F1
:10C08000C680009B018BC68A00930183C6820095FF
:10C090000185C6840099BE88C698010E0201616FB1
:10C0A000020E626F050E656F1F0E636F1E0E646FCA
:10C0B0001D0E676F1C0E686F010E056F000E0001EC
:10C0C000D56F000ED76F360ED86F370ED96F380E7A
:10C0D000DA6F3A0EDB6F020EDC6F080EDD6F200E9A
:10C0E000DE6F800EDF6F820ED66F010ED56F0D0EE4
:10C0F000D76F020ED86F030ED96F060EDA6F070ED8
:10C10000DB6F050EDC6F500EDD6F000EDE6F000E74
:10C11000DF6F820ED66F020ED56F8C0ED76F020EB8
:10C12000D86F030ED96F7F0EDA6F7F0EDB6F020EB2
:10C13000DC6F080EDD6F000EDE6F000EDF6F820E0B
:10C14000D66F030ED56F830ED76F000ED86F010E1A
:10C15000D96F340EDA6F040EDB6F820EDC6F140EB3
:10C16000DD6F000EDE6F000EDF6F040ED66FD78519
:10C17000D7958C0ED66F040ED56F820ED76F390E01
:10C18000D86F010ED96F340EDA6F040EDB6F010E1B
:10C19000DC6F540EDD6F000EDE6F000EDF6F040EDD
:10C1A000D66FD785D7958C0ED66F050ED56F830EBB
:10C1B000D76F000ED86F010ED96F350EDA6F040EEF
:10C1C000DB6F820EDC6F140EDD6F000EDE6F000E73
:10C1D000DF6F040ED66FD785D7958C0ED66F060EFF
:10C1E000D56F000ED76F080ED86F000ED96F7F0E77
:10C1F000DA6F7F0EDB6F020EDC6F080EDD6F000E54
:10C20000DE6F000EDF6F040ED66F840ED66F070E42
:10C21000D56F820ED76F000ED86F010ED96F340E16
:10C22000DA6F350EDB6F010EDC6FA40EDD6F000ED2
:10C23000DE6F000EDF6F040ED66FD785D7958C0E9C
:10C24000D66F100E03011A6F800E1B6FE10E186F70
:10C25000870E196F000E106E000E0F6E870E0E6E99
:10C26000E10E0D6E550E0401596FAA0E596F5991CA
:10C27000080E5D6F000E5E6F000E5F6F550E596FFA
:10C28000AA0E596F5981B79AB892B992BD92B19ED0
:10C29000D68EA78AA882A982AD82A18EC2824FEFD4
:06C2A000E1F085EF00F063
:10C2A800BD92D1C412F5CFC411F53AEFE2F0000EF9
:10C2B800C86E8AEFE1F0B7C4C0F4C7EFE1F0C7C2B7
:10C2C800C0F4C7EFE1F01AC3C0F4C7EFE1F01BC335
:10C2D800C0F4C7EFE1F018C3C0F4C7EFE1F019C329
:10C2E800C0F4C7EFE1F00FC5C0F4C7EFE1F010C527
:10C2F800C0F4C7EFE1F00DC5C0F4C7EFE1F00EC51B
:10C30800C0F4C7EFE1F0C068C7EFE1F011C50BF565
:10C3180012C50CF50C50F80AD8B499EFE1F0070AE9
:10C32800D8B4BCEFE1F087EFE1F00B50000AD8B4C5
:10C3380067EFE1F0010AD8B46BEFE1F0030AD8B473
:10C348007FEFE1F0010AD8B483EFE1F0130AD8B423
:10C358006FEFE1F0010AD8B473EFE1F0310AD8B415
:10C3680077EFE1F0010AD8B47BEFE1F087EFE1F075
:10C378000B50000AD8B463EFE1F0010AD8B45FEFBC
:10C38800E1F087EFE1F0070E0001D56FD785D7956B
:10C39800CEA2D1EFE1F0D3EFE1F0CCEFE1F0C86845
:10C3A80047EFE2F0D0C4C9F233EFE2F0D0C41AF399
:10C3B80033EFE2F0D0C41BF333EFE2F0D0C418F34C
:10C3C80033EFE2F0D0C419F333EFE2F0D0C40FF545
:10C3D80033EFE2F0D0C410F533EFE2F0D0C40DF53E
:10C3E80033EFE2F0D0C40EF533EFE2F011C50BF5F0
:10C3F80012C50CF50C50F80AD8B409EFE2F0070A98
:10C40800D8B42CEFE2F033EFE2F00B50000AD8B4C6
:10C41800DAEFE1F0010AD8B4DEEFE1F0030AD8B4AC
:10C42800F2EFE1F0010AD8B4F6EFE1F0130AD8B45C
:10C43800E2EFE1F0010AD8B4E6EFE1F0310AD8B44E
:10C44800EAEFE1F0010AD8B4EEEFE1F033EFE2F001
:10C458000B50000AD8B4D6EFE1F033EFE2F0070E44
:10C468000001D56FD785D79547EFE2F0000ECEBA19
:10C47800010E000AD8B45BEFE1F0010AD8B4FAEF74
:10C48800E1F047EFE2F01100F6C407F5F7C408F54C
:10C49800F8C409F5F5C40AF5B992000EC86ED1C4FE
:10C4A80012F5CFC411F5000E1124F66E000E1220FD
:10C4B800F76EF86A010EF8220800F5C4C0F4050EFC
:10C4C8000001D56FD785D795CEA26DEFE2F06FEF5B
:10C4D800E2F068EFE2F0C8680AC5F5F409C5F8F4B7
:0AC4E80008C5F7F407C5F6F41100CB
:10C4F400B79A000EC86ED1C412F5CFC411F5FF0E61
:10C504001114036E3F0E1214046E000E0324D96E30
:10C51400070E0420DA6EDF50C06E030E0001D56FE3
:10C52400D785D795CEA299EFE2F09BEFE2F094EF96
:10C53400E2F0C8681100126A116A106A0F6A0E6A82
:10C544000D6A01EE00F31CEE00F0EE6AE550E150D6
:10C55400FCE1E250FAE10401080E5D6F000E5E6F2B
:0AC56400000E5F6F000100EFE0F031
:10C57000B892D1C412F5CFC411F5FF0E1114056E97
:10C580003F0E1214066E000E0524D96E070E06200B
:10C59000DA6ED0C4DFF4040E0001D56FD785D795CD
:02C5A000110088
:10C5A400B19E18C301F519C302F50D500124016EA3
:10C5B4000E500220026E01C518F302C519F30F4A8A
:06C5C400102A1100110015
:020000040020DA
:10000000FF0FFF0FFF0FFF0FFF0FFF0FFF0FFF0F80
:10001000FF0FFF0FFF0FFF0FFF0FFF0FFF0FFF0F70
:10002000FF0FFF0FFF0FFF0FFF0FFF0FFF0FFF0F60
:10003000FF0FFF0FFF0FFF0FFF0FFF0FFF0FFF0F50
:020000040030CA
:100000008CEFFFF79FFFFFFFFFFFFFFFFFFFFFFFEB
:10001000FFFFFFFFFFFFFFFFFFFFFFFFFFFFFFFFF0
:04002000FFFFFFFFE0
:00000001FF
