:0400000085EF00F098
:100008004B714B714B714B714B714B714B714B7108
:100018004B714B714B714B714B714B714B714B71F8
:100028004B714B714B714B714B714B714B714B71E8
:100038004B714B714B714B714B714B714B714271E1
:100048004B714B714B714B714B714B714B714B71C8
:100058004B714B714B714B714B714B714B714B71B8
:100068004B714B714B714B714B714B714B714B71A8
:100078004B714B714B714B7142004B714B714B7112
:100088004B714B714B714B714B714B714B714B7188
:100098004B714B714B714B71420019714B714B7124
:1000A8004B7135714B714B714B714B714B714B717E
:1000B8004B7103714B714B714B714B714B714B71A0
:1000C8004B714B714B714B714B714B714B714B7148
:1000D8004B714B714B714B714B714B714B714B7138
:1000E80042004B714B714B714B714B714B714B71A2
:1000F8004B71A8704B714B714B714B714B714B71BC
:06010800FF0050EFE2F0E1
:02FFFE00000001
:020000040001F9
:10000000C34000C33A270000C343000000000000C3
:10001000C34B000000000000C353000000000000BC
:10002000C35B000000000000C900000000000000E9
:10003000C36B000000000000C3730000000000005C
:10004000C37E00220EEF2A00EF182E220EEF2A02A6
:10005000EF1826220EEF2A04EF181E220EEF2A06B2
:10006000EF1816220EEF2A08EF180E220EEF2A0ABA
:10007000EF1806220EEF2A0CEFE52A0EEFC9F33136
:1000800000EF2100C02210EF2217EF2215EF2261AE
:10009000EF2263EF3E493219EF21832E2200EF2138
:1000A000722E2202EF217D2E2204EF217D002206F6
:1000B000EF217D002208EF21F126220AEF217E2781
:1000C000220CEFAF211CEF061A772310FC21C0EEA3
:1000D0002230EF2100C02232EF06083E2E2176EFBB
:1000E000772310FCAF770614214DEFAF772310FC78
:1000F0003E493247EF3E4E3246EF2E00652248EF32
:10010000AF324CEF2100C0224FEF2253EF2257EFC6
:10011000225BEF225FEF7E324EEF3252EF3256EF2C
:10012000325AEF325EEF21DB2BCDB525AF327FEFB8
:1001300021182CCDB525CD1526CD9F26B728EDFE4F
:1001400041CAB519FE44CA3A07FE47CA2214FE53F3
:10015000CAE914FE4CCA5F15FE50CA3916FE52CACF
:100160001117FE23CA8501FE42CAFC02FE54CAB121
:1001700003FE3F280821352CCDB52518AF210D2AC7
:10018000CDB52518A723CD9F26B728E9FE4C2825F5
:10019000CD970238E079FE11D27501B7CA75013DDD
:1001A0001716005F21D301195E2356EB5E23567AA2
:1001B000B328C2EBE921D3015E235623D5DDE1DD6F
:1001C0007E00DDB60128091313EBCDB525EB18E849
:1001D000C32C01F30107021D023F02630277028D67
:1001E000028D028D028D028D028D028D028D028D97
:1001F000028D02002F312E204742415349432053A4
:10020000746172740D0A00032F322E20474241534D
:10021000494320526573746172740D0A00004C33B7
:100220002E2050616C6F20416C746F2054696E7980
:100230002042415349432053746172740D0A0003F4
:100240004C342E2050616C6F20416C746F205469C7
:100250006E79204241534943205265737461727430
:100260000D0A000054352E2047414D4538302053AB
:10027000746172740D0A000354362E2047414D45B7
:10028000383020526573746172740D0A000000D515
:10029000E5CD9702E1D1C9AF474FCD9F26B7C8CD75
:1002A000B902D8F508F1CDC802D808E516005F609C
:1002B0006919444DE1D82318E1B7280AFE30D8FE69
:1002C0003A3003D630C937C9E5C5CB21CB10CB2195
:1002D000CB10E109E5C1CB21CB10E1C93A55EFB70D
:1002E00028082A57EF3E31CD97033A59EFB7CA2C69
:1002F000012A5BEF3E32CD9703C32C0123CD9F260D
:10030000B728D90155EFFE31280E0159EFFE3228EA
:1003100007FE43283EC375010823CD9F26B7285A00
:10032000FE2CC2750123CD9F26C5CDAF26E1DA751F
:1003300001CD3A03DA7501C32C017AFEC0DA51030C
:10034000FEF0D251033E0177231A7723732372B74D
:10035000C937C923CD9F26B728140155EFFE312890
:10036000080159EFFE32C27501AF02C32C01AF0183
:1003700055EF020159EF02C32C010AB7CA2C01083C
:100380002A57EFFE3128032A5BEFCD9703C32C01D8
:1003900042502800293A00E5F5219003CDB525F11A
:1003A000CD832E219403CDB525E1CDBE25CDFE25EF
:1003B000C9E52E0026002248EF2A32EF224AEFAF8D
:1003C000324CEFE123CD9F26CDAF26D27704CD9FCF
:1003D000267EB7CAA004FE2CCA8804FE50284EFE12
:1003E0004DC2750123CD9F26211F04FE49281021EF
:1003F0002504FE532809B7C275013A47EF18E932C0
:1004000047EFE5211004CDB525E1CDB525C32C017D
:10041000544D206D6F64653A3C43414C4C2000497B
:100420004E3E0D0A00534B49503E0D0A0023CD9F0E
:1004300026B720053A46EF1809FE4FC2750123CDB5
:100440009F26216C04FE4E2808217104FE46C275C9
:10045000013246EFE5216204CDB525E1CDB525C3D6
:100460002C015450206D6F64653A20004F4E0D0AE8
:10047000004F46460D0A00ED534AEFCD9F26B728A0
:100480001FFE2C2803C3750123CD9F26B7CA750113
:10049000FE2D2811CD9702DA7501ED4348EF181BA8
:1004A00001010018F523CD9F26FE31C2750123CD31
:1004B0009F26B7C275013E01324CEF2A4AEF7E01FA
:1004C0000800215806EDB120130E01CD2106DAE017
:1004D000050E02CD0106DAE005C3DD0501050021A8
:1004E0006006EDB120190E012A4AEFCDF405CD2E9C
:1004F00006DAE0050E02CD0606DAE005C3DD0501E9
:100500000800216506EDB120040E01181301080052
:10051000216D06EDB1201A0E013A47EFFE5328086F
:10052000CD1506DAE0050E02CD0B06DAE005C3DDD7
:1005300005FEC9200B0E01CD2106DAE005C3DD055D
:10054000010800217506EDB1200B0E01CD0106DA80
:10055000E005C3DD05FEED2013237EFE452804FEE5
:100560004D20090E01CD2106387618712A4AEF7EFA
:10057000FEE9200C2A22EF0E01CD2E063862185D0E
:10058000FEDD200B237EFEE920052A2CEF18E82A49
:100590004AEF7EFEFD200B237EFEE920052A2EEF8A
:1005A00018D52A4AEF7EFE18200C0E01CDF405CD99
:1005B0002E06382C1827FEC320090E01CD1506384B
:1005C0001F181AFECDC27D060E013A47EFFE5328D2
:1005D00007CD1506380A1805CD0B063803C3651478
:1005E00021EA05CDB525C32C01FF41647220455297
:1005F000520D0A00235E2316FFCB7B200216001942
:10060000C92A4AEF180A2A4AEF18042A4AEF232374
:1006100023CD2E06C92A4AEF235E2356EBCD2E06A4
:10062000C9ED5B30EF1A6F131A67CD2E06C97CFE39
:10063000C03823FEEF301F79FE01200D114DEF125F
:10064000224FEF7E324EEF180B1151EF122253EF73
:100650007E3252EFAFC937C9C0C8D0D8E0E8F0F851
:100660001020283038C2CAD2DAE2EAF2FAC4CCD476
:10067000DCE4ECF4FCC7CFD7DFE7EFF7FF011200B3
:10068000211607EDB1CAF106010800212807EDB1D6
:10069000CAFC062A4AEFFECB2857FEDD280AFEEDEB
:1006A0002828FEFD2802183E237EFECB2859FE2175
:1006B0002855FE222851FE2A284DFE362849010AD7
:1006C00000213007EDB128291832237EFE43283758
:1006D000FE4B2833FE53282FFE5B282BFE73282762
:1006E000FE7B2823180B0E01CD0106DAE005C3DDE1
:1006F000050E01CD0606DAE005C3DD050E01CD0BC2
:1007000006DAE005C3DD050E012A4AEF23CD0E0609
:10071000DAE005C3DD05060E161E262E363EC6CED1
:10072000DED6E6EEF6FEDBD30111213122322A3A83
:1007300009192939232BE5E1E3F9237EFE49CA4350
:1007400008CD9F26CDAF263806ED5310EF1810E5E3
:100750002A10EF018000092212EFE17EB7282BCD8D
:100760009F267EFE2C280DB7C2750121800019221C
:1007700012EF181623CD9F26CDAF26DA7501CD9F37
:1007800026B7C2750113ED5312EFCD9007C32C01AC
:100790002A10EF3EF0A56FAF3214EFE5CDBD07E1B3
:1007A00001100009CD7D2E200E3A14EFFE0238EB29
:1007B0002A12EF2210EFC92210EFC3722ECDBE25F0
:1007C000E5213D2CCDB525E1DD218AEF0610CDF7E1
:1007D0000710FB21402CCDB525218AEF06107E2382
:1007E000FE203809FE7F3005CD832E18053E2ECD24
:1007F000832E10EAC3FE253E20CD832E3A14EFB798
:1008000020203A10EFBD20063A11EFBC280F3E2001
:10081000CD832ECD832EDD770023DD23C93E01322B
:1008200014EF3A14EFFE0120E57EDD7700CDC325FD
:1008300023DD233A12EFBDC03A13EFBCC03E0232B3
:1008400014EFC923CD9F26CDAF263014CD9F267E31
:10085000B7201326002E0A7D3282EF2280EF183354
:10086000ED5383EF18E6FE2CC2750123CD9F26FEC3
:100870005320123E013282EF23CD9702DA7501ED4B
:100880004380EF180ECDAF26DA7501ED5380EFAF40
:100890003282EFCD7D2E2806CD722EC32C01CD22C3
:1008A00009CDE708218AEFCDB5253A82EFB7200EB2
:1008B0002A80EFED4B83EFED4230D8C32C012A8024
:1008C000EF2B2280EF7CB520CAC32C012283EFD509
:1008D000CD2209CDE708D1218AEF012A00EDB0ED44
:1008E0005B83EF3A89EFC9218AEFED5B83EFCDC2DD
:1008F00010CD5211CD521106043A89EF4F1A13D57B
:100900005FCDCA10CD5211D105280F0D20EFCD5269
:1009100011CD5211CD52110520F4CD5211ED53835A
:10092000EFC93E013289EF112112CDE61021A5EF6A
:10093000CD12112A83EF7E010D00216511EDB1204A
:1009400012217413CD6810C3E610E6380F0F0F4F55
:100950000600C9FE0A2819FE1A2823FE022824FED2
:10096000122829FEF9202A11682ECD3911C30C1145
:1009700011272ED5CD3611D1CD2011C31211112E34
:100980002E18F011272ECD2811C30111112E2E186B
:10099000F5FE40DA290AFE803028FE762006112472
:1009A00012C3E610CD4A09CD651021A5EFCD39114E
:1009B000ED5B83EF1AE6074F0600E5CD6510E1C356
:1009C0000F11FE883008CDE310CD361118E2FE90ED
:1009D000300B112D12CDE610CD361118D3FE983004
:1009E00008113112CDE61018C7FEA0300B113512D8
:1009F000CDE610CD361118B8FEA83008113912CD49
:100A0000E61018ACFEB03008113D12CDE61018A06B
:100A1000FEB83008114112CDE6101894FEC0D2A5E0
:100A20000A114412CDE6101887010800217211ED59
:100A3000B1200EF5114712CDE610F1CD4A09C3BA27
:100A400009010800217A11EDB1200AF5114B12CDF0
:100A5000E610F118E6010400218211EDB1200F111A
:100A60004712CDE610216413CD5C10C312110104AE
:100A700000218611EDB1200F114B12CDE61021643B
:100A800013CD5C10C31211010400218A11EDB120B5
:100A900046CDE31011352ECD3911E5216413CD6813
:100AA00010E1C30F11010400218E11EDB1200F11CF
:100AB0004F12CDE610216C13CD5C10C3121101044E
:100AC00000219211EDB1200F115312CDE610216CCF
:100AD00013CD5C10C31211FE082817FEE32821FE77
:100AE000EB2025112E2ECD3911CD0C11115812C32A
:100AF000E610110212CD3911110512CD0F1118ECAB
:100B000011682ECD281118E1FEE9200F110D12CD2C
:100B1000E61011352ECD1D11C31211010800215808
:100B200006EDB1200F110912CDE610214C13CD5C5A
:100B300010C31211010800217506EDB12017111D17
:100B400012CDE610792FCB27CB27CB27E6385F21B4
:100B5000A5EFC37110F53E023289EFF101080021C3
:100B60001607EDB12016CD4A09CD6510CD3911ED2E
:100B70005B83EF131A5FCDB410C31211010A002179
:100B80001E07EDB1C2D00BC5218E13CD6810CDE686
:100B900010C179FE012814B7281AFE073803CD3694
:100BA00011ED5B83EF131A5FC37110CD3611CDC009
:100BB0000BC3121121A5EFCDC00BCD5E11C30111E6
:100BC000CD4911ED5B83EF131A5FCDB410C34D1106
:100BD000FE1020051113121807FE18200C11101218
:100BE000CDE61021A5EFC39510010400216106EDAB
:100BF000B12012111012CDE610215C13CD5C10CD86
:100C00005E11C39510F53E033289EFF10104002116
:100C10002807EDB1C2260C21A213CD6810CD3911E1
:100C2000CD4E0CC37710FE222812FE322814FE2A65
:100C30002826FE3AC2670CCD36111822CD480CC3C7
:100C40000C11CD480CC30111CD4E0CC37D10E52A0B
:100C500083EF235E2356E1C911352ECD3911CD4ED8
:100C60000CCD8C10C31211FEC32008110D12CDE65D
:100C70001018ADFECD2008111812CDE61018A101F4
:100C80000800216506EDB12011110D12CDE61021ED
:100C90004C13CD5C10CD5E111886010800216D0645
:100CA000EDB1200511181218E32A83EF23F53E0257
:100CB0003289EFF1FECBC26F0D7E21A5EFFE08DA7F
:100CC000F80CFE10DA010DFE18DA0A0DFE20DA1318
:100CD0000DFE28DA1C0DFE30DA250DFE38DA490D3E
:100CE000FE40DA2E0DFE80DA370DFEC0DA400DCD63
:100CF0004F0D111713C3E610CD540D119212C3E618
:100D000010CD540D119612C3E610CD540D119A1248
:100D1000C3E610CD540D119D12C3E610CD540D1134
:100D2000A012C3E610CD540D11A412C3E610CD5489
:100D30000D11A812C3E610CD4F0D11AC12C3E61071
:100D4000CD4F0D11B012C3E610111B13C3E610F501
:100D5000CD610DF1E6074F0600E5CD6510E1C30F4B
:100D600011E6380F0F0F473E30B07723C35E11FEF8
:100D7000DDC2150F11622EED5385EF11BE13ED5339
:100D800087EF7EFEE3CAC90DFEE9CAB70DFEF9CAB8
:100D9000D80D010400213007EDB1CAE10D010400B6
:100DA000213407EDB1C2F60D21B613CD6810CDE6A2
:100DB0001021A5EFC30611ED5B85EFD5110D12CD06
:100DC000E610D1CD1D11C31211115812CDE610112C
:100DD000682ECD2811C3061111682ECD3911C30616
:100DE00011CDE310ED5B85EFCD3911E52A87EFCD0D
:100DF0006810E1C30F11F53E033289EFF1010E00D7
:100E0000219611EDB1CA350EFE86CA600EFE8ECA5D
:100E10006B0EFE9ECA700E01070021A411EDB1C237
:100E2000750E21CE13CD6810CDE610ED5B85EF2158
:100E3000A5EFC32C1079FE07D24D0EED5B85EFCDEB
:100E40002310E521DC13CD6810E1C30F11D6074F45
:100E500021DC13CD6810CD3911ED5B85EFC32C106B
:100E6000112912CDE610CD361118EE112D1218F3FE
:100E700011351218EEF53E043289EFF1FE21CA9BBE
:100E80000EFE22CAA80EFE2ACAB10EFE36C2C10E3E
:100E9000ED5B85EFCD23105AC37110ED5B85EFCD6F
:100EA0003911CD5110C37710CD5110CD7D10C3062F
:100EB00011ED5B85EFCD3911CD5110CD8C10C312E2
:100EC00011FECBC2490DCD51107A01070021AB11A3
:100ED000EDB1C2E10E211414CD6810CDE610C32B84
:100EE0000E01180021B211EDB1C2490DFE80DA05E4
:100EF0000FFEC0DA0D0F111713CDE61021A5EFCDAF
:100F0000610DC3590E11AC12CDE61018EF11B012DD
:100F1000CDE61018E7FEEDC212107E01380021CA9E
:100F200011EDB1C2490D79FE06DAF30FFE1BDAE5C9
:100F30000FFE1EDAD20FCAB20FFE1FCABB0FFE2071
:100F4000CAC40FFE21CACD0FFE26DAA10FFE2ADA8F
:100F50008B0FFE31DA700F118F12CDE61079D6317A
:100F60004F21DC13CD6810CD3911111F13C30F11A0
:100F7000118B12CDE610111F13CD391179D62A4FDE
:100F8000E521DC13CD6810E1C30F11113512CDE658
:100F90001011352ECD391179D6264FE5216413185D
:100FA000E3112D12CDE61011352ECD391179D6224F
:100FB00018E8CD361111702EC30F11CD3611116EF8
:100FC0002EC30F1111702ECD3911C30111116E2EC8
:100FD00018F511B812CDE6103E1D91C63021A5EFCF
:100FE0007723C31211D6064F060021EA13CD6810ED
:100FF000C3E6103E043289EFC57921AA13CD6810EB
:10100000C179FE03DAB50ED5CD5110CD7D10D1C317
:101010000F1111652EED5385EF11C613ED5387EFB8
:10102000C3820D21A5EFCD3210C35E11CD3210C3A6
:101030001211CD4911CD4111CD51107BFE80380CDC
:10104000ED445FCD5A11CDB410C34D11CD561118DA
:10105000F5E52A83EF23235E2356E1C9CD681021ED
:10106000A5EFC34111213C13CB21CB10095E2356C0
:10107000C9CDB410C31211CDA310C3121121A5EF15
:10108000CD4911CDA310CD4D11C35E11CD4911CD68
:10109000A310C34D11E52A83EFCDF405EBE1CDA3F9
:1010A00010186F7AFEA038043E307723CDC2103E70
:1010B00048C34F117BFEA038043E307723CDCA10C1
:1010C00018ED7ACDD3107ACDD7107BCDD3107BCD50
:1010D000D710C90F0F0F0FE60FF630FE3A3870C663
:1010E00007186C112912F5C50608219DEF1AB728BB
:1010F000067723130518F63E2077230520FBC1F160
:10110000C911252E1809ED5B85EF180311352ECD79
:1011100041113E0D77233E0A7723AF77C921A5EF12
:10112000CD4911CD4111182521A5EFCD4911CD4152
:1011300011CD4D11182811252E21A5EFCD411118E3
:101140001D1A77B7C8231318F83E2818023E2977CE
:1011500023C93E2018F93E2B18F53E2D18F13E2CE0
:10116000CD4F1118ED00070F171F272F373FC9D993
:10117000F3FB040C141C242C343C050D151D252DEB
:10118000353D031323330B1B2B3B09192939C1D1DF
:10119000E1F1C5D5E5F5464E565E666E7E7071721C
:1011A0007374757796A6AEB6BE3435060E161E2637
:1011B0002E3E464E565E666E767E868E969EA6AE17
:1011C000B6BEC6CED6DEE6EEF6FE404850586068A3
:1011D0007841495159616979425262724A5A6A7A30
:1011E000474F575F46565E44454D676FA0A1A2A387
:1011F000A8A9AAABB0B1B2B3B8B9BABB4353734B49
:101200005B7B41460041462700524554004A50004E
:101210004A5200444A4E5A0043414C4C00525354E7
:10122000004C440048414C54004144440041444374
:10123000005355420053424300414E4400584F5220
:10124000004F5200435000494E4300444543005074
:101250004F50005055534800455800455858004ECF
:101260004F5000524C4341005252434100524C41B6
:1012700000525241004441410043504C0053434608
:1012800000434346004449004549004F5554004936
:101290004E00524C430052524300524C00525200F6
:1012A000534C41005352410053524C0042495400A8
:1012B000524553004E454700494D0052524400529A
:1012C0004C44004C44490043504900494E49004FAA
:1012D000555449004C44440043504400494E440096
:1012E0004F555444004C4449520043504952004920
:1012F0004E4952004F544952004C4444520043500E
:10130000445200494E4452004F54445200524554F6
:1013100049005245544E00534554003F3F3F00287A
:1013200043290028484C29004E5A005A004E4300D9
:101330004300504F0050450050004D002A2E2C2EE7
:10134000312E332E382E3A2E2313252E3A133813EE
:101350003513321330132D132B13281330132D1381
:101360002B132813682E352E2E2E272E0212352EE3
:101370002E2E272E881285125B12091281127D12E1
:101380007912751271126D12681263125F128B124C
:101390008F12441241123D123912311235122D12A0
:1013A0002912682E352E2E2E272E682E2E2E272E11
:1013B000682E2E2E272E4F1253124B124712682ED4
:1013C000622E2E2E272E682E652E2E2E272E4B12A5
:1013D0004712441241123D1239123112252E3A2E73
:1013E000382E332E312E2C2E2A2E08130313FE12E4
:1013F000F912F412EF12EA12E512E012DC12D8121E
:10140000D412CF12CB12C712C312BF12BB120D13CC
:101410001213B412A812A412A0129D129A129612BC
:101420009212ED5B32EFED5344EF23CD9F26CDAF0B
:10143000263003B7280A7AFEF0D27501ED5344EF47
:10144000CD9F267EB72818FE2CC2750123CD9F267E
:10145000CDAF26DA7501215DEFCD3A03DA75012AA9
:1014600044EF2232EF3A4DEFB7281A2A4AEF2232E0
:10147000EF214DEF114FEFCDDD142151EF1153EF5F
:10148000CDDD14181B2155EF1157EFCDDD14215977
:10149000EF115BEFCDDD14215DEF115FEFCDDD14BA
:1014A0002A30EFF92A32EFE5DD2A2CEFFD2A2EEF64
:1014B0002A24EFE5ED4B26EFED5B28EF2A2AEFD942
:1014C000F1082A1CEFE5ED4B1EEFED5B20EF2A2221
:1014D000EF3A34EFED473A35EFED4FF1C97EB7C83B
:1014E0001A4F131A473EFF02C923CD9F26CDAF26C0
:1014F000DA7501CD9F267EB7C2750179B72004ED5C
:101500005B17EFEBCDBE25E521442CCDB525E17E63
:10151000E5CDC3253E20CD832ECD1526CD9F267E3D
:10152000B72007E1232217EF18DAFE2D2007E12B61
:101530002217EF18CFFE2E2007E12217EFC32C0150
:10154000CDAF26B7E1CA750173232217EFED5B57C4
:10155000EF1A3256EFED5B5BEF1A325AEF18A5AF78
:101560003255EF3259EF23CD9F26CDAF26CD9F26A2
:101570007EB7C2750179B72003110000CD722EFE2F
:10158000532861FE3A280DFE0D28F1FE0A28EDCD04
:10159000722E18F33E2ECD832ECDDA254F47CDDAAD
:1015A0002567814FCDDA256F814F19CDDA25321AA3
:1015B000EF814F78B72814CDDA25F5814F3A1AEF2D
:1015C000B72005F177231801F110ECCDDA25812041
:1015D0000A3A1AEFB7CA8F15C32C01211B2CCDB5BF
:1015E00025C32C01CD722E321AEFCDDA25474FCD0F
:1015F000DA2567814FCDDA256F814F19050505285A
:1016000015CDDA25F5814F3A1AEFFE312005F17735
:10161000231801F110EBCDDA2581FEFF20123A1AD2
:10162000EFFE372811FE38280DFE392809C38F1523
:1016300021282CCDB525C32C01237EFE492804FE8C
:10164000532004233219EFCD9F26CDAF26B7281C97
:10165000D5DDE1CD9F267EFE2C201123CD9F26CD0A
:10166000AF26B72807CD9F267EB72803C37501DDB7
:10167000E5E1EB23B7ED52CD97167CB520F93A1989
:10168000EFFE49200921472CCDB525C32C0121555A
:101690002CCDB525C32C010E107CB720057DB930AB
:1016A000014F0600B7ED42413A19EFFE4920303EA6
:1016B0003ACD832E78CDC325487ACDC3257A814F84
:1016C0007BCDC3257B814FAFCDC3251AF5CDC32577
:1016D000F1814F1310F579ED44CDC325C3FE253EAE
:1016E00053CD832E3E31CD832E78C6034FCDC325F7
:1016F0007ACDC3257A814F7BCDC3257B814F1AF5E7
:10170000CDC325F1814F1310F5792FCDC325C3FE2D
:101710002523CD9F26B72006CD9717C32C01EB219B
:101720000B2DBE280D4F237EB728697901050009CE
:1017300018F0237EFE0F2009234E236669131A1822
:10174000E1B728504E235E2356D5237E23666FCD06
:10175000B5253E3DCD832E79E607FE012008E17ECA
:10176000E5CDC325180CE1E5237ECDC3252B7ECD29
:10177000C3253E20CD832EC5CD1526CD9F26CDAFCA
:1017800026B7280DC1E179FE0120037318037323E6
:1017900072C32C01C3750121622C5E2356237AB3D8
:1017A000CAFE25D5EBCDB525EBD13E2CBA20073EA0
:1017B000CDBB200218293E2CBA20053EF4BB281FC1
:1017C0005E2356237E23EBFE0120077ECDC325EB4F
:1017D00018C8237ECDC3252B7ECDC325EB18BB5E59
:1017E0002356231AD5E52176EF011318111B18F59E
:1017F000F1CB273006F50A77F11804F51A77F103D3
:101800001323F57EB720E9F12176EFCDB525E1D19F
:10181000231887535A2E482E504E432E2E2E2E2EEE
:101820002E2E2E494E4952B9494E4452BB4F555463
:1018300049BD4F544952BE4F555444BF4F54445272
:10184000C048414C54B352455449AF5245544EB030
:10185000444A4E5AAC43414C4CAD43504452A84CC0
:10186000444952834C444452855055534888524C05
:1018700043418A525243418E43504952A64C4449F7
:10188000824C44448445585887504F5089524C41AB
:101890008B524C438C5252418F52524390534C4185
:1018A000925352419353524C944144449541444382
:1018B00096494E4397535542985342439944454362
:1018C0009A414E449B584F529D43504C9E4E454723
:1018D0009F434346A0534346A1424954A253455413
:1018E000A3524553A4435049A5435044A7524554DD
:1018F000AE525354B14E4F50B2494E49B8494E447E
:10190000BA4F5554BC444141C1524C44C252524456
:10191000C34F5247C4455886524C8D5252914F5234
:101920009C4350A94A50AA4A52AB494DB6494EB7BA
:101930004449B44549B54C44814442C54457C60066
:10194000284243299A284445299B28484C299C2809
:101950004958299D284959299E28535029A0284390
:10196000299F414627834146824243854445884812
:101970004C8B49588E49598F5350904E5A944E4330
:1019800095504F97504598418142844386448745FE
:1019900089488A4C8C498D52915A924D93509600A9
:1019A0002849582BA12849592BA22849582DA42849
:1019B00049592DA50023CD1F25B72811CDAF26DA13
:1019C0007501ED5361EFCD1F25B7C275012A61EF97
:1019D0002263EFAF3265EF3267EF3268EF3269EFC3
:1019E0002A63EFCDBE2521442CCDB525217FEFCB39
:1019F000CECD1526E5217FEFCB8EE1CD6F257EFE86
:101A00001B280DFE2E2809B7C29F1ACD1C1A18C319
:101A1000CD1C1A2A63EF2261EFC32C013E0AC38357
:101A20002E211B13CD1C1ACDB52521352CCDB52566
:101A300018A13A67EFFE442837FE452838FE4628AD
:101A40003F3E200E26218AEF77230D20FB3E0D77A7
:101A500023AF77CDB5252A63EF118AEFD5CDCC081A
:101A6000E1CDB5252A63EFCD971A2263EFC3D319D1
:101A7000CD1C1A18EFCD8D1ACD971A2212EF180827
:101A8000CD8D1A23232212EFCD900718D7CD1C1A23
:101A90002A63EF2210EFC93A66EF4FAF4709C9CD6D
:101AA000F823DA211A3A65EFFE01CA7A20FE02CA4B
:101AB00004213A67EF010D0021CA1AEDB1C2211AC3
:101AC00021D71A09094E2346C5C901061516192B37
:101AD000373C2A2D222423011B1F1B3D1BBE1BCB81
:101AE0001BEB1BF41B341C691C711CEA1C6C1DF6DF
:101AF0001DC0C8D0D8E0E8F0F8C6CED6DEE6EEF6D7
:101B0000FE21F11A2272EF21F91A2274EF183A809D
:101B1000889098A0A8B0B8868E969EA6AEB6BE2134
:101B20000F1B2272EF21171B2274EF181C40485024
:101B30005860687078464E565E666E767E212D1B24
:101B40002272EF21351B2274EF3A68EFFE19C22191
:101B50001A2A6AEF7CB7C2211A7DFE08D2211A3AEE
:101B600069EFFE21282CFE24283AFE22283BFE2580
:101B7000283FED4B72EF09563A69EF21C91D010864
:101B800000EDB1C2211A79FE0728033E069182C3F7
:101B9000A4233A71EF5F16DDED4B74EF094B5E3E07
:101BA000CBC3C7233A70EF18EC3A6FEF5F16FD18FE
:101BB000E73A6EEF18F6ECE4F4D4C4FCCCDC11B6D2
:101BC0001B180BEAE2F2D2C2FACADA11C31B2115C2
:101BD000220108003A68EFEDB1C2211A3A69EFFE1E
:101BE00019C2211A626B097EC3982111D341ED4BB2
:101BF00068EF180B11DB403A68EF473A69EF4F790D
:101C0000FE23281FFE1FC2211A78FE01280F21B3D0
:101C10001D010600CD581CDA211A7A18037AC6383D
:101C2000C3F2232A6CEF7CB7C2211A7DF57B1825FD
:101C30001412150621301C01040016203A68EFCD5D
:101C4000581CDA211A3A69EFFE19C2211ACD412532
:101C5000DA211AF57AC3BA21EDA1280C5F7AC608F9
:101C60005779B07B20F237C9C9119F423EDE081870
:101C700006118F4A3ECE083A68EFFE01282AFE0B75
:101C8000C2211A3A69EFFE052819FE082811FE0B39
:101C90002809FE10C2211A3E3018093E2018053EC0
:101CA000101801AF82C3F2233A69EF21C91D01095F
:101CB00000EDB1201879FE082810B728057B91C3E4
:101CC0008D202A6AEF0857C3861E7B18F221D21D89
:101CD000010400EDB1C2211A216EEF0956790EFD03
:101CE000FE0238020EDD1DC3C91E1187093EC6085B
:101CF0003A69EF473A68EFFE0128ADFE0B2847FE30
:101D00000E2809FE0FC2211A0EFD18020EDD78FE04
:101D1000052819FE082819FE0E2819FE0FCA3E1DB7
:101D2000FE10C2211A3E39F579C3BA213E0918F7CF
:101D30003E1918F379FEDDC2211A3E2918E979FE11
:101D4000FDC2211A18F478FE052812FE082813FE99
:101D50000B2814FE10C2211A3E39C3BF1C3E09C312
:101D6000BF1C3E19C3BF1C3E29C3BF1C3A69EF47C5
:101D70003A68EFFE022826FE08282CFE20C2211A0F
:101D8000781EE3FE0B2813FE0E16DD2807FE0FC299
:101D9000211A16FD7BF57AC3BA217B181278FE034F
:101DA000C2211A3E08180878FE0BC2211A3EEBC366
:101DB0008D2001040607090A0C05080B0E0F2124CB
:101DC00022250D10111A1B1C2301040607090A0CF9
:101DD0001C19212422251A1B0D1123686058504814
:101DE00040783E1E4F1E541E581E5D1E621E701E01
:101DF000751E7D1E821E3A68EF21B21D010700ED9F
:101E0000B1C2941E21DB1D09563A69EF21C91D019B
:101E10000800EDB1200C79FE0728033E0691B2C3FD
:101E20008D2021D11D010A00EDB1C2211A79FE05D4
:101E300030067AFE78C2211A21E21DC3C31A3E3A47
:101E40002A63EF7723ED5B6CEF732372C3A4213E0B
:101E50005FC3F2233E5718F93E1AC38D203E0AC3D2
:101E60008D203A6EEF4F1EFD3E06B2577BC3AF2268
:101E70003A6FEF18F03A70EF4F1EDD18EB3A71EF42
:101E800018F67AD63A572A6AEF7CB7C2211A7DF53E
:101E90007AC3BA21010500EDB1207479B7286CFE30
:101EA00001284EFE022835FE03282916ED1E4B0E92
:101EB000013A69EFFE19280A7B216CEF4E235EC3BD
:101EC000C723216AEF5E2356792A63EF71237323B8
:101ED00072C3A42116ED1E5B0E1118D50E21ED5B09
:101EE0006AEF3A69EFFE1928E00E2AED5B6CEF18F5
:101EF000D816DD0E21216AEF3A69EFFE1928050E8A
:101F00002A216CEF794E235EC3C72316FD18E40126
:101F10000400EDB1203F216EEF0956791EFDFE024F
:101F200038021EDD3A69EFFE19281A21B21D010799
:101F300000EDB1C2211A79FE063E7728033E759165
:101F40004B5FC3C91E2A6AEF7CB7C2211A3E364ACC
:101F5000535DC3C723010700EDB1C2211A21631FDE
:101F6000C3C31A7F1FB41F212025202A20E31F2F5F
:101F700020010B0508100E0F222273534322323A20
:101F800069EF21711F010700EDB1C2211A21781FED
:101F900009794E2A6CEFFE0538055D54C3C91EFE53
:101FA00002380816ED794D5CC3C72316FDB728F536
:101FB00016DD18F13A69EFFE192819FE01281121E2
:101FC000B31D010600EDB1C2211A3E7591C38D20EB
:101FD0003E7718F92A6AEF7CB7C2211A7DF53E36A2
:101FE000C3BA213A69EFFE0B281DFE0E281DFE0F15
:101FF000281DFE192822FE23C2211A16ED3E7B2A37
:102000006CEF4D5CC3C7233EF9181C16DD18021691
:10201000FD3EF9F57AC3BA210E31ED5B6AEFC3C913
:102020001E3E1218023E02C38D203E4FC3F2233ED5
:1020300047C3F223070A0B0E0F1E20212E32333422
:10204000354127FBF37600C9373F2F1F0F1707D9FC
:10205000272825263A3B3839040502031F403E3F16
:102060003D2F304243676F454DA3ABB3BB44B0A097
:10207000B8A8B2A2BAAAB1A1B9A93A67EF010E00F5
:10208000213420EDB1C29920214220097E2A63EF3C
:10209000773E013266EFC3321A011500215020ED60
:1020A000B1C2211A2A63EF3EED7723EB21652009A7
:1020B0007E123E0218DD0809171A181B1C1D292A5A
:1020C0002E312B2C2D0C100D1112131436444546B5
:1020D00018212D216621D623702375237A237F238F
:1020E000842389238E238E21A921C421D721012273
:1020F00025225F22632267226B226F22F122F622C1
:1021000038233C233A67EF011A0021B620EDB1C213
:10211000211A21D020C3C31A3A68EFFE19C2211A2E
:102120002A63EFED4B6AEF712370C3B2203A68EF78
:10213000FE192820FE26C2211A2A6AEFAF4FED5B56
:1021400063EF7EFE222809B728061223130C18F22B
:1021500079C39320ED4B6AEF78B7C2211A2A63EF57
:10216000713E01C393203A68EFFE19C2211AAF2ACB
:102170006AEF0100C0ED42DA211A0100F02A6AEF8D
:10218000ED4238002A6AEF2263EFAFC393203A682A
:10219000EFFE19C2211A3ECD2A63EF7723ED5B6A69
:1021A000EF7323723E03C393203A68EFFE19C221F6
:1021B0001ACD4125DA211AF53E102A63EF7723F173
:1021C00077C3B2203A68EFFE19C2211ACD4125DA51
:1021D000211AF53E1818E32A6AEF7CB7C2211A7D4E
:1021E00021F121010800EDB1C2211A21F921C38B8F
:1021F000200008101820283038FFF7EFE7DFD7CF8E
:10220000C73A68EF211522010800EDB1C2211A2159
:102210001D22C38B200612131415161718E8E0F0C0
:10222000D0C0F8C8D83A68EFFE1928212EE9FE1C64
:102230002817FE1D280CFE1EC2211A7DF53EFDC387
:10224000BA217DF53EDDC3BA217DC38D203EC3C3D7
:102250009821060606064606050403020100071635
:10226000B8180E16A8180A16B0180616A0180216E6
:10227000903A68EF21C91D010D00EDB1C2211A216C
:102280005222097EB25779FE05DA90227AC38D2058
:10229000FE04380E2A6AEF7CB7C2211A7DF57AC394
:1022A000BA21FE023EFD38023EDD216EEF094E2AC4
:1022B00063EF777A23772371C3A42101040506070E
:1022C00008090A0B0C101C0E0F2124222535353568
:1022D000352B2B353B2D2B251D1B150D0B053D34AB
:1022E000343434232334332C23241C13140C0304DC
:1022F0003C11CD22180311DF223A68EF21BB2201E5
:102300001200EDB1626BC2211A7916FDFE06D28B66
:1023100020097E5F79FE043808280216DD7BC39D04
:1023200022FE02380216DD7A53C3AA220205080BE8
:102330000E0FE0E0E0D0C0F0160118021605212CC7
:10234000230106003A68EFEDB1C2211A21322309B8
:102350007EB25779FE027AD28D201EFD79B728020F
:102360001EDD7AF57BC3BA210605040302010007CE
:10237000113E38181C112E2818171126201812117A
:102380001E18180D1116101808110E081803110642
:10239000003A68EF21C91D010800EDB1200C216849
:1023A00023097EB2F53ECBC3BA2121D21D01040020
:1023B000EDB1C2211A16FD79FE02380216DD216E3A
:1023C000EF094E23463ECB2A63EF72237723712316
:1023D000733E04C393203A6BEFB7C2211A3A6AEFF7
:1023E000FE03D2211A0E46B728070E563D28020ECC
:1023F0005E79F53EEDC3BA21CDBB24D83267EFCD6F
:1024000032247EB7C8FE20C23024CD3A24D83268A8
:10241000EF08CD322408FE26C87EB7C8FE2C201057
:10242000CD3A24D83269EFCD32247EB72002C9F1EB
:1024300037C93A65EF3C3265EFC923CDB124D0CD21
:10244000B6243840F5CDE424DA2F247AB720E07E94
:10245000FE2920DB23F1F5FE2120050171EF18078D
:10246000FE22200B016FEF7BFE8030C302F1C9FE1C
:1024700024200C0170EF7BFE8130B4ED4418ED0197
:102480006EEF18F27EFE28201223CDE424D87EFEC3
:1024900029209D23ED536CEF3E23C9FE2220072304
:1024A000226AEF3E26C9CDE424D8ED536AEF3E19E7
:1024B000C9114019180B11A0191806218AEF112310
:1024C00018E51ABE2004231318F8E680200E131A0C
:1024D000E68028FA131AB72808E118E51AE67FD132
:1024E000C9E137C911ADEF0E00CD2625D81213234F
:1024F0000CCD3025380B1213230C79FE07282F182A
:10250000F008AF1208FE48280BE521ADEFCD8F0291
:10251000E15059C923E521ADEFCDAF26E1B7C97E22
:10252000FE20C02318F97EFE3A3003FE30D037C9B2
:102530007EFE30D8FE3A3807FE41D8FE4730EFB76E
:10254000C9E5D5ED5B63EF13132A6AEFAFED52389F
:102550000D7CB720177DFE803012B7D1E1C97CFE1B
:10256000FF20097DED44FE817D3F18EF3718ECE533
:10257000D5C5218AEF545D0E20CD1F25CD9425B7FA
:10258000280E0E0023CD1F25B72803CD94251B123E
:10259000C1D1E1C906001213B7C8B9C8FE2220068E
:1025A0000878EE014708237EB928EBCB4020E7FEF0
:1025B0002028E918E17EA7C8CD832E2318F77CCD0B
:1025C000C3257DF51F1F1F1FCDCC25F1E60FC6309B
:1025D000FE3ADA832EC607C3832EAFCDE225070766
:1025E0000707C54FCD722EFE303811FE3A380AFE6D
:1025F000413809FE473005D607D630B1C1C93E0D76
:10260000CD832E3E0AC3832EE5211126CDB525E1CB
:10261000C91B5B3200218AEF0628D5E5581D06004C
:10262000CD722EFE0D285AFE0A2856FE08283BFEC3
:102630007F2837FE22200AF53A7FEFEE04327FEF43
:10264000F1FE2038DBFE8030D74F78BB30D20479E2
:10265000CD832EFE61380FFE7B300BE5217FEFCB63
:10266000562002E6DFE1772318B678A728B2052BBB
:102670003E08CD832E3E20CD832E3E08CD832E18DE
:102680009FE5217FEFCB4620053E0DCD832ECB4E1F
:1026900020053E0ACD832ECB96E13600E1D1C97EDE
:1026A000FE20C02318F9FE61D8FE7BD0C6E0C90E1B
:1026B000001100007EFE30382CFE3A380AFE413808
:1026C00024FE473020D607D6301717171717CB131D
:1026D000CB1217CB13CB1217CB13CB1217CB13CBB9
:1026E00012230C18CF79B72806FE053002B7C93778
:1026F000C9E5C5210E2706000909013A27B7E5ED0E
:1027000042E1300746236668C1E3C9C1E1C97E00E2
:102710003A27832EB525722E7D2E7C27BE25C32514
:10272000CC2508261A269F26FE25A626AF264F2949
:102730008529FB29B328CC088F023100EF3A5DEFE1
:10274000B72806215EEFCD6B283A4DEFB72806215A
:102750004EEFCD6B283A51EFB728062152EFCD6BE3
:10276000283A59EFB72806215AEFCD77283A55EF86
:10277000B728062156EFCD7728C34128AFC9F5ED1C
:102780005F3235EFED573234EF2222EFED5320EF79
:10279000ED431EEFE1221CEF08F5D9222AEFED539D
:1027A00028EFED4326EFE12224EFDD222CEFFD227E
:1027B0002EEFE12B2232EFED7330EF3100EFAF5708
:1027C0005F3A5DEFB7280911A128215EEFCD6B2894
:1027D0003A59EFB7280911A128215AEFCD77283AA5
:1027E00055EFB7280911A1282156EFCD77283A4D8A
:1027F000EFB7280911AA28214EEFCD6B283A51EFE7
:10280000B7280911AA282152EFCD6B287AB32003EB
:102810001197281AFE54280CEBCDB525CD9717CD6E
:102820007E28181D3A46EFFE46280AEBCDB525CD89
:102830009717CD7E28CD7D2E2813CD722EFE032036
:102840000CAF324CEF676F2248EFC32C013A4CEFCC
:10285000B7C262282A48EF2B2248EF7DB42003C379
:102860002C012A32EF224AEFC3BB04E57E234E231C
:102870004602E1AF2B77C97E234E234602C92A3296
:10288000EF2283EFCD2209CDE708218AEFCDB525D0
:102890002A32EF2283EFC9525354203338480D0AAD
:1028A00000427265616B210D0A00547261636521FB
:1028B0000D0A00F5E5B7280FFE012814FE022816C0
:1028C000FE032850E1F1C92100F83E9077E1F1C9FB
:1028D0002100F83E10773A10F83236EF3A11F8320C
:1028E00037EF01E1872A36EF7CB52006ED4336EF5E
:1028F0001805ED422236EF3A20F83238EF3A21F847
:102900003239EF2A36EFCD3329ED433AEFED5B381C
:10291000EFE1F1C9AF676F223AEF2238EF2236EFCD
:102920003220F83221F83EE83210F83E863211F8B3
:10293000E1F1C9AF474F2A36EF7DFE1F3806D61F9B
:102940006F0318F67CB7C87DD61FED442518F1F546
:10295000C5D5E5DDE5E5DDE1EBE521050019AF775E
:10296000EBE10101003E0ACD8529F6301B120C7CFB
:10297000B520F279FE062806DDE5E1EBEDB0DDE1FC
:10298000E1D1C1F1C9C5D54F060FAF291791380D57
:10299000292C1791380C292C10F8C3A62929178146
:1029A00038F42910F981D1C1C9223CEFED533EEF33
:1029B000AF3240EF3241EF3242EF3243EF061021A7
:1029C00040EFCB2623CB16213CEFCB2623CB162181
:1029D00042EFCB1623CB162A3EEF5D542A42EFAFCF
:1029E000ED523002180B2242EF3A40EFF60132402E
:1029F000EF10CC2A40EFED5B42EFC9F5C5B71804E4
:102A0000CB21CB101F30F90920F6C1F1C93F203A84
:102A1000436F6D6D616E642048656C700D0A234CC8
:102A20007C3C6E756D3E203A4C61756E636820701B
:102A3000726F6772616D0D0A415B3C61646472651F
:102A400073733E5D203A204D696E69204173736552
:102A50006D626C65206D6F64650D0A425B317C327E
:102A60005B2C3C6164723E5D5D203A536574206F5F
:102A700072204C69737420427265616B20506F69DB
:102A80006E740D0A42435B317C325D203A436C65C3
:102A9000617220427265616B20506F696E740D0A1D
:102AA000445B3C6164723E5D203A44756D70204D1C
:102AB000656D6F72790D0A44495B3C6164723E5DDD
:102AC0005B2C733C73746570733E7C3C6164723E36
:102AD0005D203A446973617373656D626C650D0ABC
:102AE00000475B3C6164723E5D5B2C3C73746F70AD
:102AF000206164723E5D203A476F20616E6420530E
:102B0000746F700D0A4C203A4C6F616420486578F0
:102B100046696C650D0A505B497C535D203A5361F0
:102B200076652048657846696C6528493A496E742F
:102B3000656C2C533A4D6F746F726F6C61290D0A7E
:102B4000525B3C7265673E5D203A536574206F723C
:102B50002044756D702072656769737465720D0A23
:102B6000535B3C6164723E5D203A536574204D6551
:102B70006D6F72790D0A545B3C6164723E5D5B2C33
:102B80003C73746570733E7C2D315D203A20547225
:102B900061636520636F6D6D616E640D0A544D5BFA
:102BA000497C535D203A5472616365204F707469AB
:102BB0006F6E20666F722043414C4C0D0A54505B7F
:102BC0004F4E7C4F46465D203A54726163652050FB
:102BD00072696E74204D6F64650D0A0D0A454D557E
:102BE0005A3830204D4F4E49544F52205265762E60
:102BF0004230330D0A54686973206D6F6E69746FCB
:102C000072206973206261736564206F6E20756E37
:102C1000696D6F6E2E0D0A005D20004572726F7235
:102C200020696865780D0A004572726F72207372B0
:102C300065630D0A004572726F720D0A00203A003A
:102C4000207C20002020003A3030303030303031CD
:102C500046460D0A00533930333030303046430D8C
:102C60000A00B72C1DEF01BB2C1EEF02C12C20EF78
:102C700002C72C22EF02CD2C1CEF01D22C2CEF022C
:102C8000D72C2EEF02DC2C25EF01E22C26EF02E8F8
:102C90002C28EF02EE2C2AEF02F42C24EF01F92C61
:102CA00030EF02FE2C32EF02032D34EF01072D35F9
:102CB000EF01000000000041203D00204243203D84
:102CC00000204445203D0020484C203D0020462067
:102CD0003D002049583D002049593D000D0A41273B
:102CE0003D00204243273D00204445273D00204829
:102CF0004C273D002046273D002053503D002050EA
:102D0000433D0020493D0020523D00410F552D001C
:102D100000420F632D0000430F852D0000440F93E8
:102D20002D0000450FB52D0000460FC32D000048B3
:102D30000FD12D0000490F012E00004C0FF32D0084
:102D400000500F152E0000520135EF702E530F1D4D
:102D50002E0000000000011DEF252E270125EF3E6B
:102D60002E000000011FEF2A2E270127EF452E43DA
:102D70000F772D0000000000021EEF272E270226ED
:102D8000EF412E000000011EEF2C2E270126EF48F8
:102D90002E0000000121EF312E270129EF4F2E4593
:102DA0000FA72D00000000000220EF2E2E27022882
:102DB000EF4B2E0000000120EF332E270128EF52A9
:102DC0002E000000011CEF3C2E270124EF5F2E0097
:102DD00000000123EF382E27012BEF592E4C0FE571
:102DE0002D00000000000222EF352E27022AEF55A9
:102DF0002E0000000122EF3A2E27012AEF5C2E0060
:102E000000000134EF6E2E58022CEF622E59022E74
:102E1000EF652E0000430232EF6B2E0000500230AF
:102E2000EF682E0000410042430042004300444549
:102E30000044004500484C0048004C004600412733
:102E4000004243270042270043270044452700440F
:102E50002700452700484C27004827004C270046FC
:102E60002700495800495900535000504300490079
:102E700052003A01FFCB4728F93A00FFC93A01FF57
:102E8000CB47C9F53A01FFCB4F28F9F13200FFC912
:102E9000FFFFFFFFFFFFFFFFFFFFFFFFFFFFFFFF42
:102EA000FFFFFFFFFFFFFFFFFFFFFFFFFFFFFFFF32
:102EB000FFFFFFFFFFFFFFFFFFFFFFFFFFFFFFFF22
:102EC000FFFFFFFFFFFFFFFFFFFFFFFFFFFFFFFF12
:102ED000FFFFFFFFFFFFFFFFFFFFFFFFFFFFFFFF02
:102EE000FFFFFFFFFFFFFFFFFFFFFFFFFFFFFFFFF2
:102EF000FFFFFFFFFFFFFFFFFFFFFFFFFFFFFFFFE2
:102F0000C3062FC36B2FC30D2FAC37223F2145C003
:102F1000F9C3374B11D53106632145C01A77231306
:102F200005C21C2FF9CDD633CDA23932EFC0323EC7
:102F3000C121C0EE11A1C1CD6C35DA742F11CEFFC5
:102F400022F4C019229FC0CDB1332A9FC011EFFFD8
:102F500019113EC17D936F7C9A67E5218C2FCD407E
:102F600040E1CDE346217D2FCD404031ABC0CDD6F1
:102F700033C3EF3221C32FCD4040C37A2F20427993
:102F800074657320667265650D0A00005A3830203A
:102F900042415349432056657220342E37620D0A50
:102FA000436F70797269676874202843292031392A
:102FB0003738206279204D6963726F736F66740DC4
:102FC0000A00004D656D6F72792073697A65206E15
:102FD0006F7420656E6F7567680D0A54686520739D
:102FE000797374656D2069732073746F7070656494
:102FF0002E0D0A000058451C466E4548C0003F850E
:10300000422E3FE247C148FD43304836493C499D86
:1030100049B249D9421C4A96C0B241CA3F4C42C14A
:1030200041D2413E4AD14AE24112421C42C54E447D
:10303000C64F52CE455854C4415441C94E505554C0
:10304000C4494DD2454144CC4554C74F544FD25545
:103050004EC946D24553544F5245C74F535542D29D
:10306000455455524ED2454DD3544F50CF5554CF61
:103070004ECE554C4CD7414954C44546D04F4B4594
:10308000C44F4B45D3435245454ECC494E4553C39F
:103090004C53D749445448CD4F4E49544F52D345D1
:1030A00054D245534554D052494E54C34F4E54CC3C
:1030B000495354C34C454152C34C4F4144C35341FF
:1030C0005645CE4557D4414228D44FC64ED35043DF
:1030D00028D448454ECE4F54D3544550ABADAAAF3B
:1030E000DEC14E44CF52BEBDBCD3474EC94E54C1C3
:1030F0004253D55352C65245C94E50D04F53D35167
:1031000052D24E44CC4F47C55850C34F53D3494E6B
:10311000D4414EC1544ED045454BC445454BD04F8C
:10312000494E54CC454ED3545224D6414CC15343FE
:10313000C3485224C8455824C2494E24CC4546545D
:1031400024D24947485424CD494424804437413649
:103150001C3B9138233A583D523AA8384E38313802
:1031600020390A373D386C3893384237914202395A
:1031700083379742363FE042274A93380D4A014A47
:10318000054A334B99C09CC044397037B635EB378C
:1031900093389338B03379CA4679FE427C3C447CFC
:1031A0009D447FEB4750B13C46B03C4E46534E5297
:1031B000474F4446434F564F4D554C425344442F7E
:1031C000304944544D4F534C535354434E55464D40
:1031D0004F4858424EC36B2FC3C137D300C9D600E6
:1031E0006F7CDE006778DE00473E00C900000035D6
:1031F0004ACA99391C76982295B3980ADD479853A4
:10320000D199990A1A9F9865BCCD98D6773E985265
:10321000C74F80DB00C901FF1C0000140014000030
:10322000000000C3E934C30000C30000C30000A2D3
:10323000C1FEFF3FC1204572726F720020696E208F
:10324000004F6B0D0A0000427265616B00210400A3
:10325000397E23FE81C04E234623E569607AB3EBB5
:10326000CA6732EBCD6C35010D00E1C809C351329C
:10327000CD8A32C5E3C1CD6C357E02C80B2BC37637
:1032800032E52A1FC1060009093EE53ED0956F3E92
:10329000FF9CDA99326739E1D81E0CC3B8322A0E86
:1032A000C122A1C01E02011E14011E00011E120136
:1032B0001E22011E0A011E18CDD633328AC0CD95BA
:1032C0003921AB31573E3FCD7D35197ECD7D35CD92
:1032D000FA36CD7D35213532CD40402AA1C011FED0
:1032E000FFCD6C35CA0D2F7CA53CC4DB463EC1AF7B
:1032F000328AC0CD9539214132CD404021FFFF2295
:10330000A1C0CDE934DAFC32CDFA363C3DCAFC32FC
:10331000F5CDC637D5CD003447D1F1D2DA36D5C593
:10332000AF3211C1CDFA36B7F5CD9033DA3533F17E
:10333000F5CA6738B7C5D24C33EB2A1BC11A020352
:1033400013CD6C35C23D336069221BC1D1F1CA7304
:10335000332A1BC1E3C109E5CD7032E1221BC1EB69
:1033600074D123237323722311A6C01A772313B7B2
:10337000C26B33CDBC3323EB626B7E23B6CAFC3207
:10338000232323AFBE23C28433EB732372C378336A
:103390002AA3C0444D7E23B62BC823237E23666F09
:1033A000CD6C3560697E23666F3FC83FD0C39333D1
:1033B000C02AA3C0AF77237723221BC12AA3C02B27
:1033C0002213C12AF4C02208C1AFCD0A372A1BC17B
:1033D000221DC1221FC1C12A9FC0F921F8C022F6B7
:1033E000C0AF6F672219C13210C12223C1E5C52ABF
:1033F00013C1C93E3FCD7D353E20CD7D35C393C041
:10340000AF32F3C00E0511A6C07EFE20CA88344735
:10341000FE22CAA834B7CAAF343AF3C0B77EC28816
:1034200034FE3F3E9ECA88347EFE30DA3334FE3CA2
:10343000DA8834D5112C30C5018434C5067F7EFE70
:1034400061DA4C34FE7BD24C34E65F774EEB23B628
:10345000F24E34047EE67FC8B9C24E34EBE5131A4F
:10346000B7FA80344F78FE88C26F34CDFA362B23FA
:103470007EFE61DA7834E65FB9CA5E34E1C34C346B
:1034800048F1EBC9EB79C1D12312130CD63ACA9695
:1034900034FE49C2993432F3C0D654C20934477E4F
:1034A000B7CAAF34B8CA883423120C13C39F34216F
:1034B000A5C01213121312C93A89C0B73E0032894F
:1034C000C0C2CC3405CAE934CD7D353E052BCAE0F7
:1034D000347ECD7D35C3F234052BCD7D35C2F2343B
:1034E000CD7D35CDA239C3E93421A6C00601AF3266
:1034F00089C0CDA5354FFE7FCAB8343A89C0B7CA56
:103500000B353E00CD7D35AF3289C079FE07CA4FFD
:1035100035FE03CCA23937C8FE0DCA9D39FE15CA47
:10352000E334FE40CAE034FE5FCAD834FE08CAD88D
:1035300034FE12C24A35C5D5E53600CD464B21A62C
:10354000C0CD4040E1D1C1C3F234FE20DAF234787C
:10355000FE493E07D2643579713211C12304CD7D15
:1035600035C3F234CD7D353E08C35E357C92C07DD7
:1035700093C97EE3BE23E3CAFA36C3A432F53A8A7E
:10358000C0B7C27540F1C5F5FE20DAA1353A87C053
:10359000473AF0C004CA9D3505B8CCA2393C32F098
:1035A000C0F1C1CFC9CDFF49E67FFE0FC03A8AC046
:1035B0002F328AC0AFC9CDC637C0C1CD9033C5CD7B
:1035C0000C36E14E23462378B1CAEF32CD1536CD05
:1035D0002537C5CDA2395E235623E5EBCDE3463E24
:1035E00020E1CD7D357EB723CAC235F2E235D67FE4
:1035F0004F112D301A13B7F2F4350DC2F435E67FB2
:10360000CD7D351A13B7F2FE35C3E535E52A8DC0F9
:10361000228BC0E1C9E5D52A8BC011FFFFED5A22EC
:103620008BC0D1E1F0E52A8DC0228BC0CDFF49FED1
:1036300003CA3836E1C315362A8DC0228BC0C36E4B
:103640002F3E643210C1CDA838C1E5CD9138220C8F
:10365000C121020039CD5132D1C2713609D52B5664
:103660002B5E2323E52A0CC1CD6C35E1C25536D142
:10367000F9EB0E08CD8132E52A0CC1E3E52AA1C0A1
:10368000E3CD6A3BCD7235A6CD673BE5CD9545E1EF
:10369000C5D5010081515A7EFEAB3E01C2AD36CD8B
:1036A000FA36CD673BE5CD9545CD4945E1C5D5F524
:1036B00033E52A13C1E30681C533CD25372213C173
:1036C0007EFE3ACADA36B7C2A432237E23B6CA4C8B
:1036D00037235E2356EB22A1C0EBCDFA3611BA3662
:1036E000D5C8D680DAA838FE25D2A432074F060006
:1036F000EB214C31094E2346C5EB237EFE3AD0FE2A
:1037000020CAFA36FE303F3C3DC9EB2AA3C0CA1F8F
:1037100037EBCDC637E5CD90336069D1D267382B12
:103720002221C1EBC9DFC8D7FE1B2811FE03280DDB
:10373000FE13C0D7FE11C8FE03280718F63EFF325D
:1037400092C0C0F6C02213C121F6FFC12AA1C0F564
:103750007DA43CCA5F372217C12A13C12219C1AF09
:10376000328AC0CD9539F1214732C2D832C3EF3207
:103770002A19C17CB51E20CAB832EB2A17C122A172
:10378000C0EBC9CDC842C03286C0C9E52A8FC00689
:10379000004F09228FC0E1C97EFE41D8FE5B3FC9C0
:1037A000CDFA36CD673BCD4945FAC1373A2CC1FE3B
:1037B00090DAF145018090110000E5CDC445E1515A
:1037C000C81E08C3B8322B110000CDFA36D0E5F57B
:1037D000219819CD6C35DAA432626B19291929F1B7
:1037E000D6305F160019EBE1C3CA37CAC033CDA388
:1037F000372BCDFA36E52AF4C0CA0E38E1CD723542
:103800002CD5CDA3372BCDFA36C2A432E3EB7D9372
:103810005F7C9A57DA9932E52A1BC101280009CD4D
:103820006C35D29932EB229FC0E122F4C0E1C3C0D3
:1038300033CABC33CDC03301BA36C34D380E03CDC5
:103840008132C1E5E52AA1C0E33E8CF533C5CDC682
:1038500037CD9338E52AA1C0CD6C35E123DC933315
:10386000D4903360692BD81E0EC3B832C016FFCD7A
:103870004D32F9FE8C1E04C2B832E122A1C0237C75
:10388000B5C28B383A11C1B7C2EE3221BA36E33E27
:10389000E1013A0E0006007948477EB7C8B8C82350
:1038A000FE22CA9738C39A38CD5D3DCD7235B4D566
:1038B0003AF2C0F5CD793BF1E32213C11FCD6C3B49
:1038C000CAFB38E52A29C1E523235E23562AA3C073
:1038D000CD6C35D2EA382A9FC0CD6C35D1D2F238C2
:1038E0002104C1CD6C35D2F2383ED1CDA141EBCD12
:1038F000DA3FCDA141E1CDA445E1C9E5CDA145D156
:10390000E1C9CDC8427E47FE8CCA1139CD723588D7
:103910002B4B0D78CAE236CDC737FE2CC0C3123907
:10392000CD793B7EFE88CA2E39CD7235A92BCD6A62
:103930003BCD4945CA9338CDFA36DA4E38C3E13625
:103940002BCDFA36CAA239C8FEA5CAD539FEA8CAF7
:10395000D539E5FE2CCABE39FE3BCAF839C1CD794E
:103960003BE53AF2C0B7C28E39CDEE46CDFE3F36CA
:10397000202A29C1342A29C13A87C04704CA8A3972
:10398000043AF0C0863DB8D4A239CD4340AFC44319
:1039900040E1C340393AF0C0B7C8C3A2393600216C
:1039A000A5C03E0DCD7D353E0ACD7D35AF32F0C090
:1039B0003A86C03DC8F5AFCD7D35F1C3B3393A88FD
:1039C000C0473AF0C0B8D4A239D2F839D60ED2CC1A
:1039D000392FC3ED39F5CDC542CD7235292BF1D63E
:1039E000A8E5CAE8393AF0C02F83D2F8393C473EFF
:1039F00020CD7D3505C2F139E1CDFA36C347393FD7
:103A00005265646F2066726F6D2073746172740DFD
:103A10000A003A12C1B7C29E32C121FF39CD4040DF
:103A2000C3EF33CDAB3F7EFE223E00328AC0C23DA3
:103A30003ACDFF3FCD72353BE5CD43403EE5CDF37A
:103A400033C1DA4937237EB72BC5CA9038362CC329
:103A5000573AE52A21C1F6AF3212C1E3C3633ACD2A
:103A600072352CCD5D3DE3D57EFE2CCA8B3A3A12E1
:103A7000C1B7C2F83A3E3FCD7D35CDF333D1C1DA7F
:103A80004937237EB72BC5CA9038D53AF2C0B7CA9A
:103A9000B53ACDFA365747FE22CAA93A3A12C1B70B
:103AA00057CAA63A163A062C2BCD0240EB21C03A53
:103AB000E3D5C3C338CDFA36CD5046E3CDA145E1B9
:103AC0002BCDFA36CACC3AFE2CC2123AE32BCDFAF1
:103AD00036C25F3AD13A12C1B7EBC22037D5B62110
:103AE000E73AC44040E1C93F457874726120696794
:103AF0006E6F7265640D0A00CD9138B7C2113B2319
:103B00007E23B61E06CAB832235E2356EB220EC1B0
:103B1000EBCDFA36FE83C2F83AC38B3A110000C4EB
:103B20005D3D2213C1CD4D32C2AA32F9D57E23F5B7
:103B3000D5CD8745E3E5CDF442E1CDA145E1CD9872
:103B400045E5CDC445E1C190CD9845CA573BEB2230
:103B5000A1C06960C3B636F92A13C17EFE2CC2BA71
:103B600036CDFA36CD1F3BCD793BF6373AF2C08FD2
:103B7000B7E8C3B632CD7235282B1600D50E01CD6D
:103B80008132CDF03B2215C12A15C1C178FE78D40F
:103B90006A3B7E1600D6B3DAB13BFE03D2B13BFEE0
:103BA0000117AABA57DAA432220AC1CDFA36C39550
:103BB0003B7AB7C2D83C7E220AC1D6ACD8FE07D029
:103BC0005F3AF2C03DB37BCA364107835F2196312D
:103BD000197856BAD023CD6A3BC501883BC5434A04
:103BE000CD7A4558514E234623C52A0AC1C37C3B92
:103BF000AF32F2C0CDFA361E24CAB832DA5046CD02
:103C00009837D2573CFE262012CDFA36FE48CA938A
:103C10004AFE42CA034B1E02CAB832FEACCAF03B8F
:103C2000FE2ECA5046FEADCA463CFE22CAFF3FFEEB
:103C3000AACA383DFEA7CA633FD6B6D2683CCD7546
:103C40003BCD723529C9167DCD7C3B2A15C1E5CD0A
:103C50007245CD6A3BE1C9CD5D3DE5EB2229C13A14
:103C6000F2C0B7CC8745E1C90600074FC5CDFA368B
:103C700079FE31DA8F3CCD753BCD72352CCD6B3B67
:103C8000EB2A29C1E3E5EBCDC842EBE3C3973CCD7A
:103C90003E3CE311523CD501F52F094E236669E9FC
:103CA00015FEADC8FE2DC814FE2BC8FEACC82BC92E
:103CB000F6AFF5CD6A3BCDAC37F1EBC1E3EBCD8A86
:103CC00045F5CDAC37F1C17921213FC2D33CA34F9B
:103CD00078A2E9B34F78B2E921EA3C3AF2C01F7A00
:103CE000175F166478BAD0C3D93BEC3C79B71FC1D3
:103CF000D1F5CD6C3B212E3DE5CAC445AF32F2C0B3
:103D0000D5CD83417E23234E2346D1C5F5CD8741B2
:103D1000CD9845F157E17BB2C87AD601D8AFBB3C0C
:103D2000D0151D0ABE2303CA163D3FC354453C8F20
:103D3000C1A0C6FF9FC35B45165ACD7C3BCD6A3BF5
:103D4000CDAC377B2F4F7A2FCD213FC1C3883B2B82
:103D5000CDFA36C8CD72352C014F3DC5F6AF32F1E4
:103D6000C046CD9837DAA432AF4F32F2C0CDFA3622
:103D7000DA793DCD9837DA863D4FCDFA36DA7A3D9D
:103D8000CD9837D27A3DD624C2953D3C32F2C00F51
:103D9000814FCDFA363A10C13DCA423EF2A53D7E72
:103DA000D628CA1A3EAF3210C1E550592A23C1CDD8
:103DB0006C351125C1CA8A442A1DC1EB2A1BC1CD0D
:103DC0006C35CAD83D799623C2CD3D789623CA0C6E
:103DD0003E23232323C3BF3DE1E3D5115A3CCD6CE1
:103DE00035D1CA0F3EE3E5C50106002A1FC1E5092A
:103DF000C1E5CD7032E1221FC16069221DC12B36A1
:103E000000CD6C35C2FE3DD173237223EBE1C93284
:103E10002CC12140322229C1E1C9E52AF1C0E35772
:103E2000D5C5CDA037C1F1EBE3E5EB3C577EFE2CC9
:103E3000CA203ECD7235292215C1E122F1C01E00F3
:103E4000D511E5F52A1DC13E19EB2A1FC1EBCD6C3A
:103E500035CA7A3E7EB923C25C3E7EB8235E2356C5
:103E600023C2483E3AF1C0B7C2AD32F1444DCA8ACE
:103E70004496CAD83E1E10C3B832110400F1CAC11C
:103E800037712370234FCD81322323220AC171233E
:103E90003AF1C01779010B00D29D3EC10371237026
:103EA00023F5E5CD3546EBE1F13DC2953EF5424BBC
:103EB000EB19DA9932CD8A32221FC12B3600CD6C34
:103EC00035C2BB3E03572A0AC15EEB2909EB2B2BF7
:103ED00073237223F1DAFC3E474F7E2316E15E2303
:103EE0005623E3F5CD6C35D2753EE5CD3546D11977
:103EF000F13D444DC2DD3E2929C109EB2A15C1C956
:103F00002A1FC1EB210000393AF2C0B7CA1C3FCDCD
:103F10008341CD83402A9FC0EB2A08C17D934F7C0B
:103F20009A41501E0021F2C0730690C360453AF0DA
:103F3000C047AFC3223FCDB93FCDAB3F019138C59C
:103F4000D5CD723528CD5D3DE5EB2B562B5EE1CD11
:103F50006A3BCD723529CD7235B4444DE37123707F
:103F6000C3F83FCDB93FD5CD3E3CCD6A3BE35E23A0
:103F700056237AB3CAB0327E23666FE52A23C1E3A3
:103F80002223C12A27C1E52A25C1E52125C1D5CD96
:103F9000A145E1CD673B2BCDFA36C2A432E1222503
:103FA000C1E12227C1E12223C1E1C9E52AA1C02341
:103FB0007CB5E1C01E16C3B832CD7235A73E803243
:103FC00010C1B647CD623DC36A3BCD6A3BCDEE46DC
:103FD000CDFE3FCD834101DE41C57E2323E5CD5992
:103FE00040E14E2346CDF23FE56FCD7641D1C9CDBC
:103FF00059402104C1E5772323732372E1C92B06BD
:104000002250E50EFF237E0CB7CA1440BACA1440F2
:10401000B8C20540FE22CCFA36E323EB79CDF23F5D
:104020001104C12AF6C02229C13E0132F2C0CDA43A
:1040300045CD6C3522F6C0E17EC01E1EC3B83223CA
:10404000CDFE3FCD8341CD98451C1DC80ACD7D35A1
:10405000FE0DCCAC3903C34A40B70EF1F52A9FC020
:10406000EB2A08C12F4F06FF0923CD6C35DA7740C4
:104070002208C123EBF1C9F11E1ACAB832BFF501FB
:104080005B40C52AF4C02208C1210000E52A9FC078
:10409000E521F8C0EB2AF6C0EBCD6C35019440C2A7
:1040A000E8402A1BC1EB2A1DC1EBCD6C35CABB40D1
:1040B0007E2323B7CDEB40C3A540C1EB2A1FC1EB44
:1040C000CD6C35CA1141CD98457BE509B7F2BA40B0
:1040D000220AC1E14E0600090923EB2A0AC1EBCDF1
:1040E0006C35CABB4001DA40C5F6807E23235E23CF
:1040F0005623F0B7C8444D2A08C1CD6C356069D845
:10410000E1E3CD6C35E3E56069D0C1F1F1E5D5C5FA
:10411000C9D1E17DB4C82B462B4EE52B2B6E260072
:104120000950592B444D2A08C1CD7332E1712370D7
:1041300069602BC38640C5E52A29C1E3CDF03BE386
:10414000CD6B3B7EE52A29C1E5861E1CDAB832CD4F
:10415000EF3FD1CD8741E3CD8641E52A06C1EBCDC6
:104160006D41CD6D4121853BE3E5C32040E1E37E18
:1041700023234E23466F2C2DC80A120313C3774105
:10418000CD6B3B2A29C1EBCDA141EBC0D550591BCA
:104190004E2A08C1CD6C35C29F4147092208C1E1B2
:1041A000C92AF6C02B462B4E2B2BCD6C35C022F6E0
:1041B000C0C901313FC5CD8041AF5732F2C07EB793
:1041C000C901313FC5CDB641CAC13723235E23564D
:1041D0001AC93E01CDEF3FCDCB422A06C173C1C300
:1041E0002040CD7B42AFE34FE57EB8DAF041781155
:1041F0000E00C5CD5940C1E1E5232346236668067C
:104200000009444DCDF23F6FCD7641D1CD8741C3FA
:104210002040CD7B42D1D51A90C3E641EB7ECD80C4
:10422000420405CAC137C51EFFFE29CA3542CD72F8
:10423000352CCDC842CD723529F1E301E841C53DA9
:10424000BE0600D04F7E91BB47D843C9CDB641CA08
:1042500069435F23237E23666FE5194672E3C57EBB
:10426000FE24C26A42CD934A180DFE25C27442CD87
:10427000034B1803CD5046C1E170C9EBCD7235290F
:10428000C1D1C543C9CDCB423284C0CD83C0C33177
:104290003FCDB542C34BC0CDB542F51E002BCDFA84
:1042A00036CAAB42CD72352CCDC842C1CD83C0AB2E
:1042B000A0CAAC42C9CDC8423284C0324CC0CD7213
:1042C000352CC3C842CDFA36CD673BCDA6377AB779
:1042D000C2C1372BCDFA367BC9CDAC371AC3313FBB
:1042E000CD673BCDAC37D5CD72352CCDC842D11280
:1042F000C921C747CD9845C30343CD984521C1D1B6
:10430000CD724578B7C83A2CC1B7CA8A4590D21D3C
:10431000432F3CEBCD7A45EBCD8A45C1D1FE19D078
:10432000F5CDAF4567F1CDC843B42129C1F2434370
:10433000CDA843D289432334CAB3322E01CDDE4304
:10434000C38943AF90477E9B5F237E9A57237E9914
:104350004FDCB4436863AF4779B7C276434A5465CC
:104360006F78D608FEE0C25743AF322CC1C9052989
:104370007A1757798F4FF26E43785C45B7CA8943F5
:10438000212CC18677D26943C878212CC1B7FC9B08
:104390004346237EE680A94FC38A451CC014C00C47
:1043A000C00E8034C0C3B3327E835F237E8A57231E
:1043B0007E894FC9212DC17E2F77AF6F90477D9B9E
:1043C0005F7D9A577D994FC90600D608DAD74343D7
:1043D0005A510E00C3CA43C6096FAF2DC8791F4F8B
:1043E0007A1F577B1F5F781F47C3DA4300000081A5
:1043F00003AA561980F122768045AA3882CD494514
:10440000B7EAC137212CC17E01358011F30490F544
:1044100070D5C5CD0343C1D104CD9F4421EC43CD1C
:10442000FA4221F043CD9148018080110000CD0374
:1044300043F1CDC44601318011187221C1D1CD495B
:1044400045C82E00CD074579323BC1EB223CC10166
:1044500000005058215443E5216044E5E52129C17D
:104460007E23B7CA8C44E52E081F6779D27A44E5CB
:104470002A3CC119EBE13A3BC1891F4F7A1F577B98
:104480001F5F781F472D7CC26944E1C9435A514FD1
:10449000C9CD7A45012084110000CD8A45C1D1CD16
:1044A0004945CAA7322EFFCD074534342B7E3257FB
:1044B000C02B7E3253C02B7E324FC041EBAF4F57E3
:1044C0005F325AC0E5C57DCD4EC0DE003FD2D74435
:1044D000325AC0F1F137D2C1E1793C3D1FFA8A432B
:1044E000177B175F7A175779174F297817473A5A6A
:1044F000C017325AC079B2B3C2C444E5212CC135C9
:10450000E1C2C444C3B33278B7CA2B457D212CC164
:10451000AE80471FA878F22A45C68077CA8A44CD64
:10452000AF45772BC9CD49452FE1B7E1F26943C3C8
:10453000B332CD954578B7C8C602DAB33247CD035A
:1045400043212CC134C0C3B3323A2CC1B7C83A2B73
:10455000C1FE2F179FC03CC9CD49450688110000F8
:10456000212CC14F70060023368017C35143CD491B
:1045700045F0212BC17EEE8077C9EB2A29C1E3E506
:104580002A2BC1E3E5EBC9CD9845EB2229C160692F
:10459000222BC1EBC92129C15E2356234E2346237A
:1045A000C91129C106041A77132305C2A645C921DA
:1045B0002BC17E07371F773F1F2323777907371FCC
:1045C0004F1FAEC978B7CA4945215245E5CD494587
:1045D00079C8212BC1AE79F8CDDE451FA9C9237852
:1045E000BEC02B79BEC02B7ABEC02B7B96C0E1E14A
:1045F000C9474F575FB7C8E5CD9545CDAF45AE67C5
:10460000FC15463E9890CDC8437C17DC9B430600C2
:10461000DCB443E1C91B7AA33CC00BC9212CC17E89
:10462000FE983A29C1D07ECDF14536987BF57917B1
:10463000CD5143F1C921000078B1C83E1029DA7587
:104640003EEB29EBD24B4609DA753E3DC23D46C9E9
:10465000FE2DF5CA5C46FE2BCA5C462BCD6943474E
:10466000575F2F4FCDFA36DAAD46FE2ECA8846FE8A
:1046700045C28C46CDFA36CDA03CCDFA36DACF46CF
:1046800014C28C46AF935F0C0CCA6446E57B90F471
:10469000A546F29B46F5CD9144F13CC28F46D1F13F
:1046A000CC7245EBC9C8F5CD3245F13DC9D5577837
:1046B0008947C5E5D5CD3245F1D630CDC446E1C1F7
:1046C000D1C36446CD7A45CD5B45C1D1C303437B9D
:1046D0000707830786D6305FC37A46E5213C32CD93
:1046E0004040E1EBAF0698CD6045213F40E5212EEB
:1046F000C1E5CD49453620F2FC46362D233630CA79
:10470000B247E5FC7245AFF5CDB84701439111F8CA
:104710004FCDC445B7E22947F1CDA646F5C30B47B7
:10472000CD9144F13CF5CDB847CDF1423CCDF145BA
:10473000CD8A45010603F1813CFA4547FE08D24582
:10474000473C473E023D3DE1F511CB4705C2564788
:10475000362E2336302305362ECC9F45C5E5D5CDE4
:104760009545E1062F047B965F237A9E5723799E19
:104770004F2B2BD26547CDA84323CD8A45EBE17063
:1047800023C10DC2564705CA96472B7EFE30CA8A02
:1047900047FE2EC49F45F1CAB547364523362BF256
:1047A000A647362D2F3C062F04D60AD2A847C63A74
:1047B000237023772371E1C901749411F723CDC4C9
:1047C00045B7E1E22047E900000080A086011027FC
:1047D00000E803006400000A0000010000217245A7
:1047E000E3E9CD7A4521C747CD8745C1D1CD4945BC
:1047F00078CA3048F2FB47B7CAA732B7CA6A43D56E
:10480000C579F67FCD9545F21848D5C5CD1C46C172
:10481000D1F5CDC445E17C1FE1222BC1E12229C1A4
:10482000DCDD47CC7245D5C5CDFD43C1D1CD3E447D
:10483000CD7A45013881113BAACD3E443A2CC1FEC8
:1048400088D22545CD1C46C680C602DA2545F5210D
:10485000EC43CDF442CD3544F1C1D1F5CD0043CD8B
:104860007245217048CDA048110000C14AC33E44A2
:1048700008402E9474704F2E776E02887AE6A02A34
:104880007C50AAAA7EFFFF7F7F000080810000008D
:1048900081CD7A45113C44D5E5CD9545CD3E44E1E9
:1048A000CD7A457E23CD874506F1C1D13DC8D5C51A
:1048B000F5E5CD3E44E1CD9845E5CD0343E1C3A9FF
:1048C00048CD4945215EC0FA2249217FC0CD8745A8
:1048D000215EC0C886E6070600772387874F09CD8B
:1048E0009845CD3E443A5DC03CE6030600FE018893
:1048F000325DC021264987874F09CDF442CD9545C9
:104900007B59EE4F4F36802B463680215CC0347E7B
:10491000D6ABC21949770C151CCD5443217FC0C3B7
:10492000A145772B772B77C3FD4868B1466899E995
:10493000926910D17568218049CDF442CD7A450144
:10494000498311DB0FCD8A45C1D1CD9F44CD7A4536
:10495000CD1C46C1D1CD0043218449CDFA42CD4979
:104960004537F26C49CDF142CD4945B7F5F4724572
:10497000218449CDF442F1D47245218849C391483C
:10498000DB0F49810000007F05BAD71E8664269997
:104990008758342387E05DA586DA0F4983CD7A45B1
:1049A000CD3C49C1E1CD7A45EBCD8A45CD3649C3F1
:1049B0009D44CD4945FCDD47FC72453A2CC1FE8142
:1049C000DACF490100815159CD9F4421FA42E521B6
:1049D000D949CD9148218049C9094AD73B78026E0F
:1049E000847BFEC12F7C74319A7D843D5A7DC87FC3
:1049F000917EE4BB4C7E6CAAAA7F00000081C9D7DF
:104A0000C93E0CCFC9CDC8427B3287C0C9CD673BF8
:104A1000CDAC37ED538BC0ED538DC0C9CDAC37D580
:104A2000E146237EC3223FCD673BCDAC37D5CD7267
:104A3000352CCD673BCDAC37E3732372E1C9CD6A2A
:104A40003BCDAC37C5212EC17AFE00280CCD764A6D
:104A500078FE302802702371237BCD764A7AFE00DF
:104A6000200578FE30280270237123AF772377C1A9
:104A7000212EC1C3D03F47E60FFE0A3802C607C643
:104A8000304F780F0F0F0FE60FFE0A3802C607C629
:104A90003047C9EB210000CDAC4ADACC4A1805CD2D
:104AA000AC4A381F29292929B56F18F3131AFE209B
:104AB000CAAC4AD630D8FE0A3805D607FE0AD8FE58
:104AC000103FC9EB7A4BE5CD213FE1C91E26C3B8A3
:104AD00032CD6A3BCDAC37C5212EC106110578FE1B
:104AE000012808CB13CB1230F41804CB13CB123EA1
:104AF00030CE0077230520F3AF772377C1212EC175
:104B0000C3D03FEB210000CD204BDA2E4BD630290D
:104B1000B56FCD204B30F6EB7A4BE5CD213FE1C9A7
:104B2000131AFE20CA204BFE30D8FE323FC91E2881
:104B3000C3B8320E01F7C93E003292C0C3142FF53C
:104B4000A0C1B83E00C9CD7D35C3A239FFFFFFFF2C
:104B5000FFFFFFFFFFFFFFFFFFFFFFFFFFFFFFFF65
:104B6000FFFFFFFFFFFFFFFFFFFFFFFFFFFFFFFF55
:104B7000FFFFFFFFFFFFFFFFFFFFFFFFFFFFFFFF45
:104B8000FFFFFFFFFFFFFFFFFFFFFFFFFFFFFFFF35
:104B9000FFFFFFFFFFFFFFFFFFFFFFFFFFFFFFFF25
:104BA000FFFFFFFFFFFFFFFFFFFFFFFFFFFFFFFF15
:104BB000FFFFFFFFFFFFFFFFFFFFFFFFFFFFFFFF05
:104BC000FFFFFFFFFFFFFFFFFFFFFFFFFFFFFFFFF5
:104BD000FFFFFFFFFFFFFFFFFFFFFFFFFFFFFFFFE5
:104BE000FFFFFFFFFFFFFFFFFFFFFFFFFFFFFFFFD5
:104BF000FFFFFFFFFFFFFFFFFFFFFFFFFFFFFFFFC5
:104C0000C3064CC3274C3180EE2114C02200C0CD16
:104C1000B353116C5397CDA55311815397CDA55321
:104C200011965397CDA5533180EECDB35311585300
:104C300097CDA553213B4C2202C02100002208C081
:104C40002204C03E3ECDA34CD51137EDCDDA52CD76
:104C50007F4D7CB5C1CA384D1B7C121B7D12C5D55A
:104C60007993F5CDF44CD5C27A4CD5CD124DC12AED
:104C700000C0CD1E4D60692200C0C12A00C0F1E510
:104C8000FE03CA274C856F3E008C671100EDCD3BBB
:104C900052D229532200C0D1CD294DD1E1CD1E4D94
:104CA000C3434CCDB5531137EDCDC153CAA94CFE0A
:104CB0000ACAA94CB7CAA94CFE08CAD34CFE18CAE6
:104CC000EC4CCDB553CDCA531213FE0DC87BFE87F5
:104CD000C2A94C7BFE37CAA94C1B3E08CDB5533E3A
:104CE00020CDB5533E08CDB553C3A94CCDB3533EEB
:104CF00040C3A34C7CB7FA22531114C0E52A00C06C
:104D00002BCD3B52E1D81A9547131A9CDA134D1B51
:104D1000B0C913131AFE0DC2134D13C3FC4CCD3B87
:104D200052C81A021303C31E4D7892C2314D7993B3
:104D3000C81B2B1A77C3294D21864DCD7F4DD51A1F
:104D400013FE2ECA5C4D23BECA3F4D3E7F1BBEDA0A
:104D5000634D23BED2524D23D1C33E4D3E7F23BE71
:104D6000D25E4D7E236EE67F67F1E9E3CD7F4DBED7
:104D700023CA7B4DC54E060009C11B1323E3C91A84
:104D8000FE20C013C37F4D4C495354CF5052554E53
:104D9000D0CD4E4557CDE3425945CDE04E45585410
:104DA000CEA24C4554D09B494E505554D03F494615
:104DB000CF3C474F544FD0BC474F535542CDF25292
:104DC000455455524ECE1452454DCF44464F52CEC7
:104DD0002F5052494E54CF7D53544F50CDECD09369
:104DE0000E01F7CD05512114C02200C0CD0551C3DD
:104DF000274CCDF74ECD0E51D5CDF44CC223532ABE
:104E000002C0E52A04C0E52100002208C0392204BE
:104E1000C0C3DC50CD05512A04C07CB5CA1B53F970
:104E2000E12204C0E12202C0D1CD204FC3EC50CD1D
:104E3000F74ECDA6502B2208C0213E4EC33B4D5409
:104E40004FCE45D31BCD0E51220CC021504EC33B3B
:104E50004D53544550CE59CE5FCD0E51C3624E21B5
:104E60000100220AC02A02C0220EC0EB2210C0019B
:104E70000A002A08C0EB6068393E097E23B6CA9B47
:104E80004E7E2BBAC27A4E7EBBC27A4EEB21000018
:104E900039444D210A0019CD294DF92A10C0EBC320
:104EA000EC50CDA652DA1B532206C0D5EB2A08C01F
:104EB0007CB5CA1C53CD3B52CAC54ED1CD204F2A1A
:104EC00006C0C3AB4E5E23562A0AC0E519EB2A087A
:104ED000C07323722A0CC0F1B7F2DD4EEBCD355210
:104EE000D1DAF14E2A0EC02202C02A10C0EBC3EC68
:104EF00050CD204FC3EC5021A5EDCD2952C139D260
:104F000029532A08C07CB5CA1D4F2A10C0E52A0EB5
:104F1000C0E52A0CC0E52A0AC0E52A08C0E5C5C9D3
:104F2000C1E12208C07CB5CA3A4FE1220AC0E122A1
:104F30000CC0E1220EC0E12210C0C5C9CD0E517CCB
:104F4000B5C2E350210000CD144DD2DC50C3274C34
:104F5000CDDA52CD0551CDF44CDA274CCD684FCD8A
:104F6000C153CDFC4CC3594F1A6F131A67130E046B
:104F7000CDF34F3E20CDB55397CDA553C90E06CDE9
:104F80006B4D3B06CDB353C3E350CD6B4D0D06CDFA
:104F9000B353C3D350CD6B4D2307CD0E514DC3A793
:104FA0004FCDC34FC3B84FCD6B4D2C06CDF250C380
:104FB000954FCDB353C3EC50CD0E51C5CDF34FC17A
:104FC000C3A74FCD6B4D22053E22C3D44FCD6B4DB1
:104FD000270E3E27CDA553FE0DE1CAD350C3EE4F99
:104FE000CD6B4D5F0D3E8DCDB553CDB553E1232334
:104FF00023E9C9D5110A00D5420DCD2652F203503E
:10500000062D0DC5CD095278B1CA1450E32DE560C7
:1050100069C30450C10D79B7FA23503E20CDB55372
:10502000C3155078CDB5535D7BFE0AD1C8C630CDCF
:10503000B553C328502A06C0F9E12202C0D1D1D508
:10504000CDC34FC34F50CDA652DA8A50C36150D55D
:10505000CDA652DA1B531A4F9712D1CDA553791B07
:1050600012D5EB2A02C0E5213F502202C0210000E8
:10507000392206C0D53E3ACDA34C1137EDCD0E51A5
:10508000D1EB732372E12202C0D1F1CD6B4D2C5CC8
:10509000C33F50CDFB50FE0DCAEC50CDA650CD6B9A
:1050A0004D2C49C39B50CDA652DA1B53E5CD6B4D19
:1050B0003D3DCD0E51444DE1712370C9CD0E51D50A
:1050C000CD0551CDF44CC22353F1C3DC50CD055175
:1050D0001114C0210000CDFC4CDA274CEB2202C099
:1050E000EB1313CDC153219B4DC33B4DCDF250C3A8
:1050F0001B53CD6B4D3B04F1C3E350CD6B4D0D0401
:10510000F1C3D350C9CD7F4DFE0DC8C31B53CD6D28
:1051100051E5211751C33B4D3E3DD12F3C3ED1358A
:105120003ED13B3DD14A3C3DD1423CD150D156CD00
:105130005851D86FC9CD5851C86FC9CD5851C8D82A
:105140006FC9CD58516FC8D86CC9CD5851C06FC9FF
:10515000CD5851D06FC9E1C979E1C1E5C54FCD6DD9
:1051600051EBE3CD3552D12100003E01C9CD6B4D4D
:105170002D06210000C39151CD6B4D2B00CDA951BF
:10518000CD6B4D2B07E5CDA951C39851CD6B4D2D5E
:105190008DE5CDA951CD2952EBE37CAA7A19D1FA3C
:1051A0008051ACF28051C32253CD4152CD6B4D2A78
:1051B0002BE5CD41520600CD2652EBE3CD26527CA5
:1051C000B7CACA517AB2EBC223537D2E00B7CAFBCD
:1051D0005119DA23533DC2D151C3FB51CD6B4D2F31
:1051E0003DE5CD41520600CD2652EBE3CD26527A65
:1051F000B3CA2353C5CD09526069C1D17CB7FA2225
:105200005378B7FC2952C3AC51E56C2600CD14523B
:10521000417DE1670EFF0CCD1F52D2165219C97D98
:10522000936F7C9A67C97CB7F07C2F677D2F6F23C3
:1052300078EE8047C97CAAF23B52EB7CBAC07DBBBA
:10524000C9214652C33B4D524E44D259414253D2DA
:105250008253495A45D28ED29BCD0D537CB7FA2248
:1052600053B5CA2253D5E52A12C07CE60767110060
:105270004C195E23562212C0E1EBC5CD0952C1D1B3
:1052800023C9CD0D53CD26527CB4FA2253C92A002E
:10529000C0D5EB2100EDCD1F52D1C9CDA652DA0702
:1052A000537E23666FC9CD7F4DD640D8C2CA5213F4
:1052B000CD0D5329DA2253D5EBCD8E52CD3B52DAA8
:1052C0002A532100EDCD1F52D1C9FE1B3FD8132117
:1052D00000ED07856F3E008C67C921000044CD7F3B
:1052E0004DFE30D8FE3AD03EF0A4C2225304C5444D
:1052F0004D292909291A13E60F856F3E008C67C1D5
:105300001AFA2253C3E152CDDA5278B7C0CD6B4DB1
:105310002809CD0E51CD6B4D2901C9D5116053C35C
:105320002D53D5115B53C32D53D511665397CDA57E
:1053300053D11AF597122A02C0E57E23B6D1CA27A7
:105340004C7EB7FA3550CD684F1BF1123E3FCDB5BC
:105350005397CDA553C3274C4F4B0D484F573F0D87
:10536000574841543F0D534F5252590D50414C4FE5
:1053700020414C544F2054494E59204241534943F7
:105380000D504F525441424C45205A38302056451A
:105390005253494F4E0D5342435A383020454449E9
:1053A00054494F4E0D471A13B8C8CDB553FE0DC220
:1053B000A653C93E0DCFFE0DC03E0ACDB5533E0DDE
:1053C000C9DFC8D7FE1BC0C3274CFE61D8FE7BD007
:1053D000E6DFC9FFFFFFFFFFFFFFFFFFFFFFFFFF4C
:1053E000FFFFFFFFFFFFFFFFFFFFFFFFFFFFFFFFCD
:1053F000FFFFFFFFFFFFFFFFFFFFFFFFFFFFFFFFBD
:10540000C39E5AC35054C3955AC3D35AC3D55AC323
:10541000BC55C3A856C3B756C3D456C33A57C339AD
:1054200058C34558C36258C39158C38D59C3BA591C
:10543000C3D159C35B5AC3665AC3675AC38B5A2137
:1054400000C1227EC02250C036FF21B65ACDBC55C5
:1054500021BFEE2258C03100C121C4C02288C02122
:10546000AD5ACDBC55CDDB58D2B4542242C0CD3E4E
:1054700056CA9154CDF054FA91542242C023237E4F
:10548000FE20C29754CD2556C29D54237EA7C377D4
:1054900054CD8B5AC35654CD0555C377542A42C0B8
:1054A0002272C0CDF654FA91540E72CD9B55CA7437
:1054B00054C37D542274C0EB224AC0EB7EFE2FC23F
:1054C0000B55CDF054CD8B5A7EA7FA5654CDD354FC
:1054D000C3C5542242C056235EE50E05CDD159E125
:1054E00023C3BC552A42C023237EB7C2E85423C934
:1054F0002A7EC02242C07EA7F8EB2A4AC0EB237E58
:10550000932B7E9AD0CDE454C3F3542A4AC07AA791
:10551000FA9154B3CAC2542A50C07E3CC29154CDB1
:10552000F054FA4A5546236E600E4ACD9B55C24A46
:1055300055CDE454EB2A42C0EB0E50CD9B557E1264
:105540002313C23955EB2B2250C02A74C01E037E90
:10555000B7CA95551C237EB7C25455572A50C01957
:10556000E5EB2A58C0CD3958D291542A50C0EBE10E
:105570002250C0EB232B7E121B0E42CD9B55C275D1
:1055800055EB2A4AC0EB722373EB2A74C07E2313B7
:1055900012B7C28D553100C1C3655406C00ABDC0E3
:1055A000030ABCC92187C03600E5210A00CD9958FD
:1055B0007DC630E12B777BB2C2A955C9AF477E23A8
:1055C000B8CACA55CD0954C3BE55CD0C54D0CDD19F
:1055D0005AFE1BCA9154FE20C0C3D15AFE20CA25D0
:1055E000565797324AC0324BC0237E2B5FE6DF7A94
:1055F000C21156FE5DC2FE55CD2E59C33B56FE402C
:10560000C21156232246C097110000CD4456C33B19
:1056100056FE22C21D5623CDBD55C33E56FE2FC297
:105620002956CD8B5A23C33E562272C0CD6156CD2A
:10563000FE58CDCA552A4AC07CB5C02A46C07EA7AE
:10564000C2DC55C9EB226AC0EBCD5859216AC0C3F0
:105650006159D523CD6D56CD4456D1C93E3DC328A1
:105660005A7E23E6DFCA5C56FE1DC26156CD8F56B8
:105670007EE6DFCA8956FE09CA8D56FE0CCA52560E
:10568000CDB1572A5AC0C370562246C0C923C9CDCE
:10569000DE58D0FE2DC29F5623CD8F56C39158FEA3
:1056A0002BC2AE5623CD8F567AA7FA9158C9FE2346
:1056B000C2BC5623CD8F567AA7C3D357FE25C2CB83
:1056C0005623CD8F56EB2A4EC0EBC9FE27C2F256A9
:1056D00023CD8F56E5D52A52C011093DCD4558132B
:1056E000EB2252C0EBE15A1600CD45585A1600E1A4
:1056F00013C9FE22C2FE561600235E2323C9FE24D0
:10570000C235571600CD1057DA2657CD06545FC95B
:10571000237ED630DA2457FE0AD8D607FE0ADA24CA
:1057200057FE10C93FC95FCD1057D0EB2929292951
:10573000EB83C32657FE3FC24457E5CDE15ACD6DFA
:1057400056E123C9FE28C24D5723C36D56CD975746
:10575000FE3ACA5E57CD78575E2356C36457CD686C
:105760005716005E2A70C0C9CD86573A76C0835F4F
:105770003A77C08A57C3AA57FE28C2A157CD865789
:10578000EB29EBC36B57CDA1574E2366692276C038
:105790002A70C023C36D565E237EFE4157F2985790
:1057A000C916C07BE63FC602875F2270C0EB7CB59E
:1057B000C9D556235ED57BD63DCAC0573DC2C15719
:1057C00023CD8F56225AC0EBD17AFE3DC2E157D18C
:1057D000CD3958C204587BB7C20458110100F6FFF6
:1057E000C9FE3CC20A587BFE3DD1CAF857FE3EC2F4
:1057F000FE57CDD057C32558CD1C58C32558CD3999
:1058000058FADB57110000E600C9FE3EC22A587B59
:10581000FE3DD1C21C58CDFE57C32558CD3958FA8C
:105820000458CDD3577BEE015FC9D1FE2BC234584B
:10583000EB19EBC9FE2DC240587B955F7A9C57C986
:10584000FE2AC25D58D50E10110000E3CDC858E302
:10585000D25658EB19EB290DC24B58C1C9FE2FC2C5
:10586000285A06007CB7C27258B5C27B583E2FC377
:10587000285AF27B5804EBCD9158EB7AB7F2845852
:1058800005CD9158CD9958224EC02A68C03E00B827
:10589000C87A2F577B2F5F13C90E000C29D29B5853
:1058A000CDC958E5210000E3CD39583FDAB358EBB4
:1058B00019EBB7E37D176F7C1767E30DCAC558CDA9
:1058C000C858C3A858E1EBC9B77C1F677D1F6FC9D3
:1058D0007EFE3A37F0FE3037F83FC9CD835ACDD03F
:1058E00058D8EB2100001AD6304F060009444D135A
:1058F000EBCDD0583FD0EB29290929C3E6582A72AD
:10590000C0D57EFE40C2495923235ECDA157D1CDDB
:105910003859D5CD3C59E1CDFE57C22959CD2E5924
:1059200006062188C07E9077C906FCC322592E4600
:10593000CD35592E42CD3C59732372C94D2A88C0AA
:105940005E2356232288C069C9FE21C26F59D1EB5C
:10595000224AC0EBCDAD57C82142C0CD6159214686
:10596000C05E23562A88C02B722B732288C0C9FEC2
:105970003BC27F59D1CDAD57C03100C1C39754FE52
:105980003EC28759D1EBE9FE2EC29959D153141565
:10599000C83E20CD0954C38F59FE26C2B459237E78
:1059A0002BFE3DC2B459D1CDAD57C02A7EC0225086
:1059B000C036FFC9FE24C2BE59C17BC30954FE3F95
