:0400000085EF00F098
:10000800F440F440F440F440F4400040F440F4403C
:10001800F440F440F440F440F440F440F440F44038
:10002800F440F440F440F440F440F440F440F44028
:10003800F440F440F440F440F440F440F440F44018
:10004800F440F440F440F440F440F440F440F44008
:10005800F440F440F440F440F440F440F440F440F8
:10006800F440F440F440F440F440F440F440F440E8
:10007800F440F440F440F4404200F440F440F440CA
:10008800F440F440F440F440F440F440F440F440C8
:10009800B640E040F440F4404200F440F440F440FC
:1000A800F440F440F440F440F440F440F440F440A8
:1000B800F440F440F440F440F440F440F440F44098
:1000C800F440F440F440F440F440F440F440F44088
:1000D800F440F440F440F440F440F440F440F44078
:1000E8004200F440F440F440F440F440F440F4405A
:1000F800F440F440F440F440F440F440F440F44058
:06010800FF0097EF81F0FB
:107FFE0000C34000C387270000C3430000000000F9
:10800E0000C34B000000000000C35300000000003E
:10801E0000C35B000000000000C90000000000006B
:10802E0000C36B000000000000C3730000000000DE
:10803E0000C37E00220E9F2A009F182E220E9F2A1A
:10804E00029F1826220E9F2A049F181E220E9F2A78
:10805E00069F1816220E9F2A089F180E220E9F2A80
:10806E000A9F1806220E9F2A0C9FE52A0E9FC9F31F
:10807E0031009F21008022109F22179F22159F22E0
:10808E005E9F22609F3E4932199F21492E22009FFA
:10809E0021382E22029F21432E22049F217D002271
:1080AE00069F217D0022089F213E27220A9F21CB79
:1080BE0027220C9FAF211C9F061A772310FC21C08C
:1080CE009E22309F21008022329F06083E2E217371
:1080DE009F772310FCAF770614214A9FAF772310AA
:1080EE00FC3E4932449F3E4E32439F2E0065224550
:1080FE009FAF32499F210080224C9F22509F2254D5
:10810E009F22589F225C9F7E324B9F324F9F32534D
:10811E009F32579F325B9F21A12BCD0226AF327C1F
:10812E009F21DE2BCD0226CD6226CDEC26B728ED83
:10813E00FE41CA011AFE44CA5E07FE47CA4614FE35
:10814E0053CA0D15FE4CCA8315FE50CA8516FE5233
:10815E00CA5D17FE23CA8501FE42CA2003FE54CA19
:10816E00D503FE3F280821FB2BCD022618AF21BEDA
:10817E0029CD022618A723CDEC26B728E9FE4C28D8
:10818E0025CDBB0238E079FE11D27501B7CA750153
:10819E003D1716005F21D301195E2356EB5E235661
:1081AE007AB328C2EBE921D3015E235623D5DDE154
:1081BE00DD7E00DDB60128091313EBCD0226EB1888
:1081CE00E8C32C01F30107021D023F02630277028E
:1081DE008D029E02B102B102B102B102B102B10230
:1081EE00B102B102002F312E2047424153494320A4
:1081FE0053746172740D0A00032F322E20474241D0
:10820E0053494320526573746172740D0A00004C19
:10821E00332E2050616C6F20416C746F2054696E48
:10822E00792042415349432053746172740D0A0000
:10823E00034C342E2050616C6F20416C746F2054AF
:10824E00696E7920424153494320526573746172BD
:10825E00740D0A000054352E2047414D453830200C
:10826E0053746172740D0A000354362E2047414D2B
:10827E0045383020526573746172740D0A000075B2
:10828E00372E2056544C2053746172740D0A00031D
:10829E0075382E2056544C20526573746172740DCD
:1082AE000A000000D5E5CDBB02E1D1C9AF474FCDE5
:1082BE00EC26B7C8CDDD02D8F508F1CDEC02D80812
:1082CE00E516005F606919444DE1D82318E1B7281F
:1082DE000AFE30D8FE3A3003D630C937C9E5C5CBD1
:1082EE0021CB10CB21CB10E109E5C1CB21CB10E185
:1082FE00C93A529FB728082A549F3E31CDBB033A44
:10830E00569FB7CA2C012A589F3E32CDBB03C32CB1
:10831E000123CDEC26B728D901529FFE31280E013C
:10832E00569FFE322807FE43283EC375010823CD13
:10833E00EC26B7285AFE2CC2750123CDEC26C5CDEE
:10834E00FC26E1DA7501CD5E03DA7501C32C017AE4
:10835E00FE80DA7503FEE0D275033E0177231A77AD
:10836E0023732372B7C937C923CDEC26B72814015E
:10837E00529FFE31280801569FFE32C27501AF0290
:10838E00C32C01AF01529F0201569F02C32C010A5A
:10839E00B7CA2C01082A549FFE3128032A589FCDB4
:1083AE00BB03C32C0142502800293A00E5F521B445
:1083BE0003CD0226F1CD492E21B803CD0226E1CD03
:1083CE000B26CD4B26C9E52E00260022459F2A32CC
:1083DE009F22479FAF32499FE123CDEC26CDFC264D
:1083EE00D29B04CDEC267EB7CAC404FE2CCAAC04C4
:1083FE00FE50284EFE4DC2750123CDEC26214304BE
:10840E00FE492810214904FE532809B7C275013AC6
:10841E00449F18E932449FE5213404CD0226E1CD74
:10842E000226C32C01544D206D6F64653A3C4341C6
:10843E004C4C2000494E3E0D0A00534B49503E0D08
:10844E000A0023CDEC26B720053A439F1809FE4FAC
:10845E00C2750123CDEC26219004FE4E28082195ED
:10846E0004FE46C2750132439FE5218604CD0226E5
:10847E00E1CD0226C32C015450206D6F64653A2065
:10848E00004F4E0D0A004F46460D0A00ED53479F12
:10849E00CDEC26B7281FFE2C2803C3750123CDEC87
:1084AE0026B7CA7501FE2D2811CDBB02DA7501ED76
:1084BE0043459F181B01010018F523CDEC26FE3114
:1084CE00C2750123CDEC26B7C275013E0132499F1C
:1084DE002A479F7E010800217C06EDB120130E0174
:1084EE00CD4506DA04060E02CD2506DA0406C301D2
:1084FE0006010500218406EDB120190E012A479FC1
:10850E00CD1806CD5206DA04060E02CD2A06DA047E
:10851E0006C30106010800218906EDB120040E01F3
:10852E001813010800219106EDB1201A0E013A44EC
:10853E009FFE532808CD3906DA04060E02CD2F060B
:10854E00DA0406C30106FEC9200B0E01CD4506DA7C
:10855E000406C30106010800219906EDB1200B0E99
:10856E0001CD2506DA0406C30106FEED2013237E97
:10857E00FE452804FE4D20090E01CD45063876181D
:10858E00712A479F7EFEE9200C2A229F0E01CD52B2
:10859E00063862185DFEDD200B237EFEE920052ADB
:1085AE002C9F18E82A479F7EFEFD200B237EFEE9B6
:1085BE0020052A2E9F18D52A479F7EFE18200C0EC6
:1085CE0001CD1806CD5206382C1827FEC320090EF1
:1085DE0001CD3906381F181AFECDC2A1060E013A7A
:1085EE00449FFE532807CD3906380A1805CD2F06AD
:1085FE003803C38914210E06CD0226C32C01FF4178
:10860E006472204552520D0A00235E2316FFCB7B67
:10861E002002160019C92A479F180A2A479F1804D4
:10862E002A479F232323CD5206C92A479F235E2321
:10863E0056EBCD5206C9ED5B309F1A6F131A67CDFC
:10864E005206C97CFE803823FE9F301F79FE012022
:10865E000D114A9F12224C9F7E324B9F180B114ECA
:10866E009F1222509F7E324F9FAFC937C9C0C8D0CC
:10867E00D8E0E8F0F81020283038C2CAD2DAE2EAA0
:10868E00F2FAC4CCD4DCE4ECF4FCC7CFD7DFE7EFCE
:10869E00F7FF011200213A07EDB1CA1507010800D4
:1086AE00214C07EDB1CA20072A479FFECB2857FE63
:1086BE00DD280AFEED2828FEFD2802183E237EFE48
:1086CE00CB2859FE212855FE222851FE2A284DFE80
:1086DE00362849010A00215407EDB1282918322302
:1086EE007EFE432837FE4B2833FE53282FFE5B2891
:1086FE002BFE732827FE7B2823180B0E01CD250693
:10870E00DA0406C301060E01CD2A06DA0406C301F9
:10871E00060E01CD2F06DA0406C301060E012A4706
:10872E009F23CD3206DA0406C30106060E161E2658
:10873E002E363EC6CEDED6E6EEF6FEDBD301112198
:10874E003122322A3A09192939232BE5E1E3F9239B
:10875E007EFE49CA6708CDEC26CDFC263806ED53C1
:10876E00109F1810E52A109F0180000922129FE128
:10877E007EB7282BCDEC267EFE2C280DB7C27501B8
:10878E002180001922129F181623CDEC26CDFC262F
:10879E00DA7501CDEC26B7C2750113ED53129FCDDC
:1087AE00B407C32C012A109F3EF0A56FAF32149F61
:1087BE00E5CDE107E101100009CD432E200E3A145C
:1087CE009FFE0238EB2A129F22109FC922109FC3D0
:1087DE00382ECD0B26E521032CCD0226E1DD218797
:1087EE009F0610CD1B0810FB21062CCD02262187DB
:1087FE009F06107E23FE203809FE7F3005CD492EC0
:10880E0018053E2ECD492E10EAC34B263E20CD49EB
:10881E002E3A149FB720203A109FBD20063A119F82
:10882E00BC280F3E20CD492ECD492EDD770023DD0D
:10883E0023C93E0132149F3A149FFE0120E57EDDCE
:10884E007700CD102623DD233A129FBDC03A139F29
:10885E00BCC03E0232149FC923CDEC26CDFC26307F
:10886E0014CDEC267EB7201326002E0A7D327F9F74
:10887E00227D9F1833ED53809F18E6FE2CC27501A2
:10888E0023CDEC26FE5320123E01327F9F23CDBB1B
:10889E0002DA7501ED437D9F180ECDFC26DA7501C7
:1088AE00ED537D9FAF327F9FCD432E2806CD382EC0
:1088BE00C32C01CD4609CD0B0921879FCD02263A47
:1088CE007F9FB7200E2A7D9FED4B809FED4230D8C3
:1088DE00C32C012A7D9F2B227D9F7CB520CAC32CE1
:1088EE000122809FD5CD4609CD0B09D121879F014D
:1088FE002A00EDB0ED5B809F3A869FC921879FEDE0
:10890E005B809FCDE610CD7611CD761106043A86AA
:10891E009F4F1A13D55FCDEE10CD7611D105280FCE
:10892E000D20EFCD7611CD7611CD76110520F4CD3B
:10893E007611ED53809FC93E0132869F114512CDAF
:10894E000A1121A29FCD36112A809F7E010D002192
:10895E008911EDB12012219813CD8C10C30A11E6A6
:10896E00380F0F0F4F0600C9FE0A2819FE1A2823CA
:10897E00FE022824FE122829FEF9202A112E2ECDC1
:10898E005D11C3301111ED2DD5CD5A11D1CD44113C
:10899E00C3361111F42D18F011ED2DCD4C11C32548
:1089AE001111F42D18F5FE40DA4D0AFE803028FE26
:1089BE00762006114812C30A11CD6E09CD891021F9
:1089CE00A29FCD5D11ED5B809F1AE6074F0600E575
:1089DE00CD8910E1C33311FE883008CD0711CD5A71
:1089EE001118E2FE90300B115112CD0A11CD5A1111
:1089FE0018D3FE983008115512CD0A1118C7FEA0D3
:108A0E00300B115912CD0A11CD5A1118B8FEA830DB
:108A1E0008115D12CD0A1118ACFEB03008116112AA
:108A2E00CD0A1118A0FEB83008116512CD0A111822
:108A3E0094FEC0D2C90A116812CD0A111887010816
:108A4E0000219611EDB1200EF5116B12CD0A11F128
:108A5E00CD6E09C3DE09010800219E11EDB1200A79
:108A6E00F5116F12CD0A11F118E601040021A611BD
:108A7E00EDB1200F116B12CD0A11218813CD80108C
:108A8E00C3361101040021AA11EDB1200F116F128E
:108A9E00CD0A11218813CD8010C336110104002197
:108AAE00AE11EDB12046CD071111FB2DCD5D11E5B7
:108ABE00218813CD8C10E1C3331101040021B211B2
:108ACE00EDB1200F117312CD0A11219013CD80102C
:108ADE00C3361101040021B611EDB1200F1177122A
:108AEE00CD0A11219013CD8010C33611FE08281720
:108AFE00FEE32821FEEB202511F42DCD5D11CD30A6
:108B0E0011117C12C30A11112612CD5D11112912F9
:108B1E00CD331118EC112E2ECD4C1118E1FEE9209B
:108B2E000F113112CD0A1111FB2DCD4111C336118A
:108B3E00010800217C06EDB1200F112D12CD0A1176
:108B4E00217013CD8010C33611010800219906ED56
:108B5E00B12017114112CD0A11792FCB27CB27CB7C
:108B6E0027E6385F21A29FC39510F53E0232869FFD
:108B7E00F1010800213A07EDB12016CD6E09CD891D
:108B8E0010CD5D11ED5B809F131A5FCDD810C336EB
:108B9E0011010A00214207EDB1C2F40BC521B21337
:108BAE00CD8C10CD0A11C179FE012814B7281AFEFA
:108BBE00073803CD5A11ED5B809F131A5FC39510D2
:108BCE00CD5A11CDE40BC3361121A29FCDE40BCDAE
:108BDE008211C32511CD6D11ED5B809F131A5FCDF0
:108BEE00D810C37111FE1020051137121807FE1888
:108BFE00200C113412CD0A1121A29FC3B910010409
:108C0E0000218506EDB12012113412CD0A112180FA
:108C1E0013CD8010CD8211C3B910F53E0332869F5D
:108C2E00F1010400214C07EDB1C24A0C21C613CD4F
:108C3E008C10CD5D11CD720CC39B10FE222812FE3E
:108C4E00322814FE2A2826FE3AC28B0CCD5A111851
:108C5E0022CD6C0CC33011CD6C0CC32511CD720C12
:108C6E00C3A110E52A809F235E2356E1C911FB2D77
:108C7E00CD5D11CD720CCDB010C33611FEC32008E0
:108C8E00113112CD0A1118ADFECD2008113C12CDB6
:108C9E000A1118A1010800218906EDB12011113128
:108CAE0012CD0A11217013CD8010CD8211188601BC
:108CBE000800219106EDB12005113C1218E32A801F
:108CCE009F23F53E0232869FF1FECBC2930D7E218D
:108CDE00A29FFE08DA1C0DFE10DA250DFE18DA2E04
:108CEE000DFE20DA370DFE28DA400DFE30DA490D82
:108CFE00FE38DA6D0DFE40DA520DFE80DA5B0DFEA7
:108D0E00C0DA640DCD730D113B13C30A11CD780D6E
:108D1E0011B612C30A11CD780D11BA12C30A11CDB4
:108D2E00780D11BE12C30A11CD780D11C112C30AEE
:108D3E0011CD780D11C412C30A11CD780D11C812C0
:108D4E00C30A11CD780D11CC12C30A11CD730D11BA
:108D5E00D012C30A11CD730D11D412C30A11113FD3
:108D6E0013C30A11F5CD850DF1E6074F0600E5CDCB
:108D7E008910E1C33311E6380F0F0F473E30B0773D
:108D8E0023C38211FEDDC2390F11282EED53829FAF
:108D9E0011E213ED53849F7EFEE3CAED0DFEE9CA88
:108DAE00DB0DFEF9CAFC0D010400215407EDB1CA1A
:108DBE00050E010400215807EDB1C21A0E21DA1377
:108DCE00CD8C10CD0A1121A29FC32A11ED5B829F7B
:108DDE00D5113112CD0A11D1CD4111C33611117CED
:108DEE0012CD0A11112E2ECD4C11C32A11112E2E79
:108DFE00CD5D11C32A11CD0711ED5B829FCD5D11A3
:108E0E00E52A849FCD8C10E1C33311F53E033286E3
:108E1E009FF1010E0021BA11EDB1CA590EFE86CA9C
:108E2E00840EFE8ECA8F0EFE9ECA940E010700217E
:108E3E00C811EDB1C2990E21F213CD8C10CD0A11CD
:108E4E00ED5B829F21A29FC3501079FE07D2710E57
:108E5E00ED5B829FCD4710E5210014CD8C10E1C350
:108E6E003311D6074F210014CD8C10CD5D11ED5B63
:108E7E00829FC35010114D12CD0A11CD5A1118EE0A
:108E8E0011511218F311591218EEF53E0432869F45
:108E9E00F1FE21CABF0EFE22CACC0EFE2ACAD50E84
:108EAE00FE36C2E50EED5B829FCD47105AC395107C
:108EBE00ED5B829FCD5D11CD7510C39B10CD7510EE
:108ECE00CDA110C32A11ED5B829FCD5D11CD751022
:108EDE00CDB010C33611FECBC26D0DCD75107A011B
:108EEE00070021CF11EDB1C2050F213814CD8C1022
:108EFE00CD0A11C34F0E01180021D611EDB1C26D6E
:108F0E000DFE80DA290FFEC0DA310F113B13CD0AA8
:108F1E001121A29FCD850DC37D0E11D012CD0A1148
:108F2E0018EF11D412CD0A1118E7FEEDC236107EDD
:108F3E0001380021EE11EDB1C26D0D79FE06DA1782
:108F4E0010FE1BDA0910FE1EDAF60FCAD60FFE1F30
:108F5E00CADF0FFE20CAE80FFE21CAF10FFE26DA85
:108F6E00C50FFE2ADAAF0FFE31DA940F11B312CD10
:108F7E000A1179D6314F210014CD8C10CD5D11110F
:108F8E004313C3331111AF12CD0A11114313CD5D2B
:108F9E001179D62A4FE5210014CD8C10E1C333117F
:108FAE00115912CD0A1111FB2DCD5D1179D6264F17
:108FBE00E521881318E3115112CD0A1111FB2DCDA5
:108FCE005D1179D62218E8CD5A1111362EC3331100
:108FDE00CD5A1111342EC3331111362ECD5D11C35E
:108FEE00251111342E18F511DC12CD0A113E1D91EA
:108FFE00C63021A29F7723C33611D6064F06002115
:10900E000E14CD8C10C30A113E0432869FC57921F1
:10901E00CE13CD8C10C179FE03DAD90ED5CD7510D5
:10902E00CDA110D1C33311112B2EED53829F11EA16
:10903E0013ED53849FC3A60D21A29FCD5610C3825C
:10904E0011CD5610C33611CD6D11CD6511CD7510E4
:10905E007BFE80380CED445FCD7E11CDD810C371F0
:10906E0011CD7A1118F5E52A809F23235E2356E150
:10907E00C9CD8C1021A29FC36511216013CB21CBCA
:10908E0010095E2356C9CDD810C33611CDC710C3F3
:10909E00361121A29FCD6D11CDC710CD7111C38296
:1090AE0011CD6D11CDC710C37111E52A809FCD185A
:1090BE0006EBE1CDC710186F7AFEA038043E30776C
:1090CE0023CDE6103E48C373117BFEA038043E301C
:1090DE007723CDEE1018ED7ACDF7107ACDFB107BFD
:1090EE00CDF7107BCDFB10C90F0F0F0FE60FF6302B
:1090FE00FE3A3870C607186C114D12F5C5060821D8
:10910E009A9F1AB728067723130518F63E20772361
:10911E000520FBC1F1C911EB2D1809ED5B829F18DB
:10912E000311FB2DCD65113E0D77233E0A7723AF3C
:10913E0077C921A29FCD6D11CD6511182521A29F52
:10914E00CD6D11CD6511CD7111182811EB2D21A208
:10915E009FCD6511181D1A77B7C8231318F83E282E
:10916E0018023E297723C93E2018F93E2B18F53EEA
:10917E002D18F13E2CCD731118ED00070F171F2778
:10918E002F373FC9D9F3FB040C141C242C343C0597
:10919E000D151D252D353D031323330B1B2B3B09BD
:1091AE00192939C1D1E1F1C5D5E5F5464E565E66B0
:1091BE006E7E7071727374757796A6AEB6BE3435C8
:1091CE00060E161E262E3E464E565E666E767E8621
:1091DE008E969EA6AEB6BEC6CED6DEE6EEF6FE40A7
:1091EE0048505860687841495159616979425262D4
:1091FE00724A5A6A7A474F575F46565E44454D67E4
:10920E006FA0A1A2A3A8A9AAABB0B1B2B3B8B9BAC4
:10921E00BB4353734B5B7B4146004146270052458F
:10922E0054004A50004A5200444A4E5A0043414CA0
:10923E004C00525354004C440048414C540041449D
:10924E004400414443005355420053424300414EB3
:10925E004400584F52004F5200435000494E4300B5
:10926E0044454300504F5000505553480045580058
:10927E00455858004E4F5000524C434100525243F5
:10928E004100524C41005252410044414100435072
:10929E004C005343460043434600444900454900B1
:1092AE004F555400494E00524C4300525243005207
:1092BE004C00525200534C41005352410053524CF9
:1092CE000042495400524553004E454700494D0057
:1092DE0052524400524C44004C4449004350490001
:1092EE00494E49004F555449004C444400435044A4
:1092FE0000494E44004F555444004C4449520043DB
:10930E0050495200494E4952004F544952004C4464
:10931E004452004350445200494E4452004F54446C
:10932E00520052455449005245544E005345540084
:10933E003F3F3F002843290028484C29004E5A0041
:10934E005A004E43004300504F0050450050004D10
:10935E0000F02DF22DF72DF92DFE2D002E4713EBDB
:10936E002D5E135C1359135613541351134F134C94
:10937E0013541351134F134C132E2EFB2DF42DEDAE
:10938E002D2612FB2DF42DED2DAC12A9127F122DD0
:10939E0012A512A1129D129912951291128C12877A
:1093AE00128312AF12B3126812651261125D12555A
:1093BE0012591251124D122E2EFB2DF42DED2D2E73
:1093CE002EF42DED2D2E2EF42DED2D731277126F12
:1093DE00126B122E2E282EF42DED2D2E2E2B2EF45A
:1093EE002DED2D6F126B126812651261125D125502
:1093FE0012EB2D002EFE2DF92DF72DF22DF02D2C2A
:10940E0013271322131D13181313130E130913040A
:10941E00130013FC12F812F312EF12EB12E712E321
:10942E0012DF1231133613D812CC12C812C412C165
:10943E0012BE12BA12B612ED5B329FED53419F234C
:10944E00CDEC26CDFC263003B7280A7AFEE0D27585
:10945E0001ED53419FCDEC267EB72818FE2CC27528
:10946E000123CDEC26CDFC26DA7501215A9FCD5E67
:10947E0003DA75012A419F22329F3A4A9FB7281A72
:10948E002A479F22329F214A9F114C9FCD011521C1
:10949E004E9F11509FCD0115181B21529F11549FA5
:1094AE00CD011521569F11589FCD0115215A9F119F
:1094BE005C9FCD01152A309FF92A329FE5DD2A2CBB
:1094CE009FFD2A2E9F2A249FE5ED4B269FED5B28BC
:1094DE009F2A2A9FD9F1082A1C9FE5ED4B1E9FED6E
:1094EE005B209F2A229F3A349FED473A359FED4FDE
:1094FE00F1C97EB7C81A4F131A473EFF02C923CDD2
:10950E00EC26CDFC26DA7501CDEC267EB7C27501B0
:10951E0079B72004ED5B179FEBCD0B26E5210A2CC6
:10952E00CD0226E17EE5CD10263E20CD492ECD6220
:10953E0026CDEC267EB72007E12322179F18DAFEF0
:10954E002D2007E12B22179F18CFFE2E2007E12298
:10955E00179FC32C01CDFC26B7E1CA7501732322D8
:10956E00179FED5B549F1A32539FED5B589F1A3233
:10957E00579F18A5AF4F32529F32569F32369F23B8
:10958E00CDEC26FE47200632369F231803CDFC264F
:10959E00CDEC26B7C2750179B720031100003E2E1F
:1095AE00CD492ECD382EFE532878FE3A280DFE0DCD
:1095BE0028ECFE0A28E8CD382E18F3CD27264F4783
:1095CE00CD272667814FCD27266F814F19CD2216C5
:1095DE00CD2726321A9F814F78B72814CD2726F52E
:1095EE00814F3A1A9FB72005F177231801F110EC3D
:1095FE00CD27268120143A1A9FB7CAC515CD4B2602
:10960E003A369FB7280A2A379FE921E12BCD022649
:10961E00C32C013A369FFE47C022379F3E01323699
:10962E009FC9CD382E321A9FCD2726474FCD2726DC
:10963E0067814FCD27266F814F19CD22160505055F
:10964E002815CD2726F5814F3A1A9FFE312005F1B8
:10965E0077231801F110EBCD272681FEFF20123A59
:10966E001A9FFE3728AAFE3828A6FE39288FC3C5B2
:10967E001521EE2B1897237EFE492804FE53200455
:10968E002332199FCDEC26CDFC26B7281CD5DDE163
:10969E00CDEC267EFE2C201123CDEC26CDFC26B75C
:1096AE002807CDEC267EB72803C37501DDE5E1EB77
:1096BE0023B7ED52CDE3167CB520F93A199FFE493A
:1096CE002009210D2CCD0226C32C01211B2CCD02ED
:1096DE0026C32C010E107CB720057DB930014F0634
:1096EE0000B7ED42413A199FFE4920303E3ACD492E
:1096FE002E78CD1026487ACD10267A814F7BCD104C
:10970E00267B814FAFCD10261AF5CD1026F1814F55
:10971E001310F579ED44CD1026C34B263E53CD499B
:10972E002E3E31CD492E78C6034FCD10267ACD1060
:10973E00267A814F7BCD10267B814F1AF5CD1026D0
:10974E00F1814F1310F5792FCD1026C34B2623CD63
:10975E00EC26B72006CDE317C32C01EB21D12CBE8E
:10976E00280D4F237EB72869790105000918F023CB
:10977E007EFE0F2009234E236669131A18E1B728BF
:10978E00504E235E2356D5237E23666FCD02263E92
:10979E003DCD492E79E607FE012008E17EE5CD108C
:1097AE0026180CE1E5237ECD10262B7ECD10263E0D
:1097BE0020CD492EC5CD6226CDEC26CDFC26B72870
:1097CE000DC1E179FE012003731803732372C32CBC
:1097DE0001C3750121282C5E2356237AB3CA4B266A
:1097EE00D5EBCD0226EBD13E2CBA20073E93BB2003
:1097FE000218293E2CBA20053EBABB281F5E2356FE
:10980E00237E23EBFE0120077ECD1026EB18C82306
:10981E007ECD10262B7ECD1026EB18BB5E23562355
:10982E001AD5E521739F015F18116718F5F1CB2743
:10983E003006F50A77F11804F51A77F1031323F5BC
:10984E007EB720E9F121739FCD0226E1D12318873F
:10985E00535A2E482E504E432E2E2E2E2E2E2E2E58
:10986E00494E4952B9494E4452BB4F555449BD4FCA
:10987E00544952BE4F555444BF4F544452C04841B0
:10988E004C54B352455449AF5245544EB0444A4ECF
:10989E005AAC43414C4CAD43504452A84C444952EF
:1098AE00834C444452855055534888524C43418A08
:1098BE00525243418E43504952A64C4449824C4425
:1098CE00448445585887504F5089524C418B524CC6
:1098DE00438C5252418F52524390534C41925352A9
:1098EE00419353524C944144449541444396494EBE
:1098FE00439753554298534243994445439A414E98
:10990E00449B584F529D43504C9E4E45479F434358
:10991E0046A0534346A1424954A2534554A352452F
:10992E0053A4435049A5435044A7524554AE5253F5
:10993E0054B14E4F50B2494E49B8494E44BA4F55A4
:10994E0054BC444141C1524C44C2525244C34F5282
:10995E0047C4455886524C8D5252914F529C43509B
:10996E00A94A50AA4A52AB494DB6494EB74449B4DA
:10997E004549B54C44814442C54457C6002842432C
:10998E00299A284445299B28484C299C284958291E
:10999E009D284959299E28535029A02843299F4183
:1099AE00462783414682424385444588484C8B492D
:1099BE00588E49598F5350904E5A944E4395504F4E
:1099CE009750459841814284438644874589488A09
:1099DE004C8C498D52915A924D935096002849586D
:1099EE002BA12849592BA22849582DA42849592D75
:1099FE00A50023CD6C25B72811CDFC26DA7501ED17
:109A0E00535E9FCD6C25B7C275012A5E9F22609F63
:109A1E00AF32629F32649F32659F32669F2A609F8B
:109A2E00CD0B26210A2CCD0226217C9FCBCECD62DA
:109A3E0026E5217C9FCB8EE1CDBC257EFE1B280D1D
:109A4E00FE2E2809B7C2EB1ACD681A18C3CD681AB4
:109A5E002A609F225E9FC32C013E0AC3492E213FDE
:109A6E0013CD681ACD022621FB2BCD022618A13A62
:109A7E00649FFE442837FE452838FE46283F3E2088
:109A8E000E2621879F77230D20FB3E0D7723AF7780
:109A9E00CD02262A609F11879FD5CDF008E1CD0219
:109AAE00262A609FCDE31A22609FC31F1ACD681A23
:109ABE0018EFCDD91ACDE31A22129F1808CDD91A54
:109ACE00232322129FCDB40718D7CD681A2A609F80
:109ADE0022109FC93A639F4FAF4709C9CD4524DA7B
:109AEE006D1A3A629FFE01CAC620FE02CA50213A82
:109AFE00649F010D0021161BEDB1C26D1A21231BAF
:109B0E0009094E2346C5C901061516192B373C2ADD
:109B1E002D2224234D1B6B1B891B0A1C171C371C63
:109B2E00401C801CB51CBD1C361DB81D421EC0C875
:109B3E00D0D8E0E8F0F8C6CED6DEE6EEF6FE213D51
:109B4E001B226F9F21451B22719F183A8088909887
:109B5E00A0A8B0B8868E969EA6AEB6BE215B1B227E
:109B6E006F9F21631B22719F181C404850586068DC
:109B7E007078464E565E666E767E21791B226F9FFA
:109B8E0021811B22719F3A659FFE19C26D1A2A67A9
:109B9E009F7CB7C26D1A7DFE08D26D1A3A669FFE83
:109BAE0021282CFE24283AFE22283BFE25283FEDB4
:109BBE004B6F9F09563A669F21151E010800EDB1A5
:109BCE00C26D1A79FE0728033E069182C3F1233A2D
:109BDE006E9F5F16DDED4B719F094B5E3ECBC3143E
:109BEE00243A6D9F18EC3A6C9F5F16FD18E73A6B9E
:109BFE009F18F6ECE4F4D4C4FCCCDC11021C180B58
:109C0E00EAE2F2D2C2FACADA110F1C21622201086C
:109C1E00003A659FEDB1C26D1A3A669FFE19C26D8C
:109C2E001A626B097EC3E52111D341ED4B659F1876
:109C3E000B11DB403A659F473A669F4F79FE23280A
:109C4E001FFE1FC26D1A78FE01280F21FF1D01068F
:109C5E0000CDA41CDA6D1A7A18037AC638C33F24D5
:109C6E002A699F7CB7C26D1A7DF57B1825141215D3
:109C7E0006217C1C01040016203A659FCDA41CDA37
:109C8E006D1A3A669FFE19C26D1ACD8E25DA6D1ABF
:109C9E00F57AC30722EDA1280C5F7AC6085779B072
:109CAE007B20F237C9C9119F423EDE081806118F7C
:109CBE004A3ECE083A659FFE01282AFE0BC26D1A57
:109CCE003A669FFE052819FE082811FE0B2809FE8C
:109CDE0010C26D1A3E3018093E2018053E101801AC
:109CEE00AF82C33F243A669F21151E010900EDB1D4
:109CFE00201879FE082810B728057B91C3D9202A91
:109D0E00679F0857C3D21E7B18F2211E1E01040046
:109D1E00EDB1C26D1A216B9F0956790EFDFE023808
:109D2E00020EDD1DC3151F1187093EC6083A669F38
:109D3E00473A659FFE0128ADFE0B2847FE0E280907
:109D4E00FE0FC26D1A0EFD18020EDD78FE052819E3
:109D5E00FE082819FE0E2819FE0FCA8A1DFE10C213
:109D6E006D1A3E39F579C307223E0918F73E1918C8
:109D7E00F379FEDDC26D1A3E2918E979FEFDC26D3A
:109D8E001A18F478FE052812FE082813FE0B281464
:109D9E00FE10C26D1A3E39C30B1D3E09C30B1D3E8C
:109DAE0019C30B1D3E29C30B1D3A669F473A659F8B
:109DBE00FE022826FE08282CFE20C26D1A781EE30D
:109DCE00FE0B2813FE0E16DD2807FE0FC26D1A16A7
:109DDE00FD7BF57AC307227B181278FE03C26D1A3B
:109DEE003E08180878FE0BC26D1A3EEBC3D920014F
:109DFE00040607090A0C05080B0E0F212422250D57
:109E0E0010111A1B1C2301040607090A0C1C192128
:109E1E002422251A1B0D1123686058504840788A59
:109E2E001E9B1EA01EA41EA91EAE1EBC1EC11EC9B8
:109E3E001ECE1E3A659F21FE1D010700EDB1C2E048
:109E4E001E21271E09563A669F21151E010800ED98
:109E5E00B1200C79FE0728033E0691B2C3D920210A
:109E6E001D1E010A00EDB1C26D1A79FE0530067A8B
:109E7E00FE78C26D1A212E1EC30F1B3E3A2A609F1A
:109E8E007723ED5B699F732372C3F1213E5FC33F5E
:109E9E00243E5718F93E1AC3D9203E0AC3D9203A98
:109EAE006B9F4F1EFD3E06B2577BC3FC223A6C9F42
:109EBE0018F03A6D9F4F1EDD18EB3A6E9F18F67A2A
:109ECE00D63A572A679F7CB7C26D1A7DF57AC307BB
:109EDE0022010500EDB1207479B7286CFE01284EE1
:109EEE00FE022835FE03282916ED1E4B0E013A669A
:109EFE009FFE19280A7B21699F4E235EC3142421DD
:109F0E00679F5E2356792A609F7123732372C3F174
:109F1E002116ED1E5B0E1118D50E21ED5B679F3AD3
:109F2E00669FFE1928E00E2AED5B699F18D816DD94
:109F3E000E2121679F3A669FFE1928050E2A216978
:109F4E009F794E235EC3142416FD18E4010400ED20
:109F5E00B1203F216B9F0956791EFDFE0238021E6D
:109F6E00DD3A669FFE19281A21FE1D010700EDB18C
:109F7E00C26D1A79FE063E7728033E75914B5FC37C
:109F8E00151F2A679F7CB7C26D1A3E364A535DC3B2
:109F9E001424010700EDB1C26D1A21AF1FC30F1BB0
:109FAE00CB1F00206D20712076202F207B20010BEF
:109FBE000508100E0F222273534322323A669F2158
:109FCE00BD1F010700EDB1C26D1A21C41F09794EE4
:109FDE002A699FFE0538055D54C3151FFE02380819
:109FEE0016ED794D5CC3142416FDB728F516DD1851
:109FFE00F13A669FFE192819FE01281121FF1D0155
:10A00E000600EDB1C26D1A3E7591C3D9203E771888
:10A01E00F92A679F7CB7C26D1A7DF53E36C30722BB
:10A02E003A669FFE0B281DFE0E281DFE0F281DFEF4
:10A03E00192822FE23C26D1A16ED3E7B2A699F4D0A
:10A04E005CC314243EF9181C16DD180216FD3EF9E9
:10A05E00F57AC307220E31ED5B679FC3151F3E12C3
:10A06E0018023E02C3D9203E4FC33F243E47C33F92
:10A07E0024070A0B0E0F1E20212E323334354127B2
:10A08E00FBF37600C9373F2F1F0F1707D927282557
:10A09E00263A3B3839040502031F403E3F3D2F3020
:10A0AE004243676F454DA3ABB3BB44B0A0B8A8B253
:10A0BE00A2BAAAB1A1B9A93A649F010E00218020CB
:10A0CE00EDB1C2E520218E20097E2A609F773E01E8
:10A0DE0032639FC37E1A011500219C20EDB1C26D23
:10A0EE001A2A609F3EED7723EB21B120097E123EA6
:10A0FE000218DD0809171A181B1C1D292A2E312BD0
:10A10E002C2D0C100D111213143644454664217972
:10A11E0021B2212324BD23C223C723CC23D123D68E
:10A12E0023DB23DB21F621112224224E227222ACC4
:10A13E0022B022B422B822BC223E23432385238997
:10A14E00233A649F011A00210221EDB1C26D1A213A
:10A15E001C21C30F1B3A659FFE19C26D1A2A609F00
:10A16E00ED4B679F712370C3FE203A659FFE192841
:10A17E0020FE26C26D1A2A679FAF4FED5B609F7E51
:10A18E00FE222809B728061223130C18F279C3DF12
:10A19E0020ED4B679F78B7C26D1A2A609F713E0102
:10A1AE00C3DF203A659FFE19C26D1AAF2A679F0161
:10A1BE000080ED42DA6D1A0100A02A679FED42D2AF
:10A1CE006D1A2A679F22609FAFC3DF203A659FFEFC
:10A1DE0019C26D1A3ECD2A609F7723ED5B679F7380
:10A1EE0023723E03C3DF203A659FFE19C26D1ACD5E
:10A1FE008E25DA6D1AF53E102A609F7723F177C30C
:10A20E00FE203A659FFE19C26D1ACD8E25DA6D1AA3
:10A21E00F53E1818E32A679F7CB7C26D1A7D213E62
:10A22E0022010800EDB1C26D1A214622C3D72000CB
:10A23E0008101820283038FFF7EFE7DFD7CFC73ADE
:10A24E00659F216222010800EDB1C26D1A216A22BA
:10A25E00C3D7200612131415161718E8E0F0D0C055
:10A26E00F8C8D83A659FFE1928212EE9FE1C28173A
:10A27E00FE1D280CFE1EC26D1A7DF53EFDC3072283
:10A28E007DF53EDDC307227DC3D9203EC3C3E52144
:10A29E000606060646060504030201000716B81850
:10A2AE000E16A8180A16B0180616A0180216903A1E
:10A2BE00659F21151E010D00EDB1C26D1A219F2261
:10A2CE00097EB25779FE05DADD227AC3D920FE0463
:10A2DE00380E2A679F7CB7C26D1A7DF57AC30722A6
:10A2EE00FE023EFD38023EDD216B9F094E2A609F25
:10A2FE00777A23772371C3F1210104050607080934
:10A30E000A0B0C101C0E0F21242225353535352B4A
:10A31E002B353B2D2B251D1B150D0B053D343434D4
:10A32E0034232334332C23241C13140C03043C1128
:10A33E001A231803112C233A659F210823011200BA
:10A34E00EDB1626BC26D1A7916FDFE06D2D72009E9
:10A35E007E5F79FE043808280216DD7BC3EA22FEF2
:10A36E0002380216DD7A53C3F7220205080B0E0FD0
:10A37E00E0E0E0D0C0F016011802160521792301A5
:10A38E0006003A659FEDB1C26D1A217F23097EB298
:10A39E005779FE027AD2D9201EFD79B728021EDD2A
:10A3AE007AF57BC307220605040302010007113E5E
:10A3BE0038181C112E2818171126201812111E18C5
:10A3CE00180D1116101808110E0818031106003A70
:10A3DE00659F21151E010800EDB1200C21B5230942
:10A3EE007EB2F53ECBC30722211E1E010400EDB145
:10A3FE00C26D1A16FD79FE02380216DD216B9F0919
:10A40E004E23463ECB2A609F722377237123733EE1
:10A41E0004C3DF203A689FB7C26D1A3A679FFE03E6
:10A42E00D26D1A0E46B728070E563D28020E5E79DB
:10A43E00F53EEDC30722CD0825D832649FCD7F248B
:10A44E007EB7C8FE20C27D24CD8724D832659F08F2
:10A45E00CD7F2408FE26C87EB7C8FE2C2010CD87DF
:10A46E0024D832669FCD7F247EB72002C9F137C92A
:10A47E003A629F3C32629FC923CDFE24D0CD032584
:10A48E003840F5CD3125DA7C247AB720E07EFE29DE
:10A49E0020DB23F1F5FE212005016E9F1807FE2219
:10A4AE00200B016C9F7BFE8030C302F1C9FE24207D
:10A4BE000C016D9F7BFE8130B4ED4418ED016B9F56
:10A4CE0018F27EFE28201223CD3125D87EFE2920BB
:10A4DE009D23ED53699F3E23C9FE22200723226749
:10A4EE009F3E26C9CD3125D8ED53679F3E19C91120
:10A4FE008C19180B11EC19180621879F116F18E58E
:10A50E001ABE2004231318F8E680200E131AE680D4
:10A51E0028FA131AB72808E118E51AE67FD1C9E11F
:10A52E0037C911AA9F0E00CD7325D81213230CCD57
:10A53E007D25380B1213230C79FE07282F18F008EF
:10A54E00AF1208FE48280BE521AA9FCDB302E150B9
:10A55E0059C923E521AA9FCDFC26E1B7C97EFE206D
:10A56E00C02318F97EFE3A3003FE30D037C97EFE86
:10A57E0030D8FE3A3807FE41D8FE4730EFB7C9E56E
:10A58E00D5ED5B609F13132A679FAFED52380D7C9C
:10A59E00B720177DFE803012B7D1E1C97CFEFF20B7
:10A5AE00097DED44FE817D3F18EF3718ECE5D5C5EA
:10A5BE0021879F545D0E20CD6C25CDE125B7280E49
:10A5CE000E0023CD6C25B72803CDE1251B12C1D17A
:10A5DE00E1C906001213B7C8B9C8FE2220060878D2
:10A5EE00EE014708237EB928EBCB4020E7FE20285A
:10A5FE00E918E17EA7C8CD492E2318F77CCD102689
:10A60E007DF51F1F1F1FCD1926F1E60FC630FE3A2E
:10A61E00DA492EC607C3492EAFCD2F2607070707E7
:10A62E00C54FCD382EFE303811FE3A380AFE41386D
:10A63E0009FE473005D607D630B1C1C93E0DCD490A
:10A64E002E3E0AC3492EE5215E26CD0226E1C91B08
:10A65E005B320021879F0628D5E5581D0600CD38B0
:10A66E002EFE0D285AFE0A2856FE08283BFE7F288D
:10A67E0037FE22200AF53A7C9FEE04327C9FF1FED3
:10A68E002038DBFE8030D74F78BB30D20479CD49ED
:10A69E002EFE61380FFE7B300BE5217C9FCB5620C2
:10A6AE0002E6DFE1772318B678A728B2052B3E081D
:10A6BE00CD492E3E20CD492E3E08CD492E189FE580
:10A6CE00217C9FCB4620053E0DCD492ECB4E20053D
:10A6DE003E0ACD492ECB96E13600E1D1C97EFE2051
:10A6EE00C02318F9FE61D8FE7BD0C6E0C90E00115A
:10A6FE0000007EFE30382CFE3A380AFE413824FE29
:10A70E00473020D607D6301717171717CB13CB1293
:10A71E0017CB13CB1217CB13CB1217CB13CB122392
:10A72E000C18CF79B72806FE053002B7C937C9E530
:10A73E00C5215B2706000909018727B7E5ED42E130
:10A74E00300746236668C1E3C9C1E1C97E00872789
:10A75E00492E0226382E432EC9270B2610261926DF
:10A76E0055266726EC264B26F326FC26002936298D
:10A77E00AC295727F008B30231009F3A5A9FB728E9
:10A78E0006215B9FCDB8283A4A9FB72806214B9FDA
:10A79E00CDB8283A4E9FB72806214F9FCDB8283AFC
:10A7AE00569FB7280621579FCDC4283A529FB728E7
:10A7BE000621539FCDC428C38E28AFC9F5ED5F3255
:10A7CE00359FED5732349F22229FED53209FED434C
:10A7DE001E9FE1221C9F08F5D9222A9FED53289F28
:10A7EE00ED43269FE122249FDD222C9FFD222E9FEA
:10A7FE00E12B22329FED73309F31009FAF575F3AAE
:10A80E005A9FB7280911EE28215B9FCDB8283A56DA
:10A81E009FB7280911EE2821579FCDC4283A529F81
:10A82E00B7280911EE2821539FCDC4283A4A9FB765
:10A83E00280911F728214B9FCDB8283A4E9FB728EB
:10A84E000911F728214F9FCDB8287AB3200311E4C0
:10A85E00281AFE54280CEBCD0226CDE317CDCB28BB
:10A86E00181D3A439FFE46280AEBCD0226CDE3176C
:10A87E00CDCB28CD432E2813CD382EFE03200CAF82
:10A88E0032499F676F22459FC32C013A499FB7C239
:10A89E00AF282A459F2B22459F7DB42003C32C0150
:10A8AE002A329F22479FC3DF04E57E234E234602B2
:10A8BE00E1AF2B77C97E234E234602C92A329F224F
:10A8CE00809FCD4609CD0B0921879FCD02262A32C6
:10A8DE009F22809FC9525354203338480D0A00429C
:10A8EE007265616B210D0A005472616365210D0A58
:10A8FE0000F5C5D5E5DDE5E5DDE1EBE52105001962
:10A90E00AF77EBE10101003E0ACD3629F6301B127E
:10A91E000C7CB520F279FE062806DDE5E1EBEDB004
:10A92E00DDE1E1D1C1F1C9C5D54F060FAF291791B0
:10A93E00380D292C1791380C292C10F8C3572929BA
:10A94E00178138F42910F981D1C1C922399FED53ED
:10A95E003B9FAF323D9F323E9F323F9F32409F061C
:10A96E0010213D9FCB2623CB1621399FCB2623CBFF
:10A97E0016213F9FCB1623CB162A3B9F5D542A3FB1
:10A98E009FAFED523002180B223F9F3A3D9FF601CA
:10A99E00323D9F10CC2A3D9FED5B3F9FC9F5C5B759
:10A9AE001804CB21CB101F30F90920F6C1F1C93F95
:10A9BE00203A436F6D6D616E642048656C700D0AB0
:10A9CE00234C7C3C6E756D3E203A4C61756E63680F
:10A9DE002070726F6772616D0D0A415B3C61646439
:10A9EE00726573733E5D203A204D696E6920417326
:10A9FE0073656D626C65206D6F64650D0A425B3127
:10AA0E007C325B2C3C6164723E5D5D203A53657412
:10AA1E00206F72204C69737420427265616B2050F6
:10AA2E006F696E740D0A42435B317C325D203A438E
:10AA3E006C65617220427265616B20506F696E7435
:10AA4E000D0A445B3C6164723E5D203A44756D7044
:10AA5E00204D656D6F72790D0A44495B3C616472DD
:10AA6E003E5D5B2C733C73746570733E7C3C61641D
:10AA7E00723E5D203A446973617373656D626C65F5
:10AA8E000D0A475B3C6164723E5D5B2C3C73746FD8
:10AA9E0070206164723E5D203A476F20616E6420C3
:10AAAE0053746F700D0A4C5B477C3C6F6666736522
:10AABE00743E5D203A4C6F61642048657846696C3F
:10AACE00652028616E6420474F290D0A505B497C32
:10AADE00535D203A536176652048657846696C650A
:10AAEE0028493A496E74656C2C533A4D6F746F72E7
:10AAFE006F6C61290D0A525B3C7265673E5D203AB0
:10AB0E00536574206F722044756D7020726567698D
:10AB1E00737465720D0A535B3C6164723E5D203A3C
:10AB2E00536574204D656D6F72790D0A545B3C61EF
:10AB3E0064723E5D5B2C3C73746570733E7C2D318C
:10AB4E005D203A20547261636520636F6D6D616E96
:10AB5E00640D0A544D5B497C535D203A5472616317
:10AB6E0065204F7074696F6E20666F722043414C82
:10AB7E004C0D0A54505B4F4E7C4F46465D203A5466
:10AB8E0072616365205072696E74204D6F64650D3D
:10AB9E000A000D0A454D555A3830204D4F4E495436
:10ABAE004F52205265762E4230350D0A5468697325
:10ABBE00206D6F6E69746F722069732062617365A8
:10ABCE0064206F6E20756E696D6F6E2E0D0A005DBE
:10ABDE0020004572726F7220696865780D0A004513
:10ABEE0072726F7220737265630D0A004572726F16
:10ABFE00720D0A00203A00207C20002020003A30FE
:10AC0E003030303030303146460D0A005339303353
:10AC1E003030303046430D0A007D2C1D9F01812CB3
:10AC2E001E9F02872C209F028D2C229F02932C1C8C
:10AC3E009F01982C2C9F029D2C2E9F02A22C259FAB
:10AC4E0001A82C269F02AE2C289F02B42C2A9F020C
:10AC5E00BA2C249F01BF2C309F02C42C329F02C9F4
:10AC6E002C349F01CD2C359F0100000000004120A7
:10AC7E003D00204243203D00204445203D00204819
:10AC8E004C203D002046203D002049583D002049E3
:10AC9E00593D000D0A41273D00204243273D00202B
:10ACAE004445273D0020484C273D002046273D00C7
:10ACBE002053503D002050433D0020493D0020527E
:10ACCE003D00410F1B2D0000420F292D0000430FA8
:10ACDE004B2D0000440F592D0000450F7B2D000019
:10ACEE00460F892D0000480F972D0000490FC72DE4
:10ACFE0000004C0FB92D0000500FDB2D000052014B
:10AD0E00359F362E530FE32D0000000000011D9FCE
:10AD1E00EB2D2701259F042E000000011F9FF02D13
:10AD2E002701279F0B2E430F3D2D00000000000230
:10AD3E001E9FED2D2702269F072E000000011E9F4D
:10AD4E00F22D2701269F0E2E00000001219FF72DC8
:10AD5E002701299F152E450F6D2D000000000002C2
:10AD6E00209FF42D2702289F112E00000001209F06
:10AD7E00F92D2701289F182E000000011C9F022E7E
:10AD8E002701249F252E00000001239FFE2D270161
:10AD9E002B9F1F2E4C0FAB2D000000000002229F98
:10ADAE00FB2D27022A9F1B2E00000001229F002E42
:10ADBE0027012A9F222E00000001349F342E5802B4
:10ADCE002C9F282E59022E9F2B2E00004302329FBD
:10ADDE00312E00005002309F2E2E000041004243C3
:10ADEE00004200430044450044004500484C0048E2
:10ADFE00004C0046004127004243270042270043F3
:10AE0E00270044452700442700452700484C2700CB
:10AE1E004827004C2700462700495800495900533F
:10AE2E005000504300490052003A01E0CB4728F948
:10AE3E003A00E0C93A01E0CB47C9F53A01E0CB4F01
:10AE4E0028F9F13200E0C9FFFFFFFFFFFFFFFFFF10
:10AE5E00FFFFFFFFFFFFFFFFFFFFFFFFFFFFFFFFF4
:10AE6E00FFFFFFFFFFFFFFFFFFFFFFFFFFFFFFFFE4
:10AE7E00FFFFFFFFFFFFFFFFFFFFFFFFFFFFFFFFD4
:10AE8E00FFFFFFFFFFFFFFFFFFFFFFFFFFFFFFFFC4
:10AE9E00FFFFFFFFFFFFFFFFFFFFFFFFFFFFFFFFB4
:10AEAE00FFFFFFFFFFFFFFFFFFFFFFFFFFFFFFFFA4
:10AEBE00FFFFFFFFFFFFFFFFFFFFFFFFFFFFFFFF94
:10AECE00FFFFFFFFFFFFFFFFFFFFFFFFFFFFFFFF84
:10AEDE00FFFFFFFFFFFFFFFFFFFFFFFFFFFFFFFF74
:10AEEE00FFFFFFFFFFFFFFFFFFFFFFFFFFFFFFFF64
:10AEFE00FFC3062FC36B2FC30D2FAC37223F214547
:10AF0E0080F9C3374B11D53106632145801A77235B
:10AF1E001305C21C2FF9CDD633CDA23932EF8032B4
:10AF2E003E8121C09E11A181CD6C35DA742F11CED8
:10AF3E00FF22F48019229F80CDB1332A9F8011EF1A
:10AF4E00FF19113E817D936F7C9A67E5218C2FCD81
:10AF5E004040E1CDE346217D2FCD404031AB80CD49
:10AF6E00D633C3EF3221C32FCD4040C37A2F2042B8
:10AF7E007974657320667265650D0A00005A383063
:10AF8E002042415349432056657220342E37620DBC
:10AF9E000A436F70797269676874202843292031DB
:10AFAE00393738206279204D6963726F736F66741A
:10AFBE000D0A00004D656D6F72792073697A6520F8
:10AFCE006E6F7420656E6F7567680D0A5468652024
:10AFDE0073797374656D2069732073746F70706507
:10AFEE00642E0D0A000058451C466E454880003FF1
:10AFFE0085422E3FE247C148FD43304836493C4921
:10B00E009D49B249D9421C4A9680B241CA3F4C4230
:10B01E00C141D2413E4AD14AE24112421C42C54E82
:10B02E0044C64F52CE455854C4415441C94E505552
:10B03E0054C4494DD2454144CC4554C74F544FD2C8
:10B04E00554EC946D24553544F5245C74F5355429C
:10B05E00D2455455524ED2454DD3544F50CF5554E0
:10B06E00CF4ECE554C4CD7414954C44546D04F4B8C
:10B07E0045C44F4B45D3435245454ECC494E45539F
:10B08E00C34C53D749445448CD4F4E49544F52D3D5
:10B09E004554D245534554D052494E54C34F4E5445
:10B0AE00CC495354C34C454152C34C4F4144C353F6
:10B0BE00415645CE4557D4414228D44FC64ED35063
:10B0CE004328D448454ECE4F54D3544550ABADAA29
:10B0DE00AFDEC14E44CF52BEBDBCD3474EC94E5457
:10B0EE00C14253D55352C65245C94E50D04F53D379
:10B0FE005152D24E44CC4F47C55850C34F53D349EB
:10B10E004ED4414EC1544ED045454BC445454BD00F
:10B11E004F494E54CC454ED3545224D6414CC15374
:10B12E0043C3485224C8455824C2494E24CC4546F0
:10B13E005424D24947485424CD49442480443741AD
:10B14E00361C3B9138233A583D523AA8384E383186
:10B15E003820390A373D386C3893384237914202DD
:10B16E003983379742363FE042274A93380D4A01DA
:10B17E004A054A334B99809C8044397037B635EB7B
:10B18E003793389338B03379CA4679FE427C3C44C3
:10B19E007C9D447FEB4750B13C46B03C4E46534EEF
:10B1AE0052474F4446434F564F4D554C42534444DD
:10B1BE002F304944544D4F534C535354434E5546E0
:10B1CE004D4F4858424EC36B2FC3C137D300C9D61B
:10B1DE00006F7CDE006778DE00473E00C90000008D
:10B1EE00354ACA99391C76982295B3980ADD479844
:10B1FE0053D199990A1A9F9865BCCD98D6773E98E7
:10B20E0052C74F80DB00C901FF1C00001400140060
:10B21E0000000000C3E934C30000C30000C30000F7
:10B22E00A281FEFF3F81204572726F720020696E0F
:10B23E0020004F6B0D0A0000427265616B00210405
:10B24E0000397E23FE81C04E234623E569607AB322
:10B25E00EBCA6732EBCD6C35010D00E1C809C35165
:10B26E0032CD8A32C5E3C1CD6C357E02C80B2BC3FD
:10B27E007632E52A1F81060009093EE53ED0956F1C
:10B28E003EFF9CDA99326739E1D81E0CC3B8322AD8
:10B29E000E8122A1801E02011E14011E00011E122B
:10B2AE00011E22011E0A011E18CDD633328A80CD10
:10B2BE00953921AB31573E3FCD7D35197ECD7D354C
:10B2CE00CDFA36CD7D35213532CD40402AA18011C3
:10B2DE00FEFFCD6C35CA0D2F7CA53CC4DB463EC1AE
:10B2EE00AF328A80CD9539214132CD404021FFFFCA
:10B2FE0022A180CDE934DAFC32CDFA363C3DCAFCCF
:10B30E0032F5CDC637D5CD003447D1F1D2DA36D5A8
:10B31E00C5AF321181CDFA36B7F5CD9033DA35336C
:10B32E00F1F5CA6738B7C5D24C33EB2A1B811A0226
:10B33E000313CD6C35C23D336069221B81D1F1CA36
:10B34E0073332A1B81E3C109E5CD7032E1221B81E3
:10B35E00EB74D123237323722311A6801A77231340
:10B36E00B7C26B33CDBC3323EB626B7E23B6CAFC04
:10B37E0032232323AFBE23C28433EB732372C378ED
:10B38E00332AA380444D7E23B62BC823237E236607
:10B39E006FCD6C3560697E23666F3FC83FD0C39317
:10B3AE0033C02AA380AF77237723221B812AA38061
:10B3BE002B2213812AF480220881AFCD0A372A1B53
:10B3CE0081221D81221F81C12A9F80F921F88022AE
:10B3DE00F680AF6F67221981321081222381E5C575
:10B3EE002A1381C93E3FCD7D353E20CD7D35C39399
:10B3FE0080AF32F3800E0511A6807EFE20CA8834FF
:10B40E0047FE22CAA834B7CAAF343AF380B77EC219
:10B41E008834FE3F3E9ECA88347EFE30DA3334FED8
:10B42E003CDA8834D5112C30C5018434C5067F7EB4
:10B43E00FE61DA4C34FE7BD24C34E65F774EEB2362
:10B44E00B6F24E34047EE67FC8B9C24E34EBE51335
:10B45E001AB7FA80344F78FE88C26F34CDFA362B85
:10B46E00237EFE61DA7834E65FB9CA5E34E1C34CFE
:10B47E003448F1EBC9EB79C1D12312130CD63ACA79
:10B48E009634FE49C2993432F380D654C2093447F9
:10B49E007EB7CAAF34B8CA883423120C13C39F3494
:10B4AE0021A5801213121312C93A8980B73E0032B9
:10B4BE008980C2CC3405CAE934CD7D353E052BCA10
:10B4CE00E0347ECD7D35C3F234052BCD7D35C2F211
:10B4DE0034CD7D35CDA239C3E93421A6800601AF26
:10B4EE00328980CDA5354FFE7FCAB8343A8980B7F0
:10B4FE00CA0B353E00CD7D35AF32898079FE07CA45
:10B50E004F35FE03CCA23937C8FE0DCA9D39FE1544
:10B51E00CAE334FE40CAE034FE5FCAD834FE08CA1D
:10B52E00D834FE12C24A35C5D5E53600CD464B217C
:10B53E00A680CD4040E1D1C1C3F234FE20DAF23410
:10B54E0078FE493E07D2643579713211812304CDDC
:10B55E007D35C3F234CD7D353E08C35E357C92C059
:10B56E007D93C97EE3BE23E3CAFA36C3A432F53A0D
:10B57E008A80B7C27540F1C5F5FE20DAA1353A874B
:10B58E0080473AF08004CA9D3505B8CCA2393C32CA
:10B59E00F080F1C1CFC9CDFF49E67FFE0FC03A8AD8
:10B5AE00802F328A80AFC9CDC637C0C1CD9033C58A
:10B5BE00CD0C36E14E23462378B1CAEF32CD153687
:10B5CE00CD2537C5CDA2395E235623E5EBCDE34617
:10B5DE003E20E1CD7D357EB723CAC235F2E235D6A7
:10B5EE007F4F112D301A13B7F2F4350DC2F435E634
:10B5FE007FCD7D351A13B7F2FE35C3E535E52A8DBD
:10B60E0080228B80E1C9E5D52A8B8011FFFFED5A90
:10B61E00228B80D1E1F0E52A8D80228B80CDFF49EF
:10B62E00FE03CA3836E1C315362A8D80228B80C3BD
:10B63E006E2F3E64321081CDA838C1E5CD913822EF
:10B64E000C8121020039CD5132D1C2713609D52B70
:10B65E00562B5E2323E52A0C81CD6C35E1C255367F
:10B66E00D1F9EB0E08CD8132E52A0C81E3E52AA152
:10B67E0080E3CD6A3BCD7235A6CD673BE5CD9545D2
:10B68E00E1C5D5010081515A7EFEAB3E01C2AD36F9
:10B69E00CDFA36CD673BE5CD9545CD4945E1C5D5CE
:10B6AE00F533E52A1381E30681C533CD2537221301
:10B6BE00817EFE3ACADA36B7C2A432237E23B6CAD8
:10B6CE004C37235E2356EB22A180EBCDFA3611BA0E
:10B6DE0036D5C8D680DAA838FE25D2A432074F0652
:10B6EE0000EB214C31094E2346C5EB237EFE3AD0AA
:10B6FE00FE20CAFA36FE303F3C3DC9EB2AA380CA73
:10B70E001F37EBCDC637E5CD90336069D1D26738A0
:10B71E002B222181EBC9DFC8D7FE1B2811FE03287F
:10B72E000DFE13C0D7FE11C8FE03280718F63EFF04
:10B73E00329280C0F6C022138121F6FFC12AA18069
:10B74E00F57DA43CCA5F372217812A138122198105
:10B75E00AF328A80CD9539F1214732C2D832C3EF4C
:10B76E00322A19817CB51E20CAB832EB2A178122E3
:10B77E00A180EBC9CDC842C0328680C9E52A8F8030
:10B78E0006004F09228F80E1C97EFE41D8FE5B3F45
:10B79E00C9CDFA36CD673BCD4945FAC1373A2C8132
:10B7AE00FE90DAF145018090110000E5CDC445E12F
:10B7BE0051C81E08C3B8322B110000CDFA36D0E5A1
:10B7CE00F5219819CD6C35DAA432626B1929192935
:10B7DE00F1D6305F160019EBE1C3CA37CAC033CDBC
:10B7EE00A3372BCDFA36E52AF480CA0E38E1CD7296
:10B7FE00352CD5CDA3372BCDFA36C2A432E3EB7D53
:10B80E00935F7C9A57DA9932E52A1B810128000949
:10B81E00CD6C35D29932EB229F80E122F480E1C3C8
:10B82E00C033CABC33CDC03301BA36C34D380E0354
:10B83E00CD8132C1E5E52AA180E33E8CF533C5CD3D
:10B84E00C637CD9338E52AA180CD6C35E123DC9344
:10B85E0033D4903360692BD81E0EC3B832C016FF96
:10B86E00CD4D32F9FE8C1E04C2B832E122A18023E6
:10B87E007CB5C28B383A1181B7C2EE3221BA36E3AB
:10B88E003EE1013A0E0006007948477EB7C8B8C8B7
:10B89E0023FE22CA9738C39A38CD5D3DCD7235B49A
:10B8AE00D53AF280F5CD793BF1E32213811FCD6CB1
:10B8BE003BCAFB38E52A2981E523235E23562AA3BA
:10B8CE0080CD6C35D2EA382A9F80CD6C35D1D2F23C
:10B8DE0038210481CD6C35D2F2383ED1CDA141EB69
:10B8EE00CDDA3FCDA141E1CDA445E1C9E5CDA145DC
:10B8FE00D1E1C9CDC8427E47FE8CCA1139CD723511
:10B90E00882B4B0D78CAE236CDC737FE2CC0C3123A
:10B91E0039CD793B7EFE88CA2E39CD7235A92BCD15
:10B92E006A3BCD4945CA9338CDFA36DA4E38C3E173
:10B93E00362BCDFA36CAA239C8FEA5CAD539FEA80D
:10B94E00CAD539E5FE2CCABE39FE3BCAF839C1CD7F
:10B95E00793BE53AF280B7C28E39CDEE46CDFE3F49
:10B96E0036202A2981342A29813A87804704CA8AB7
:10B97E0039043AF080863DB8D4A239CD4340AFC4E5
:10B98E004340E1C340393AF080B7C8C3A23936000C
:10B99E0021A5803E0DCD7D353E0ACD7D35AF32F0F1
:10B9AE00803A86803DC8F5AFCD7D35F1C3B3393AC7
:10B9BE008880473AF080B8D4A239D2F839D60ED260
:10B9CE00CC392FC3ED39F5CDC542CD7235292BF1CA
:10B9DE00D6A8E5CAE8393AF0802F83D2F8393C4729
:10B9EE003E20CD7D3505C2F139E1CDFA36C347395A
:10B9FE003F5265646F2066726F6D2073746172744E
:10BA0E000D0A003A1281B7C29E32C121FF39CD40D4
:10BA1E0040C3EF33CDAB3F7EFE223E00328A80C262
:10BA2E003D3ACDFF3FCD72353BE5CD43403EE5CDB2
:10BA3E00F333C1DA4937237EB72BC5CA9038362C7B
:10BA4E00C3573AE52A2181F6AF321281E3C3633A36
:10BA5E00CD72352CCD5D3DE3D57EFE2CCA8B3A3AA8
:10BA6E001281B7C2F83A3E3FCD7D35CDF333D1C109
:10BA7E00DA4937237EB72BC5CA9038D53AF280B74C
:10BA8E00CAB53ACDFA365747FE22CAA93A3A1281BA
:10BA9E00B757CAA63A163A062C2BCD0240EB21C058
:10BAAE003AE3D5C3C338CDFA36CD5046E3CDA145E2
:10BABE00E12BCDFA36CACC3AFE2CC2123AE32BCD8C
:10BACE00FA36C25F3AD13A1281B7EBC22037D5B6F9
:10BADE0021E73AC44040E1C93F457874726120695C
:10BAEE00676E6F7265640D0A00CD9138B7C2113B57
:10BAFE00237E23B61E06CAB832235E2356EB220ED1
:10BB0E0081EBCDFA36FE83C2F83AC38B3A110000B0
:10BB1E00C45D3D221381CD4D32C2AA32F9D57E23AA
:10BB2E00F5D5CD8745E3E5CDF442E1CDA145E1CD97
:10BB3E009845E5CDC445E1C190CD9845CA573BEB3C
:10BB4E0022A1806960C3B636F92A13817EFE2CC20B
:10BB5E00BA36CDFA36CD1F3BCD793BF6373AF28069
:10BB6E008FB7E8C3B632CD7235282B1600D50E012D
:10BB7E00CD8132CDF03B2215812A1581C178FE7818
:10BB8E00D46A3B7E1600D6B3DAB13BFE03D2B13B8C
:10BB9E00FE0117AABA57DAA432220A81CDFA36C3A9
:10BBAE00953B7AB7C2D83C7E220A81D6ACD8FE0726
:10BBBE00D05F3AF2803DB37BCA364107835F219650
:10BBCE0031197856BAD023CD6A3BC501883BC5439F
:10BBDE004ACD7A4558514E234623C52A0A81C37C45
:10BBEE003BAF32F280CDFA361E24CAB832DA504656
:10BBFE00CD9837D2573CFE262012CDFA36FE48CAD3
:10BC0E00934AFE42CA034B1E02CAB832FEACCAF0B9
:10BC1E003BFE2ECA5046FEADCA463CFE22CAFF3F30
:10BC2E00FEAACA383DFEA7CA633FD6B6D2683CCD3F
:10BC3E00753BCD723529C9167DCD7C3B2A1581E524
:10BC4E00CD7245CD6A3BE1C9CD5D3DE5EB22298143
:10BC5E003AF280B7CC8745E1C90600074FC5CDFA49
:10BC6E003679FE31DA8F3CCD753BCD72352CCD6BEE
:10BC7E003BEB2A2981E3E5EBCDC842EBE3C3973CCE
:10BC8E00CD3E3CE311523CD501F52F094E2366699A
:10BC9E00E915FEADC8FE2DC814FE2BC8FEACC82B90
:10BCAE00C9F6AFF5CD6A3BCDAC37F1EBC1E3EBCDC9
:10BCBE008A45F5CDAC37F1C17921213FC2D33CA3E2
:10BCCE004F78A2E9B34F78B2E921EA3C3AF2801FED
:10BCDE007A175F166478BAD0C3D93BEC3C79B71F9C
:10BCEE00C1D1F5CD6C3B212E3DE5CAC445AF32F234
:10BCFE0080D5CD83417E23234E2346D1C5F5CD87F6
:10BD0E0041CD9845F157E17BB2C87AD601D8AFBB89
:10BD1E003CD0151D0ABE2303CA163D3FC354453CF5
:10BD2E008FC1A0C6FF9FC35B45165ACD7C3BCD6A23
:10BD3E003BCDAC377B2F4F7A2FCD213FC1C3883BF4
:10BD4E002BCDFA36C8CD72352C014F3DC5F6AF322C
:10BD5E00F18046CD9837DAA432AF4F32F280CDFA69
:10BD6E0036DA793DCD9837DA863D4FCDFA36DA7A26
:10BD7E003DCD9837D27A3DD624C2953D3C32F280E5
:10BD8E000F814FCDFA363A10813DCA423EF2A53DA3
:10BD9E007ED628CA1A3EAF321081E550592A238129
:10BDAE00CD6C35112581CA8A442A1D81EB2A1B814F
:10BDBE00CD6C35CAD83D799623C2CD3D789623CA2F
:10BDCE000C3E23232323C3BF3DE1E3D5115A3CCDC3
:10BDDE006C35D1CA0F3EE3E5C50106002A1F81E589
:10BDEE0009C1E5CD7032E1221F816069221D812BD0
:10BDFE003600CD6C35C2FE3DD173237223EBE1C903
:10BE0E00322C81214032222981E1C9E52AF180E3D9
:10BE1E0057D5C5CDA037C1F1EBE3E5EB3C577EFE20
:10BE2E002CCA203ECD723529221581E122F1801EC9
:10BE3E0000D511E5F52A1D813E19EB2A1F81EBCDA8
:10BE4E006C35CA7A3E7EB923C25C3E7EB8235E2331
:10BE5E005623C2483E3AF180B7C2AD32F1444DCAC4
:10BE6E008A4496CAD83E1E10C3B832110400F1CAD5
:10BE7E00C137712370234FCD81322323220A817162
:10BE8E00233AF1801779010B00D29D3EC103712335
:10BE9E007023F5E5CD3546EBE1F13DC2953EF54219
:10BEAE004BEB19DA9932CD8A32221F812B3600CD17
:10BEBE006C35C2BB3E03572A0A815EEB2909EB2B78
:10BECE002B73237223F1DAFC3E474F7E2316E15E7D
:10BEDE00235623E3F5CD6C35D2753EE5CD3546D1EF
:10BEEE0019F13D444DC2DD3E2929C109EB2A1581C8
:10BEFE00C92A1F81EB210000393AF280B7CA1C3FD4
:10BF0E00CD8341CD83402A9F80EB2A08817D934FBC
:10BF1E007C9A41501E0021F280730690C360453A10
:10BF2E00F08047AFC3223FCDB93FCDAB3F01913833
:10BF3E00C5D5CD723528CD5D3DE5EB2B562B5EE19B
:10BF4E00CD6A3BCD723529CD7235B4444DE37123A4
:10BF5E0070C3F83FCDB93FD5CD3E3CCD6A3BE35ED5
:10BF6E002356237AB3CAB0327E23666FE52A238125
:10BF7E00E32223812A2781E52A2581E5212581D502
:10BF8E00CDA145E1CD673B2BCDFA36C2A432E122DD
:10BF9E002581E1222781E1222381E1C9E52AA180C1
:10BFAE00237CB5E1C01E16C3B832CD7235A73E80D4
:10BFBE00321081B647CD623DC36A3BCD6A3BCDEEB2
:10BFCE0046CDFE3FCD834101DE41C57E2323E5CD27
:10BFDE005940E14E2346CDF23FE56FCD7641D1C9B2
:10BFEE00CD5940210481E5772323732372E1C92BB8
:10BFFE00062250E50EFF237E0CB7CA1440BACA14AF
:10C00E0040B8C20540FE22CCFA36E323EB79CDF2DE
:10C01E003F1104812AF6802229813E0132F280CD21
:10C02E00A445CD6C3522F680E17EC01E1EC3B8320B
:10C03E0023CDFE3FCD8341CD98451C1DC80ACD7D35
:10C04E0035FE0DCCAC3903C34A40B70EF1F52A9F2D
:10C05E0080EB2A08812F4F06FF0923CD6C35DA7746
:10C06E004022088123EBF1C9F11E1ACAB832BFF57E
:10C07E00015B40C52AF480220881210000E52A9F39
:10C08E0080E521F880EB2AF680EBCD6C35019440EB
:10C09E00C2E8402A1B81EB2A1D81EBCD6C35CABB51
:10C0AE00407E2323B7CDEB40C3A540C1EB2A1F81B1
:10C0BE00EBCD6C35CA1141CD98457BE509B7F2BA87
:10C0CE0040220A81E14E0600090923EB2A0A81EB80
:10C0DE00CD6C35CABB4001DA40C5F6807E23235EA7
:10C0EE00235623F0B7C8444D2A0881CD6C356069BC
:10C0FE00D8E1E3CD6C35E3E56069D0C1F1F1E5D56A
:10C10E00C5C9D1E17DB4C82B462B4EE52B2B6E262F
:10C11E00000950592B444D2A0881CD7332E1712309
:10C12E007069602BC38640C5E52A2981E3CDF03BBB
:10C13E00E3CD6B3B7EE52A2981E5861E1CDAB832FB
:10C14E00CDEF3FD1CD8741E3CD8641E52A0681EB88
:10C15E00CD6D41CD6D4121853BE3E5C32040E1E34B
:10C16E007E23234E23466F2C2DC80A120313C3774A
:10C17E0041CD6B3B2A2981EBCDA141EBC0D5505966
:10C18E001B4E2A0881CD6C35C29F4147092208817A
:10C19E00E1C92AF6802B462B4E2B2BCD6C35C022B7
:10C1AE00F680C901313FC5CD8041AF5732F2807E56
:10C1BE00B7C901313FC5CDB641CAC13723235E236E
:10C1CE00561AC93E01CDEF3FCDCB422A068173C12F
:10C1DE00C32040CD7B42AFE34FE57EB8DAF0417825
:10C1EE00110E00C5CD5940C1E1E5232346236668F3
:10C1FE00060009444DCDF23F6FCD7641D1CD87413A
:10C20E00C32040CD7B42D1D51A90C3E641EB7ECD03
:10C21E0080420405CAC137C51EFFFE29CA3542CD6C
:10C22E0072352CCDC842CD723529F1E301E841C5F6
:10C23E003DBE0600D04F7E91BB47D843C9CDB64117
:10C24E00CA69435F23237E23666FE5194672E3C5F1
:10C25E007EFE24C26A42CD934A180DFE25C2744258
:10C26E00CD034B1803CD5046C1E170C9EBCD7235ED
:10C27E0029C1D1C543C9CDCB42328480CD8380C381
:10C28E00313FCDB542C34B80CDB542F51E002BCD0F
:10C29E00FA36CAAB42CD72352CCDC842C1CD8380A1
:10C2AE00ABA0CAAC42C9CDC842328480324C80CDDC
:10C2BE0072352CC3C842CDFA36CD673BCDA6377A40
:10C2CE00B7C2C1372BCDFA367BC9CDAC371AC331C5
:10C2DE003FCD673BCDAC37D5CD72352CCDC842D1D5
:10C2EE0012C921C747CD9845C30343CD984521C1F7
:10C2FE00D1CD724578B7C83A2C81B7CA8A4590D24B
:10C30E001D432F3CEBCD7A45EBCD8A45C1D1FE19AD
:10C31E00D0F5CDAF4567F1CDC843B4212981F243A5
:10C32E0043CDA843D289432334CAB3322E01CDDE86
:10C33E0043C38943AF90477E9B5F237E9A57237EEC
:10C34E00994FDCB4436863AF4779B7C276434A541A
:10C35E00656F78D608FEE0C25743AF322C81C9050F
:10C36E00297A1757798F4FF26E43785C45B7CA8991
:10C37E0043212C818677D26943C878212C81B7FC62
:10C38E009B4346237EE680A94FC38A451CC014C03A
:10C39E000CC00E8034C0C3B3327E835F237E8A57B7
:10C3AE00237E894FC9212D817E2F77AF6F90477DD8
:10C3BE009B5F7D9A577D994FC90600D608DAD74301
:10C3CE00435A510E00C3CA43C6096FAF2DC8791F19
:10C3DE004F7A1F577B1F5F781F47C3DA4300000059
:10C3EE008103AA561980F122768045AA3882CD495A
:10C3FE0045B7EAC137212C817E01358011F30490B7
:10C40E00F570D5C5CD0343C1D104CD9F4421EC4376
:10C41E00CDFA4221F043CD9148018080110000CD2C
:10C42E000343F1CDC44601318011187221C1D1CD23
:10C43E004945C82E00CD074579323B81EB223C8120
:10C44E000100005058215443E5216044E5E52129BF
:10C45E00817E23B7CA8C44E52E081F6779D27A44B1
:10C46E00E52A3C8119EBE13A3B81891F4F7A1F5730
:10C47E007B1F5F781F472D7CC26944E1C9435A5127
:10C48E004FC9CD7A45012084110000CD8A45C1D116
:10C49E00CD4945CAA7322EFFCD074534342B7E3207
:10C4AE0057802B7E3253802B7E324F8041EBAF4F25
:10C4BE00575F325A80E5C57DCD4E80DE003FD2D724
:10C4CE0044325A80F1F137D2C1E1793C3D1FFA8AEC
:10C4DE0043177B175F7A175779174F297817473A03
:10C4EE005A8017325A8079B2B3C2C444E5212C81E6
:10C4FE0035E1C2C444C3B33278B7CA2B457D212C73
:10C50E0081AE80471FA878F22A45C68077CA8A4432
:10C51E00CDAF45772BC9CD49452FE1B7E1F2694340
:10C52E00C3B332CD954578B7C8C602DAB33247CD1C
:10C53E000343212C8134C0C3B3323A2C81B7C83A9D
:10C54E002B81FE2F179FC03CC9CD4945068811008F
:10C55E0000212C814F70060023368017C35143CD26
:10C56E004945F0212B817EEE8077C9EB2A2981E3A4
:10C57E00E52A2B81E3E5EBC9CD9845EB22298160B5
:10C58E0069222B81EBC92129815E2356234E234636
:10C59E0023C911298106041A77132305C2A645C99A
:10C5AE00212B817E07371F773F1F2323777907378C
:10C5BE001F4F1FAEC978B7CA4945215245E5CD492F
:10C5CE004579C8212B81AE79F8CDDE451FA9C92347
:10C5DE0078BEC02B79BEC02B7ABEC02B7B96C0E135
:10C5EE00E1C9474F575FB7C8E5CD9545CDAF45AECD
:10C5FE0067FC15463E9890CDC8437C17DC9B4306DE
:10C60E0000DCB443E1C91B7AA33CC00BC9212C81C9
:10C61E007EFE983A2981D07ECDF14536987BF5790C
:10C62E0017CD5143F1C921000078B1C83E1029DA67
:10C63E00753EEB29EBD24B4609DA753E3DC23D46BF
:10C64E00C9FE2DF5CA5C46FE2BCA5C462BCD69434E
:10C65E0047575F2F4FCDFA36DAAD46FE2ECA8846C3
:10C66E00FE45C28C46CDFA36CDA03CCDFA36DACF99
:10C67E004614C28C46AF935F0C0CCA6446E57B90A1
:10C68E00F4A546F29B46F5CD9144F13CC28F46D1BE
:10C69E00F1CC7245EBC9C8F5CD3245F13DC9D55740
:10C6AE00788947C5E5D5CD3245F1D630CDC446E1C2
:10C6BE00C1D1C36446CD7A45CD5B45C1D1C30343D9
:10C6CE007B0707830786D6305FC37A46E5213C3267
:10C6DE00CD4040E1EBAF0698CD6045213F40E521CE
:10C6EE002E81E5CD49453620F2FC46362D233630D7
:10C6FE00CAB247E5FC7245AFF5CDB847014391117B
:10C70E00F84FCDC445B7E22947F1CDA646F5C30B88
:10C71E0047CD9144F13CF5CDB847CDF1423CCDF13A
:10C72E0045CD8A45010603F1813CFA4547FE08D204
:10C73E0045473C473E023D3DE1F511CB4705C2560C
:10C74E0047362E2336302305362ECC9F45C5E5D5EC
:10C75E00CD9545E1062F047B965F237A9E5723796C
:10C76E009E4F2B2BD26547CDA84323CD8A45EBE1B7
:10C77E007023C10DC2564705CA96472B7EFE30CA9E
:10C78E008A47FE2EC49F45F1CAB547364523362B40
:10C79E00F2A647362D2F3C062F04D60AD2A847C63E
:10C7AE003A237023772371E1C901749411F723CDD5
:10C7BE00C445B7E1E22047E900000080A0860110E1
:10C7CE002700E803006400000A0000010000217247
:10C7DE0045E3E9CD7A4521C747CD8745C1D1CD493E
:10C7EE004578CA3048F2FB47B7CAA732B7CA6A4380
:10C7FE00D5C579F67FCD9545F21848D5C5CD1C46E1
:10C80E00C1D1F5CDC445E17C1FE1222B81E1222966
:10C81E0081DCDD47CC7245D5C5CDFD43C1D1CD3EC2
:10C82E0044CD7A45013881113BAACD3E443A2C8144
:10C83E00FE88D22545CD1C46C680C602DA2545F5B2
:10C84E0021EC43CDF442CD3544F1C1D1F5CD0043B9
:10C85E00CD7245217048CDA048110000C14AC33E9B
:10C86E004408402E9474704F2E776E02887AE6A09C
:10C87E002A7C50AAAA7EFFFF7F7F000080810000E5
:10C88E000081CD7A45113C44D5E5CD9545CD3E444C
:10C89E00E1CD7A457E23CD874506F1C1D13DC8D580
:10C8AE00C5F5E5CD3E44E1CD9845E5CD0343E1C365
:10C8BE00A948CD4945215E80FA2249217F80CD8746
:10C8CE0045215E80C886E6070600772387874F09D5
:10C8DE00CD9845CD3E443A5D803CE6030600FE0110
:10C8EE0088325D8021264987874F09CDF442CD9548
:10C8FE00457B59EE4F4F36802B463680215C803477
:10C90E007ED6ABC21949770C151CCD5443217F80BE
:10C91E00C3A145772B772B77C3FD4868B14668993D
:10C92E00E9926910D17568218049CDF442CD7A45DE
:10C93E0001498311DB0FCD8A45C1D1CD9F44CD7AFC
:10C94E0045CD1C46C1D1CD0043218449CDFA42CDFF
:10C95E00494537F26C49CDF142CD4945B7F5F472F0
:10C96E0045218449CDF442F1D47245218849C391C1
:10C97E0048DB0F49810000007F05BAD71E8664266A
:10C98E00998758342387E05DA586DA0F4983CD7ADF
:10C99E0045CD3C49C1E1CD7A45EBCD8A45CD3649F1
:10C9AE00C39D44CD4945FCDD47FC72453A2C81FEC2
:10C9BE0081DACF490100815159CD9F4421FA42E5D8
:10C9CE0021D949CD9148218049C9094AD73B7802DE
:10C9DE006E847BFEC12F7C74319A7D843D5A7DC856
:10C9EE007F917EE4BB4C7E6CAAAA7F00000081C9B9
:10C9FE00D7C93E0CCFC9CDC8427B328780C9CD671F
:10CA0E003BCDAC37ED538B80ED538D80C9CDAC371C
:10CA1E00D5E146237EC3223FCD673BCDAC37D5CD86
:10CA2E0072352CCD673BCDAC37E3732372E1C9CDA4
:10CA3E006A3BCDAC37C5212E817AFE00280CCD760F
:10CA4E004A78FE302802702371237BCD764A7AFE17
:10CA5E0000200578FE30280270237123AF772377EC
:10CA6E00C1212E81C3D03F47E60FFE0A3802C6070A
:10CA7E00C6304F780F0F0F0FE60FFE0A3802C607AB
:10CA8E00C63047C9EB210000CDAC4ADACC4A1805B6
:10CA9E00CDAC4A381F29292929B56F18F3131AFE70
:10CAAE0020CAAC4AD630D8FE0A3805D607FE0AD8B8
:10CABE00FE103FC9EB7A4BE5CD213FE1C91E26C3DF
:10CACE00B832CD6A3BCDAC37C5212E810611057823
:10CADE00FE012808CB13CB1230F41804CB13CB1263
:10CAEE003E30CE0077230520F3AF772377C1212E7A
:10CAFE0081C3D03FEB210000CD204BDA2E4BD63038
:10CB0E0029B56FCD204B30F6EB7A4BE5CD213FE1C9
:10CB1E00C9131AFE20CA204BFE30D8FE323FC91E62
:10CB2E0028C3B8320E01F7C93E00329280C3142FCB
:10CB3E00F5A0C1B83E00C9CD7D35C3A239FFFFFFB8
:10CB4E00FFFFFFFFFFFFFFFFFFFFFFFFFFFFFFFFE7
:10CB5E00FFFFFFFFFFFFFFFFFFFFFFFFFFFFFFFFD7
:10CB6E00FFFFFFFFFFFFFFFFFFFFFFFFFFFFFFFFC7
:10CB7E00FFFFFFFFFFFFFFFFFFFFFFFFFFFFFFFFB7
:10CB8E00FFFFFFFFFFFFFFFFFFFFFFFFFFFFFFFFA7
:10CB9E00FFFFFFFFFFFFFFFFFFFFFFFFFFFFFFFF97
:10CBAE00FFFFFFFFFFFFFFFFFFFFFFFFFFFFFFFF87
:10CBBE00FFFFFFFFFFFFFFFFFFFFFFFFFFFFFFFF77
:10CBCE00FFFFFFFFFFFFFFFFFFFFFFFFFFFFFFFF67
:10CBDE00FFFFFFFFFFFFFFFFFFFFFFFFFFFFFFFF57
:10CBEE00FFFFFFFFFFFFFFFFFFFFFFFFFFFFFFFF47
:10CBFE00FFC3064CC3274C31809E21148022008037
:10CC0E00CDB353116C5397CDA55311815397CDA529
:10CC1E005311965397CDA55331809ECDB3531158D2
:10CC2E005397CDA553213B4C2202802100002208B0
:10CC3E00802204803E3ECDA34CD511379DCDDA52D5
:10CC4E00CD7F4D7CB5C1CA384D1B7C121B7D12C5E4
:10CC5E00D57993F5CDF44CD5C27A4CD5CD124DC1C4
:10CC6E002A0080CD1E4D6069220080C12A0080F10D
:10CC7E00E5FE03CA274C856F3E008C6711009DCDE3
:10CC8E003B52D22953220080D1CD294DD1E1CD1E68
:10CC9E004DC3434CCDB55311379DCDC153CAA94C8D
:10CCAE00FE0ACAA94CB7CAA94CFE08CAD34CFE1834
:10CCBE00CAEC4CCDB553CDCA531213FE0DC87BFE34
:10CCCE0087C2A94C7BFE37CAA94C1B3E08CDB55373
:10CCDE003E20CDB5533E08CDB553C3A94CCDB3536D
:10CCEE003E40C3A34C7CB7FA2253111480E52A00B0
:10CCFE00802BCD3B52E1D81A9547131A9CDA134D6F
:10CD0E001BB0C913131AFE0DC2134D13C3FC4CCD29
:10CD1E003B52C81A021303C31E4D7892C2314D798D
:10CD2E0093C81B2B1A77C3294D21864DCD7F4DD528
:10CD3E001A13FE2ECA5C4D23BECA3F4D3E7F1BBE4C
:10CD4E00DA634D23BED2524D23D1C33E4D3E7F23D7
:10CD5E00BED25E4D7E236EE67F67F1E9E3CD7F4D59
:10CD6E00BE23CA7B4DC54E060009C11B1323E3C962
:10CD7E001AFE20C013C37F4D4C495354CF50525509
:10CD8E004ED0CD4E4557CDE3425945CDE04E455898
:10CD9E0054CEA24C4554D09B494E505554D03F4989
:10CDAE0046CF3C474F544FD0BC474F535542CDF220
:10CDBE0052455455524ECE1452454DCF44464F52C5
:10CDCE00CE2F5052494E54CF7D53544F50CDECD0B0
:10CDDE00930E01F7CD0551211480220080CD05510F
:10CDEE00C3274CCDF74ECD0E51D5CDF44CC22353A7
:10CDFE002A0280E52A0480E52100002208803922DB
:10CE0E000480C3DC50CD05512A04807CB5CA1B5367
:10CE1E00F9E1220480E1220280D1CD204FC3EC50F3
:10CE2E00CDF74ECDA6502B220880213E4EC33B4D52
:10CE3E00544FCE45D31BCD0E51220C8021504EC3E4
:10CE4E003B4D53544550CE59CE5FCD0E51C3624E1D
:10CE5E00210100220A802A0280220E80EB221080FD
:10CE6E00010A002A0880EB6068393E097E23B6CAA3
:10CE7E009B4E7E2BBAC27A4E7EBBC27A4EEB2100FF
:10CE8E000039444D210A0019CD294DF92A1080EBA5
:10CE9E00C3EC50CDA652DA1B53220680D5EB2A08DE
:10CEAE00807CB5CA1C53CD3B52CAC54ED1CD204F46
:10CEBE002A0680C3AB4E5E23562A0A80E519EB2A5A
:10CECE0008807323722A0C80F1B7F2DD4EEBCD355C
:10CEDE0052D1DAF14E2A0E802202802A1080EBC344
:10CEEE00EC50CD204FC3EC5021A59DCD2952C13918
:10CEFE00D229532A08807CB5CA1D4F2A1080E52AF4
:10CF0E000E80E52A0C80E52A0A80E52A0880E5C510
:10CF1E00C9C1E12208807CB5CA3A4FE1220A80E1FC
:10CF2E00220C80E1220E80E1221080C5C9CD0E5167
:10CF3E007CB5C2E350210000CD144DD2DC50C32786
:10CF4E004CCDDA52CD0551CDF44CDA274CCD684F8D
:10CF5E00CDC153CDFC4CC3594F1A6F131A67130E24
:10CF6E0004CDF34F3E20CDB55397CDA553C90E0634
:10CF7E00CD6B4D3B06CDB353C3E350CD6B4D0D067C
:10CF8E00CDB353C3D350CD6B4D2307CD0E514DC3EF
:10CF9E00A74FCDC34FC3B84FCD6B4D2C06CDF2501E
:10CFAE00C3954FCDB353C3EC50CD0E51C5CDF34FFA
:10CFBE00C1C3A74FCD6B4D22053E22C3D44FCD6BBF
:10CFCE004D270E3E27CDA553FE0DE1CAD350C3EE1D
:10CFDE004FCD6B4D5F0D3E8DCDB553CDB553E1238A
:10CFEE002323E9C9D5110A00D5420DCD2652F203ED
:10CFFE0050062D0DC5CD095278B1CA1450E32DE55A
:10D00E006069C30450C10D79B7FA23503E20CDB5E7
:10D01E0053C3155078CDB5535D7BFE0AD1C8C630CB
:10D02E00CDB553C328502A0680F9E1220280D1D112
:10D03E00D5CDC34FC34F50CDA652DA8A50C36150DF
:10D04E00D5CDA652DA1B531A4F9712D1CDA55379CF
:10D05E001B12D5EB2A0280E5213F502202802100CF
:10D06E000039220680D53E3ACDA34C11379DCD0E08
:10D07E0051D1EB732372E1220280D1F1CD6B4D2C95
:10D08E005CC33F50CDFB50FE0DCAEC50CDA650CD2B
:10D09E006B4D2C49C39B50CDA652DA1B53E5CD6B7D
:10D0AE004D3D3DCD0E51444DE1712370C9CD0E5114
:10D0BE00D5CD0551CDF44CC22353F1C3DC50CD0573
:10D0CE0051111480210000CDFC4CDA274CEB2202CA
:10D0DE0080EB1313CDC153219B4DC33B4DCDF2506D
:10D0EE00C31B53CD6B4D3B04F1C3E350CD6B4D0DC4
:10D0FE0004F1C3D350C9CD7F4DFE0DC8C31B53CD14
:10D10E006D51E5211751C33B4D3E3DD12F3C3ED1D4
:10D11E00353ED13B3DD14A3C3DD1423CD150D1561A
:10D12E00CD5851D86FC9CD5851C86FC9CD5851C8B7
:10D13E00D86FC9CD58516FC8D86CC9CD5851C06F72
:10D14E00C9CD5851D06FC9E1C979E1C1E5C54FCDFF
:10D15E006D51EBE3CD3552D12100003E01C9CD6BAF
:10D16E004D2D06210000C39151CD6B4D2B00CDA945
:10D17E0051CD6B4D2B07E5CDA951C39851CD6B4DBC
:10D18E002D8DE5CDA951CD2952EBE37CAA7A19D18B
:10D19E00FA8051ACF28051C32253CD4152CD6B4D2A
:10D1AE002A2BE5CD41520600CD2652EBE3CD265279
:10D1BE007CB7CACA517AB2EBC223537D2E00B7CACE
:10D1CE00FB5119DA23533DC2D151C3FB51CD6B4DE7
:10D1DE002F3DE5CD41520600CD2652EBE3CD265232
:10D1EE007AB3CA2353C5CD09526069C1D17CB7FA4F
:10D1FE00225378B7FC2952C3AC51E56C2600CD14EE
:10D20E0052417DE1670EFF0CCD1F52D2165219C945
:10D21E007D936F7C9A67C97CB7F07C2F677D2F6FEB
:10D22E002378EE8047C97CAAF23B52EB7CBAC07DD4
:10D23E00BBC9214652C33B4D524E44D25941425373
:10D24E00D28253495A45D28ED29BCD0D537CB7FA1A
:10D25E002253B5CA2253D5E52A12807CE607671100
:10D26E00004C195E2356221280E1EBC5CD0952C146
:10D27E00D123C9CD0D53CD26527CB4FA2253C92ADF
:10D28E000080D5EB21009DCD1F52D1C9CDA652DA1B
:10D29E0007537E23666FC9CD7F4DD640D8C2CA5282
:10D2AE0013CD0D5329DA2253D5EBCD8E52CD3B52F1
:10D2BE00DA2A5321009DCD1F52D1C9FE1B3FD81330
:10D2CE0021009D07856F3E008C67C921000044CD6B
:10D2DE007F4DFE30D8FE3AD03EF0A4C2225304C594
:10D2EE00444D292909291A13E60F856F3E008C67D4
:10D2FE00C11AFA2253C3E152CDDA5278B7C0CD6BC0
:10D30E004D2809CD0E51CD6B4D2901C9D511605354
:10D31E00C32D53D5115B53C32D53D511665397CDE2
:10D32E00A553D11AF597122A0280E57E23B6D1CAEB
:10D33E00274C7EB7FA3550CD684F1BF1123E3FCDCC
:10D34E00B55397CDA553C3274C4F4B0D484F573F61
:10D35E000D574841543F0D534F5252590D50414CA9
:10D36E004F20414C544F2054494E5920424153496D
:10D37E00430D504F525441424C45205A383020569E
:10D38E00455253494F4E0D5342435A38302045446F
:10D39E004954494F4E0D471A13B8C8CDB553FE0D1B
:10D3AE00C2A653C93E0DCFFE0DC03E0ACDB5533EAB
:10D3BE000DC9DFC8D7FE1BC0C3274CFE61D8FE7B4C
:10D3CE00D0E6DFC9FFFFFFFFFFFFFFFFFFFFFFFFFD
:10D3DE00FFFFFFFFFFFFFFFFFFFFFFFFFFFFFFFF4F
:10D3EE00FFFFFFFFFFFFFFFFFFFFFFFFFFFFFFFF3F
:10D3FE00FFC39E5AC35054C3955AC3D35AC3D55A6A
:10D40E00C3BC55C3A856C3B756C3D456C33A57C3A5
:10D41E003958C34558C36258C39158C38D59C3BABE
:10D42E0059C3D159C35B5AC3665AC3675AC38B5A81
:10D43E00210081227E8022508036FF21B65ACDBC3B
:10D44E005521BF9E22588031008121C480228880C0
:10D45E0021AD5ACDBC55CDDB58D2B454224280CD2D
:10D46E003E56CA9154CDF054FA9154224280232351
:10D47E007EFE20C29754CD2556C29D54237EA7C34F
:10D48E007754CD8B5AC35654CD0555C377542A4283
:10D49E0080227280CDF654FA91540E72CD9B55CAED
:10D4AE007454C37D54227480EB224A80EB7EFE2F8F
:10D4BE00C20B55CDF054CD8B5A7EA7FA5654CDD310
:10D4CE0054C3C55422428056235EE50E05CDD15974
:10D4DE00E123C3BC552A428023237EB7C2E85423DE
:10D4EE00C92A7E802242807EA7F8EB2A4A80EB234F
:10D4FE007E932B7E9AD0CDE454C3F3542A4A807A7D
:10D50E00A7FA9154B3CAC2542A50807E3CC2915499
:10D51E00CDF054FA4A5546236E600E4ACD9B55C245
:10D52E004A55CDE454EB2A4280EB0E50CD9B557EEE
:10D53E00122313C23955EB2B2250802A74801E03FE
:10D54E007EB7CA95551C237EB7C25455572A5080B4
:10D55E0019E5EB2A5880CD3958D291542A5080EBD8
:10D56E00E1225080EB232B7E121B0E42CD9B55C227
:10D57E007555EB2A4A80EB722373EB2A74807E2357
:10D58E001312B7C28D55310081C3655406800ABD92
:10D59E00C0030ABCC92187803600E5210A00CD9957
:10D5AE00587DC630E12B777BB2C2A955C9AF477EF5
:10D5BE0023B8CACA55CD0954C3BE55CD0C54D0CDCF
:10D5CE00D15AFE1BCA9154FE20C0C3D15AFE20CAA6
:10D5DE0025565797324A80324B80237E2B5FE6DFEB
:10D5EE007AC21156FE5DC2FE55CD2E59C33B56FE74
:10D5FE0040C211562322468097110000CD4456C3D7
:10D60E003B56FE22C21D5623CDBD55C33E56FE2FA0
:10D61E00C22956CD8B5A23C33E56227280CD6156F7
:10D62E00CDFE58CDCA552A4A807CB5C02A46807E8A
:10D63E00A7C2DC55C9EB226A80EBCD5859216A800E
:10D64E00C36159D523CD6D56CD4456D1C93E3DC388
:10D65E00285A7E23E6DFCA5C56FE1DC26156CD8F68
:10D66E00567EE6DFCA8956FE09CA8D56FE0CCA5290
:10D67E0056CDB1572A5A80C37056224680C923C947
:10D68E00CDDE58D0FE2DC29F5623CD8F56C3915856
:10D69E00FE2BC2AE5623CD8F567AA7FA9158C9FEED
:10D6AE0023C2BC5623CD8F567AA7C3D357FE25C2AD
:10D6BE00CB5623CD8F56EB2A4E80EBC9FE27C2F2F6
:10D6CE005623CD8F56E5D52A528011093DCD4558AA
:10D6DE0013EB225280EBE15A1600CD45585A160034
:10D6EE00E113C9FE22C2FE561600235E2323C9FE95
:10D6FE0024C235571600CD1057DA2657CD06545F83
:10D70E00C9237ED630DA2457FE0AD8D607FE0ADAA7
:10D71E002457FE10C93FC95FCD1057D0EB292929D8
:10D72E0029EB83C32657FE3FC24457E5CDE15ACDC0
:10D73E006D56E123C9FE28C24D5723C36D56CD97B2
:10D74E0057FE3ACA5E57CD78575E2356C36457CDFF
:10D75E00685716005E2A7080C9CD86573A76808348
:10D76E005F3A77808A57C3AA57FE28C2A157CD8643
:10D77E0057EB29EBC36B57CDA1574E236669227623
:10D78E00802A708023C36D565E237EFE4157F29829
:10D79E0057C916807BE63FC602875F227080EB7CFE
:10D7AE00B5C9D556235ED57BD63DCAC0573DC2C13D
:10D7BE005723CD8F56225A80EBD17AFE3DC2E157C8
:10D7CE00D1CD3958C204587BB7C20458110100F6A6
:10D7DE00FFC9FE3CC20A587BFE3DD1CAF857FE3E39
:10D7EE00C2FE57CDD057C32558CD1C58C32558CD92
:10D7FE003958FADB57110000E600C9FE3EC22A581E
:10D80E007BFE3DD1C21C58CDFE57C32558CD39588D
:10D81E00FA0458CDD3577BEE015FC9D1FE2BC2342B
:10D82E0058EB19EBC9FE2DC240587B955F7A9C5779
:10D83E00C9FE2AC25D58D50E10110000E3CDC8589E
:10D84E00E3D25658EB19EB290DC24B58C1C9FE2F26
:10D85E00C2285A06007CB7C27258B5C27B583E2FFA
:10D86E00C3285AF27B5804EBCD9158EB7AB7F28469
:10D87E005805CD9158CD9958224E802A68803E0089
:10D88E00B8C87A2F577B2F5F13C90E000C29D29B75
:10D89E0058CDC958E5210000E3CD39583FDAB358C9
:10D8AE00EB19EBB7E37D176F7C1767E30DCAC5580D
:10D8BE00CDC858C3A858E1EBC9B77C1F677D1F6F51
:10D8CE00C97EFE3A37F0FE3037F83FC9CD835ACDC8
:10D8DE00D058D8EB2100001AD6304F060009444D1F
:10D8EE0013EBCDD0583FD0EB29290929C3E6582A8E
:10D8FE007280D57EFE40C2495923235ECDA157D1F9
:10D90E00CD3859D5CD3C59E1CDFE57C22959CD2E32
:10D91E005906062188807E9077C906FCC322592EAF
:10D92E0046CD35592E42CD3C59732372C94D2A88A6
:10D93E00805E23562322888069C9FE21C26F59D189
:10D94E00EB224A80EBCDAD57C8214280CD615921E3
:10D95E0046805E23562A88802B722B73228880C9BC
:10D96E00FE3BC27F59D1CDAD57C0310081C3975414
:10D97E00FE3EC28759D1EBE9FE2EC29959D15314FE
:10D98E0015C83E20CD0954C38F59FE26C2B4592363
:10D99E007E2BFE3DC2B459D1CDAD57C02A7E80221A
:10D9AE00508036FFC9FE24C2BE59C17BC30954FE46
:10D9BE003FC2F659237E2BFE28C2505A23CD8F56D6
