:0400000085EF00F098
:10000800F440F440F440F440F4400040F440F4403C
:10001800F440F440F440F440F440F440F440F44038
:10002800F440F440F440F440F440F440F440F44028
:10003800F440F440F440F440F440F440F440F44018
:10004800F440F440F440F440F440F440F440F44008
:10005800F440F440F440F440F440F440F440F440F8
:10006800F440F440F440F440F440F440F440F440E8
:10007800F440F440F440F4404200F440F440F440CA
:10008800F440F440F440F440F440F440F440F440C8
:10009800B640E040F440F4404200F440F440F440FC
:1000A800F440F440F440F440F440F440F440F440A8
:1000B800F440F440F440F440F440F440F440F44098
:1000C800F440F440F440F440F440F440F440F44088
:1000D800F440F440F440F440F440F440F440F44078
:1000E8004200F440F440F440F440F440F440F4405A
:1000F800F440F440F440F440F440F440F440F44058
:06010800FF0097EF81F0FB
:107FFE0000C34000C363270000C34300000000001D
:10800E0000C34B000000000000C35300000000003E
:10801E0000C35B000000000000C90000000000006B
:10802E0000C36B000000000000C3730000000000DE
:10803E0000C37E00220E9F2A009F182E220E9F2A1A
:10804E00029F1826220E9F2A049F181E220E9F2A78
:10805E00069F1816220E9F2A089F180E220E9F2A80
:10806E000A9F1806220E9F2A0C9FE52A0E9FC9F31F
:10807E0031009F21008022109F22179F22159F22E0
:10808E005E9F22609F3E4932199F21252E22009F1E
:10809E0021142E22029F211F2E22049F217D0022B9
:1080AE00069F217D0022089F211A27220A9F21A7C1
:1080BE0027220C9FAF211C9F061A772310FC21C08C
:1080CE009E22309F21008022329F06083E2E217371
:1080DE009F772310FCAF770614214A9FAF772310AA
:1080EE00FC3E4932449F3E4E32439F2E0065224550
:1080FE009FAF32499F210080224C9F22509F2254D5
:10810E009F22589F225C9F7E324B9F324F9F32534D
:10811E009F32579F325B9F217D2BCDDE25AF327C68
:10812E009F21BA2BCDDE25CD3E26CDC826B728ED14
:10813E00FE41CADD19FE44CA3A07FE47CA2214FEA2
:10814E0053CAE914FE4CCA5F15FE50CA6116FE52A0
:10815E00CA3917FE23CA8501FE42CAFC02FE54CA62
:10816E00B103FE3F280821D72BCDDE2518AF219A6B
:10817E0029CDDE2518A723CDC826B728E9FE4C2821
:10818E0025CD970238E079FE11D27501B7CA750177
:10819E003D1716005F21D301195E2356EB5E235661
:1081AE007AB328C2EBE921D3015E235623D5DDE154
:1081BE00DD7E00DDB60128091313EBCDDE25EB18AD
:1081CE00E8C32C01F30107021D023F02630277028E
:1081DE008D028D028D028D028D028D028D028D0219
:1081EE008D028D02002F312E2047424153494320EC
:1081FE0053746172740D0A00032F322E20474241D0
:10820E0053494320526573746172740D0A00004C19
:10821E00332E2050616C6F20416C746F2054696E48
:10822E00792042415349432053746172740D0A0000
:10823E00034C342E2050616C6F20416C746F2054AF
:10824E00696E7920424153494320526573746172BD
:10825E00740D0A000054352E2047414D453830200C
:10826E0053746172740D0A000354362E2047414D2B
:10827E0045383020526573746172740D0A00000027
:10828E00D5E5CD9702E1D1C9AF474FCDC826B7C8C6
:10829E00CDB902D8F508F1CDC802D808E516005FB1
:1082AE00606919444DE1D82318E1B7280AFE30D889
:1082BE00FE3A3003D630C937C9E5C5CB21CB10CB3A
:1082CE0021CB10E109E5C1CB21CB10E1C93A529F78
:1082DE00B728082A549F3E31CD97033A569FB7CA06
:1082EE002C012A589F3E32CD9703C32C0123CDC8B3
:1082FE0026B728D901529FFE31280E01569FFE3215
:10830E002807FE43283EC375010823CDC826B7288B
:10831E005AFE2CC2750123CDC826C5CDD826E1DA6A
:10832E007501CD3A03DA7501C32C017AFE80DA515C
:10833E0003FEE0D251033E0177231A772373237293
:10834E00B7C937C923CDC826B7281401529FFE31AD
:10835E00280801569FFE32C27501AF02C32C01AF31
:10836E0001529F0201569F02C32C010AB7CA2C016B
:10837E00082A549FFE3128032A589FCD9703C32CF9
:10838E000142502800293A00E5F5219003CDDE2563
:10839E00F1CD252E219403CDDE25E1CDE725CD2788
:1083AE0026C9E52E00260022459F2A329F22479F8E
:1083BE00AF32499FE123CDC826CDD826D27704CD42
:1083CE00C8267EB7CAA004FE2CCA8804FE50284ECA
:1083DE00FE4DC2750123CDC826211F04FE4928106B
:1083EE00212504FE532809B7C275013A449F18E9A6
:1083FE0032449FE5211004CDDE25E1CDDE25C32CD0
:10840E0001544D206D6F64653A3C43414C4C200045
:10841E00494E3E0D0A00534B49503E0D0A0023CDE6
:10842E00C826B720053A439F1809FE4FC27501238F
:10843E00CDC826216C04FE4E2808217104FE46C2CA
:10844E00750132439FE5216204CDDE25E1CDDE25A7
:10845E00C32C015450206D6F64653A20004F4E0DB1
:10846E000A004F46460D0A00ED53479FCDC826B76A
:10847E00281FFE2C2803C3750123CDC826B7CA7545
:10848E0001FE2D2811CD9702DA7501ED43459F1897
:10849E001B01010018F523CDC826FE31C27501233C
:1084AE00CDC826B7C275013E0132499F2A479F7E2D
:1084BE00010800215806EDB120130E01CD2106DA78
:1084CE00E0050E02CD0106DAE005C3DD050105006B
:1084DE00216006EDB120190E012A479FCDF405CD7E
:1084EE002E06DAE0050E02CD0606DAE005C3DD053E
:1084FE00010800216506EDB120040E0118130108D4
:10850E0000216D06EDB1201A0E013A449FFE53284C
:10851E0008CD1506DAE0050E02CD0B06DAE005C32E
:10852E00DD05FEC9200B0E01CD2106DAE005C3DD07
:10853E0005010800217506EDB1200B0E01CD0106D7
:10854E00DAE005C3DD05FEED2013237EFE4528048B
:10855E00FE4D20090E01CD2106387618712A479F4F
:10856E007EFEE9200C2A229F0E01CD2E06386218BF
:10857E005DFEDD200B237EFEE920052A2C9F18E8E8
:10858E002A479F7EFEFD200B237EFEE920052A2E24
:10859E009F18D52A479F7EFE18200C0E01CDF4059C
:1085AE00CD2E06382C1827FEC320090E01CD150638
:1085BE00381F181AFECDC27D060E013A449FFE5397
:1085CE002807CD1506380A1805CD0B063803C365E6
:1085DE001421EA05CDDE25C32C01FF41647220452E
:1085EE0052520D0A00235E2316FFCB7B200216008B
:1085FE0019C92A479F180A2A479F18042A479F23FA
:10860E002323CD2E06C92A479F235E2356EBCD2E5C
:10861E0006C9ED5B309F1A6F131A67CD2E06C97C03
:10862E00FE803823FE9F301F79FE01200D114A9FD8
:10863E0012224C9F7E324B9F180B114E9F122250CE
:10864E009F7E324F9FAFC937C9C0C8D0D8E0E8F07F
:10865E00F81020283038C2CAD2DAE2EAF2FAC4CCD4
:10866E00D4DCE4ECF4FCC7CFD7DFE7EFF7FF011261
:10867E0000211607EDB1CAF106010800212807ED09
:10868E00B1CAFC062A479FFECB2857FEDD280AFEFC
:10869E00ED2828FEFD2802183E237EFECB2859FE2B
:1086AE00212855FE222851FE2A284DFE3628490142
:1086BE000A00213007EDB128291832237EFE432807
:1086CE0037FE4B2833FE53282FFE5B282BFE7328D4
:1086DE0027FE7B2823180B0E01CD0106DAE005C319
:1086EE00DD050E01CD0606DAE005C3DD050E01CD72
:1086FE000B06DAE005C3DD050E012A479F23CD0EDA
:10870E0006DAE005C3DD05060E161E262E363EC61B
:10871E00CEDED6E6EEF6FEDBD30111213122322A71
:10872E003A09192939232BE5E1E3F9237EFE49CADB
:10873E004308CDC826CDD8263806ED53109F181005
:10874E00E52A109F0180000922129FE17EB7282B97
:10875E00CDC8267EFE2C280DB7C2750121800019CA
:10876E0022129F181623CDC826CDD826DA7501CD34
:10877E00C826B7C2750113ED53129FCD9007C32CB7
:10878E00012A109F3EF0A56FAF32149FE5CDBD07B5
:10879E00E101100009CD1F2E200E3A149FFE023863
:1087AE00EB2A129F22109FC922109FC3142ECDE7D1
:1087BE0025E521DF2BCDDE25E1DD21879F0610CDBE
:1087CE00F70710FB21E22BCDDE2521879F06107EB9
:1087DE0023FE203809FE7F3005CD252E18053E2EAE
:1087EE00CD252E10EAC327263E20CD252E3A149FE6
:1087FE00B720203A109FBD20063A119FBC280F3E8D
:10880E0020CD252ECD252EDD770023DD23C93E017B
:10881E0032149F3A149FFE0120E57EDD7700CDECE9
:10882E002523DD233A129FBDC03A139FBCC03E02E2
:10883E0032149FC923CDC826CDD8263014CDC826D4
:10884E007EB7201326002E0A7D327F9F227D9F1831
:10885E0033ED53809F18E6FE2CC2750123CDC8263A
:10886E00FE5320123E01327F9F23CD9702DA75010F
:10887E00ED437D9F180ECDD826DA7501ED537D9F01
:10888E00AF327F9FCD1F2E2806CD142EC32C01CDC7
:10889E002209CDE70821879FCDDE253A7F9FB7209D
:1088AE000E2A7D9FED4B809FED4230D8C32C012ABE
:1088BE007D9F2B227D9F7CB520CAC32C0122809FD9
:1088CE00D5CD2209CDE708D121879F012A00EDB031
:1088DE00ED5B809F3A869FC921879FED5B809FCD80
:1088EE00C210CD5211CD521106043A869F4F1A1363
:1088FE00D55FCDCA10CD5211D105280F0D20EFCD69
:10890E005211CD5211CD52110520F4CD5211ED530D
:10891E00809FC93E0132869F112112CDE61021A201
:10892E009FCD12112A809F7E010D00216511EDB1A0
:10893E002012217413CD6810C3E610E6380F0F0F06
:10894E004F0600C9FE0A2819FE1A2823FE02282403
:10895E00FE122829FEF9202A110A2ECD3911C30C38
:10896E001111C92DD5CD3611D1CD2011C312111132
:10897E00D02D18F011C92DCD2811C3011111D02DF4
:10898E0018F5FE40DA290AFE803028FE7620061100
:10899E002412C3E610CD4A09CD651021A29FCD3910
:1089AE0011ED5B809F1AE6074F0600E5CD6510E1DD
:1089BE00C30F11FE883008CDE310CD361118E2FE3C
:1089CE0090300B112D12CDE610CD361118D3FE9826
:1089DE003008113112CDE61018C7FEA0300B11353C
:1089EE0012CDE610CD361118B8FEA8300811391286
:1089FE00CDE61018ACFEB03008113D12CDE61018C1
:108A0E00A0FEB83008114112CDE6101894FEC0D267
:108A1E00A50A114412CDE610188701080021721123
:108A2E00EDB1200EF5114712CDE610F1CD4A09C376
:108A3E00BA09010800217A11EDB1200AF5114B1285
:108A4E00CDE610F118E6010400218211EDB1200FE0
:108A5E00114712CDE610216413CD5C10C312110123
:108A6E000400218611EDB1200F114B12CDE610211D
:108A7E006413CD5C10C31211010400218A11EDB1F3
:108A8E002046CDE31011D72DCD3911E5216413CD3C
:108A9E006810E1C30F11010400218E11EDB1200FFA
:108AAE00114F12CDE610216C13CD5C10C3121101C3
:108ABE000400219211EDB1200F115312CDE61021B9
:108ACE006C13CD5C10C31211FE082817FEE328218B
:108ADE00FEEB202511D02DCD3911CD0C11115812D0
:108AEE00C3E610110212CD3911110512CD0F111856
:108AFE00EC110A2ECD281118E1FEE9200F110D12EE
:108B0E00CDE61011D72DCD1D11C312110108002174
:108B1E005806EDB1200F110912CDE610214C13CDE0
:108B2E005C10C31211010800217506EDB12017115A
:108B3E001D12CDE610792FCB27CB27CB27E6385F3A
:108B4E0021A29FC37110F53E0232869FF1010800EB
:108B5E00211607EDB12016CD4A09CD6510CD39117C
:108B6E00ED5B809F131A5FCDB410C31211010A0082
:108B7E00211E07EDB1C2D00BC5218E13CD6810CDCD
:108B8E00E610C179FE012814B7281AFE073803CD66
:108B9E003611ED5B809F131A5FC37110CD3611CD68
:108BAE00C00BC3121121A29FCDC00BCD5E11C3010C
:108BBE0011CD4911ED5B809F131A5FCDB410C34DDB
:108BCE0011FE1020051113121807FE18200C11109B
:108BDE0012CDE61021A29FC395100104002161065B
:108BEE00EDB12012111012CDE610215C13CD5C10E8
:108BFE00CD5E11C39510F53E0332869FF101040040
:108C0E00212807EDB1C2260C21A213CD6810CD3953
:108C1E0011CD4E0CC37710FE222812FE322814FE00
:108C2E002A2826FE3AC2670CCD36111822CD480CE2
:108C3E00C30C11CD480CC30111CD4E0CC37D10E5F4
:108C4E002A809F235E2356E1C911D72DCD3911CD30
:108C5E004E0CCD8C10C31211FEC32008110D12CD77
:108C6E00E61018ADFECD2008111812CDE61018A191
:108C7E00010800216506EDB12011110D12CDE6108F
:108C8E00214C13CD5C10CD5E111886010800216DAC
:108C9E0006EDB1200511181218E32A809F23F53E28
:108CAE000232869FF1FECBC26F0D7E21A29FFE087F
:108CBE00DAF80CFE10DA010DFE18DA0A0DFE20DAD3
:108CCE00130DFE28DA1C0DFE30DA250DFE38DA49BA
:108CDE000DFE40DA2E0DFE80DA370DFEC0DA400DA5
:108CEE00CD4F0D111713C3E610CD540D119212C3B3
:108CFE00E610CD540D119612C3E610CD540D119AF7
:108D0E0012C3E610CD540D119D12C3E610CD540DB5
:108D1E0011A012C3E610CD540D11A412C3E610CD4E
:108D2E00540D11A812C3E610CD4F0D11AC12C3E6AF
:108D3E0010CD4F0D11B012C3E610111B13C3E61068
:108D4E00F5CD610DF1E6074F0600E5CD6510E1C3E7
:108D5E000F11E6380F0F0F473E30B07723C35E1169
:108D6E00FEDDC2150F11042EED53829F11BE13EDC1
:108D7E0053849F7EFEE3CAC90DFEE9CAB70DFEF904
:108D8E00CAD80D010400213007EDB1CAE10D01046E
:108D9E0000213407EDB1C2F60D21B613CD6810CD0A
:108DAE00E61021A29FC30611ED5B829FD5110D1215
:108DBE00CDE610D1CD1D11C31211115812CDE610F2
:108DCE00110A2ECD2811C30611110A2ECD3911C349
:108DDE000611CDE310ED5B829FCD3911E52A849FFC
:108DEE00CD6810E1C30F11F53E0332869FF1010EDF
:108DFE0000219611EDB1CA350EFE86CA600EFE8EAA
:108E0E00CA6B0EFE9ECA700E01070021A411EDB1B1
:108E1E00C2750E21CE13CD6810CDE610ED5B829F8C
:108E2E0021A29FC32C1079FE07D24D0EED5B829FBF
:108E3E00CD2310E521DC13CD6810E1C30F11D60749
:108E4E004F21DC13CD6810CD3911ED5B829FC32C01
:108E5E0010112912CDE610CD361118EE112D121863
:108E6E00F311351218EEF53E0432869FF1FE21CA3B
:108E7E009B0EFE22CAA80EFE2ACAB10EFE36C2C133
:108E8E000EED5B829FCD23105AC37110ED5B829F56
:108E9E00CD3911CD5110C37710CD5110CD7D10C3EA
:108EAE000611ED5B829FCD3911CD5110CD8C10C3C3
:108EBE001211FECBC2490DCD51107A01070021AB24
:108ECE0011EDB1C2E10E211414CD6810CDE610C320
:108EDE002B0E01180021B211EDB1C2490DFE80DA40
:108EEE00050FFEC0DA0D0F111713CDE61021A29F4C
:108EFE00CD610DC3590E11AC12CDE61018EF11B0A5
:108F0E0012CDE61018E7FEEDC212107E01380021D8
:108F1E00CA11EDB1C2490D79FE06DAF30FFE1BDA66
:108F2E00E50FFE1EDAD20FCAB20FFE1FCABB0FFE2E
:108F3E0020CAC40FFE21CACD0FFE26DAA10FFE2ACB
:108F4E00DA8B0FFE31DA700F118F12CDE61079D653
:108F5E00314F21DC13CD6810CD3911111F13C30F02
:108F6E0011118B12CDE610111F13CD391179D62A9E
:108F7E004FE521DC13CD6810E1C30F11113512CD71
:108F8E00E61011D72DCD391179D6264FE521641370
:108F9E0018E3112D12CDE61011D72DCD391179D63A
:108FAE002218E8CD361111122EC30F11CD36111124
:108FBE00102EC30F1111122ECD3911C30111111024
:108FCE002E18F511B812CDE6103E1D91C63021A215
:108FDE009F7723C31211D6064F060021EA13CD68E0
:108FEE0010C3E6103E0432869FC57921AA13CD68C0
:108FFE0010C179FE03DAB50ED5CD5110CD7D10D14D
:10900E00C30F1111072EED53829F11C613ED53841A
:10901E009FC3820D21A29FCD3210C35E11CD32109F
:10902E00C31211CD4911CD4111CD51107BFE8038A7
:10903E000CED445FCD5A11CDB410C34D11CD561168
:10904E0018F5E52A809F23235E2356E1C9CD6810CB
:10905E0021A29FC34111213C13CB21CB10095E23CA
:10906E0056C9CDB410C31211CDA310C3121121A233
:10907E009FCD4911CDA310CD4D11C35E11CD491118
:10908E00CDA310C34D11E52A809FCDF405EBE1CDA4
:10909E00A310186F7AFEA038043E307723CDC2108D
:1090AE003E48C34F117BFEA038043E307723CDCA15
:1090BE001018ED7ACDD3107ACDD7107BCDD3107B8F
:1090CE00CDD710C90F0F0F0FE60FF630FE3A3870DE
:1090DE00C607186C112912F5C50608219A9F1AB7F2
:1090EE0028067723130518F63E2077230520FBC1AB
:1090FE00F1C911C72D1809ED5B829F180311D72DE9
:10910E00CD41113E0D77233E0A7723AF77C921A2B9
:10911E009FCD4911CD4111182521A29FCD4911CDC9
:10912E004111CD4D11182811C72D21A29FCD4111EE
:10913E00181D1A77B7C8231318F83E2818023E29AF
:10914E007723C93E2018F93E2B18F53E2D18F13E17
:10915E002CCD4F1118ED00070F171F272F373FC9C2
:10916E00D9F3FB040C141C242C343C050D151D25C1
:10917E002D353D031323330B1B2B3B09192939C105
:10918E00D1E1F1C5D5E5F5464E565E666E7E70713F
:10919E00727374757796A6AEB6BE3435060E161E6D
:1091AE00262E3E464E565E666E767E868E969EA621
:1091BE00AEB6BEC6CED6DEE6EEF6FE4048505860DF
:1091CE00687841495159616979425262724A5A6AC4
:1091DE007A474F575F46565E44454D676FA0A1A232
:1091EE00A3A8A9AAABB0B1B2B3B8B9BABB43537373
:1091FE004B5B7B41460041462700524554004A5086
:10920E00004A5200444A4E5A0043414C4C005253BD
:10921E0054004C440048414C5400414444004144E5
:10922E0043005355420053424300414E4400584FB1
:10923E0052004F5200435000494E430044454300F4
:10924E00504F50005055534800455800455858004F
:10925E004E4F5000524C4341005252434100524C2B
:10926E004100525241004441410043504C0053438F
:10927E004600434346004449004549004F555400BB
:10928E00494E00524C430052524300524C0052522F
:10929E0000534C41005352410053524C004249542A
:1092AE0000524553004E454700494D00525244006E
:1092BE00524C44004C44490043504900494E490029
:1092CE004F555449004C44440043504400494E44C9
:1092DE00004F555444004C444952004350495200EB
:1092EE00494E4952004F544952004C444452004397
:1092FE0050445200494E4452004F5444520052457D
:10930E005449005245544E00534554003F3F3F00D0
:10931E002843290028484C29004E5A005A004E4333
:10932E00004300504F0050450050004D00CC2DCE54
:10933E002DD32DD52DDA2DDC2D2313C72D3A133831
:10934E00133513321330132D132B13281330132D03
:10935E00132B1328130A2ED72DD02DC92D0212D759
:10936E002DD02DC92D881285125B12091281127D06
:10937E00127912751271126D12681263125F128BCE
:10938E00128F12441241123D123912311235122D22
:10939E001229120A2ED72DD02DC92D0A2ED02DC945
:1093AE002D0A2ED02DC92D4F1253124B1247120AD1
:1093BE002E042ED02DC92D0A2E072ED02DC92D4BA1
:1093CE00124712441241123D1239123112C72DDCCE
:1093DE002DDA2DD52DD32DCE2DCC2D08130313FE26
:1093EE0012F912F412EF12EA12E512E012DC12D8A0
:1093FE0012D412CF12CB12C712C312BF12BB120D50
:10940E00131213B412A812A412A0129D129A12963D
:10941E00129212ED5B329FED53419F23CDC826CDA4
:10942E00D8263003B7280A7AFEE0D27501ED5341F3
:10943E009FCDC8267EB72818FE2CC2750123CDC835
:10944E0026CDD826DA7501215A9FCD3A03DA750159
:10945E002A419F22329F3A4A9FB7281A2A479F22B3
:10946E00329F214A9F114C9FCDDD14214E9F1150EA
:10947E009FCDDD14181B21529F11549FCDDD142159
:10948E00569F11589FCDDD14215A9F115C9FCDDD43
:10949E00142A309FF92A329FE5DD2A2C9FFD2A2EB1
:1094AE009F2A249FE5ED4B269FED5B289F2A2A9F3E
:1094BE00D9F1082A1C9FE5ED4B1E9FED5B209F2ADC
:1094CE00229F3A349FED473A359FED4FF1C97EB753
:1094DE00C81A4F131A473EFF02C923CDC826CDD84E
:1094EE0026DA7501CDC8267EB7C2750179B720047C
:1094FE00ED5B179FEBCDE725E521E62BCDDE25E1D4
:10950E007EE5CDEC253E20CD252ECD3E26CDC826A2
:10951E007EB72007E12322179F18DAFE2D2007E1E0
:10952E002B22179F18CFFE2E2007E122179FC32C48
:10953E0001CDD826B7E1CA7501732322179FED5BC3
:10954E00549F1A32539FED5B589F1A32579F18A59E
:10955E00AF4F32529F32569F32369F23CDC826FED2
:10956E0047200632369F231803CDD826CDC826B7FE
:10957E00C2750179B720031100003E2ECD252ECDE8
:10958E00142EFE532878FE3A280DFE0D28ECFE0A06
:10959E0028E8CD142E18F3CD03264F47CD032667AA
:1095AE00814FCD03266F814F19CDFE15CD03263287
:1095BE001A9F814F78B72814CD0326F5814F3A1A9A
:1095CE009FB72005F177231801F110ECCD0326810A
:1095DE0020143A1A9FB7CAA115CD27263A369FB73F
:1095EE00280A2A379FE921BD2BCDDE25C32C013A4F
:1095FE00369FFE47C022379F3E0132369FC9CD149B
:10960E002E321A9FCD0326474FCD032667814FCDAD
:10961E0003266F814F19CDFE150505052815CD03BF
:10962E0026F5814F3A1A9FFE312005F17723180156
:10963E00F110EBCD032681FEFF20123A1A9FFE3762
:10964E0028AAFE3828A6FE39288FC3A11521CA2BB9
:10965E001897237EFE492804FE5320042332199FB7
:10966E00CDC826CDD826B7281CD5DDE1CDC8267E9F
:10967E00FE2C201123CDC826CDD826B72807CDC85D
:10968E00267EB72803C37501DDE5E1EB23B7ED5266
:10969E00CDBF167CB520F93A199FFE49200921E964
:1096AE002BCDDE25C32C0121F72BCDDE25C32C01BE
:1096BE000E107CB720057DB930014F0600B7ED4284
:1096CE00413A199FFE4920303E3ACD252E78CDECF9
:1096DE0025487ACDEC257A814F7BCDEC257B814FC9
:1096EE00AFCDEC251AF5CDEC25F1814F1310F579A0
:1096FE00ED44CDEC25C327263E53CD252E3E31CD50
:10970E00252E78C6034FCDEC257ACDEC257A814FE8
:10971E007BCDEC257B814F1AF5CDEC25F1814F13D6
:10972E0010F5792FCDEC25C3272623CDC826B720DB
:10973E0006CDBF17C32C01EB21AD2CBE280D4F2338
:10974E007EB72869790105000918F0237EFE0F20E7
:10975E0009234E236669131A18E1B728504E235E6B
:10976E002356D5237E23666FCDDE253E3DCD252E99
:10977E0079E607FE012008E17EE5CDEC25180CE127
:10978E00E5237ECDEC252B7ECDEC253E20CD252E62
:10979E00C5CD3E26CDC826CDD826B7280DC1E17938
:1097AE00FE012003731803732372C32C01C37501CA
:1097BE0021042C5E2356237AB3CA2726D5EBCDDEA1
:1097CE0025EBD13E2CBA20073E6FBB200218293E56
:1097DE002CBA20053E96BB281F5E2356237E23EB14
:1097EE00FE0120077ECDEC25EB18C8237ECDEC259F
:1097FE002B7ECDEC25EB18BB5E2356231AD5E52127
:10980E00739F013B18114318F5F1CB273006F50A6B
:10981E0077F11804F51A77F1031323F57EB720E9D3
:10982E00F121739FCDDE25E1D1231887535A2E489F
:10983E002E504E432E2E2E2E2E2E2E2E494E495269
:10984E00B9494E4452BB4F555449BD4F544952BE6F
:10985E004F555444BF4F544452C048414C54B352D8
:10986E00455449AF5245544EB0444A4E5AAC43410A
:10987E004C4CAD43504452A84C444952834C444442
:10988E0052855055534888524C43418A5252434157
:10989E008E43504952A64C4449824C444484455808
:1098AE005887504F5089524C418B524C438C5252D8
:1098BE00418F52524390534C4192535241935352C3
:1098CE004C944144449541444396494E43975355D5
:1098DE004298534243994445439A414E449B584FB4
:1098EE00529D43504C9E4E45479F434346A0534383
:1098FE0046A1424954A2534554A3524553A4435042
:10990E0049A5435044A7524554AE525354B14E4FFD
:10991E0050B2494E49B8494E44BA4F5554BC4441D1
:10992E0041C1524C44C2525244C34F5247C445588F
:10993E0086524C8D5252914F529C4350A94A50AA76
:10994E004A52AB494DB6494EB74449B44549B54C58
:10995E0044814442C54457C600284243299A2844AC
:10996E0045299B28484C299C284958299D28495906
:10997E00299E28535029A02843299F4146278341D9
:10998E004682424385444588484C8B49588E4959F6
:10999E008F5350904E5A944E4395504F9750459832
:1099AE0041814284438644874589488A4C8C498D3F
:1099BE0052915A924D935096002849582BA12849FE
:1099CE00592BA22849582DA42849592DA50023CD3D
:1099DE004825B72811CDD826DA7501ED535E9FCDF7
:1099EE004825B7C275012A5E9F22609FAF32629FE3
:1099FE0032649F32659F32669F2A609FCDE7252194
:109A0E00E62BCDDE25217C9FCBCECD3E26E5217CDF
:109A1E009FCB8EE1CD98257EFE1B280DFE2E2809AC
:109A2E00B7C2C71ACD441A18C3CD441A2A609F2252
:109A3E005E9FC32C013E0AC3252E211B13CD441A53
:109A4E00CDDE2521D72BCDDE2518A13A649FFE440D
:109A5E002837FE452838FE46283F3E200E26218711
:109A6E009F77230D20FB3E0D7723AF77CDDE252A82
:109A7E00609F11879FD5CDCC08E1CDDE252A609F52
:109A8E00CDBF1A22609FC3FB19CD441A18EFCDB576
:109A9E001ACDBF1A22129F1808CDB51A23232212EF
:109AAE009FCD900718D7CD441A2A609F22109FC9C8
:109ABE003A639F4FAF4709C9CD2124DA491A3A625A
:109ACE009FFE01CAA220FE02CA2C213A649F010DFC
:109ADE000021F21AEDB1C2491A21FF1A09094E23CB
:109AEE0046C5C901061516192B373C2A2D222423EB
:109AFE00291B471B651BE61BF31B131C1C1C5C1C44
:109B0E00911C991C121D941D1E1EC0C8D0D8E0E8D1
:109B1E00F0F8C6CED6DEE6EEF6FE21191B226F9FBA
:109B2E0021211B22719F183A80889098A0A8B0B866
:109B3E00868E969EA6AEB6BE21371B226F9F213F04
:109B4E001B22719F181C4048505860687078464E12
:109B5E00565E666E767E21551B226F9F215D1B22FF
:109B6E00719F3A659FFE19C2491A2A679F7CB7C238
:109B7E00491A7DFE08D2491A3A669FFE21282CFE0C
:109B8E0024283AFE22283BFE25283FED4B6F9F09E5
:109B9E00563A669F21F11D010800EDB1C2491A79AE
:109BAE00FE0728033E069182C3CD233A6E9F5F16B1
:109BBE00DDED4B719F094B5E3ECBC3F0233A6D9F9B
:109BCE0018EC3A6C9F5F16FD18E73A6B9F18F6EC8F
:109BDE00E4F4D4C4FCCCDC11DE1B180BEAE2F2D2A6
:109BEE00C2FACADA11EB1B213E220108003A659F28
:109BFE00EDB1C2491A3A669FFE19C2491A626B0943
:109C0E007EC3C12111D341ED4B659F180B11DB4073
:109C1E003A659F473A669F4F79FE23281FFE1FC263
:109C2E00491A78FE01280F21DB1D010600CD801C8C
:109C3E00DA491A7A18037AC638C31B242A699F7C1C
:109C4E00B7C2491A7DF57B18251412150621581C2A
:109C5E0001040016203A659FCD801CDA491A3A6637
:109C6E009FFE19C2491ACD6A25DA491AF57AC3E35D
:109C7E0021EDA1280C5F7AC6085779B07B20F23708
:109C8E00C9C9119F423EDE081806118F4A3ECE0802
:109C9E003A659FFE01282AFE0BC2491A3A669FFEBC
:109CAE00052819FE082811FE0B2809FE10C2491AB4
:109CBE003E3018093E2018053E101801AF82C31B16
:109CCE00243A669F21F11D010900EDB1201879FE9D
:109CDE00082810B728057B91C3B5202A679F08571F
:109CEE00C3AE1E7B18F221FA1D010400EDB1C2496C
:109CFE001A216B9F0956790EFDFE0238020EDD1DEC
:109D0E00C3F11E1187093EC6083A669F473A659F02
:109D1E00FE0128ADFE0B2847FE0E2809FE0FC24994
:109D2E001A0EFD18020EDD78FE052819FE082819F8
:109D3E00FE0E2819FE0FCA661DFE10C2491A3E39C4
:109D4E00F579C3E3213E0918F73E1918F379FEDDC4
:109D5E00C2491A3E2918E979FEFDC2491A18F4784B
:109D6E00FE052812FE082813FE0B2814FE10C24909
:109D7E001A3E39C3E71C3E09C3E71C3E19C3E71C54
:109D8E003E29C3E71C3A669F473A659FFE02282686
:109D9E00FE08282CFE20C2491A781EE3FE0B28135B
:109DAE00FE0E16DD2807FE0FC2491A16FD7BF57A48
:109DBE00C3E3217B181278FE03C2491A3E08180825
:109DCE0078FE0BC2491A3EEBC3B520010406070903
:109DDE000A0C05080B0E0F212422250D10111A1B3B
:109DEE001C2301040607090A0C1C19212422251A1A
:109DFE001B0D112368605850484078661E771E7CF4
:109E0E001E801E851E8A1E981E9D1EA51EAA1E3A07
:109E1E00659F21DA1D010700EDB1C2BC1E21031E94
:109E2E0009563A669F21F11D010800EDB1200C790B
:109E3E00FE0728033E0691B2C3B52021F91D010A83
:109E4E0000EDB1C2491A79FE0530067AFE78C24994
:109E5E001A210A1EC3EB1A3E3A2A609F7723ED5B46
:109E6E00699F732372C3CD213E5FC31B243E5718D7
:109E7E00F93E1AC3B5203E0AC3B5203A6B9F4F1E5A
:109E8E00FD3E06B2577BC3D8223A6C9F18F03A6D4E
:109E9E009F4F1EDD18EB3A6E9F18F67AD63A572A68
:109EAE00679F7CB7C2491A7DF57AC3E3210105008D
:109EBE00EDB1207479B7286CFE01284EFE022835CC
:109ECE00FE03282916ED1E4B0E013A669FFE192839
:109EDE000A7B21699F4E235EC3F02321679F5E2379
:109EEE0056792A609F7123732372C3CD2116ED1EFE
:109EFE005B0E1118D50E21ED5B679F3A669FFE191A
:109F0E0028E00E2AED5B699F18D816DD0E21216719
:109F1E009F3A669FFE1928050E2A21699F794E23C6
:109F2E005EC3F02316FD18E4010400EDB1203F21BD
:109F3E006B9F0956791EFDFE0238021EDD3A669FA2
:109F4E00FE19281A21DA1D010700EDB1C2491A794E
:109F5E00FE063E7728033E75914B5FC3F11E2A67BE
:109F6E009F7CB7C2491A3E364A535DC3F0230107A0
:109F7E0000EDB1C2491A218B1FC3EB1AA71FDC1FBC
:109F8E0049204D2052200B205720010B0508100EA2
:109F9E000F222273534322323A669F21991F0107E3
:109FAE0000EDB1C2491A21A01F09794E2A699FFE00
:109FBE000538055D54C3F11EFE02380816ED794DC5
:109FCE005CC3F02316FDB728F516DD18F13A669F2F
:109FDE00FE192819FE01281121DB1D010600EDB125
:109FEE00C2491A3E7591C3B5203E7718F92A679F6C
:109FFE007CB7C2491A7DF53E36C3E3213A669FFE11
:10A00E000B281DFE0E281DFE0F281DFE192822FEF0
:10A01E0023C2491A16ED3E7B2A699F4D5CC3F0237D
:10A02E003EF9181C16DD180216FD3EF9F57AC3E34B
:10A03E00210E31ED5B679FC3F11E3E1218023E02E8
:10A04E00C3B5203E4FC31B243E47C31B24070A0B38
:10A05E000E0F1E20212E323334354127FBF37600AE
:10A06E00C9373F2F1F0F1707D9272825263A3B3808
:10A07E0039040502031F403E3F3D2F304243676FB8
:10A08E00454DA3ABB3BB44B0A0B8A8B2A2BAAAB117
:10A09E00A1B9A93A649F010E00215C20EDB1C2C1A5
:10A0AE0020216A20097E2A609F773E0132639FC37A
:10A0BE005A1A011500217820EDB1C2491A2A609F63
:10A0CE003EED7723EB218D20097E123E0218DD082E
:10A0DE0009171A181B1C1D292A2E312B2C2D0C107A
:10A0EE000D1112131436444546402155218E21FF81
:10A0FE002399239E23A323A823AD23B223B723B7EB
:10A10E0021D221ED2100222A224E2288228C229059
:10A11E0022942298221A231F23612365233A649FD7
:10A12E00011A0021DE20EDB1C2491A21F820C3EB3D
:10A13E001A3A659FFE19C2491A2A609FED4B679F16
:10A14E00712370C3DA203A659FFE192820FE26C2BD
:10A15E00491A2A679FAF4FED5B609F7EFE2228094A
:10A16E00B728061223130C18F279C3BB20ED4B67E8
:10A17E009F78B7C2491A2A609F713E01C3BB203A2D
:10A18E00659FFE19C2491AAF2A679F010080ED42F2
:10A19E00DA491A0100A02A679FED42D2491A2A67AE
:10A1AE009F22609FAFC3BB203A659FFE19C2491A1A
:10A1BE003ECD2A609F7723ED5B679F7323723E032C
:10A1CE00C3BB203A659FFE19C2491ACD6A25DA49EA
:10A1DE001AF53E102A609F7723F177C3DA203A658D
:10A1EE009FFE19C2491ACD6A25DA491AF53E18188A
:10A1FE00E32A679F7CB7C2491A7D211A2201080003
:10A20E00EDB1C2491A212222C3B320000810182032
:10A21E00283038FFF7EFE7DFD7CFC73A659F213EEB
:10A22E0022010800EDB1C2491A214622C3B320060D
:10A23E0012131415161718E8E0F0D0C0F8C8D83A63
:10A24E00659FFE1928212EE9FE1C2817FE1D280CDD
:10A25E00FE1EC2491A7DF53EFDC3E3217DF53EDDAE
:10A26E00C3E3217DC3B5203EC3C3C1210606060646
:10A27E0046060504030201000716B8180E16A818A4
:10A28E000A16B0180616A0180216903A659F21F10C
:10A29E001D010D00EDB1C2491A217B22097EB25774
:10A2AE0079FE05DAB9227AC3B520FE04380E2A6784
:10A2BE009F7CB7C2491A7DF57AC3E321FE023EFDAB
:10A2CE0038023EDD216B9F094E2A609F777A2377F5
:10A2DE002371C3CD21010405060708090A0B0C10D2
:10A2EE001C0E0F21242225353535352B2B353B2DD4
:10A2FE002B251D1B150D0B053D343434342323340F
:10A30E00332C23241C13140C03043C11F6221803C3
:10A31E001108233A659F21E422011200EDB1626B10
:10A32E00C2491A7916FDFE06D2B320097E5F79FE68
:10A33E00043808280216DD7BC3C622FE0238021638
:10A34E00DD7A53C3D3220205080B0E0FE0E0E0D0F6
:10A35E00C0F01601180216052155230106003A65B4
:10A36E009FEDB1C2491A215B23097EB25779FE02D5
:10A37E007AD2B5201EFD79B728021EDD7AF57BC391
:10A38E00E3210605040302010007113E38181C11D3
:10A39E002E2818171126201812111E18180D111616
:10A3AE00101808110E0818031106003A659F21F1C6
:10A3BE001D010800EDB1200C219123097EB2F53E5E
:10A3CE00CBC3E32121FA1D010400EDB1C2491A16D7
:10A3DE00FD79FE02380216DD216B9F094E23463EA3
:10A3EE00CB2A609F722377237123733E04C3BB2055
:10A3FE003A689FB7C2491A3A679FFE03D2491A0EAE
:10A40E0046B728070E563D28020E5E79F53EEDC37F
:10A41E00E321CDE424D832649FCD5B247EB7C8FE01
:10A42E0020C25924CD6324D832659F08CD5B240801
:10A43E00FE26C87EB7C8FE2C2010CD6324D8326607
:10A44E009FCD5B247EB72002C9F137C93A629F3C8B
:10A45E0032629FC923CDDA24D0CDDF243840F5CD2A
:10A46E000D25DA58247AB720E07EFE2920DB23F171
:10A47E00F5FE212005016E9F1807FE22200B016CB0
:10A48E009F7BFE8030C302F1C9FE24200C016D9F1C
:10A49E007BFE8130B4ED4418ED016B9F18F27EFE09
:10A4AE0028201223CD0D25D87EFE29209D23ED5385
:10A4BE00699F3E23C9FE2220072322679F3E26C99D
:10A4CE00CD0D25D8ED53679F3E19C9116819180B8C
:10A4DE0011C819180621879F114B18E51ABE2004C2
:10A4EE00231318F8E680200E131AE68028FA131AA2
:10A4FE00B72808E118E51AE67FD1C9E137C911AAD4
:10A50E009F0E00CD4F25D81213230CCD5925380B95
:10A51E001213230C79FE07282F18F008AF1208FE2D
:10A52E0048280BE521AA9FCD8F02E15059C923E59A
:10A53E0021AA9FCDD826E1B7C97EFE20C02318F9E7
:10A54E007EFE3A3003FE30D037C97EFE30D8FE3A5A
:10A55E003807FE41D8FE4730EFB7C9E5D5ED5B6051
:10A56E009F13132A679FAFED52380D7CB720177DCE
:10A57E00FE803012B7D1E1C97CFEFF20097DED448B
:10A58E00FE817D3F18EF3718ECE5D5C521879F5426
:10A59E005D0E20CD4825CDBD25B7280E0E0023CD4E
:10A5AE004825B72803CDBD251B12C1D1E1C9060030
:10A5BE001213B7C8B9C8FE2220060878EE01470864
:10A5CE00237EB928EBCB4020E7FE2028E918E17E58
:10A5DE00A7C8CD252E2318F77CCDEC257DF51F1FA2
:10A5EE001F1FCDF525F1E60FC630FE3ADA252EC631
:10A5FE0007C3252EAFCD0B2607070707C54FCD1472
:10A60E002EFE303811FE3A380AFE413809FE473028
:10A61E0005D607D630B1C1C93E0DCD252E3E0AC393
:10A62E00252EE5213A26CDDE25E1C91B5B32002120
:10A63E00879F0628D5E5581D0600CD142EFE0D2841
:10A64E005AFE0A2856FE08283BFE7F2837FE222097
:10A65E000AF53A7C9FEE04327C9FF1FE2038DBFE39
:10A66E008030D74F78BB30D20479CD252EFE61389D
:10A67E000FFE7B300BE5217C9FCB562002E6DFE1FF
:10A68E00772318B678A728B2052B3E08CD252E3E87
:10A69E0020CD252E3E08CD252E189FE5217C9FCB63
:10A6AE004620053E0DCD252ECB4E20053E0ACD254E
:10A6BE002ECB96E13600E1D1C97EFE20C02318F9DB
:10A6CE00FE61D8FE7BD0C6E0C90E001100007EFEF2
:10A6DE0030382CFE3A380AFE413824FE473020D658
:10A6EE0007D6301717171717CB13CB1217CB13CB61
:10A6FE001217CB13CB1217CB13CB12230C18CF7907
:10A70E00B72806FE053002B7C937C9E5C521372778
:10A71E0006000909016327B7E5ED42E1300746233C
:10A72E006668C1E3C9C1E1C97E006327252EDE2517
:10A73E00142E1F2EA527E725EC25F52531264326B9
:10A74E00C8262726CF26D826DC2812298829332783
:10A75E00CC088F0231009F3A5A9FB72806215B9F83
:10A76E00CD94283A4A9FB72806214B9FCD94283A7C
:10A77E004E9FB72806214F9FCD94283A569FB72853
:10A78E000621579FCDA0283A529FB7280621539FE6
:10A79E00CDA028C36A28AFC9F5ED5F32359FED57BE
:10A7AE0032349F22229FED53209FED431E9FE122C4
:10A7BE001C9F08F5D9222A9FED53289FED43269F13
:10A7CE00E122249FDD222C9FFD222E9FE12B22329F
:10A7DE009FED73309F31009FAF575F3A5A9FB72856
:10A7EE000911CA28215B9FCD94283A569FB7280994
:10A7FE0011CA2821579FCDA0283A529FB728091178
:10A80E00CA2821539FCDA0283A4A9FB7280911D3B1
:10A81E0028214B9FCD94283A4E9FB7280911D32853
:10A82E00214F9FCD94287AB3200311C0281AFE54CD
:10A83E00280CEBCDDE25CDBF17CDA728181D3A432A
:10A84E009FFE46280AEBCDDE25CDBF17CDA728CD1E
:10A85E001F2E2813CD142EFE03200CAF32499F67F6
:10A86E006F22459FC32C013A499FB7C28B282A45B8
:10A87E009F2B22459F7DB42003C32C012A329F2299
:10A88E00479FC3BB04E57E234E234602E1AF2B77E1
:10A89E00C97E234E234602C92A329F22809FCD2293
:10A8AE0009CDE70821879FCDDE252A329F22809F82
:10A8BE00C9525354203338480D0A00427265616BF9
:10A8CE00210D0A005472616365210D0A00F5C5D58C
:10A8DE00E5DDE5E5DDE1EBE521050019AF77EBE11F
:10A8EE000101003E0ACD1229F6301B120C7CB52058
:10A8FE00F279FE062806DDE5E1EBEDB0DDE1E1D112
:10A90E00C1F1C9C5D54F060FAF291791380D292CA6
:10A91E001791380C292C10F8C3332929178138F4D4
:10A92E002910F981D1C1C922399FED533B9FAF3216
:10A93E003D9F323E9F323F9F32409F0610213D9FEA
:10A94E00CB2623CB1621399FCB2623CB16213F9F17
:10A95E00CB1623CB162A3B9F5D542A3F9FAFED5259
:10A96E003002180B223F9F3A3D9FF601323D9F1059
:10A97E00CC2A3D9FED5B3F9FC9F5C5B71804CB218F
:10A98E00CB101F30F90920F6C1F1C93F203A436FB1
:10A99E006D6D616E642048656C700D0A234C7C3CB5
:10A9AE006E756D3E203A4C61756E63682070726FE5
:10A9BE006772616D0D0A415B3C616464726573730D
:10A9CE003E5D203A204D696E6920417373656D625C
:10A9DE006C65206D6F64650D0A425B317C325B2CB9
:10A9EE003C6164723E5D5D203A536574206F722047
:10A9FE004C69737420427265616B20506F696E747E
:10AA0E000D0A42435B317C325D203A436C656172C4
:10AA1E0020427265616B20506F696E740D0A445B43
:10AA2E003C6164723E5D203A44756D70204D656DDB
:10AA3E006F72790D0A44495B3C6164723E5D5B2C1A
:10AA4E00733C73746570733E7C3C6164723E5D2032
:10AA5E003A446973617373656D626C650D0A475B89
:10AA6E003C6164723E5D5B2C3C73746F702061645C
:10AA7E00723E5D203A476F20616E642053746F7092
:10AA8E000D0A4C5B477C3C6F66667365743E5D20B9
:10AA9E003A4C6F61642048657846696C6520286180
:10AAAE006E6420474F290D0A505B497C535D203A56
:10AABE00536176652048657846696C6528493A4940
:10AACE006E74656C2C533A4D6F746F726F6C612996
:10AADE000D0A525B3C7265673E5D203A53657420E9
:10AAEE006F722044756D702072656769737465723C
:10AAFE000D0A535B3C6164723E5D203A53657420CF
:10AB0E004D656D6F72790D0A545B3C6164723E5DEA
:10AB1E005B2C3C73746570733E7C2D315D203A2046
:10AB2E00547261636520636F6D6D616E640D0A54BE
:10AB3E004D5B497C535D203A5472616365204F70C2
:10AB4E0074696F6E20666F722043414C4C0D0A542F
:10AB5E00505B4F4E7C4F46465D203A5472616365A2
:10AB6E00205072696E74204D6F64650D0A000D0AD7
:10AB7E00454D555A3830204D4F4E49544F52205264
:10AB8E0065762E4230340D0A54686973206D6F6EEF
:10AB9E0069746F72206973206261736564206F6ED1
:10ABAE0020756E696D6F6E2E0D0A005D2000457268
:10ABBE00726F7220696865780D0A004572726F7245
:10ABCE0020737265630D0A004572726F720D0A0072
:10ABDE00203A00207C20002020003A3030303030E7
:10ABEE0030303146460D0A00533930333030303074
:10ABFE0046430D0A00592C1D9F015D2C1E9F0263BA
:10AC0E002C209F02692C229F026F2C1C9F01742CFA
:10AC1E002C9F02792C2E9F027E2C259F01842C26A0
:10AC2E009F028A2C289F02902C2A9F02962C249FEA
:10AC3E00019B2C309F02A02C329F02A52C349F0129
:10AC4E00A92C359F01000000000041203D0020424C
:10AC5E0043203D00204445203D0020484C203D002F
:10AC6E002046203D002049583D002049593D000D09
:10AC7E000A41273D00204243273D00204445273D01
:10AC8E000020484C273D002046273D002053503DD4
:10AC9E00002050433D0020493D0020523D00410F11
:10ACAE00F72C0000420F052D0000430F272D00004A
:10ACBE00440F352D0000450F572D0000460F652D12
:10ACCE000000480F732D0000490FA32D00004C0FFC
:10ACDE00952D0000500FB72D00005201359F122EFA
:10ACEE00530FBF2D0000000000011D9FC72D27012F
:10ACFE00259FE02D000000011F9FCC2D2701279FCF
:10AD0E00E72D430F192D0000000000021E9FC92DD4
:10AD1E002702269FE32D000000011E9FCE2D270146
:10AD2E00269FEA2D00000001219FD32D2701299F88
:10AD3E00F12D450F492D000000000002209FD02D5F
:10AD4E002702289FED2D00000001209FD52D270101
:10AD5E00289FF42D000000011C9FDE2D2701249F4B
:10AD6E00012E00000001239FDA2D27012B9FFB2DC2
:10AD7E004C0F872D000000000002229FD72D2702C6
:10AD8E002A9FF72D00000001229FDC2D27012A9F0C
:10AD9E00FE2D00000001349F102E58022C9F042E11
:10ADAE0059022E9F072E00004302329F0D2E0000E7
:10ADBE005002309F0A2E00004100424300420043E1
:10ADCE000044450044004500484C0048004C0046F5
:10ADDE0000412700424327004227004327004445F5
:10ADEE002700442700452700484C27004827004CE1
:10ADFE002700462700495800495900535000504338
:10AE0E0000490052003A01E0CB4728F93A00E0C968
:10AE1E003A01E0CB47C9F53A01E0CB4F28F9F132C0
:10AE2E0000E0C9FFFFFFFFFFFFFFFFFFFFFFFFFF78
:10AE3E00FFFFFFFFFFFFFFFFFFFFFFFFFFFFFFFF14
:10AE4E00FFFFFFFFFFFFFFFFFFFFFFFFFFFFFFFF04
:10AE5E00FFFFFFFFFFFFFFFFFFFFFFFFFFFFFFFFF4
:10AE6E00FFFFFFFFFFFFFFFFFFFFFFFFFFFFFFFFE4
:10AE7E00FFFFFFFFFFFFFFFFFFFFFFFFFFFFFFFFD4
:10AE8E00FFFFFFFFFFFFFFFFFFFFFFFFFFFFFFFFC4
:10AE9E00FFFFFFFFFFFFFFFFFFFFFFFFFFFFFFFFB4
:10AEAE00FFFFFFFFFFFFFFFFFFFFFFFFFFFFFFFFA4
:10AEBE00FFFFFFFFFFFFFFFFFFFFFFFFFFFFFFFF94
:10AECE00FFFFFFFFFFFFFFFFFFFFFFFFFFFFFFFF84
:10AEDE00FFFFFFFFFFFFFFFFFFFFFFFFFFFFFFFF74
:10AEEE00FFFFFFFFFFFFFFFFFFFFFFFFFFFFFFFF64
:10AEFE00FFC3062FC36B2FC30D2FAC37223F214547
:10AF0E0080F9C3374B11D53106632145801A77235B
:10AF1E001305C21C2FF9CDD633CDA23932EF8032B4
:10AF2E003E8121C09E11A181CD6C35DA742F11CED8
:10AF3E00FF22F48019229F80CDB1332A9F8011EF1A
:10AF4E00FF19113E817D936F7C9A67E5218C2FCD81
:10AF5E004040E1CDE346217D2FCD404031AB80CD49
:10AF6E00D633C3EF3221C32FCD4040C37A2F2042B8
:10AF7E007974657320667265650D0A00005A383063
:10AF8E002042415349432056657220342E37620DBC
:10AF9E000A436F70797269676874202843292031DB
:10AFAE00393738206279204D6963726F736F66741A
:10AFBE000D0A00004D656D6F72792073697A6520F8
:10AFCE006E6F7420656E6F7567680D0A5468652024
:10AFDE0073797374656D2069732073746F70706507
:10AFEE00642E0D0A000058451C466E454880003FF1
:10AFFE0085422E3FE247C148FD43304836493C4921
:10B00E009D49B249D9421C4A9680B241CA3F4C4230
:10B01E00C141D2413E4AD14AE24112421C42C54E82
:10B02E0044C64F52CE455854C4415441C94E505552
:10B03E0054C4494DD2454144CC4554C74F544FD2C8
:10B04E00554EC946D24553544F5245C74F5355429C
:10B05E00D2455455524ED2454DD3544F50CF5554E0
:10B06E00CF4ECE554C4CD7414954C44546D04F4B8C
:10B07E0045C44F4B45D3435245454ECC494E45539F
:10B08E00C34C53D749445448CD4F4E49544F52D3D5
:10B09E004554D245534554D052494E54C34F4E5445
:10B0AE00CC495354C34C454152C34C4F4144C353F6
:10B0BE00415645CE4557D4414228D44FC64ED35063
:10B0CE004328D448454ECE4F54D3544550ABADAA29
:10B0DE00AFDEC14E44CF52BEBDBCD3474EC94E5457
:10B0EE00C14253D55352C65245C94E50D04F53D379
:10B0FE005152D24E44CC4F47C55850C34F53D349EB
:10B10E004ED4414EC1544ED045454BC445454BD00F
:10B11E004F494E54CC454ED3545224D6414CC15374
:10B12E0043C3485224C8455824C2494E24CC4546F0
:10B13E005424D24947485424CD49442480443741AD
:10B14E00361C3B9138233A583D523AA8384E383186
:10B15E003820390A373D386C3893384237914202DD
:10B16E003983379742363FE042274A93380D4A01DA
:10B17E004A054A334B99809C8044397037B635EB7B
:10B18E003793389338B03379CA4679FE427C3C44C3
:10B19E007C9D447FEB4750B13C46B03C4E46534EEF
:10B1AE0052474F4446434F564F4D554C42534444DD
:10B1BE002F304944544D4F534C535354434E5546E0
:10B1CE004D4F4858424EC36B2FC3C137D300C9D61B
:10B1DE00006F7CDE006778DE00473E00C90000008D
:10B1EE00354ACA99391C76982295B3980ADD479844
:10B1FE0053D199990A1A9F9865BCCD98D6773E98E7
:10B20E0052C74F80DB00C901FF1C00001400140060
:10B21E0000000000C3E934C30000C30000C30000F7
:10B22E00A281FEFF3F81204572726F720020696E0F
:10B23E0020004F6B0D0A0000427265616B00210405
:10B24E0000397E23FE81C04E234623E569607AB322
:10B25E00EBCA6732EBCD6C35010D00E1C809C35165
:10B26E0032CD8A32C5E3C1CD6C357E02C80B2BC3FD
:10B27E007632E52A1F81060009093EE53ED0956F1C
:10B28E003EFF9CDA99326739E1D81E0CC3B8322AD8
:10B29E000E8122A1801E02011E14011E00011E122B
:10B2AE00011E22011E0A011E18CDD633328A80CD10
:10B2BE00953921AB31573E3FCD7D35197ECD7D354C
:10B2CE00CDFA36CD7D35213532CD40402AA18011C3
:10B2DE00FEFFCD6C35CA0D2F7CA53CC4DB463EC1AE
:10B2EE00AF328A80CD9539214132CD404021FFFFCA
:10B2FE0022A180CDE934DAFC32CDFA363C3DCAFCCF
:10B30E0032F5CDC637D5CD003447D1F1D2DA36D5A8
:10B31E00C5AF321181CDFA36B7F5CD9033DA35336C
:10B32E00F1F5CA6738B7C5D24C33EB2A1B811A0226
:10B33E000313CD6C35C23D336069221B81D1F1CA36
:10B34E0073332A1B81E3C109E5CD7032E1221B81E3
:10B35E00EB74D123237323722311A6801A77231340
:10B36E00B7C26B33CDBC3323EB626B7E23B6CAFC04
:10B37E0032232323AFBE23C28433EB732372C378ED
:10B38E00332AA380444D7E23B62BC823237E236607
:10B39E006FCD6C3560697E23666F3FC83FD0C39317
:10B3AE0033C02AA380AF77237723221B812AA38061
:10B3BE002B2213812AF480220881AFCD0A372A1B53
:10B3CE0081221D81221F81C12A9F80F921F88022AE
:10B3DE00F680AF6F67221981321081222381E5C575
:10B3EE002A1381C93E3FCD7D353E20CD7D35C39399
:10B3FE0080AF32F3800E0511A6807EFE20CA8834FF
:10B40E0047FE22CAA834B7CAAF343AF380B77EC219
:10B41E008834FE3F3E9ECA88347EFE30DA3334FED8
:10B42E003CDA8834D5112C30C5018434C5067F7EB4
:10B43E00FE61DA4C34FE7BD24C34E65F774EEB2362
:10B44E00B6F24E34047EE67FC8B9C24E34EBE51335
:10B45E001AB7FA80344F78FE88C26F34CDFA362B85
:10B46E00237EFE61DA7834E65FB9CA5E34E1C34CFE
:10B47E003448F1EBC9EB79C1D12312130CD63ACA79
:10B48E009634FE49C2993432F380D654C2093447F9
:10B49E007EB7CAAF34B8CA883423120C13C39F3494
:10B4AE0021A5801213121312C93A8980B73E0032B9
:10B4BE008980C2CC3405CAE934CD7D353E052BCA10
:10B4CE00E0347ECD7D35C3F234052BCD7D35C2F211
:10B4DE0034CD7D35CDA239C3E93421A6800601AF26
:10B4EE00328980CDA5354FFE7FCAB8343A8980B7F0
:10B4FE00CA0B353E00CD7D35AF32898079FE07CA45
:10B50E004F35FE03CCA23937C8FE0DCA9D39FE1544
:10B51E00CAE334FE40CAE034FE5FCAD834FE08CA1D
:10B52E00D834FE12C24A35C5D5E53600CD464B217C
:10B53E00A680CD4040E1D1C1C3F234FE20DAF23410
:10B54E0078FE493E07D2643579713211812304CDDC
:10B55E007D35C3F234CD7D353E08C35E357C92C059
:10B56E007D93C97EE3BE23E3CAFA36C3A432F53A0D
:10B57E008A80B7C27540F1C5F5FE20DAA1353A874B
:10B58E0080473AF08004CA9D3505B8CCA2393C32CA
:10B59E00F080F1C1CFC9CDFF49E67FFE0FC03A8AD8
:10B5AE00802F328A80AFC9CDC637C0C1CD9033C58A
:10B5BE00CD0C36E14E23462378B1CAEF32CD153687
:10B5CE00CD2537C5CDA2395E235623E5EBCDE34617
:10B5DE003E20E1CD7D357EB723CAC235F2E235D6A7
:10B5EE007F4F112D301A13B7F2F4350DC2F435E634
:10B5FE007FCD7D351A13B7F2FE35C3E535E52A8DBD
:10B60E0080228B80E1C9E5D52A8B8011FFFFED5A90
:10B61E00228B80D1E1F0E52A8D80228B80CDFF49EF
:10B62E00FE03CA3836E1C315362A8D80228B80C3BD
:10B63E006E2F3E64321081CDA838C1E5CD913822EF
:10B64E000C8121020039CD5132D1C2713609D52B70
:10B65E00562B5E2323E52A0C81CD6C35E1C255367F
:10B66E00D1F9EB0E08CD8132E52A0C81E3E52AA152
:10B67E0080E3CD6A3BCD7235A6CD673BE5CD9545D2
:10B68E00E1C5D5010081515A7EFEAB3E01C2AD36F9
:10B69E00CDFA36CD673BE5CD9545CD4945E1C5D5CE
:10B6AE00F533E52A1381E30681C533CD2537221301
:10B6BE00817EFE3ACADA36B7C2A432237E23B6CAD8
:10B6CE004C37235E2356EB22A180EBCDFA3611BA0E
:10B6DE0036D5C8D680DAA838FE25D2A432074F0652
:10B6EE0000EB214C31094E2346C5EB237EFE3AD0AA
:10B6FE00FE20CAFA36FE303F3C3DC9EB2AA380CA73
:10B70E001F37EBCDC637E5CD90336069D1D26738A0
:10B71E002B222181EBC9DFC8D7FE1B2811FE03287F
:10B72E000DFE13C0D7FE11C8FE03280718F63EFF04
:10B73E00329280C0F6C022138121F6FFC12AA18069
:10B74E00F57DA43CCA5F372217812A138122198105
:10B75E00AF328A80CD9539F1214732C2D832C3EF4C
:10B76E00322A19817CB51E20CAB832EB2A178122E3
:10B77E00A180EBC9CDC842C0328680C9E52A8F8030
:10B78E0006004F09228F80E1C97EFE41D8FE5B3F45
:10B79E00C9CDFA36CD673BCD4945FAC1373A2C8132
:10B7AE00FE90DAF145018090110000E5CDC445E12F
:10B7BE0051C81E08C3B8322B110000CDFA36D0E5A1
:10B7CE00F5219819CD6C35DAA432626B1929192935
:10B7DE00F1D6305F160019EBE1C3CA37CAC033CDBC
:10B7EE00A3372BCDFA36E52AF480CA0E38E1CD7296
:10B7FE00352CD5CDA3372BCDFA36C2A432E3EB7D53
:10B80E00935F7C9A57DA9932E52A1B810128000949
:10B81E00CD6C35D29932EB229F80E122F480E1C3C8
:10B82E00C033CABC33CDC03301BA36C34D380E0354
:10B83E00CD8132C1E5E52AA180E33E8CF533C5CD3D
:10B84E00C637CD9338E52AA180CD6C35E123DC9344
:10B85E0033D4903360692BD81E0EC3B832C016FF96
:10B86E00CD4D32F9FE8C1E04C2B832E122A18023E6
:10B87E007CB5C28B383A1181B7C2EE3221BA36E3AB
:10B88E003EE1013A0E0006007948477EB7C8B8C8B7
:10B89E0023FE22CA9738C39A38CD5D3DCD7235B49A
:10B8AE00D53AF280F5CD793BF1E32213811FCD6CB1
:10B8BE003BCAFB38E52A2981E523235E23562AA3BA
:10B8CE0080CD6C35D2EA382A9F80CD6C35D1D2F23C
:10B8DE0038210481CD6C35D2F2383ED1CDA141EB69
:10B8EE00CDDA3FCDA141E1CDA445E1C9E5CDA145DC
:10B8FE00D1E1C9CDC8427E47FE8CCA1139CD723511
:10B90E00882B4B0D78CAE236CDC737FE2CC0C3123A
:10B91E0039CD793B7EFE88CA2E39CD7235A92BCD15
:10B92E006A3BCD4945CA9338CDFA36DA4E38C3E173
:10B93E00362BCDFA36CAA239C8FEA5CAD539FEA80D
:10B94E00CAD539E5FE2CCABE39FE3BCAF839C1CD7F
:10B95E00793BE53AF280B7C28E39CDEE46CDFE3F49
:10B96E0036202A2981342A29813A87804704CA8AB7
:10B97E0039043AF080863DB8D4A239CD4340AFC4E5
:10B98E004340E1C340393AF080B7C8C3A23936000C
:10B99E0021A5803E0DCD7D353E0ACD7D35AF32F0F1
:10B9AE00803A86803DC8F5AFCD7D35F1C3B3393AC7
:10B9BE008880473AF080B8D4A239D2F839D60ED260
:10B9CE00CC392FC3ED39F5CDC542CD7235292BF1CA
:10B9DE00D6A8E5CAE8393AF0802F83D2F8393C4729
:10B9EE003E20CD7D3505C2F139E1CDFA36C347395A
:10B9FE003F5265646F2066726F6D2073746172744E
:10BA0E000D0A003A1281B7C29E32C121FF39CD40D4
:10BA1E0040C3EF33CDAB3F7EFE223E00328A80C262
:10BA2E003D3ACDFF3FCD72353BE5CD43403EE5CDB2
:10BA3E00F333C1DA4937237EB72BC5CA9038362C7B
:10BA4E00C3573AE52A2181F6AF321281E3C3633A36
:10BA5E00CD72352CCD5D3DE3D57EFE2CCA8B3A3AA8
:10BA6E001281B7C2F83A3E3FCD7D35CDF333D1C109
:10BA7E00DA4937237EB72BC5CA9038D53AF280B74C
:10BA8E00CAB53ACDFA365747FE22CAA93A3A1281BA
:10BA9E00B757CAA63A163A062C2BCD0240EB21C058
:10BAAE003AE3D5C3C338CDFA36CD5046E3CDA145E2
:10BABE00E12BCDFA36CACC3AFE2CC2123AE32BCD8C
:10BACE00FA36C25F3AD13A1281B7EBC22037D5B6F9
:10BADE0021E73AC44040E1C93F457874726120695C
:10BAEE00676E6F7265640D0A00CD9138B7C2113B57
:10BAFE00237E23B61E06CAB832235E2356EB220ED1
:10BB0E0081EBCDFA36FE83C2F83AC38B3A110000B0
:10BB1E00C45D3D221381CD4D32C2AA32F9D57E23AA
:10BB2E00F5D5CD8745E3E5CDF442E1CDA145E1CD97
:10BB3E009845E5CDC445E1C190CD9845CA573BEB3C
:10BB4E0022A1806960C3B636F92A13817EFE2CC20B
:10BB5E00BA36CDFA36CD1F3BCD793BF6373AF28069
:10BB6E008FB7E8C3B632CD7235282B1600D50E012D
:10BB7E00CD8132CDF03B2215812A1581C178FE7818
:10BB8E00D46A3B7E1600D6B3DAB13BFE03D2B13B8C
:10BB9E00FE0117AABA57DAA432220A81CDFA36C3A9
:10BBAE00953B7AB7C2D83C7E220A81D6ACD8FE0726
:10BBBE00D05F3AF2803DB37BCA364107835F219650
:10BBCE0031197856BAD023CD6A3BC501883BC5439F
:10BBDE004ACD7A4558514E234623C52A0A81C37C45
:10BBEE003BAF32F280CDFA361E24CAB832DA504656
:10BBFE00CD9837D2573CFE262012CDFA36FE48CAD3
:10BC0E00934AFE42CA034B1E02CAB832FEACCAF0B9
:10BC1E003BFE2ECA5046FEADCA463CFE22CAFF3F30
:10BC2E00FEAACA383DFEA7CA633FD6B6D2683CCD3F
:10BC3E00753BCD723529C9167DCD7C3B2A1581E524
:10BC4E00CD7245CD6A3BE1C9CD5D3DE5EB22298143
:10BC5E003AF280B7CC8745E1C90600074FC5CDFA49
:10BC6E003679FE31DA8F3CCD753BCD72352CCD6BEE
:10BC7E003BEB2A2981E3E5EBCDC842EBE3C3973CCE
:10BC8E00CD3E3CE311523CD501F52F094E2366699A
:10BC9E00E915FEADC8FE2DC814FE2BC8FEACC82B90
:10BCAE00C9F6AFF5CD6A3BCDAC37F1EBC1E3EBCDC9
:10BCBE008A45F5CDAC37F1C17921213FC2D33CA3E2
:10BCCE004F78A2E9B34F78B2E921EA3C3AF2801FED
:10BCDE007A175F166478BAD0C3D93BEC3C79B71F9C
:10BCEE00C1D1F5CD6C3B212E3DE5CAC445AF32F234
:10BCFE0080D5CD83417E23234E2346D1C5F5CD87F6
:10BD0E0041CD9845F157E17BB2C87AD601D8AFBB89
:10BD1E003CD0151D0ABE2303CA163D3FC354453CF5
:10BD2E008FC1A0C6FF9FC35B45165ACD7C3BCD6A23
:10BD3E003BCDAC377B2F4F7A2FCD213FC1C3883BF4
:10BD4E002BCDFA36C8CD72352C014F3DC5F6AF322C
:10BD5E00F18046CD9837DAA432AF4F32F280CDFA69
:10BD6E0036DA793DCD9837DA863D4FCDFA36DA7A26
:10BD7E003DCD9837D27A3DD624C2953D3C32F280E5
:10BD8E000F814FCDFA363A10813DCA423EF2A53DA3
:10BD9E007ED628CA1A3EAF321081E550592A238129
:10BDAE00CD6C35112581CA8A442A1D81EB2A1B814F
:10BDBE00CD6C35CAD83D799623C2CD3D789623CA2F
:10BDCE000C3E23232323C3BF3DE1E3D5115A3CCDC3
:10BDDE006C35D1CA0F3EE3E5C50106002A1F81E589
:10BDEE0009C1E5CD7032E1221F816069221D812BD0
:10BDFE003600CD6C35C2FE3DD173237223EBE1C903
:10BE0E00322C81214032222981E1C9E52AF180E3D9
:10BE1E0057D5C5CDA037C1F1EBE3E5EB3C577EFE20
:10BE2E002CCA203ECD723529221581E122F1801EC9
:10BE3E0000D511E5F52A1D813E19EB2A1F81EBCDA8
:10BE4E006C35CA7A3E7EB923C25C3E7EB8235E2331
:10BE5E005623C2483E3AF180B7C2AD32F1444DCAC4
:10BE6E008A4496CAD83E1E10C3B832110400F1CAD5
:10BE7E00C137712370234FCD81322323220A817162
:10BE8E00233AF1801779010B00D29D3EC103712335
:10BE9E007023F5E5CD3546EBE1F13DC2953EF54219
:10BEAE004BEB19DA9932CD8A32221F812B3600CD17
:10BEBE006C35C2BB3E03572A0A815EEB2909EB2B78
:10BECE002B73237223F1DAFC3E474F7E2316E15E7D
:10BEDE00235623E3F5CD6C35D2753EE5CD3546D1EF
:10BEEE0019F13D444DC2DD3E2929C109EB2A1581C8
:10BEFE00C92A1F81EB210000393AF280B7CA1C3FD4
:10BF0E00CD8341CD83402A9F80EB2A08817D934FBC
:10BF1E007C9A41501E0021F280730690C360453A10
:10BF2E00F08047AFC3223FCDB93FCDAB3F01913833
:10BF3E00C5D5CD723528CD5D3DE5EB2B562B5EE19B
:10BF4E00CD6A3BCD723529CD7235B4444DE37123A4
:10BF5E0070C3F83FCDB93FD5CD3E3CCD6A3BE35ED5
:10BF6E002356237AB3CAB0327E23666FE52A238125
:10BF7E00E32223812A2781E52A2581E5212581D502
:10BF8E00CDA145E1CD673B2BCDFA36C2A432E122DD
:10BF9E002581E1222781E1222381E1C9E52AA180C1
:10BFAE00237CB5E1C01E16C3B832CD7235A73E80D4
:10BFBE00321081B647CD623DC36A3BCD6A3BCDEEB2
:10BFCE0046CDFE3FCD834101DE41C57E2323E5CD27
:10BFDE005940E14E2346CDF23FE56FCD7641D1C9B2
:10BFEE00CD5940210481E5772323732372E1C92BB8
:10BFFE00062250E50EFF237E0CB7CA1440BACA14AF
:10C00E0040B8C20540FE22CCFA36E323EB79CDF2DE
:10C01E003F1104812AF6802229813E0132F280CD21
:10C02E00A445CD6C3522F680E17EC01E1EC3B8320B
:10C03E0023CDFE3FCD8341CD98451C1DC80ACD7D35
:10C04E0035FE0DCCAC3903C34A40B70EF1F52A9F2D
:10C05E0080EB2A08812F4F06FF0923CD6C35DA7746
:10C06E004022088123EBF1C9F11E1ACAB832BFF57E
:10C07E00015B40C52AF480220881210000E52A9F39
:10C08E0080E521F880EB2AF680EBCD6C35019440EB
:10C09E00C2E8402A1B81EB2A1D81EBCD6C35CABB51
:10C0AE00407E2323B7CDEB40C3A540C1EB2A1F81B1
:10C0BE00EBCD6C35CA1141CD98457BE509B7F2BA87
:10C0CE0040220A81E14E0600090923EB2A0A81EB80
:10C0DE00CD6C35CABB4001DA40C5F6807E23235EA7
:10C0EE00235623F0B7C8444D2A0881CD6C356069BC
:10C0FE00D8E1E3CD6C35E3E56069D0C1F1F1E5D56A
:10C10E00C5C9D1E17DB4C82B462B4EE52B2B6E262F
:10C11E00000950592B444D2A0881CD7332E1712309
:10C12E007069602BC38640C5E52A2981E3CDF03BBB
:10C13E00E3CD6B3B7EE52A2981E5861E1CDAB832FB
:10C14E00CDEF3FD1CD8741E3CD8641E52A0681EB88
:10C15E00CD6D41CD6D4121853BE3E5C32040E1E34B
:10C16E007E23234E23466F2C2DC80A120313C3774A
:10C17E0041CD6B3B2A2981EBCDA141EBC0D5505966
:10C18E001B4E2A0881CD6C35C29F4147092208817A
:10C19E00E1C92AF6802B462B4E2B2BCD6C35C022B7
:10C1AE00F680C901313FC5CD8041AF5732F2807E56
:10C1BE00B7C901313FC5CDB641CAC13723235E236E
:10C1CE00561AC93E01CDEF3FCDCB422A068173C12F
:10C1DE00C32040CD7B42AFE34FE57EB8DAF0417825
:10C1EE00110E00C5CD5940C1E1E5232346236668F3
:10C1FE00060009444DCDF23F6FCD7641D1CD87413A
:10C20E00C32040CD7B42D1D51A90C3E641EB7ECD03
:10C21E0080420405CAC137C51EFFFE29CA3542CD6C
:10C22E0072352CCDC842CD723529F1E301E841C5F6
:10C23E003DBE0600D04F7E91BB47D843C9CDB64117
:10C24E00CA69435F23237E23666FE5194672E3C5F1
:10C25E007EFE24C26A42CD934A180DFE25C2744258
:10C26E00CD034B1803CD5046C1E170C9EBCD7235ED
:10C27E0029C1D1C543C9CDCB42328480CD8380C381
:10C28E00313FCDB542C34B80CDB542F51E002BCD0F
:10C29E00FA36CAAB42CD72352CCDC842C1CD8380A1
:10C2AE00ABA0CAAC42C9CDC842328480324C80CDDC
:10C2BE0072352CC3C842CDFA36CD673BCDA6377A40
:10C2CE00B7C2C1372BCDFA367BC9CDAC371AC331C5
:10C2DE003FCD673BCDAC37D5CD72352CCDC842D1D5
:10C2EE0012C921C747CD9845C30343CD984521C1F7
:10C2FE00D1CD724578B7C83A2C81B7CA8A4590D24B
:10C30E001D432F3CEBCD7A45EBCD8A45C1D1FE19AD
:10C31E00D0F5CDAF4567F1CDC843B4212981F243A5
:10C32E0043CDA843D289432334CAB3322E01CDDE86
:10C33E0043C38943AF90477E9B5F237E9A57237EEC
:10C34E00994FDCB4436863AF4779B7C276434A541A
:10C35E00656F78D608FEE0C25743AF322C81C9050F
:10C36E00297A1757798F4FF26E43785C45B7CA8991
:10C37E0043212C818677D26943C878212C81B7FC62
:10C38E009B4346237EE680A94FC38A451CC014C03A
:10C39E000CC00E8034C0C3B3327E835F237E8A57B7
:10C3AE00237E894FC9212D817E2F77AF6F90477DD8
:10C3BE009B5F7D9A577D994FC90600D608DAD74301
:10C3CE00435A510E00C3CA43C6096FAF2DC8791F19
:10C3DE004F7A1F577B1F5F781F47C3DA4300000059
:10C3EE008103AA561980F122768045AA3882CD495A
:10C3FE0045B7EAC137212C817E01358011F30490B7
:10C40E00F570D5C5CD0343C1D104CD9F4421EC4376
:10C41E00CDFA4221F043CD9148018080110000CD2C
:10C42E000343F1CDC44601318011187221C1D1CD23
:10C43E004945C82E00CD074579323B81EB223C8120
:10C44E000100005058215443E5216044E5E52129BF
:10C45E00817E23B7CA8C44E52E081F6779D27A44B1
:10C46E00E52A3C8119EBE13A3B81891F4F7A1F5730
:10C47E007B1F5F781F472D7CC26944E1C9435A5127
:10C48E004FC9CD7A45012084110000CD8A45C1D116
:10C49E00CD4945CAA7322EFFCD074534342B7E3207
:10C4AE0057802B7E3253802B7E324F8041EBAF4F25
:10C4BE00575F325A80E5C57DCD4E80DE003FD2D724
:10C4CE0044325A80F1F137D2C1E1793C3D1FFA8AEC
:10C4DE0043177B175F7A175779174F297817473A03
:10C4EE005A8017325A8079B2B3C2C444E5212C81E6
:10C4FE0035E1C2C444C3B33278B7CA2B457D212C73
:10C50E0081AE80471FA878F22A45C68077CA8A4432
:10C51E00CDAF45772BC9CD49452FE1B7E1F2694340
:10C52E00C3B332CD954578B7C8C602DAB33247CD1C
:10C53E000343212C8134C0C3B3323A2C81B7C83A9D
:10C54E002B81FE2F179FC03CC9CD4945068811008F
:10C55E0000212C814F70060023368017C35143CD26
:10C56E004945F0212B817EEE8077C9EB2A2981E3A4
:10C57E00E52A2B81E3E5EBC9CD9845EB22298160B5
:10C58E0069222B81EBC92129815E2356234E234636
:10C59E0023C911298106041A77132305C2A645C99A
:10C5AE00212B817E07371F773F1F2323777907378C
:10C5BE001F4F1FAEC978B7CA4945215245E5CD492F
:10C5CE004579C8212B81AE79F8CDDE451FA9C92347
:10C5DE0078BEC02B79BEC02B7ABEC02B7B96C0E135
:10C5EE00E1C9474F575FB7C8E5CD9545CDAF45AECD
:10C5FE0067FC15463E9890CDC8437C17DC9B4306DE
:10C60E0000DCB443E1C91B7AA33CC00BC9212C81C9
:10C61E007EFE983A2981D07ECDF14536987BF5790C
:10C62E0017CD5143F1C921000078B1C83E1029DA67
:10C63E00753EEB29EBD24B4609DA753E3DC23D46BF
:10C64E00C9FE2DF5CA5C46FE2BCA5C462BCD69434E
:10C65E0047575F2F4FCDFA36DAAD46FE2ECA8846C3
:10C66E00FE45C28C46CDFA36CDA03CCDFA36DACF99
:10C67E004614C28C46AF935F0C0CCA6446E57B90A1
:10C68E00F4A546F29B46F5CD9144F13CC28F46D1BE
:10C69E00F1CC7245EBC9C8F5CD3245F13DC9D55740
:10C6AE00788947C5E5D5CD3245F1D630CDC446E1C2
:10C6BE00C1D1C36446CD7A45CD5B45C1D1C30343D9
:10C6CE007B0707830786D6305FC37A46E5213C3267
:10C6DE00CD4040E1EBAF0698CD6045213F40E521CE
:10C6EE002E81E5CD49453620F2FC46362D233630D7
:10C6FE00CAB247E5FC7245AFF5CDB847014391117B
:10C70E00F84FCDC445B7E22947F1CDA646F5C30B88
:10C71E0047CD9144F13CF5CDB847CDF1423CCDF13A
:10C72E0045CD8A45010603F1813CFA4547FE08D204
:10C73E0045473C473E023D3DE1F511CB4705C2560C
:10C74E0047362E2336302305362ECC9F45C5E5D5EC
:10C75E00CD9545E1062F047B965F237A9E5723796C
:10C76E009E4F2B2BD26547CDA84323CD8A45EBE1B7
:10C77E007023C10DC2564705CA96472B7EFE30CA9E
:10C78E008A47FE2EC49F45F1CAB547364523362B40
:10C79E00F2A647362D2F3C062F04D60AD2A847C63E
:10C7AE003A237023772371E1C901749411F723CDD5
:10C7BE00C445B7E1E22047E900000080A0860110E1
:10C7CE002700E803006400000A0000010000217247
:10C7DE0045E3E9CD7A4521C747CD8745C1D1CD493E
:10C7EE004578CA3048F2FB47B7CAA732B7CA6A4380
:10C7FE00D5C579F67FCD9545F21848D5C5CD1C46E1
:10C80E00C1D1F5CDC445E17C1FE1222B81E1222966
:10C81E0081DCDD47CC7245D5C5CDFD43C1D1CD3EC2
:10C82E0044CD7A45013881113BAACD3E443A2C8144
:10C83E00FE88D22545CD1C46C680C602DA2545F5B2
:10C84E0021EC43CDF442CD3544F1C1D1F5CD0043B9
:10C85E00CD7245217048CDA048110000C14AC33E9B
:10C86E004408402E9474704F2E776E02887AE6A09C
:10C87E002A7C50AAAA7EFFFF7F7F000080810000E5
:10C88E000081CD7A45113C44D5E5CD9545CD3E444C
:10C89E00E1CD7A457E23CD874506F1C1D13DC8D580
:10C8AE00C5F5E5CD3E44E1CD9845E5CD0343E1C365
:10C8BE00A948CD4945215E80FA2249217F80CD8746
:10C8CE0045215E80C886E6070600772387874F09D5
:10C8DE00CD9845CD3E443A5D803CE6030600FE0110
:10C8EE0088325D8021264987874F09CDF442CD9548
:10C8FE00457B59EE4F4F36802B463680215C803477
:10C90E007ED6ABC21949770C151CCD5443217F80BE
:10C91E00C3A145772B772B77C3FD4868B14668993D
:10C92E00E9926910D17568218049CDF442CD7A45DE
:10C93E0001498311DB0FCD8A45C1D1CD9F44CD7AFC
:10C94E0045CD1C46C1D1CD0043218449CDFA42CDFF
:10C95E00494537F26C49CDF142CD4945B7F5F472F0
:10C96E0045218449CDF442F1D47245218849C391C1
:10C97E0048DB0F49810000007F05BAD71E8664266A
:10C98E00998758342387E05DA586DA0F4983CD7ADF
:10C99E0045CD3C49C1E1CD7A45EBCD8A45CD3649F1
:10C9AE00C39D44CD4945FCDD47FC72453A2C81FEC2
:10C9BE0081DACF490100815159CD9F4421FA42E5D8
:10C9CE0021D949CD9148218049C9094AD73B7802DE
:10C9DE006E847BFEC12F7C74319A7D843D5A7DC856
:10C9EE007F917EE4BB4C7E6CAAAA7F00000081C9B9
:10C9FE00D7C93E0CCFC9CDC8427B328780C9CD671F
:10CA0E003BCDAC37ED538B80ED538D80C9CDAC371C
:10CA1E00D5E146237EC3223FCD673BCDAC37D5CD86
:10CA2E0072352CCD673BCDAC37E3732372E1C9CDA4
:10CA3E006A3BCDAC37C5212E817AFE00280CCD760F
:10CA4E004A78FE302802702371237BCD764A7AFE17
:10CA5E0000200578FE30280270237123AF772377EC
:10CA6E00C1212E81C3D03F47E60FFE0A3802C6070A
:10CA7E00C6304F780F0F0F0FE60FFE0A3802C607AB
:10CA8E00C63047C9EB210000CDAC4ADACC4A1805B6
:10CA9E00CDAC4A381F29292929B56F18F3131AFE70
:10CAAE0020CAAC4AD630D8FE0A3805D607FE0AD8B8
:10CABE00FE103FC9EB7A4BE5CD213FE1C91E26C3DF
:10CACE00B832CD6A3BCDAC37C5212E810611057823
:10CADE00FE012808CB13CB1230F41804CB13CB1263
:10CAEE003E30CE0077230520F3AF772377C1212E7A
:10CAFE0081C3D03FEB210000CD204BDA2E4BD63038
:10CB0E0029B56FCD204B30F6EB7A4BE5CD213FE1C9
:10CB1E00C9131AFE20CA204BFE30D8FE323FC91E62
:10CB2E0028C3B8320E01F7C93E00329280C3142FCB
:10CB3E00F5A0C1B83E00C9CD7D35C3A239FFFFFFB8
:10CB4E00FFFFFFFFFFFFFFFFFFFFFFFFFFFFFFFFE7
:10CB5E00FFFFFFFFFFFFFFFFFFFFFFFFFFFFFFFFD7
:10CB6E00FFFFFFFFFFFFFFFFFFFFFFFFFFFFFFFFC7
:10CB7E00FFFFFFFFFFFFFFFFFFFFFFFFFFFFFFFFB7
:10CB8E00FFFFFFFFFFFFFFFFFFFFFFFFFFFFFFFFA7
:10CB9E00FFFFFFFFFFFFFFFFFFFFFFFFFFFFFFFF97
:10CBAE00FFFFFFFFFFFFFFFFFFFFFFFFFFFFFFFF87
:10CBBE00FFFFFFFFFFFFFFFFFFFFFFFFFFFFFFFF77
:10CBCE00FFFFFFFFFFFFFFFFFFFFFFFFFFFFFFFF67
:10CBDE00FFFFFFFFFFFFFFFFFFFFFFFFFFFFFFFF57
:10CBEE00FFFFFFFFFFFFFFFFFFFFFFFFFFFFFFFF47
:10CBFE00FFC3064CC3274C31809E21148022008037
:10CC0E00CDB353116C5397CDA55311815397CDA529
:10CC1E005311965397CDA55331809ECDB3531158D2
:10CC2E005397CDA553213B4C2202802100002208B0
:10CC3E00802204803E3ECDA34CD511379DCDDA52D5
:10CC4E00CD7F4D7CB5C1CA384D1B7C121B7D12C5E4
:10CC5E00D57993F5CDF44CD5C27A4CD5CD124DC1C4
:10CC6E002A0080CD1E4D6069220080C12A0080F10D
:10CC7E00E5FE03CA274C856F3E008C6711009DCDE3
:10CC8E003B52D22953220080D1CD294DD1E1CD1E68
:10CC9E004DC3434CCDB55311379DCDC153CAA94C8D
:10CCAE00FE0ACAA94CB7CAA94CFE08CAD34CFE1834
:10CCBE00CAEC4CCDB553CDCA531213FE0DC87BFE34
:10CCCE0087C2A94C7BFE37CAA94C1B3E08CDB55373
:10CCDE003E20CDB5533E08CDB553C3A94CCDB3536D
:10CCEE003E40C3A34C7CB7FA2253111480E52A00B0
:10CCFE00802BCD3B52E1D81A9547131A9CDA134D6F
:10CD0E001BB0C913131AFE0DC2134D13C3FC4CCD29
:10CD1E003B52C81A021303C31E4D7892C2314D798D
:10CD2E0093C81B2B1A77C3294D21864DCD7F4DD528
:10CD3E001A13FE2ECA5C4D23BECA3F4D3E7F1BBE4C
:10CD4E00DA634D23BED2524D23D1C33E4D3E7F23D7
:10CD5E00BED25E4D7E236EE67F67F1E9E3CD7F4D59
:10CD6E00BE23CA7B4DC54E060009C11B1323E3C962
:10CD7E001AFE20C013C37F4D4C495354CF50525509
:10CD8E004ED0CD4E4557CDE3425945CDE04E455898
:10CD9E0054CEA24C4554D09B494E505554D03F4989
:10CDAE0046CF3C474F544FD0BC474F535542CDF220
:10CDBE0052455455524ECE1452454DCF44464F52C5
:10CDCE00CE2F5052494E54CF7D53544F50CDECD0B0
:10CDDE00930E01F7CD0551211480220080CD05510F
:10CDEE00C3274CCDF74ECD0E51D5CDF44CC22353A7
:10CDFE002A0280E52A0480E52100002208803922DB
:10CE0E000480C3DC50CD05512A04807CB5CA1B5367
:10CE1E00F9E1220480E1220280D1CD204FC3EC50F3
:10CE2E00CDF74ECDA6502B220880213E4EC33B4D52
:10CE3E00544FCE45D31BCD0E51220C8021504EC3E4
:10CE4E003B4D53544550CE59CE5FCD0E51C3624E1D
:10CE5E00210100220A802A0280220E80EB221080FD
:10CE6E00010A002A0880EB6068393E097E23B6CAA3
:10CE7E009B4E7E2BBAC27A4E7EBBC27A4EEB2100FF
:10CE8E000039444D210A0019CD294DF92A1080EBA5
:10CE9E00C3EC50CDA652DA1B53220680D5EB2A08DE
:10CEAE00807CB5CA1C53CD3B52CAC54ED1CD204F46
:10CEBE002A0680C3AB4E5E23562A0A80E519EB2A5A
:10CECE0008807323722A0C80F1B7F2DD4EEBCD355C
:10CEDE0052D1DAF14E2A0E802202802A1080EBC344
:10CEEE00EC50CD204FC3EC5021A59DCD2952C13918
:10CEFE00D229532A08807CB5CA1D4F2A1080E52AF4
:10CF0E000E80E52A0C80E52A0A80E52A0880E5C510
:10CF1E00C9C1E12208807CB5CA3A4FE1220A80E1FC
:10CF2E00220C80E1220E80E1221080C5C9CD0E5167
:10CF3E007CB5C2E350210000CD144DD2DC50C32786
:10CF4E004CCDDA52CD0551CDF44CDA274CCD684F8D
:10CF5E00CDC153CDFC4CC3594F1A6F131A67130E24
:10CF6E0004CDF34F3E20CDB55397CDA553C90E0634
:10CF7E00CD6B4D3B06CDB353C3E350CD6B4D0D067C
:10CF8E00CDB353C3D350CD6B4D2307CD0E514DC3EF
:10CF9E00A74FCDC34FC3B84FCD6B4D2C06CDF2501E
:10CFAE00C3954FCDB353C3EC50CD0E51C5CDF34FFA
:10CFBE00C1C3A74FCD6B4D22053E22C3D44FCD6BBF
:10CFCE004D270E3E27CDA553FE0DE1CAD350C3EE1D
:10CFDE004FCD6B4D5F0D3E8DCDB553CDB553E1238A
:10CFEE002323E9C9D5110A00D5420DCD2652F203ED
:10CFFE0050062D0DC5CD095278B1CA1450E32DE55A
:10D00E006069C30450C10D79B7FA23503E20CDB5E7
:10D01E0053C3155078CDB5535D7BFE0AD1C8C630CB
:10D02E00CDB553C328502A0680F9E1220280D1D112
:10D03E00D5CDC34FC34F50CDA652DA8A50C36150DF
:10D04E00D5CDA652DA1B531A4F9712D1CDA55379CF
:10D05E001B12D5EB2A0280E5213F502202802100CF
:10D06E000039220680D53E3ACDA34C11379DCD0E08
:10D07E0051D1EB732372E1220280D1F1CD6B4D2C95
:10D08E005CC33F50CDFB50FE0DCAEC50CDA650CD2B
:10D09E006B4D2C49C39B50CDA652DA1B53E5CD6B7D
:10D0AE004D3D3DCD0E51444DE1712370C9CD0E5114
:10D0BE00D5CD0551CDF44CC22353F1C3DC50CD0573
:10D0CE0051111480210000CDFC4CDA274CEB2202CA
:10D0DE0080EB1313CDC153219B4DC33B4DCDF2506D
:10D0EE00C31B53CD6B4D3B04F1C3E350CD6B4D0DC4
:10D0FE0004F1C3D350C9CD7F4DFE0DC8C31B53CD14
:10D10E006D51E5211751C33B4D3E3DD12F3C3ED1D4
:10D11E00353ED13B3DD14A3C3DD1423CD150D1561A
:10D12E00CD5851D86FC9CD5851C86FC9CD5851C8B7
:10D13E00D86FC9CD58516FC8D86CC9CD5851C06F72
:10D14E00C9CD5851D06FC9E1C979E1C1E5C54FCDFF
:10D15E006D51EBE3CD3552D12100003E01C9CD6BAF
:10D16E004D2D06210000C39151CD6B4D2B00CDA945
:10D17E0051CD6B4D2B07E5CDA951C39851CD6B4DBC
:10D18E002D8DE5CDA951CD2952EBE37CAA7A19D18B
:10D19E00FA8051ACF28051C32253CD4152CD6B4D2A
:10D1AE002A2BE5CD41520600CD2652EBE3CD265279
:10D1BE007CB7CACA517AB2EBC223537D2E00B7CACE
:10D1CE00FB5119DA23533DC2D151C3FB51CD6B4DE7
:10D1DE002F3DE5CD41520600CD2652EBE3CD265232
:10D1EE007AB3CA2353C5CD09526069C1D17CB7FA4F
:10D1FE00225378B7FC2952C3AC51E56C2600CD14EE
:10D20E0052417DE1670EFF0CCD1F52D2165219C945
:10D21E007D936F7C9A67C97CB7F07C2F677D2F6FEB
:10D22E002378EE8047C97CAAF23B52EB7CBAC07DD4
:10D23E00BBC9214652C33B4D524E44D25941425373
:10D24E00D28253495A45D28ED29BCD0D537CB7FA1A
:10D25E002253B5CA2253D5E52A12807CE607671100
:10D26E00004C195E2356221280E1EBC5CD0952C146
:10D27E00D123C9CD0D53CD26527CB4FA2253C92ADF
:10D28E000080D5EB21009DCD1F52D1C9CDA652DA1B
:10D29E0007537E23666FC9CD7F4DD640D8C2CA5282
:10D2AE0013CD0D5329DA2253D5EBCD8E52CD3B52F1
:10D2BE00DA2A5321009DCD1F52D1C9FE1B3FD81330
:10D2CE0021009D07856F3E008C67C921000044CD6B
:10D2DE007F4DFE30D8FE3AD03EF0A4C2225304C594
:10D2EE00444D292909291A13E60F856F3E008C67D4
:10D2FE00C11AFA2253C3E152CDDA5278B7C0CD6BC0
:10D30E004D2809CD0E51CD6B4D2901C9D511605354
:10D31E00C32D53D5115B53C32D53D511665397CDE2
:10D32E00A553D11AF597122A0280E57E23B6D1CAEB
:10D33E00274C7EB7FA3550CD684F1BF1123E3FCDCC
:10D34E00B55397CDA553C3274C4F4B0D484F573F61
:10D35E000D574841543F0D534F5252590D50414CA9
:10D36E004F20414C544F2054494E5920424153496D
:10D37E00430D504F525441424C45205A383020569E
:10D38E00455253494F4E0D5342435A38302045446F
:10D39E004954494F4E0D471A13B8C8CDB553FE0D1B
:10D3AE00C2A653C93E0DCFFE0DC03E0ACDB5533EAB
:10D3BE000DC9DFC8D7FE1BC0C3274CFE61D8FE7B4C
:10D3CE00D0E6DFC9FFFFFFFFFFFFFFFFFFFFFFFFFD
:10D3DE00FFFFFFFFFFFFFFFFFFFFFFFFFFFFFFFF4F
:10D3EE00FFFFFFFFFFFFFFFFFFFFFFFFFFFFFFFF3F
:10D3FE00FFC39E5AC35054C3955AC3D35AC3D55A6A
:10D40E00C3BC55C3A856C3B756C3D456C33A57C3A5
:10D41E003958C34558C36258C39158C38D59C3BABE
:10D42E0059C3D159C35B5AC3665AC3675AC38B5A81
:10D43E00210081227E8022508036FF21B65ACDBC3B
:10D44E005521BF9E22588031008121C480228880C0
:10D45E0021AD5ACDBC55CDDB58D2B454224280CD2D
:10D46E003E56CA9154CDF054FA9154224280232351
:10D47E007EFE20C29754CD2556C29D54237EA7C34F
:10D48E007754CD8B5AC35654CD0555C377542A4283
:10D49E0080227280CDF654FA91540E72CD9B55CAED
:10D4AE007454C37D54227480EB224A80EB7EFE2F8F
:10D4BE00C20B55CDF054CD8B5A7EA7FA5654CDD310
:10D4CE0054C3C55422428056235EE50E05CDD15974
:10D4DE00E123C3BC552A428023237EB7C2E85423DE
:10D4EE00C92A7E802242807EA7F8EB2A4A80EB234F
:10D4FE007E932B7E9AD0CDE454C3F3542A4A807A7D
:10D50E00A7FA9154B3CAC2542A50807E3CC2915499
:10D51E00CDF054FA4A5546236E600E4ACD9B55C245
:10D52E004A55CDE454EB2A4280EB0E50CD9B557EEE
:10D53E00122313C23955EB2B2250802A74801E03FE
:10D54E007EB7CA95551C237EB7C25455572A5080B4
:10D55E0019E5EB2A5880CD3958D291542A5080EBD8
:10D56E00E1225080EB232B7E121B0E42CD9B55C227
:10D57E007555EB2A4A80EB722373EB2A74807E2357
:10D58E001312B7C28D55310081C3655406800ABD92
:10D59E00C0030ABCC92187803600E5210A00CD9957
:10D5AE00587DC630E12B777BB2C2A955C9AF477EF5
:10D5BE0023B8CACA55CD0954C3BE55CD0C54D0CDCF
:10D5CE00D15AFE1BCA9154FE20C0C3D15AFE20CAA6
:10D5DE0025565797324A80324B80237E2B5FE6DFEB
:10D5EE007AC21156FE5DC2FE55CD2E59C33B56FE74
:10D5FE0040C211562322468097110000CD4456C3D7
:10D60E003B56FE22C21D5623CDBD55C33E56FE2FA0
:10D61E00C22956CD8B5A23C33E56227280CD6156F7
:10D62E00CDFE58CDCA552A4A807CB5C02A46807E8A
:10D63E00A7C2DC55C9EB226A80EBCD5859216A800E
:10D64E00C36159D523CD6D56CD4456D1C93E3DC388
:10D65E00285A7E23E6DFCA5C56FE1DC26156CD8F68
:10D66E00567EE6DFCA8956FE09CA8D56FE0CCA5290
:10D67E0056CDB1572A5A80C37056224680C923C947
:10D68E00CDDE58D0FE2DC29F5623CD8F56C3915856
:10D69E00FE2BC2AE5623CD8F567AA7FA9158C9FEED
:10D6AE0023C2BC5623CD8F567AA7C3D357FE25C2AD
:10D6BE00CB5623CD8F56EB2A4E80EBC9FE27C2F2F6
:10D6CE005623CD8F56E5D52A528011093DCD4558AA
:10D6DE0013EB225280EBE15A1600CD45585A160034
:10D6EE00E113C9FE22C2FE561600235E2323C9FE95
:10D6FE0024C235571600CD1057DA2657CD06545F83
:10D70E00C9237ED630DA2457FE0AD8D607FE0ADAA7
:10D71E002457FE10C93FC95FCD1057D0EB292929D8
:10D72E0029EB83C32657FE3FC24457E5CDE15ACDC0
:10D73E006D56E123C9FE28C24D5723C36D56CD97B2
:10D74E0057FE3ACA5E57CD78575E2356C36457CDFF
:10D75E00685716005E2A7080C9CD86573A76808348
:10D76E005F3A77808A57C3AA57FE28C2A157CD8643
:10D77E0057EB29EBC36B57CDA1574E236669227623
:10D78E00802A708023C36D565E237EFE4157F29829
:10D79E0057C916807BE63FC602875F227080EB7CFE
:10D7AE00B5C9D556235ED57BD63DCAC0573DC2C13D
:10D7BE005723CD8F56225A80EBD17AFE3DC2E157C8
:10D7CE00D1CD3958C204587BB7C20458110100F6A6
:10D7DE00FFC9FE3CC20A587BFE3DD1CAF857FE3E39
:10D7EE00C2FE57CDD057C32558CD1C58C32558CD92
:10D7FE003958FADB57110000E600C9FE3EC22A581E
:10D80E007BFE3DD1C21C58CDFE57C32558CD39588D
:10D81E00FA0458CDD3577BEE015FC9D1FE2BC2342B
:10D82E0058EB19EBC9FE2DC240587B955F7A9C5779
:10D83E00C9FE2AC25D58D50E10110000E3CDC8589E
:10D84E00E3D25658EB19EB290DC24B58C1C9FE2F26
:10D85E00C2285A06007CB7C27258B5C27B583E2FFA
:10D86E00C3285AF27B5804EBCD9158EB7AB7F28469
:10D87E005805CD9158CD9958224E802A68803E0089
:10D88E00B8C87A2F577B2F5F13C90E000C29D29B75
:10D89E0058CDC958E5210000E3CD39583FDAB358C9
:10D8AE00EB19EBB7E37D176F7C1767E30DCAC5580D
:10D8BE00CDC858C3A858E1EBC9B77C1F677D1F6F51
:10D8CE00C97EFE3A37F0FE3037F83FC9CD835ACDC8
:10D8DE00D058D8EB2100001AD6304F060009444D1F
:10D8EE0013EBCDD0583FD0EB29290929C3E6582A8E
:10D8FE007280D57EFE40C2495923235ECDA157D1F9
:10D90E00CD3859D5CD3C59E1CDFE57C22959CD2E32
:10D91E005906062188807E9077C906FCC322592EAF
:10D92E0046CD35592E42CD3C59732372C94D2A88A6
:10D93E00805E23562322888069C9FE21C26F59D189
:10D94E00EB224A80EBCDAD57C8214280CD615921E3
:10D95E0046805E23562A88802B722B73228880C9BC
:10D96E00FE3BC27F59D1CDAD57C0310081C3975414
:10D97E00FE3EC28759D1EBE9FE2EC29959D15314FE
:10D98E0015C83E20CD0954C38F59FE26C2B4592363
:10D99E007E2BFE3DC2B459D1CDAD57C02A7E80221A
:10D9AE00508036FFC9FE24C2BE59C17BC30954FE46
:10D9BE003FC2F659237E2BFE28C2505A23CD8F56D6
