:0400000085EF00F098
:10000800B671B671B671B671B671B671B671B671B0
:10001800B671B671B671B671B671B671B671B671A0
:10002800B671B671B671B671B671B671B671B67190
:10003800B671B671B671B671B671B671B671AD7189
:10004800B671B671B671B671B671B671B671B67170
:10005800B671B671B671B671B671B671B671B67160
:10006800B671B671B671B671B671B671B671B67150
:10007800B671B671B671B6714200B671B671B67125
:10008800B671B671B671B671B671B671B671B67130
:1000980054716A71B671B67142009171B671B671D8
:1000A800B671A071B671B671B671B671B671B67126
:1000B800B6713E71B671B671B671B671B671B67178
:1000C800B671B671B671B671B671B671B671B671F0
:1000D800B671B671B671B671B671B671B671B671E0
:1000E8004200B671B671B671B671B671B671B671B5
:1000F800B671BA70B671B671B671B671B671B671BD
:06010800FF00FCEFE2F035
:02FFFE00000001
:020000040001F9
:10000000C34000C363270000C3430000000000009A
:10001000C34B000000000000C353000000000000BC
:10002000C35B000000000000C900000000000000E9
:10003000C36B000000000000C3730000000000005C
:10004000C37E00220EEF2A00EF182E220EEF2A02A6
:10005000EF1826220EEF2A04EF181E220EEF2A06B2
:10006000EF1816220EEF2A08EF180E220EEF2A0ABA
:10007000EF1806220EEF2A0CEFE52A0EEFC9F33136
:1000800000EF2100C02210EF2217EF2215EF2264AB
:10009000EF2266EF3E493219EF21C12E2200EF21F7
:1000A000B02E2202EF21BB2E2204EF217D0022067A
:1000B000EF217D002208EF211A27220AEF21A7272E
:1000C000220CEFAF211CEF061A772310FC21C0EEA3
:1000D0002230EF2100C02232EF06083E2E2179EFB8
:1000E000772310FCAF7706142150EFAF772310FC75
:1000F0003E49324AEF3E4E3249EF2E0065224BEF29
:10010000AF324FEF2100C02252EF2256EF225AEFBA
:10011000225EEF2262EF7E3251EF3255EF3259EF1D
:10012000325DEF3261EF21192CCDDE25AF3282EF47
:1001300021562CCDDE25CD3E26CDC826B728EDFE96
:1001400041CADD19FE44CA3A07FE47CA2214FE53CB
:10015000CAE914FE4CCA5F15FE50CA6116FE52CAA7
:100160003917FE23CA8501FE42CAFC02FE54CAB1F9
:1001700003FE3F280821732CCDDE2518AF21362A37
:10018000CDDE2518A723CDC826B728E9FE4C2825A3
:10019000CD970238E079FE11D27501B7CA75013DDD
:1001A0001716005F21D301195E2356EB5E23567AA2
:1001B000B328C2EBE921D3015E235623D5DDE1DD6F
:1001C0007E00DDB60128091313EBCDDE25EB18E820
:1001D000C32C01F30107021D023F02630277028D67
:1001E000028D028D028D028D028D028D028D028D97
:1001F000028D02002F312E204742415349432053A4
:10020000746172740D0A00032F322E20474241534D
:10021000494320526573746172740D0A00004C33B7
:100220002E2050616C6F20416C746F2054696E7980
:100230002042415349432053746172740D0A0003F4
:100240004C342E2050616C6F20416C746F205469C7
:100250006E79204241534943205265737461727430
:100260000D0A000054352E2047414D4538302053AB
:10027000746172740D0A000354362E2047414D45B7
:10028000383020526573746172740D0A000000D515
:10029000E5CD9702E1D1C9AF474FCDC826B7C8CD4C
:1002A000B902D8F508F1CDC802D808E516005F609C
:1002B0006919444DE1D82318E1B7280AFE30D8FE69
:1002C0003A3003D630C937C9E5C5CB21CB10CB2195
:1002D000CB10E109E5C1CB21CB10E1C93A58EFB70A
:1002E00028082A5AEF3E31CD97033A5CEFB7CA2C63
:1002F000012A5EEF3E32CD9703C32C0123CDC826E1
:10030000B728D90158EFFE31280E015CEFFE3228E4
:1003100007FE43283EC375010823CDC826B7285AD7
:10032000FE2CC2750123CDC826C5CDD826E1DA75CD
:1003300001CD3A03DA7501C32C017AFEC0DA51030C
:10034000FEF0D251033E0177231A7723732372B74D
:10035000C937C923CDC826B728140158EFFE312864
:1003600008015CEFFE32C27501AF02C32C01AF0180
:1003700058EF02015CEF02C32C010AB7CA2C010836
:100380002A5AEFFE3128032A5EEFCD9703C32C01D2
:1003900042502800293A00E5F5219003CDDE25F1F1
:1003A000CDC12E219403CDDE25E1CDE725CD272635
:1003B000C9E52E002600224BEF2A32EF224DEFAF87
:1003C000324FEFE123CDC826CDD826D27704CDC851
:1003D000267EB7CAA004FE2CCA8804FE50284EFE12
:1003E0004DC2750123CDC826211F04FE49281021C6
:1003F0002504FE532809B7C275013A4AEF18E932BD
:100400004AEFE5211004CDDE25E1CDDE25C32C0128
:10041000544D206D6F64653A3C43414C4C2000497B
:100420004E3E0D0A00534B49503E0D0A0023CDC8E5
:1004300026B720053A49EF1809FE4FC2750123CDB2
:10044000C826216C04FE4E2808217104FE46C275A0
:10045000013249EFE5216204CDDE25E1CDDE25C381
:100460002C015450206D6F64653A20004F4E0D0AE8
:10047000004F46460D0A00ED534DEFCDC826B72874
:100480001FFE2C2803C3750123CDC826B7CA7501EA
:10049000FE2D2811CD9702DA7501ED434BEF181BA5
:1004A00001010018F523CDC826FE31C2750123CD08
:1004B000C826B7C275013E01324FEF2A4DEF7E01CB
:1004C0000800215806EDB120130E01CD2106DAE017
:1004D000050E02CD0106DAE005C3DD0501050021A8
:1004E0006006EDB120190E012A4DEFCDF405CD2E99
:1004F00006DAE0050E02CD0606DAE005C3DD0501E9
:100500000800216506EDB120040E01181301080052
:10051000216D06EDB1201A0E013A4AEFFE5328086C
:10052000CD1506DAE0050E02CD0B06DAE005C3DDD7
:1005300005FEC9200B0E01CD2106DAE005C3DD055D
:10054000010800217506EDB1200B0E01CD0106DA80
:10055000E005C3DD05FEED2013237EFE452804FEE5
:100560004D20090E01CD2106387618712A4DEF7EF7
:10057000FEE9200C2A22EF0E01CD2E063862185D0E
:10058000FEDD200B237EFEE920052A2CEF18E82A49
:100590004DEF7EFEFD200B237EFEE920052A2EEF87
:1005A00018D52A4DEF7EFE18200C0E01CDF405CD96
:1005B0002E06382C1827FEC320090E01CD1506384B
:1005C0001F181AFECDC27D060E013A4AEFFE5328CF
:1005D00007CD1506380A1805CD0B063803C3651478
:1005E00021EA05CDDE25C32C01FF4164722045526E
:1005F000520D0A00235E2316FFCB7B200216001942
:10060000C92A4DEF180A2A4DEF18042A4DEF23236B
:1006100023CD2E06C92A4DEF235E2356EBCD2E06A1
:10062000C9ED5B30EF1A6F131A67CD2E06C97CFE39
:10063000C03823FEEF301F79FE01200D1150EF125C
:100640002252EF7E3251EF180B1154EF122256EF67
:100650007E3255EFAFC937C9C0C8D0D8E0E8F0F84E
:100660001020283038C2CAD2DAE2EAF2FAC4CCD476
:10067000DCE4ECF4FCC7CFD7DFE7EFF7FF011200B3
:10068000211607EDB1CAF106010800212807EDB1D6
:10069000CAFC062A4DEFFECB2857FEDD280AFEEDE8
:1006A0002828FEFD2802183E237EFECB2859FE2175
:1006B0002855FE222851FE2A284DFE362849010AD7
:1006C00000213007EDB128291832237EFE43283758
:1006D000FE4B2833FE53282FFE5B282BFE73282762
:1006E000FE7B2823180B0E01CD0106DAE005C3DDE1
:1006F000050E01CD0606DAE005C3DD050E01CD0BC2
:1007000006DAE005C3DD050E012A4DEF23CD0E0606
:10071000DAE005C3DD05060E161E262E363EC6CED1
:10072000DED6E6EEF6FEDBD30111213122322A3A83
:1007300009192939232BE5E1E3F9237EFE49CA4350
:1007400008CDC826CDD8263806ED5310EF1810E591
:100750002A10EF018000092212EFE17EB7282BCD8D
:10076000C8267EFE2C280DB7C275012180001922F3
:1007700012EF181623CDC826CDD826DA7501CDC8BC
:1007800026B7C2750113ED5312EFCD9007C32C01AC
:100790002A10EF3EF0A56FAF3214EFE5CDBD07E1B3
:1007A00001100009CDBB2E200E3A14EFFE0238EBEB
:1007B0002A12EF2210EFC92210EFC3B02ECDE72589
:1007C000E5217B2CCDDE25E1DD218DEF0610CDF777
:1007D0000710FB217E2CCDDE25218DEF06107E2318
:1007E000FE203809FE7F3005CDC12E18053E2ECDE6
:1007F000C12E10EAC327263E20CDC12E3A14EFB7F2
:1008000020203A10EFBD20063A11EFBC280F3E2001
:10081000CDC12ECDC12EDD770023DD23C93E0132AF
:1008200014EF3A14EFFE0120E57EDD7700CDEC25D4
:1008300023DD233A12EFBDC03A13EFBCC03E0232B3
:1008400014EFC923CDC826CDD8263014CDC8267EB6
:10085000B7201326002E0A7D3285EF2283EF18334E
:10086000ED5386EF18E6FE2CC2750123CDC826FE97
:100870005320123E013285EF23CD9702DA7501ED48
:100880004383EF180ECDD826DA7501ED5383EFAF11
:100890003285EFCDBB2E2806CDB02EC32C01CD2244
:1008A00009CDE708218DEFCDDE253A85EFB7200E83
:1008B0002A83EFED4B86EFED4230D8C32C012A831B
:1008C000EF2B2283EF7CB520CAC32C012286EFD503
:1008D000CD2209CDE708D1218DEF012A00EDB0ED41
:1008E0005B86EF3A8CEFC9218DEFED5B86EFCDC2D1
:1008F00010CD5211CD521106043A8CEF4F1A13D578
:100900005FCDCA10CD5211D105280F0D20EFCD5269
:1009100011CD5211CD52110520F4CD5211ED538657
:10092000EFC93E01328CEF112112CDE61021A8EF64
:10093000CD12112A86EF7E010D00216511EDB12047
:1009400012217413CD6810C3E610E6380F0F0F4F55
:100950000600C9FE0A2819FE1A2823FE022824FED2
:10096000122829FEF9202A11A62ECD3911C30C1107
:1009700011652ED5CD3611D1CD2011C31211116CB8
:100980002E18F011652ECD2811C30111116C2E18EF
:10099000F5FE40DA290AFE803028FE762006112472
:1009A00012C3E610CD4A09CD651021A8EFCD39114B
:1009B000ED5B86EF1AE6074F0600E5CD6510E1C353
:1009C0000F11FE883008CDE310CD361118E2FE90ED
:1009D000300B112D12CDE610CD361118D3FE983004
:1009E00008113112CDE61018C7FEA0300B113512D8
:1009F000CDE610CD361118B8FEA83008113912CD49
:100A0000E61018ACFEB03008113D12CDE61018A06B
:100A1000FEB83008114112CDE6101894FEC0D2A5E0
:100A20000A114412CDE6101887010800217211ED59
:100A3000B1200EF5114712CDE610F1CD4A09C3BA27
:100A400009010800217A11EDB1200AF5114B12CDF0
:100A5000E610F118E6010400218211EDB1200F111A
:100A60004712CDE610216413CD5C10C312110104AE
:100A700000218611EDB1200F114B12CDE61021643B
:100A800013CD5C10C31211010400218A11EDB120B5
:100A900046CDE31011732ECD3911E5216413CD68D5
:100AA00010E1C30F11010400218E11EDB1200F11CF
:100AB0004F12CDE610216C13CD5C10C3121101044E
:100AC00000219211EDB1200F115312CDE610216CCF
:100AD00013CD5C10C31211FE082817FEE32821FE77
:100AE000EB2025116C2ECD3911CD0C11115812C3EC
:100AF000E610110212CD3911110512CD0F1118ECAB
:100B000011A62ECD281118E1FEE9200F110D12CDEE
:100B1000E61011732ECD1D11C312110108002158CA
:100B200006EDB1200F110912CDE610214C13CD5C5A
:100B300010C31211010800217506EDB12017111D17
:100B400012CDE610792FCB27CB27CB27E6385F21B4
:100B5000A8EFC37110F53E02328CEFF101080021BD
:100B60001607EDB12016CD4A09CD6510CD3911ED2E
:100B70005B86EF131A5FCDB410C31211010A002176
:100B80001E07EDB1C2D00BC5218E13CD6810CDE686
:100B900010C179FE012814B7281AFE073803CD3694
:100BA00011ED5B86EF131A5FC37110CD3611CDC006
:100BB0000BC3121121A8EFCDC00BCD5E11C30111E3
:100BC000CD4911ED5B86EF131A5FCDB410C34D1103
:100BD000FE1020051113121807FE18200C11101218
:100BE000CDE61021A8EFC39510010400216106EDA8
:100BF000B12012111012CDE610215C13CD5C10CD86
:100C00005E11C39510F53E03328CEFF10104002113
:100C10002807EDB1C2260C21A213CD6810CD3911E1
:100C2000CD4E0CC37710FE222812FE322814FE2A65
:100C30002826FE3AC2670CCD36111822CD480CC3C7
:100C40000C11CD480CC30111CD4E0CC37D10E52A0B
:100C500086EF235E2356E1C911732ECD3911CD4E97
:100C60000CCD8C10C31211FEC32008110D12CDE65D
:100C70001018ADFECD2008111812CDE61018A101F4
:100C80000800216506EDB12011110D12CDE61021ED
:100C90004C13CD5C10CD5E111886010800216D0645
:100CA000EDB1200511181218E32A86EF23F53E0254
:100CB000328CEFF1FECBC26F0D7E21A8EFFE08DA79
:100CC000F80CFE10DA010DFE18DA0A0DFE20DA1318
:100CD0000DFE28DA1C0DFE30DA250DFE38DA490D3E
:100CE000FE40DA2E0DFE80DA370DFEC0DA400DCD63
:100CF0004F0D111713C3E610CD540D119212C3E618
:100D000010CD540D119612C3E610CD540D119A1248
:100D1000C3E610CD540D119D12C3E610CD540D1134
:100D2000A012C3E610CD540D11A412C3E610CD5489
:100D30000D11A812C3E610CD4F0D11AC12C3E61071
:100D4000CD4F0D11B012C3E610111B13C3E610F501
:100D5000CD610DF1E6074F0600E5CD6510E1C30F4B
:100D600011E6380F0F0F473E30B07723C35E11FEF8
:100D7000DDC2150F11A02EED5388EF11BE13ED53F8
:100D80008AEF7EFEE3CAC90DFEE9CAB70DFEF9CAB5
:100D9000D80D010400213007EDB1CAE10D010400B6
:100DA000213407EDB1C2F60D21B613CD6810CDE6A2
:100DB0001021A8EFC30611ED5B88EFD5110D12CD00
:100DC000E610D1CD1D11C31211115812CDE610112C
:100DD000A62ECD2811C3061111A62ECD3911C3069A
:100DE00011CDE310ED5B88EFCD3911E52A8AEFCD07
:100DF0006810E1C30F11F53E03328CEFF1010E00D4
:100E0000219611EDB1CA350EFE86CA600EFE8ECA5D
:100E10006B0EFE9ECA700E01070021A411EDB1C237
:100E2000750E21CE13CD6810CDE610ED5B88EF2155
:100E3000A8EFC32C1079FE07D24D0EED5B88EFCDE5
:100E40002310E521DC13CD6810E1C30F11D6074F45
:100E500021DC13CD6810CD3911ED5B88EFC32C1068
:100E6000112912CDE610CD361118EE112D1218F3FE
:100E700011351218EEF53E04328CEFF1FE21CA9BBB
:100E80000EFE22CAA80EFE2ACAB10EFE36C2C10E3E
:100E9000ED5B88EFCD23105AC37110ED5B88EFCD69
:100EA0003911CD5110C37710CD5110CD7D10C3062F
:100EB00011ED5B88EFCD3911CD5110CD8C10C312DF
:100EC00011FECBC2490DCD51107A01070021AB11A3
:100ED000EDB1C2E10E211414CD6810CDE610C32B84
:100EE0000E01180021B211EDB1C2490DFE80DA05E4
:100EF0000FFEC0DA0D0F111713CDE61021A8EFCDAC
:100F0000610DC3590E11AC12CDE61018EF11B012DD
:100F1000CDE61018E7FEEDC212107E01380021CA9E
:100F200011EDB1C2490D79FE06DAF30FFE1BDAE5C9
:100F30000FFE1EDAD20FCAB20FFE1FCABB0FFE2071
:100F4000CAC40FFE21CACD0FFE26DAA10FFE2ADA8F
:100F50008B0FFE31DA700F118F12CDE61079D6317A
:100F60004F21DC13CD6810CD3911111F13C30F11A0
:100F7000118B12CDE610111F13CD391179D62A4FDE
:100F8000E521DC13CD6810E1C30F11113512CDE658
:100F90001011732ECD391179D6264FE5216413181F
:100FA000E3112D12CDE61011732ECD391179D62211
:100FB00018E8CD361111AE2EC30F11CD361111AC7C
:100FC0002EC30F1111AE2ECD3911C3011111AC2E4C
:100FD00018F511B812CDE6103E1D91C63021A8EFCC
:100FE0007723C31211D6064F060021EA13CD6810ED
:100FF000C3E6103E04328CEFC57921AA13CD6810E8
:10100000C179FE03DAB50ED5CD5110CD7D10D1C317
:101010000F1111A32EED5388EF11C613ED538AEF74
:10102000C3820D21A8EFCD3210C35E11CD3210C3A3
:101030001211CD4911CD4111CD51107BFE80380CDC
:10104000ED445FCD5A11CDB410C34D11CD561118DA
:10105000F5E52A86EF23235E2356E1C9CD681021EA
:10106000A8EFC34111213C13CB21CB10095E2356BD
:10107000C9CDB410C31211CDA310C3121121A8EF12
:10108000CD4911CDA310CD4D11C35E11CD4911CD68
:10109000A310C34D11E52A86EFCDF405EBE1CDA3F6
:1010A00010186F7AFEA038043E307723CDC2103E70
:1010B00048C34F117BFEA038043E307723CDCA10C1
:1010C00018ED7ACDD3107ACDD7107BCDD3107BCD50
:1010D000D710C90F0F0F0FE60FF630FE3A3870C663
:1010E00007186C112912F5C5060821A0EF1AB728B8
:1010F000067723130518F63E2077230520FBC1F160
:10110000C911632E1809ED5B88EF180311732ECDFA
:1011100041113E0D77233E0A7723AF77C921A8EF0F
:10112000CD4911CD4111182521A8EFCD4911CD414F
:1011300011CD4D11182811632E21A8EFCD411118A2
:101140001D1A77B7C8231318F83E2818023E2977CE
:1011500023C93E2018F93E2B18F53E2D18F13E2CE0
:10116000CD4F1118ED00070F171F272F373FC9D993
:10117000F3FB040C141C242C343C050D151D252DEB
:10118000353D031323330B1B2B3B09192939C1D1DF
:10119000E1F1C5D5E5F5464E565E666E7E7071721C
:1011A0007374757796A6AEB6BE3435060E161E2637
:1011B0002E3E464E565E666E767E868E969EA6AE17
:1011C000B6BEC6CED6DEE6EEF6FE404850586068A3
:1011D0007841495159616979425262724A5A6A7A30
:1011E000474F575F46565E44454D676FA0A1A2A387
:1011F000A8A9AAABB0B1B2B3B8B9BABB4353734B49
:101200005B7B41460041462700524554004A50004E
:101210004A5200444A4E5A0043414C4C00525354E7
:10122000004C440048414C54004144440041444374
:10123000005355420053424300414E4400584F5220
:10124000004F5200435000494E4300444543005074
:101250004F50005055534800455800455858004ECF
:101260004F5000524C4341005252434100524C41B6
:1012700000525241004441410043504C0053434608
:1012800000434346004449004549004F5554004936
:101290004E00524C430052524300524C00525200F6
:1012A000534C41005352410053524C0042495400A8
:1012B000524553004E454700494D0052524400529A
:1012C0004C44004C44490043504900494E49004FAA
:1012D000555449004C44440043504400494E440096
:1012E0004F555444004C4449520043504952004920
:1012F0004E4952004F544952004C4444520043500E
:10130000445200494E4452004F54445200524554F6
:1013100049005245544E00534554003F3F3F00287A
:1013200043290028484C29004E5A005A004E4300D9
:101330004300504F0050450050004D00682E6A2E6B
:101340006F2E712E762E782E2313632E3A133813B8
:101350003513321330132D132B13281330132D1381
:101360002B132813A62E732E6C2E652E0212732EAD
:101370006C2E652E881285125B12091281127D1265
:101380007912751271126D12681263125F128B124C
:101390008F12441241123D123912311235122D12A0
:1013A0002912A62E732E6C2E652EA62E6C2E652E5F
:1013B000A62E6C2E652E4F1253124B124712A62EDC
:1013C000A02E6C2E652EA62EA32E6C2E652E4B12F3
:1013D0004712441241123D1239123112632E782EF7
:1013E000762E712E6F2E6A2E682E08130313FE12AE
:1013F000F912F412EF12EA12E512E012DC12D8121E
:10140000D412CF12CB12C712C312BF12BB120D13CC
:101410001213B412A812A412A0129D129A129612BC
:101420009212ED5B32EFED5347EF23CDC826CDD8B6
:10143000263003B7280A7AFEF0D27501ED5347EF44
:10144000CDC8267EB72818FE2CC2750123CDC8262C
:10145000CDD826DA75012160EFCD3A03DA75012A7D
:1014600047EF2232EF3A50EFB7281A2A4DEF2232D7
:10147000EF2150EF1152EFCDDD142154EF1156EF53
:10148000CDDD14181B2158EF115AEFCDDD14215C6E
:10149000EF115EEFCDDD142160EF1162EFCDDD14B1
:1014A0002A30EFF92A32EFE5DD2A2CEFFD2A2EEF64
:1014B0002A24EFE5ED4B26EFED5B28EF2A2AEFD942
:1014C000F1082A1CEFE5ED4B1EEFED5B20EF2A2221
:1014D000EF3A34EFED473A35EFED4FF1C97EB7C83B
:1014E0001A4F131A473EFF02C923CDC826CDD8266E
:1014F000DA7501CDC8267EB7C2750179B72004ED33
:101500005B17EFEBCDE725E521822CCDDE25E17ED3
:10151000E5CDEC253E20CDC12ECD3E26CDC8267E84
:10152000B72007E1232217EF18DAFE2D2007E12B61
:101530002217EF18CFFE2E2007E12217EFC32C0150
:10154000CDD826B7E1CA750173232217EFED5B5A98
:10155000EF1A3259EFED5B5EEF1A325DEF18A5AF6F
:101560004F3258EF325CEF3236EF23CDC826FE47BC
:1015700020063236EF231803CDD826CDC826B7C2B1
:10158000750179B720031100003E2ECDC12ECDB0DC
:101590002EFE532878FE3A280DFE0D28ECFE0A2870
:1015A000E8CDB02E18F3CD03264F47CD0326678133
:1015B0004FCD03266F814F19CDFE15CD0326321A6C
:1015C000EF814F78B72814CD0326F5814F3A1AEFF3
:1015D000B72005F177231801F110ECCD0326812007
:1015E000143A1AEFB7CAA115CD27263A36EFB72815
:1015F0000A2A37EFE921592CCDDE25C32C013A36D2
:10160000EFFE47C02237EF3E013236EFC9CDB02E94
:10161000321AEFCD0326474FCD032667814FCD0306
:10162000266F814F19CDFE150505052815CD03261A
:10163000F5814F3A1AEFFE312005F177231801F1B9
:1016400010EBCD032681FEFF20123A1AEFFE372859
:10165000AAFE3828A6FE39288FC3A11521662C18AA
:1016600097237EFE492804FE532004233219EFCD30
:10167000C826CDD826B7281CD5DDE1CDC8267EFEEC
:101680002C201123CDC826CDD826B72807CDC826B3
:101690007EB72803C37501DDE5E1EB23B7ED52CD3D
:1016A000BF167CB520F93A19EFFE49200921852C97
:1016B000CDDE25C32C0121932CCDDE25C32C010EBC
:1016C000107CB720057DB930014F0600B7ED4241CF
:1016D0003A19EFFE4920303E3ACDC12E78CDEC25A7
:1016E000487ACDEC257A814F7BCDEC257B814FAFBD
:1016F000CDEC251AF5CDEC25F1814F1310F579EDE0
:1017000044CDEC25C327263E53CDC12E3E31CDC15D
:101710002E78C6034FCDEC257ACDEC257A814F7B10
:10172000CDEC257B814F1AF5CDEC25F1814F1310BF
:10173000F5792FCDEC25C3272623CDC826B7200663
:10174000CDBF17C32C01EB21492DBE280D4F237EA1
:10175000B72869790105000918F0237EFE0F2009DA
:10176000234E236669131A18E1B728504E235E23CF
:1017700056D5237E23666FCDDE253E3DCDC12E7925
:10178000E607FE012008E17EE5CDEC25180CE1E539
:10179000237ECDEC252B7ECDEC253E20CDC12EC564
:1017A000CD3E26CDC826CDD826B7280DC1E179FE7D
:1017B000012003731803732372C32C01C375012125
:1017C000A02C5E2356237AB3CA2726D5EBCDDE257F
:1017D000EBD13E2DBA20073E0BBB200218293E2D2F
:1017E000BA20053E32BB281F5E2356237E23EBFE24
:1017F0000120077ECDEC25EB18C8237ECDEC252BF0
:101800007ECDEC25EB18BB5E2356231AD5E5217956
:10181000EF013B18114318F5F1CB273006F50A7795
:10182000F11804F51A77F1031323F57EB720E9F1D7
:101830002179EFCDDE25E1D1231887535A2E482E8A
:10184000504E432E2E2E2E2E2E2E2E494E4952B95C
:10185000494E4452BB4F555449BD4F544952BE4F57
:10186000555444BF4F544452C048414C54B3524560
:101870005449AF5245544EB0444A4E5AAC43414C81
:101880004CAD43504452A84C444952834C444452BA
:10189000855055534888524C43418A525243418E99
:1018A00043504952A64C4449824C444484455858BC
:1018B00087504F5089524C418B524C438C5252416D
:1018C0008F52524390534C41925352419353524C36
:1018D000944144449541444396494E43975355425D
:1018E00098534243994445439A414E449B584F5222
:1018F0009D43504C9E4E45479F434346A05343460D
:10190000A1424954A2534554A3524553A4435049BC
:10191000A5435044A7524554AE525354B14E4F5074
:10192000B2494E49B8494E44BA4F5554BC4441415E
:10193000C1524C44C2525244C34F5247C4455886C8
:10194000524C8D5252914F529C4350A94A50AA4A30
:1019500052AB494DB6494EB74449B44549B54C44DC
:10196000814442C54457C600284243299A28444529
:10197000299B28484C299C284958299D28495929A0
:101980009E28535029A02843299F4146278341463A
:1019900082424385444588484C8B49588E49598F2B
:1019A0005350904E5A944E4395504F9750459841FE
:1019B000814284438644874589488A4C8C498D52AC
:1019C000915A924D935096002849582BA128495975
:1019D0002BA22849582DA42849592DA50023CD48CC
:1019E00025B72811CDD826DA7501ED5364EFCD481F
:1019F00025B7C275012A64EF2266EFAF3268EF3275
:101A00006AEF326BEF326CEF2A66EFCDE725218269
:101A10002CCDDE252182EFCBCECD3E26E52182EFF7
:101A2000CB8EE1CD98257EFE1B280DFE2E2809B712
:101A3000C2C71ACD441A18C3CD441A2A66EF2264CD
:101A4000EFC32C013E0AC3C12E211B13CD441ACD76
:101A5000DE2521732CCDDE2518A13A6AEFFE44283D
:101A600037FE452838FE46283F3E200E26218DEFC2
:101A700077230D20FB3E0D7723AF77CDDE252A6639
:101A8000EF118DEFD5CDCC08E1CDDE252A66EFCD67
:101A9000BF1A2266EFC3FB19CD441A18EFCDB51A51
:101AA000CDBF1A2212EF1808CDB51A23232212EF48
:101AB000CD900718D7CD441A2A66EF2210EFC93A05
:101AC00069EF4FAF4709C9CD2124DA491A3A68EFC7
:101AD000FE01CAA220FE02CA2C213A6AEF010D00C3
:101AE00021F21AEDB1C2491A21FF1A09094E234603
:101AF000C5C901061516192B373C2A2D2224232986
:101B00001B471B651BE61BF31B131C1C1C5C1C9159
:101B10001C991C121D941D1E1EC0C8D0D8E0E8F0F0
:101B2000F8C6CED6DEE6EEF6FE21191B2275EF21B1
:101B3000211B2277EF183A80889098A0A8B0B88629
:101B40008E969EA6AEB6BE21371B2275EF213F1B97
:101B50002277EF181C4048505860687078464E56FF
:101B60005E666E767E21551B2275EF215D1B227706
:101B7000EF3A6BEFFE19C2491A2A6DEF7CB7C249E2
:101B80001A7DFE08D2491A3A6CEFFE21282CFE2459
:101B9000283AFE22283BFE25283FED4B75EF0956DB
:101BA0003A6CEF21F11D010800EDB1C2491A79FE2E
:101BB0000728033E069182C3CD233A74EF5F16DDFA
:101BC000ED4B77EF094B5E3ECBC3F0233A73EF1832
:101BD000EC3A72EF5F16FD18E73A71EF18F6ECE495
:101BE000F4D4C4FCCCDC11DE1B180BEAE2F2D2C246
:101BF000FACADA11EB1B213E220108003A6BEFED25
:101C0000B1C2491A3A6CEFFE19C2491A626B097ED9
:101C1000C3C12111D341ED4B6BEF180B11DB403ADF
:101C20006BEF473A6CEF4F79FE23281FFE1FC24926
:101C30001A78FE01280F21DB1D010600CD801CDA79
:101C4000491A7A18037AC638C31B242A6FEF7CB767
:101C5000C2491A7DF57B18251412150621581C015E
:101C6000040016203A6BEFCD801CDA491A3A6CEF6B
:101C7000FE19C2491ACD6A25DA491AF57AC3E32159
:101C8000EDA1280C5F7AC6085779B07B20F237C9DE
:101C9000C9119F423EDE081806118F4A3ECE083A0F
:101CA0006BEFFE01282AFE0BC2491A3A6CEFFE05C3
:101CB0002819FE082811FE0B2809FE10C2491A3EF9
:101CC0003018093E2018053E101801AF82C31B24AE
:101CD0003A6CEF21F11D010900EDB1201879FE08E1
:101CE0002810B728057B91C3B5202A6DEF0857C38C
:101CF000AE1E7B18F221FA1D010400EDB1C2491A93
:101D00002171EF0956790EFDFE0238020EDD1DC36A
:101D1000F11E1187093EC6083A6CEF473A6BEFFE99
:101D20000128ADFE0B2847FE0E2809FE0FC2491AF6
:101D30000EFD18020EDD78FE052819FE082819FE92
:101D40000E2819FE0FCA661DFE10C2491A3E39F54B
:101D500079C3E3213E0918F73E1918F379FEDDC275
:101D6000491A3E2918E979FEFDC2491A18F478FE8D
:101D7000052812FE082813FE0B2814FE10C2491A6B
:101D80003E39C3E71C3E09C3E71C3E19C3E71C3EAE
:101D900029C3E71C3A6CEF473A6BEFFE022826FE98
:101DA00008282CFE20C2491A781EE3FE0B2813FED9
:101DB0000E16DD2807FE0FC2491A16FD7BF57AC301
:101DC000E3217B181278FE03C2491A3E08180878EE
:101DD000FE0BC2491A3EEBC3B52001040607090AEF
:101DE0000C05080B0E0F212422250D10111A1B1CA7
:101DF0002301040607090A0C1C19212422251A1B99
:101E00000D112368605850484078661E771E7C1E6E
:101E1000801E851E8A1E981E9D1EA51EAA1E3A6B38
:101E2000EF21DA1D010700EDB1C2BC1E21031E091E
:101E3000563A6CEF21F11D010800EDB1200C79FE3E
:101E40000728033E0691B2C3B52021F91D010A00FF
:101E5000EDB1C2491A79FE0530067AFE78C2491AF8
:101E6000210A1EC3EB1A3E3A2A66EF7723ED5B6F19
:101E7000EF732372C3CD213E5FC31B243E5718F975
:101E80003E1AC3B5203E0AC3B5203A71EF4F1EFD7E
:101E90003E06B2577BC3D8223A72EF18F03A73EF7E
:101EA0004F1EDD18EB3A74EF18F67AD63A572A6DC2
:101EB000EF7CB7C2491A7DF57AC3E321010500ED35
:101EC000B1207479B7286CFE01284EFE022835FE39
:101ED00003282916ED1E4B0E013A6CEFFE19280A55
:101EE0007B216FEF4E235EC3F023216DEF5E2356FF
:101EF000792A66EF7123732372C3CD2116ED1E5B21
:101F00000E1118D50E21ED5B6DEF3A6CEFFE19281E
:101F1000E00E2AED5B6FEF18D816DD0E21216DEF74
:101F20003A6CEFFE1928050E2A216FEF794E235ED9
:101F3000C3F02316FD18E4010400EDB1203F217128
:101F4000EF0956791EFDFE0238021EDD3A6CEFFEE7
:101F500019281A21DA1D010700EDB1C2491A79FECC
:101F6000063E7728033E75914B5FC3F11E2A6DEF45
:101F70007CB7C2491A3E364A535DC3F023010700BD
:101F8000EDB1C2491A218B1FC3EB1AA71FDC1F49F1
:101F9000204D2052200B205720010B0508100E0F5A
:101FA000222273534322323A6CEF21991F0107001A
:101FB000EDB1C2491A21A01F09794E2A6FEFFE0523
:101FC00038055D54C3F11EFE02380816ED794D5CEC
:101FD000C3F02316FDB728F516DD18F13A6CEFFEB5
:101FE000192819FE01281121DB1D010600EDB1C2DF
:101FF000491A3E7591C3B5203E7718F92A6DEF7CDA
:10200000B7C2491A7DF53E36C3E3213A6CEFFE0BA9
:10201000281DFE0E281DFE0F281DFE192822FE2356
:10202000C2491A16ED3E7B2A6FEF4D5CC3F0233E8A
:10203000F9181C16DD180216FD3EF9F57AC3E321E6
:102040000E31ED5B6DEFC3F11E3E1218023E02C36E
:10205000B5203E4FC31B243E47C31B24070A0B0E6B
:102060000F1E20212E323334354127FBF37600C971
:10207000373F2F1F0F1707D9272825263A3B383916
:10208000040502031F403E3F3D2F304243676F452A
:102090004DA3ABB3BB44B0A0B8A8B2A2BAAAB1A139
:1020A000B9A93A6AEF010E00215C20EDB1C2C1204E
:1020B000216A20097E2A66EF773E013269EFC35A12
:1020C0001A011500217820EDB1C2491A2A66EF3EA7
:1020D000ED7723EB218D20097E123E0218DD0809E1
:1020E000171A181B1C1D292A2E312B2C2D0C100DF4
:1020F0001112131436444546402155218E21FF23E9
:1021000099239E23A323A823AD23B223B723B7216A
:10211000D221ED2100222A224E2288228C229022D6
:10212000942298221A231F23612365233A6AEF0120
:102130001A0021DE20EDB1C2491A21F820C3EB1AA2
:102140003A6BEFFE19C2491A2A66EFED4B6DEF713B
:102150002370C3DA203A6BEFFE192820FE26C2490D
:102160001A2A6DEFAF4FED5B66EF7EFE222809B7AE
:1021700028061223130C18F279C3BB20ED4B6DEF28
:1021800078B7C2491A2A66EF713E01C3BB203A6B89
:10219000EFFE19C2491AAF2A6DEF0100C0ED42DA15
:1021A000491A0100F02A6DEFED42D2491A2A6DEF6B
:1021B0002266EFAFC3BB203A6BEFFE19C2491A3E4D
:1021C000CD2A66EF7723ED5B6DEF7323723E03C379
:1021D000BB203A6BEFFE19C2491ACD6A25DA491ABB
:1021E000F53E102A66EF7723F177C3DA203A6BEFDA
:1021F000FE19C2491ACD6A25DA491AF53E1818E3C4
:102200002A6DEF7CB7C2491A7D211A22010800ED20
:10221000B1C2491A212222C3B32000081018202875
:102220003038FFF7EFE7DFD7CFC73A6BEF213E2219
:10223000010800EDB1C2491A214622C3B32006129B
:10224000131415161718E8E0F0D0C0F8C8D83A6B88
:10225000EFFE1928212EE9FE1C2817FE1D280CFE72
:102260001EC2491A7DF53EFDC3E3217DF53EDDC367
:10227000E3217DC3B5203EC3C3C121060606064641
:10228000060504030201000716B8180E16A8180A5E
:1022900016B0180616A0180216903A6BEF21F11D21
:1022A000010D00EDB1C2491A217B22097EB2577996
:1022B000FE05DAB9227AC3B520FE04380E2A6DEF86
:1022C0007CB7C2491A7DF57AC3E321FE023EFD3890
:1022D000023EDD2171EF094E2A66EF777A237723DC
:1022E00071C3CD21010405060708090A0B0C101C57
:1022F0000E0F21242225353535352B2B353B2D2B43
:10230000251D1B150D0B053D343434342323343384
:102310002C23241C13140C03043C11F62218031163
:1023200008233A6BEF21E422011200EDB1626BC287
:10233000491A7916FDFE06D2B320097E5F79FE04A4
:102340003808280216DD7BC3C622FE02380216DDDD
:102350007A53C3D3220205080B0E0FE0E0E0D0C091
:10236000F01601180216052155230106003A6BEFFD
:10237000EDB1C2491A215B23097EB25779FE027A78
:10238000D2B5201EFD79B728021EDD7AF57BC3E3A6
:10239000210605040302010007113E38181C112E06
:1023A0002818171126201812111E18180D111610B2
:1023B0001808110E0818031106003A6BEF21F11DE1
:1023C000010800EDB1200C219123097EB2F53ECB2E
:1023D000C3E32121FA1D010400EDB1C2491A16FD23
:1023E00079FE02380216DD2171EF094E23463ECBFD
:1023F0002A66EF722377237123733E04C3BB203A0E
:102400006EEFB7C2491A3A6DEFFE03D2491A0E4673
:10241000B728070E563D28020E5E79F53EEDC3E360
:1024200021CDE424D8326AEFCD5B247EB7C8FE20EC
:10243000C25924CD6324D8326BEF08CD5B2408FE4B
:1024400026C87EB7C8FE2C2010CD6324D8326CEF8E
:10245000CD5B247EB72002C9F137C93A68EF3C3220
:1024600068EFC923CDDA24D0CDDF243840F5CD0D77
:1024700025DA58247AB720E07EFE2920DB23F1F507
:10248000FE2120050174EF1807FE22200B0172EFD8
:102490007BFE8030C302F1C9FE24200C0173EF7B68
:1024A000FE8130B4ED4418ED0171EF18F27EFE2884
:1024B000201223CD0D25D87EFE29209D23ED536FBC
:1024C000EF3E23C9FE22200723226DEF3E26C9CD11
:1024D0000D25D8ED536DEF3E19C9116819180B1170
:1024E000C8191806218DEF114B18E51ABE200423D8
:1024F0001318F8E680200E131AE68028FA131AB78C
:102500002808E118E51AE67FD1C9E137C911B0EF13
:102510000E00CD4F25D81213230CCD5925380B12A0
:1025200013230C79FE07282F18F008AF1208FE4875
:10253000280BE521B0EFCD8F02E15059C923E521E9
:10254000B0EFCDD826E1B7C97EFE20C02318F97EB2
:10255000FE3A3003FE30D037C97EFE30D8FE3A381E
:1025600007FE41D8FE4730EFB7C9E5D5ED5B66EF12
:1025700013132A6DEFAFED52380D7CB720177DFE97
:10258000803012B7D1E1C97CFEFF20097DED44FE09
:10259000817D3F18EF3718ECE5D5C5218DEF545DEF
:1025A0000E20CD4825CDBD25B7280E0E0023CD48E1
:1025B00025B72803CDBD251B12C1D1E1C9060012E4
:1025C00013B7C8B9C8FE2220060878EE01470823D1
:1025D0007EB928EBCB4020E7FE2028E918E17EA752
:1025E000C8CDC12E2318F77CCDEC257DF51F1F1F0C
:1025F0001FCDF525F1E60FC630FE3ADAC12EC6072B
:10260000C3C12EAFCD0B2607070707C54FCDB02E90
:10261000FE303811FE3A380AFE413809FE473005CF
:10262000D607D630B1C1C93E0DCDC12E3E0AC3C1B9
:102630002EE5213A26CDDE25E1C91B5B3200218D36
:10264000EF0628D5E5581D0600CDB02EFE0D285A00
:10265000FE0A2856FE08283BFE7F2837FE22200A65
:10266000F53A82EFEE043282EFF1FE2038DBFE8095
:1026700030D74F78BB30D20479CDC12EFE61380FF0
:10268000FE7B300BE52182EFCB562002E6DFE177BF
:102690002318B678A728B2052B3E08CDC12E3E20C0
:1026A000CDC12E3E08CDC12E189FE52182EFCB462D
:1026B00020053E0DCDC12ECB4E20053E0ACDC12EAC
:1026C000CB96E13600E1D1C97EFE20C02318F9FE89
:1026D00061D8FE7BD0C6E0C90E001100007EFE303E
:1026E000382CFE3A380AFE413824FE473020D607FF
:1026F000D6301717171717CB13CB1217CB13CB12D4
:1027000017CB13CB1217CB13CB12230C18CF79B7DF
:102710002806FE053002B7C937C9E5C521372706A7
:10272000000909016327B7E5ED42E130074623665A
:1027300068C1E3C9C1E1C97E006327C12EDE25B0AF
:102740002EBB2EA527E725EC25F52531264326C8E7
:10275000262726CF26D8267829AE29242ADC28CC7D
:10276000088F023100EF3A60EFB728062161EFCD04
:1027700094283A50EFB728062151EFCD94283A54C7
:10278000EFB728062155EFCD94283A5CEFB728061D
:10279000215DEFCDA0283A58EFB728062159EFCD9B
:1027A000A028C36A28AFC9F5ED5F3235EFED573287
:1027B00034EF2222EFED5320EFED431EEFE1221C18
:1027C000EF08F5D9222AEFED5328EFED4326EFE18C
:1027D0002224EFDD222CEFFD222EEFE12B2232EF1F
:1027E000ED7330EF3100EFAF575F3A60EFB7280974
:1027F00011CA282161EFCD94283A5CEFB72809115E
:10280000CA28215DEFCDA0283A58EFB7280911CA90
:10281000282159EFCDA0283A50EFB7280911D32825
:102820002151EFCD94283A54EFB7280911D328212C
:1028300055EFCD94287AB3200311C0281AFE5428EE
:102840000CEBCDDE25CDBF17CDA728181D3A49EFDB
:10285000FE46280AEBCDDE25CDBF17CDA728CDBB80
:102860002E2813CDB02EFE03200CAF324FEF676F32
:10287000224BEFC32C013A4FEFB7C28B282A4BEF04
:102880002B224BEF7DB42003C32C012A32EF224DC3
:10289000EFC3BB04E57E234E234602E1AF2B77C98D
:1028A0007E234E234602C92A32EF2286EFCD22092B
:1028B000CDE708218DEFCDDE252A32EF2286EFC944
:1028C000525354203338480D0A00427265616B211F
:1028D0000D0A005472616365210D0A00F5E5B72801
:1028E0000FFE012814FE022816FE032850E1F1C94C
:1028F0002100F83E9077E1F1C92100F83E10773AC7
:1029000010F83239EF3A11F8323AEF01E1872A39FB
:10291000EF7CB52006ED4339EF1805ED422239EF83
:102920003A20F8323BEF3A21F8323CEF2A39EFCD2A
:102930005C29ED433DEFED5B3BEFE1F1C9AF676F24
:10294000223DEF223BEF2239EF3220F83221F83ED0
:10295000E83210F83E863211F8E1F1C9AF474F2A4C
:1029600039EF7DFE1F3806D61F6F0318F67CB7C8F7
:102970007DD61FED442518F1F5C5D5E5DDE5E5DD8E
:10298000E1EBE521050019AF77EBE10101003E0A1B
:10299000CDAE29F6301B120C7CB520F279FE06284C
:1029A00006DDE5E1EBEDB0DDE1E1D1C1F1C9C5D571
:1029B0004F060FAF291791380D292C1791380C2984
:1029C0002C10F8C3CF2929178138F42910F981D1A7
:1029D000C1C9223FEFED5341EFAF3243EF3244EF35
:1029E0003245EF3246EF06102143EFCB2623CB16BC
:1029F000213FEFCB2623CB162145EFCB1623CB1659
:102A00002A41EF5D542A45EFAFED523002180B22F8
:102A100045EF3A43EFF6013243EF10CC2A43EFED96
:102A20005B45EFC9F5C5B71804CB21CB101F30F9B2
:102A30000920F6C1F1C93F203A436F6D6D616E64A4
:102A40002048656C700D0A234C7C3C6E756D3E20F1
:102A50003A4C61756E63682070726F6772616D0DBC
:102A60000A415B3C616464726573733E5D203A2089
:102A70004D696E6920417373656D626C65206D6F81
:102A800064650D0A425B317C325B2C3C6164723EB2
:102A90005D5D203A536574206F72204C6973742019
:102AA000427265616B20506F696E740D0A42435B20
:102AB000317C325D203A436C6561722042726561FF
:102AC0006B20506F696E740D0A445B3C6164723E0A
:102AD0005D203A44756D70204D656D6F72790D0AF9
:102AE00044495B3C6164723E5D5B2C733C7374656E
:102AF00070733E7C3C6164723E5D203A4469736150
:102B00007373656D626C650D0A475B3C6164723E70
:102B10005D5B2C3C73746F70206164723E5D203A83
:102B2000476F20616E642053746F700D0A4C5B47D1
:102B30007C3C6F66667365743E5D203A4C6F6164E1
:102B40002048657846696C652028616E6420474F8F
:102B5000290D0A505B497C535D203A53617665200C
:102B600048657846696C6528493A496E74656C2CED
:102B7000533A4D6F746F726F6C61290D0A525B3C52
:102B80007265673E5D203A536574206F722044750C
:102B90006D702072656769737465720D0A535B3CD2
:102BA0006164723E5D203A536574204D656D6F72AD
:102BB000790D0A545B3C6164723E5D5B2C3C73741E
:102BC0006570733E7C2D315D203A205472616365DF
:102BD00020636F6D6D616E640D0A544D5B497C53CB
:102BE0005D203A5472616365204F7074696F6E2086
:102BF000666F722043414C4C0D0A54505B4F4E7C23
:102C00004F46465D203A5472616365205072696E8A
:102C100074204D6F64650D0A000D0A454D555A38F4
:102C200030204D4F4E49544F52205265762E42303F
:102C3000340D0A54686973206D6F6E69746F722069
:102C40006973206261736564206F6E20756E696DB3
:102C50006F6E2E0D0A005D20004572726F72206942
:102C60006865780D0A004572726F72207372656331
:102C70000D0A004572726F720D0A00203A00207C26
:102C800020002020003A303030303030303146469D
:102C90000D0A00533930333030303046430D0A00CE
:102CA000F52C1DEF01F92C1EEF02FF2C20EF020581
:102CB0002D22EF020B2D1CEF01102D2CEF02152DF4
:102CC0002EEF021A2D25EF01202D26EF02262D28AA
:102CD000EF022C2D2AEF02322D24EF01372D30EF99
:102CE000023C2D32EF02412D34EF01452D35EF012D
:102CF000000000000041203D00204243203D002014
:102D00004445203D0020484C203D002046203D0009
:102D10002049583D002049593D000D0A41273D00FA
:102D2000204243273D00204445273D0020484C27B2
:102D30003D002046273D002053503D002050433D9C
:102D40000020493D0020523D00410F932D000042DC
:102D50000FA12D0000430FC32D0000440FD12D0003
:102D600000450FF32D0000460F012E0000480F0F05
:102D70002E0000490F3F2E00004C0F312E00005056
:102D80000F532E0000520135EFAE2E530F5B2E0075
:102D900000000000011DEF632E270125EF7C2E00AF
:102DA0000000011FEF682E270127EF832E430FB588
:102DB0002D0000000000021EEF652E270226EF7F87
:102DC0002E000000011EEF6A2E270126EF862E003E
:102DD00000000121EF6F2E270129EF8D2E450FE511
:102DE0002D00000000000220EF6C2E270228EF8942
:102DF0002E0000000120EF712E270128EF902E00F9
:102E00000000011CEF7A2E270124EF9D2E00000008
:102E10000123EF762E27012BEF972E4C0F232E0048
:102E2000000000000222EF732E27022AEF932E00EB
:102E300000000122EF782E27012AEF9A2E000000D1
:102E40000134EFAC2E58022CEFA02E59022EEFA326
:102E50002E0000430232EFA92E0000500230EFA6F0
:102E60002E0000410042430042004300444500441C
:102E7000004500484C0048004C00460041270042F5
:102E800043270042270043270044452700442700EA
:102E9000452700484C27004827004C2700462700BC
:102EA000495800495900535000504300490052000E
:102EB0003A01FFCB4728F93A00FFC93A01FFCB4757
:102EC000C9F53A01FFCB4F28F9F13200FFC9FFFFE6
:102ED000FFFFFFFFFFFFFFFFFFFFFFFFFFFFFFFF02
:102EE000FFFFFFFFFFFFFFFFFFFFFFFFFFFFFFFFF2
:102EF000FFFFFFFFFFFFFFFFFFFFFFFFFFFFFFFFE2
:102F0000C3062FC36B2FC30D2FAC37223F2145C003
:102F1000F9C3374B11D53106632145C01A77231306
:102F200005C21C2FF9CDD633CDA23932EFC0323EC7
:102F3000C121C0EE11A1C1CD6C35DA742F11CEFFC5
:102F400022F4C019229FC0CDB1332A9FC011EFFFD8
:102F500019113EC17D936F7C9A67E5218C2FCD407E
:102F600040E1CDE346217D2FCD404031ABC0CDD6F1
:102F700033C3EF3221C32FCD4040C37A2F20427993
:102F800074657320667265650D0A00005A3830203A
:102F900042415349432056657220342E37620D0A50
:102FA000436F70797269676874202843292031392A
:102FB0003738206279204D6963726F736F66740DC4
:102FC0000A00004D656D6F72792073697A65206E15
:102FD0006F7420656E6F7567680D0A54686520739D
:102FE000797374656D2069732073746F7070656494
:102FF0002E0D0A000058451C466E4548C0003F850E
:10300000422E3FE247C148FD43304836493C499D86
:1030100049B249D9421C4A96C0B241CA3F4C42C14A
:1030200041D2413E4AD14AE24112421C42C54E447D
:10303000C64F52CE455854C4415441C94E505554C0
:10304000C4494DD2454144CC4554C74F544FD25545
:103050004EC946D24553544F5245C74F535542D29D
:10306000455455524ED2454DD3544F50CF5554CF61
:103070004ECE554C4CD7414954C44546D04F4B4594
:10308000C44F4B45D3435245454ECC494E4553C39F
:103090004C53D749445448CD4F4E49544F52D345D1
:1030A00054D245534554D052494E54C34F4E54CC3C
:1030B000495354C34C454152C34C4F4144C35341FF
:1030C0005645CE4557D4414228D44FC64ED35043DF
:1030D00028D448454ECE4F54D3544550ABADAAAF3B
:1030E000DEC14E44CF52BEBDBCD3474EC94E54C1C3
:1030F0004253D55352C65245C94E50D04F53D35167
:1031000052D24E44CC4F47C55850C34F53D3494E6B
:10311000D4414EC1544ED045454BC445454BD04F8C
:10312000494E54CC454ED3545224D6414CC15343FE
:10313000C3485224C8455824C2494E24CC4546545D
:1031400024D24947485424CD494424804437413649
:103150001C3B9138233A583D523AA8384E38313802
:1031600020390A373D386C3893384237914202395A
:1031700083379742363FE042274A93380D4A014A47
:10318000054A334B99C09CC044397037B635EB378C
:1031900093389338B03379CA4679FE427C3C447CFC
:1031A0009D447FEB4750B13C46B03C4E46534E5297
:1031B000474F4446434F564F4D554C425344442F7E
:1031C000304944544D4F534C535354434E55464D40
:1031D0004F4858424EC36B2FC3C137D300C9D600E6
:1031E0006F7CDE006778DE00473E00C900000035D6
:1031F0004ACA99391C76982295B3980ADD479853A4
:10320000D199990A1A9F9865BCCD98D6773E985265
:10321000C74F80DB00C901FF1C0000140014000030
:10322000000000C3E934C30000C30000C30000A2D3
:10323000C1FEFF3FC1204572726F720020696E208F
:10324000004F6B0D0A0000427265616B00210400A3
:10325000397E23FE81C04E234623E569607AB3EBB5
:10326000CA6732EBCD6C35010D00E1C809C351329C
:10327000CD8A32C5E3C1CD6C357E02C80B2BC37637
:1032800032E52A1FC1060009093EE53ED0956F3E92
:10329000FF9CDA99326739E1D81E0CC3B8322A0E86
:1032A000C122A1C01E02011E14011E00011E120136
:1032B0001E22011E0A011E18CDD633328AC0CD95BA
:1032C0003921AB31573E3FCD7D35197ECD7D35CD92
:1032D000FA36CD7D35213532CD40402AA1C011FED0
:1032E000FFCD6C35CA0D2F7CA53CC4DB463EC1AF7B
:1032F000328AC0CD9539214132CD404021FFFF2295
:10330000A1C0CDE934DAFC32CDFA363C3DCAFC32FC
:10331000F5CDC637D5CD003447D1F1D2DA36D5C593
:10332000AF3211C1CDFA36B7F5CD9033DA3533F17E
:10333000F5CA6738B7C5D24C33EB2A1BC11A020352
:1033400013CD6C35C23D336069221BC1D1F1CA7304
:10335000332A1BC1E3C109E5CD7032E1221BC1EB69
:1033600074D123237323722311A6C01A772313B7B2
:10337000C26B33CDBC3323EB626B7E23B6CAFC3207
:10338000232323AFBE23C28433EB732372C378336A
:103390002AA3C0444D7E23B62BC823237E23666F09
:1033A000CD6C3560697E23666F3FC83FD0C39333D1
:1033B000C02AA3C0AF77237723221BC12AA3C02B27
:1033C0002213C12AF4C02208C1AFCD0A372A1BC17B
:1033D000221DC1221FC1C12A9FC0F921F8C022F6B7
:1033E000C0AF6F672219C13210C12223C1E5C52ABF
:1033F00013C1C93E3FCD7D353E20CD7D35C393C041
:10340000AF32F3C00E0511A6C07EFE20CA88344735
:10341000FE22CAA834B7CAAF343AF3C0B77EC28816
:1034200034FE3F3E9ECA88347EFE30DA3334FE3CA2
:10343000DA8834D5112C30C5018434C5067F7EFE70
:1034400061DA4C34FE7BD24C34E65F774EEB23B628
:10345000F24E34047EE67FC8B9C24E34EBE5131A4F
:10346000B7FA80344F78FE88C26F34CDFA362B23FA
:103470007EFE61DA7834E65FB9CA5E34E1C34C346B
:1034800048F1EBC9EB79C1D12312130CD63ACA9695
:1034900034FE49C2993432F3C0D654C20934477E4F
:1034A000B7CAAF34B8CA883423120C13C39F34216F
:1034B000A5C01213121312C93A89C0B73E0032894F
:1034C000C0C2CC3405CAE934CD7D353E052BCAE0F7
:1034D000347ECD7D35C3F234052BCD7D35C2F2343B
:1034E000CD7D35CDA239C3E93421A6C00601AF3266
:1034F00089C0CDA5354FFE7FCAB8343A89C0B7CA56
:103500000B353E00CD7D35AF3289C079FE07CA4FFD
:1035100035FE03CCA23937C8FE0DCA9D39FE15CA47
:10352000E334FE40CAE034FE5FCAD834FE08CAD88D
:1035300034FE12C24A35C5D5E53600CD464B21A62C
:10354000C0CD4040E1D1C1C3F234FE20DAF234787C
:10355000FE493E07D2643579713211C12304CD7D15
:1035600035C3F234CD7D353E08C35E357C92C07DD7
:1035700093C97EE3BE23E3CAFA36C3A432F53A8A7E
:10358000C0B7C27540F1C5F5FE20DAA1353A87C053
:10359000473AF0C004CA9D3505B8CCA2393C32F098
:1035A000C0F1C1CFC9CDFF49E67FFE0FC03A8AC046
:1035B0002F328AC0AFC9CDC637C0C1CD9033C5CD7B
:1035C0000C36E14E23462378B1CAEF32CD1536CD05
:1035D0002537C5CDA2395E235623E5EBCDE3463E24
:1035E00020E1CD7D357EB723CAC235F2E235D67FE4
:1035F0004F112D301A13B7F2F4350DC2F435E67FB2
:10360000CD7D351A13B7F2FE35C3E535E52A8DC0F9
:10361000228BC0E1C9E5D52A8BC011FFFFED5A22EC
:103620008BC0D1E1F0E52A8DC0228BC0CDFF49FED1
:1036300003CA3836E1C315362A8DC0228BC0C36E4B
:103640002F3E643210C1CDA838C1E5CD9138220C8F
:10365000C121020039CD5132D1C2713609D52B5664
:103660002B5E2323E52A0CC1CD6C35E1C25536D142
:10367000F9EB0E08CD8132E52A0CC1E3E52AA1C0A1
:10368000E3CD6A3BCD7235A6CD673BE5CD9545E1EF
:10369000C5D5010081515A7EFEAB3E01C2AD36CD8B
:1036A000FA36CD673BE5CD9545CD4945E1C5D5F524
:1036B00033E52A13C1E30681C533CD25372213C173
:1036C0007EFE3ACADA36B7C2A432237E23B6CA4C8B
:1036D00037235E2356EB22A1C0EBCDFA3611BA3662
:1036E000D5C8D680DAA838FE25D2A432074F060006
:1036F000EB214C31094E2346C5EB237EFE3AD0FE2A
:1037000020CAFA36FE303F3C3DC9EB2AA3C0CA1F8F
:1037100037EBCDC637E5CD90336069D1D267382B12
:103720002221C1EBC9DFC8D7FE1B2811FE03280DDB
:10373000FE13C0D7FE11C8FE03280718F63EFF325D
:1037400092C0C0F6C02213C121F6FFC12AA1C0F564
:103750007DA43CCA5F372217C12A13C12219C1AF09
:10376000328AC0CD9539F1214732C2D832C3EF3207
:103770002A19C17CB51E20CAB832EB2A17C122A172
:10378000C0EBC9CDC842C03286C0C9E52A8FC00689
:10379000004F09228FC0E1C97EFE41D8FE5B3FC9C0
:1037A000CDFA36CD673BCD4945FAC1373A2CC1FE3B
:1037B00090DAF145018090110000E5CDC445E1515A
:1037C000C81E08C3B8322B110000CDFA36D0E5F57B
:1037D000219819CD6C35DAA432626B19291929F1B7
:1037E000D6305F160019EBE1C3CA37CAC033CDA388
:1037F000372BCDFA36E52AF4C0CA0E38E1CD723542
:103800002CD5CDA3372BCDFA36C2A432E3EB7D9372
:103810005F7C9A57DA9932E52A1BC101280009CD4D
:103820006C35D29932EB229FC0E122F4C0E1C3C0D3
:1038300033CABC33CDC03301BA36C34D380E03CDC5
:103840008132C1E5E52AA1C0E33E8CF533C5CDC682
:1038500037CD9338E52AA1C0CD6C35E123DC933315
:10386000D4903360692BD81E0EC3B832C016FFCD7A
:103870004D32F9FE8C1E04C2B832E122A1C0237C75
:10388000B5C28B383A11C1B7C2EE3221BA36E33E27
:10389000E1013A0E0006007948477EB7C8B8C82350
:1038A000FE22CA9738C39A38CD5D3DCD7235B4D566
:1038B0003AF2C0F5CD793BF1E32213C11FCD6C3B49
:1038C000CAFB38E52A29C1E523235E23562AA3C073
:1038D000CD6C35D2EA382A9FC0CD6C35D1D2F238C2
:1038E0002104C1CD6C35D2F2383ED1CDA141EBCD12
:1038F000DA3FCDA141E1CDA445E1C9E5CDA145D156
:10390000E1C9CDC8427E47FE8CCA1139CD723588D7
:103910002B4B0D78CAE236CDC737FE2CC0C3123907
:10392000CD793B7EFE88CA2E39CD7235A92BCD6A62
:103930003BCD4945CA9338CDFA36DA4E38C3E13625
:103940002BCDFA36CAA239C8FEA5CAD539FEA8CAF7
:10395000D539E5FE2CCABE39FE3BCAF839C1CD794E
:103960003BE53AF2C0B7C28E39CDEE46CDFE3F36CA
:10397000202A29C1342A29C13A87C04704CA8A3972
:10398000043AF0C0863DB8D4A239CD4340AFC44319
:1039900040E1C340393AF0C0B7C8C3A2393600216C
:1039A000A5C03E0DCD7D353E0ACD7D35AF32F0C090
:1039B0003A86C03DC8F5AFCD7D35F1C3B3393A88FD
:1039C000C0473AF0C0B8D4A239D2F839D60ED2CC1A
:1039D000392FC3ED39F5CDC542CD7235292BF1D63E
:1039E000A8E5CAE8393AF0C02F83D2F8393C473EFF
:1039F00020CD7D3505C2F139E1CDFA36C347393FD7
:103A00005265646F2066726F6D2073746172740DFD
:103A10000A003A12C1B7C29E32C121FF39CD4040DF
:103A2000C3EF33CDAB3F7EFE223E00328AC0C23DA3
:103A30003ACDFF3FCD72353BE5CD43403EE5CDF37A
:103A400033C1DA4937237EB72BC5CA9038362CC329
:103A5000573AE52A21C1F6AF3212C1E3C3633ACD2A
:103A600072352CCD5D3DE3D57EFE2CCA8B3A3A12E1
:103A7000C1B7C2F83A3E3FCD7D35CDF333D1C1DA7F
:103A80004937237EB72BC5CA9038D53AF2C0B7CA9A
:103A9000B53ACDFA365747FE22CAA93A3A12C1B70B
:103AA00057CAA63A163A062C2BCD0240EB21C03A53
:103AB000E3D5C3C338CDFA36CD5046E3CDA145E1B9
:103AC0002BCDFA36CACC3AFE2CC2123AE32BCDFAF1
:103AD00036C25F3AD13A12C1B7EBC22037D5B62110
:103AE000E73AC44040E1C93F457874726120696794
:103AF0006E6F7265640D0A00CD9138B7C2113B2319
:103B00007E23B61E06CAB832235E2356EB220EC1B0
:103B1000EBCDFA36FE83C2F83AC38B3A110000C4EB
:103B20005D3D2213C1CD4D32C2AA32F9D57E23F5B7
:103B3000D5CD8745E3E5CDF442E1CDA145E1CD9872
:103B400045E5CDC445E1C190CD9845CA573BEB2230
:103B5000A1C06960C3B636F92A13C17EFE2CC2BA71
:103B600036CDFA36CD1F3BCD793BF6373AF2C08FD2
:103B7000B7E8C3B632CD7235282B1600D50E01CD6D
:103B80008132CDF03B2215C12A15C1C178FE78D40F
:103B90006A3B7E1600D6B3DAB13BFE03D2B13BFEE0
:103BA0000117AABA57DAA432220AC1CDFA36C39550
:103BB0003B7AB7C2D83C7E220AC1D6ACD8FE07D029
:103BC0005F3AF2C03DB37BCA364107835F2196312D
:103BD000197856BAD023CD6A3BC501883BC5434A04
:103BE000CD7A4558514E234623C52A0AC1C37C3B92
:103BF000AF32F2C0CDFA361E24CAB832DA5046CD02
:103C00009837D2573CFE262012CDFA36FE48CA938A
:103C10004AFE42CA034B1E02CAB832FEACCAF03B8F
:103C2000FE2ECA5046FEADCA463CFE22CAFF3FFEEB
:103C3000AACA383DFEA7CA633FD6B6D2683CCD7546
:103C40003BCD723529C9167DCD7C3B2A15C1E5CD0A
:103C50007245CD6A3BE1C9CD5D3DE5EB2229C13A14
:103C6000F2C0B7CC8745E1C90600074FC5CDFA368B
:103C700079FE31DA8F3CCD753BCD72352CCD6B3B67
:103C8000EB2A29C1E3E5EBCDC842EBE3C3973CCD7A
:103C90003E3CE311523CD501F52F094E236669E9FC
:103CA00015FEADC8FE2DC814FE2BC8FEACC82BC92E
:103CB000F6AFF5CD6A3BCDAC37F1EBC1E3EBCD8A86
:103CC00045F5CDAC37F1C17921213FC2D33CA34F9B
:103CD00078A2E9B34F78B2E921EA3C3AF2C01F7A00
:103CE000175F166478BAD0C3D93BEC3C79B71FC1D3
:103CF000D1F5CD6C3B212E3DE5CAC445AF32F2C0B3
:103D0000D5CD83417E23234E2346D1C5F5CD8741B2
:103D1000CD9845F157E17BB2C87AD601D8AFBB3C0C
:103D2000D0151D0ABE2303CA163D3FC354453C8F20
:103D3000C1A0C6FF9FC35B45165ACD7C3BCD6A3BF5
:103D4000CDAC377B2F4F7A2FCD213FC1C3883B2B82
:103D5000CDFA36C8CD72352C014F3DC5F6AF32F1E4
:103D6000C046CD9837DAA432AF4F32F2C0CDFA3622
:103D7000DA793DCD9837DA863D4FCDFA36DA7A3D9D
:103D8000CD9837D27A3DD624C2953D3C32F2C00F51
:103D9000814FCDFA363A10C13DCA423EF2A53D7E72
:103DA000D628CA1A3EAF3210C1E550592A23C1CDD8
:103DB0006C351125C1CA8A442A1DC1EB2A1BC1CD0D
:103DC0006C35CAD83D799623C2CD3D789623CA0C6E
:103DD0003E23232323C3BF3DE1E3D5115A3CCD6CE1
:103DE00035D1CA0F3EE3E5C50106002A1FC1E5092A
:103DF000C1E5CD7032E1221FC16069221DC12B36A1
:103E000000CD6C35C2FE3DD173237223EBE1C93284
:103E10002CC12140322229C1E1C9E52AF1C0E35772
:103E2000D5C5CDA037C1F1EBE3E5EB3C577EFE2CC9
:103E3000CA203ECD7235292215C1E122F1C01E00F3
:103E4000D511E5F52A1DC13E19EB2A1FC1EBCD6C3A
:103E500035CA7A3E7EB923C25C3E7EB8235E2356C5
:103E600023C2483E3AF1C0B7C2AD32F1444DCA8ACE
:103E70004496CAD83E1E10C3B832110400F1CAC11C
:103E800037712370234FCD81322323220AC171233E
:103E90003AF1C01779010B00D29D3EC10371237026
:103EA00023F5E5CD3546EBE1F13DC2953EF5424BBC
:103EB000EB19DA9932CD8A32221FC12B3600CD6C34
:103EC00035C2BB3E03572A0AC15EEB2909EB2B2BF7
:103ED00073237223F1DAFC3E474F7E2316E15E2303
:103EE0005623E3F5CD6C35D2753EE5CD3546D11977
:103EF000F13D444DC2DD3E2929C109EB2A15C1C956
:103F00002A1FC1EB210000393AF2C0B7CA1C3FCDCD
:103F10008341CD83402A9FC0EB2A08C17D934F7C0B
:103F20009A41501E0021F2C0730690C360453AF0DA
:103F3000C047AFC3223FCDB93FCDAB3F019138C59C
:103F4000D5CD723528CD5D3DE5EB2B562B5EE1CD11
:103F50006A3BCD723529CD7235B4444DE37123707F
:103F6000C3F83FCDB93FD5CD3E3CCD6A3BE35E23A0
:103F700056237AB3CAB0327E23666FE52A23C1E3A3
:103F80002223C12A27C1E52A25C1E52125C1D5CD96
:103F9000A145E1CD673B2BCDFA36C2A432E1222503
:103FA000C1E12227C1E12223C1E1C9E52AA1C02341
:103FB0007CB5E1C01E16C3B832CD7235A73E803243
:103FC00010C1B647CD623DC36A3BCD6A3BCDEE46DC
:103FD000CDFE3FCD834101DE41C57E2323E5CD5992
:103FE00040E14E2346CDF23FE56FCD7641D1C9CDBC
:103FF00059402104C1E5772323732372E1C92B06BD
:104000002250E50EFF237E0CB7CA1440BACA1440F2
:10401000B8C20540FE22CCFA36E323EB79CDF23F5D
:104020001104C12AF6C02229C13E0132F2C0CDA43A
:1040300045CD6C3522F6C0E17EC01E1EC3B83223CA
:10404000CDFE3FCD8341CD98451C1DC80ACD7D35A1
:10405000FE0DCCAC3903C34A40B70EF1F52A9FC020
:10406000EB2A08C12F4F06FF0923CD6C35DA7740C4
:104070002208C123EBF1C9F11E1ACAB832BFF501FB
:104080005B40C52AF4C02208C1210000E52A9FC078
:10409000E521F8C0EB2AF6C0EBCD6C35019440C2A7
:1040A000E8402A1BC1EB2A1DC1EBCD6C35CABB40D1
:1040B0007E2323B7CDEB40C3A540C1EB2A1FC1EB44
:1040C000CD6C35CA1141CD98457BE509B7F2BA40B0
:1040D000220AC1E14E0600090923EB2A0AC1EBCDF1
:1040E0006C35CABB4001DA40C5F6807E23235E23CF
:1040F0005623F0B7C8444D2A08C1CD6C356069D845
:10410000E1E3CD6C35E3E56069D0C1F1F1E5D5C5FA
:10411000C9D1E17DB4C82B462B4EE52B2B6E260072
:104120000950592B444D2A08C1CD7332E1712370D7
:1041300069602BC38640C5E52A29C1E3CDF03BE386
:10414000CD6B3B7EE52A29C1E5861E1CDAB832CD4F
:10415000EF3FD1CD8741E3CD8641E52A06C1EBCDC6
:104160006D41CD6D4121853BE3E5C32040E1E37E18
:1041700023234E23466F2C2DC80A120313C3774105
:10418000CD6B3B2A29C1EBCDA141EBC0D550591BCA
:104190004E2A08C1CD6C35C29F4147092208C1E1B2
:1041A000C92AF6C02B462B4E2B2BCD6C35C022F6E0
:1041B000C0C901313FC5CD8041AF5732F2C07EB793
:1041C000C901313FC5CDB641CAC13723235E23564D
:1041D0001AC93E01CDEF3FCDCB422A06C173C1C300
:1041E0002040CD7B42AFE34FE57EB8DAF041781155
:1041F0000E00C5CD5940C1E1E5232346236668067C
:104200000009444DCDF23F6FCD7641D1CD8741C3FA
:104210002040CD7B42D1D51A90C3E641EB7ECD80C4
:10422000420405CAC137C51EFFFE29CA3542CD72F8
:10423000352CCDC842CD723529F1E301E841C53DA9
:10424000BE0600D04F7E91BB47D843C9CDB641CA08
:1042500069435F23237E23666FE5194672E3C57EBB
:10426000FE24C26A42CD934A180DFE25C27442CD87
:10427000034B1803CD5046C1E170C9EBCD7235290F
:10428000C1D1C543C9CDCB423284C0CD83C0C33177
:104290003FCDB542C34BC0CDB542F51E002BCDFA84
:1042A00036CAAB42CD72352CCDC842C1CD83C0AB2E
:1042B000A0CAAC42C9CDC8423284C0324CC0CD7213
:1042C000352CC3C842CDFA36CD673BCDA6377AB779
:1042D000C2C1372BCDFA367BC9CDAC371AC3313FBB
:1042E000CD673BCDAC37D5CD72352CCDC842D11280
:1042F000C921C747CD9845C30343CD984521C1D1B6
:10430000CD724578B7C83A2CC1B7CA8A4590D21D3C
:10431000432F3CEBCD7A45EBCD8A45C1D1FE19D078
:10432000F5CDAF4567F1CDC843B42129C1F2434370
:10433000CDA843D289432334CAB3322E01CDDE4304
:10434000C38943AF90477E9B5F237E9A57237E9914
:104350004FDCB4436863AF4779B7C276434A5465CC
:104360006F78D608FEE0C25743AF322CC1C9052989
:104370007A1757798F4FF26E43785C45B7CA8943F5
:10438000212CC18677D26943C878212CC1B7FC9B08
:104390004346237EE680A94FC38A451CC014C00C47
:1043A000C00E8034C0C3B3327E835F237E8A57231E
:1043B0007E894FC9212DC17E2F77AF6F90477D9B9E
:1043C0005F7D9A577D994FC90600D608DAD74343D7
:1043D0005A510E00C3CA43C6096FAF2DC8791F4F8B
:1043E0007A1F577B1F5F781F47C3DA4300000081A5
:1043F00003AA561980F122768045AA3882CD494514
:10440000B7EAC137212CC17E01358011F30490F544
:1044100070D5C5CD0343C1D104CD9F4421EC43CD1C
:10442000FA4221F043CD9148018080110000CD0374
:1044300043F1CDC44601318011187221C1D1CD495B
:1044400045C82E00CD074579323BC1EB223CC10166
:1044500000005058215443E5216044E5E52129C17D
:104460007E23B7CA8C44E52E081F6779D27A44E5CB
:104470002A3CC119EBE13A3BC1891F4F7A1F577B98
:104480001F5F781F472D7CC26944E1C9435A514FD1
:10449000C9CD7A45012084110000CD8A45C1D1CD16
:1044A0004945CAA7322EFFCD074534342B7E3257FB
:1044B000C02B7E3253C02B7E324FC041EBAF4F57E3
:1044C0005F325AC0E5C57DCD4EC0DE003FD2D74435
:1044D000325AC0F1F137D2C1E1793C3D1FFA8A432B
:1044E000177B175F7A175779174F297817473A5A6A
:1044F000C017325AC079B2B3C2C444E5212CC135C9
:10450000E1C2C444C3B33278B7CA2B457D212CC164
:10451000AE80471FA878F22A45C68077CA8A44CD64
:10452000AF45772BC9CD49452FE1B7E1F26943C3C8
:10453000B332CD954578B7C8C602DAB33247CD035A
:1045400043212CC134C0C3B3323A2CC1B7C83A2B73
:10455000C1FE2F179FC03CC9CD49450688110000F8
:10456000212CC14F70060023368017C35143CD491B
:1045700045F0212BC17EEE8077C9EB2A29C1E3E506
:104580002A2BC1E3E5EBC9CD9845EB2229C160692F
:10459000222BC1EBC92129C15E2356234E2346237A
:1045A000C91129C106041A77132305C2A645C921DA
:1045B0002BC17E07371F773F1F2323777907371FCC
:1045C0004F1FAEC978B7CA4945215245E5CD494587
:1045D00079C8212BC1AE79F8CDDE451FA9C9237852
:1045E000BEC02B79BEC02B7ABEC02B7B96C0E1E14A
:1045F000C9474F575FB7C8E5CD9545CDAF45AE67C5
:10460000FC15463E9890CDC8437C17DC9B430600C2
:10461000DCB443E1C91B7AA33CC00BC9212CC17E89
:10462000FE983A29C1D07ECDF14536987BF57917B1
:10463000CD5143F1C921000078B1C83E1029DA7587
:104640003EEB29EBD24B4609DA753E3DC23D46C9E9
:10465000FE2DF5CA5C46FE2BCA5C462BCD6943474E
:10466000575F2F4FCDFA36DAAD46FE2ECA8846FE8A
:1046700045C28C46CDFA36CDA03CCDFA36DACF46CF
:1046800014C28C46AF935F0C0CCA6446E57B90F471
:10469000A546F29B46F5CD9144F13CC28F46D1F13F
:1046A000CC7245EBC9C8F5CD3245F13DC9D5577837
:1046B0008947C5E5D5CD3245F1D630CDC446E1C1F7
:1046C000D1C36446CD7A45CD5B45C1D1C303437B9D
:1046D0000707830786D6305FC37A46E5213C32CD93
:1046E0004040E1EBAF0698CD6045213F40E5212EEB
:1046F000C1E5CD49453620F2FC46362D233630CA79
:10470000B247E5FC7245AFF5CDB84701439111F8CA
:104710004FCDC445B7E22947F1CDA646F5C30B47B7
:10472000CD9144F13CF5CDB847CDF1423CCDF145BA
:10473000CD8A45010603F1813CFA4547FE08D24582
:10474000473C473E023D3DE1F511CB4705C2564788
:10475000362E2336302305362ECC9F45C5E5D5CDE4
:104760009545E1062F047B965F237A9E5723799E19
:104770004F2B2BD26547CDA84323CD8A45EBE17063
:1047800023C10DC2564705CA96472B7EFE30CA8A02
:1047900047FE2EC49F45F1CAB547364523362BF256
:1047A000A647362D2F3C062F04D60AD2A847C63A74
:1047B000237023772371E1C901749411F723CDC4C9
:1047C00045B7E1E22047E900000080A086011027FC
:1047D00000E803006400000A0000010000217245A7
:1047E000E3E9CD7A4521C747CD8745C1D1CD4945BC
:1047F00078CA3048F2FB47B7CAA732B7CA6A43D56E
:10480000C579F67FCD9545F21848D5C5CD1C46C172
:10481000D1F5CDC445E17C1FE1222BC1E12229C1A4
:10482000DCDD47CC7245D5C5CDFD43C1D1CD3E447D
:10483000CD7A45013881113BAACD3E443A2CC1FEC8
:1048400088D22545CD1C46C680C602DA2545F5210D
:10485000EC43CDF442CD3544F1C1D1F5CD0043CD8B
:104860007245217048CDA048110000C14AC33E44A2
:1048700008402E9474704F2E776E02887AE6A02A34
:104880007C50AAAA7EFFFF7F7F000080810000008D
:1048900081CD7A45113C44D5E5CD9545CD3E44E1E9
:1048A000CD7A457E23CD874506F1C1D13DC8D5C51A
:1048B000F5E5CD3E44E1CD9845E5CD0343E1C3A9FF
:1048C00048CD4945215EC0FA2249217FC0CD8745A8
:1048D000215EC0C886E6070600772387874F09CD8B
:1048E0009845CD3E443A5DC03CE6030600FE018893
:1048F000325DC021264987874F09CDF442CD9545C9
:104900007B59EE4F4F36802B463680215CC0347E7B
:10491000D6ABC21949770C151CCD5443217FC0C3B7
:10492000A145772B772B77C3FD4868B1466899E995
:10493000926910D17568218049CDF442CD7A450144
:10494000498311DB0FCD8A45C1D1CD9F44CD7A4536
:10495000CD1C46C1D1CD0043218449CDFA42CD4979
:104960004537F26C49CDF142CD4945B7F5F4724572
:10497000218449CDF442F1D47245218849C391483C
:10498000DB0F49810000007F05BAD71E8664269997
:104990008758342387E05DA586DA0F4983CD7A45B1
:1049A000CD3C49C1E1CD7A45EBCD8A45CD3649C3F1
:1049B0009D44CD4945FCDD47FC72453A2CC1FE8142
:1049C000DACF490100815159CD9F4421FA42E521B6
:1049D000D949CD9148218049C9094AD73B78026E0F
:1049E000847BFEC12F7C74319A7D843D5A7DC87FC3
:1049F000917EE4BB4C7E6CAAAA7F00000081C9D7DF
:104A0000C93E0CCFC9CDC8427B3287C0C9CD673BF8
:104A1000CDAC37ED538BC0ED538DC0C9CDAC37D580
:104A2000E146237EC3223FCD673BCDAC37D5CD7267
:104A3000352CCD673BCDAC37E3732372E1C9CD6A2A
:104A40003BCDAC37C5212EC17AFE00280CCD764A6D
:104A500078FE302802702371237BCD764A7AFE00DF
:104A6000200578FE30280270237123AF772377C1A9
:104A7000212EC1C3D03F47E60FFE0A3802C607C643
:104A8000304F780F0F0F0FE60FFE0A3802C607C629
:104A90003047C9EB210000CDAC4ADACC4A1805CD2D
:104AA000AC4A381F29292929B56F18F3131AFE209B
:104AB000CAAC4AD630D8FE0A3805D607FE0AD8FE58
:104AC000103FC9EB7A4BE5CD213FE1C91E26C3B8A3
:104AD00032CD6A3BCDAC37C5212EC106110578FE1B
:104AE000012808CB13CB1230F41804CB13CB123EA1
:104AF00030CE0077230520F3AF772377C1212EC175
:104B0000C3D03FEB210000CD204BDA2E4BD630290D
:104B1000B56FCD204B30F6EB7A4BE5CD213FE1C9A7
:104B2000131AFE20CA204BFE30D8FE323FC91E2881
:104B3000C3B8320E01F7C93E003292C0C3142FF53C
:104B4000A0C1B83E00C9CD7D35C3A239FFFFFFFF2C
:104B5000FFFFFFFFFFFFFFFFFFFFFFFFFFFFFFFF65
:104B6000FFFFFFFFFFFFFFFFFFFFFFFFFFFFFFFF55
:104B7000FFFFFFFFFFFFFFFFFFFFFFFFFFFFFFFF45
:104B8000FFFFFFFFFFFFFFFFFFFFFFFFFFFFFFFF35
:104B9000FFFFFFFFFFFFFFFFFFFFFFFFFFFFFFFF25
:104BA000FFFFFFFFFFFFFFFFFFFFFFFFFFFFFFFF15
:104BB000FFFFFFFFFFFFFFFFFFFFFFFFFFFFFFFF05
:104BC000FFFFFFFFFFFFFFFFFFFFFFFFFFFFFFFFF5
:104BD000FFFFFFFFFFFFFFFFFFFFFFFFFFFFFFFFE5
:104BE000FFFFFFFFFFFFFFFFFFFFFFFFFFFFFFFFD5
:104BF000FFFFFFFFFFFFFFFFFFFFFFFFFFFFFFFFC5
:104C0000C3064CC3274C3180EE2114C02200C0CD16
:104C1000B353116C5397CDA55311815397CDA55321
:104C200011965397CDA5533180EECDB35311585300
:104C300097CDA553213B4C2202C02100002208C081
:104C40002204C03E3ECDA34CD51137EDCDDA52CD76
:104C50007F4D7CB5C1CA384D1B7C121B7D12C5D55A
:104C60007993F5CDF44CD5C27A4CD5CD124DC12AED
:104C700000C0CD1E4D60692200C0C12A00C0F1E510
:104C8000FE03CA274C856F3E008C671100EDCD3BBB
:104C900052D229532200C0D1CD294DD1E1CD1E4D94
:104CA000C3434CCDB5531137EDCDC153CAA94CFE0A
:104CB0000ACAA94CB7CAA94CFE08CAD34CFE18CAE6
:104CC000EC4CCDB553CDCA531213FE0DC87BFE87F5
:104CD000C2A94C7BFE37CAA94C1B3E08CDB5533E3A
:104CE00020CDB5533E08CDB553C3A94CCDB3533EEB
:104CF00040C3A34C7CB7FA22531114C0E52A00C06C
:104D00002BCD3B52E1D81A9547131A9CDA134D1B51
:104D1000B0C913131AFE0DC2134D13C3FC4CCD3B87
:104D200052C81A021303C31E4D7892C2314D7993B3
:104D3000C81B2B1A77C3294D21864DCD7F4DD51A1F
:104D400013FE2ECA5C4D23BECA3F4D3E7F1BBEDA0A
:104D5000634D23BED2524D23D1C33E4D3E7F23BE71
:104D6000D25E4D7E236EE67F67F1E9E3CD7F4DBED7
:104D700023CA7B4DC54E060009C11B1323E3C91A84
:104D8000FE20C013C37F4D4C495354CF5052554E53
:104D9000D0CD4E4557CDE3425945CDE04E45585410
:104DA000CEA24C4554D09B494E505554D03F494615
:104DB000CF3C474F544FD0BC474F535542CDF25292
:104DC000455455524ECE1452454DCF44464F52CEC7
:104DD0002F5052494E54CF7D53544F50CDECD09369
:104DE0000E01F7CD05512114C02200C0CD0551C3DD
:104DF000274CCDF74ECD0E51D5CDF44CC223532ABE
:104E000002C0E52A04C0E52100002208C0392204BE
:104E1000C0C3DC50CD05512A04C07CB5CA1B53F970
:104E2000E12204C0E12202C0D1CD204FC3EC50CD1D
:104E3000F74ECDA6502B2208C0213E4EC33B4D5409
:104E40004FCE45D31BCD0E51220CC021504EC33B3B
:104E50004D53544550CE59CE5FCD0E51C3624E21B5
:104E60000100220AC02A02C0220EC0EB2210C0019B
:104E70000A002A08C0EB6068393E097E23B6CA9B47
:104E80004E7E2BBAC27A4E7EBBC27A4EEB21000018
:104E900039444D210A0019CD294DF92A10C0EBC320
:104EA000EC50CDA652DA1B532206C0D5EB2A08C01F
:104EB0007CB5CA1C53CD3B52CAC54ED1CD204F2A1A
:104EC00006C0C3AB4E5E23562A0AC0E519EB2A087A
:104ED000C07323722A0CC0F1B7F2DD4EEBCD355210
:104EE000D1DAF14E2A0EC02202C02A10C0EBC3EC68
:104EF00050CD204FC3EC5021A5EDCD2952C139D260
:104F000029532A08C07CB5CA1D4F2A10C0E52A0EB5
:104F1000C0E52A0CC0E52A0AC0E52A08C0E5C5C9D3
:104F2000C1E12208C07CB5CA3A4FE1220AC0E122A1
:104F30000CC0E1220EC0E12210C0C5C9CD0E517CCB
:104F4000B5C2E350210000CD144DD2DC50C3274C34
:104F5000CDDA52CD0551CDF44CDA274CCD684FCD8A
:104F6000C153CDFC4CC3594F1A6F131A67130E046B
:104F7000CDF34F3E20CDB55397CDA553C90E06CDE9
:104F80006B4D3B06CDB353C3E350CD6B4D0D06CDFA
:104F9000B353C3D350CD6B4D2307CD0E514DC3A793
:104FA0004FCDC34FC3B84FCD6B4D2C06CDF250C380
:104FB000954FCDB353C3EC50CD0E51C5CDF34FC17A
:104FC000C3A74FCD6B4D22053E22C3D44FCD6B4DB1
:104FD000270E3E27CDA553FE0DE1CAD350C3EE4F99
:104FE000CD6B4D5F0D3E8DCDB553CDB553E1232334
:104FF00023E9C9D5110A00D5420DCD2652F203503E
:10500000062D0DC5CD095278B1CA1450E32DE560C7
:1050100069C30450C10D79B7FA23503E20CDB55372
:10502000C3155078CDB5535D7BFE0AD1C8C630CDCF
:10503000B553C328502A06C0F9E12202C0D1D1D508
:10504000CDC34FC34F50CDA652DA8A50C36150D55D
:10505000CDA652DA1B531A4F9712D1CDA553791B07
:1050600012D5EB2A02C0E5213F502202C0210000E8
:10507000392206C0D53E3ACDA34C1137EDCD0E51A5
:10508000D1EB732372E12202C0D1F1CD6B4D2C5CC8
:10509000C33F50CDFB50FE0DCAEC50CDA650CD6B9A
:1050A0004D2C49C39B50CDA652DA1B53E5CD6B4D19
:1050B0003D3DCD0E51444DE1712370C9CD0E51D50A
:1050C000CD0551CDF44CC22353F1C3DC50CD055175
:1050D0001114C0210000CDFC4CDA274CEB2202C099
:1050E000EB1313CDC153219B4DC33B4DCDF250C3A8
:1050F0001B53CD6B4D3B04F1C3E350CD6B4D0D0401
:10510000F1C3D350C9CD7F4DFE0DC8C31B53CD6D28
:1051100051E5211751C33B4D3E3DD12F3C3ED1358A
:105120003ED13B3DD14A3C3DD1423CD150D156CD00
:105130005851D86FC9CD5851C86FC9CD5851C8D82A
:105140006FC9CD58516FC8D86CC9CD5851C06FC9FF
:10515000CD5851D06FC9E1C979E1C1E5C54FCD6DD9
:1051600051EBE3CD3552D12100003E01C9CD6B4D4D
:105170002D06210000C39151CD6B4D2B00CDA951BF
:10518000CD6B4D2B07E5CDA951C39851CD6B4D2D5E
:105190008DE5CDA951CD2952EBE37CAA7A19D1FA3C
:1051A0008051ACF28051C32253CD4152CD6B4D2A78
:1051B0002BE5CD41520600CD2652EBE3CD26527CA5
:1051C000B7CACA517AB2EBC223537D2E00B7CAFBCD
:1051D0005119DA23533DC2D151C3FB51CD6B4D2F31
:1051E0003DE5CD41520600CD2652EBE3CD26527A65
:1051F000B3CA2353C5CD09526069C1D17CB7FA2225
:105200005378B7FC2952C3AC51E56C2600CD14523B
:10521000417DE1670EFF0CCD1F52D2165219C97D98
:10522000936F7C9A67C97CB7F07C2F677D2F6F23C3
:1052300078EE8047C97CAAF23B52EB7CBAC07DBBBA
:10524000C9214652C33B4D524E44D259414253D2DA
:105250008253495A45D28ED29BCD0D537CB7FA2248
:1052600053B5CA2253D5E52A12C07CE60767110060
:105270004C195E23562212C0E1EBC5CD0952C1D1B3
:1052800023C9CD0D53CD26527CB4FA2253C92A002E
:10529000C0D5EB2100EDCD1F52D1C9CDA652DA0702
:1052A000537E23666FC9CD7F4DD640D8C2CA5213F4
:1052B000CD0D5329DA2253D5EBCD8E52CD3B52DAA8
:1052C0002A532100EDCD1F52D1C9FE1B3FD8132117
:1052D00000ED07856F3E008C67C921000044CD7F3B
:1052E0004DFE30D8FE3AD03EF0A4C2225304C5444D
:1052F0004D292909291A13E60F856F3E008C67C1D5
:105300001AFA2253C3E152CDDA5278B7C0CD6B4DB1
:105310002809CD0E51CD6B4D2901C9D5116053C35C
:105320002D53D5115B53C32D53D511665397CDA57E
:1053300053D11AF597122A02C0E57E23B6D1CA27A7
:105340004C7EB7FA3550CD684F1BF1123E3FCDB5BC
:105350005397CDA553C3274C4F4B0D484F573F0D87
:10536000574841543F0D534F5252590D50414C4FE5
:1053700020414C544F2054494E59204241534943F7
:105380000D504F525441424C45205A38302056451A
:105390005253494F4E0D5342435A383020454449E9
:1053A00054494F4E0D471A13B8C8CDB553FE0DC220
:1053B000A653C93E0DCFFE0DC03E0ACDB5533E0DDE
:1053C000C9DFC8D7FE1BC0C3274CFE61D8FE7BD007
:1053D000E6DFC9FFFFFFFFFFFFFFFFFFFFFFFFFF4C
:1053E000FFFFFFFFFFFFFFFFFFFFFFFFFFFFFFFFCD
:1053F000FFFFFFFFFFFFFFFFFFFFFFFFFFFFFFFFBD
:10540000C39E5AC35054C3955AC3D35AC3D55AC323
:10541000BC55C3A856C3B756C3D456C33A57C339AD
:1054200058C34558C36258C39158C38D59C3BA591C
:10543000C3D159C35B5AC3665AC3675AC38B5A2137
:1054400000C1227EC02250C036FF21B65ACDBC55C5
:1054500021BFEE2258C03100C121C4C02288C02122
:10546000AD5ACDBC55CDDB58D2B4542242C0CD3E4E
:1054700056CA9154CDF054FA91542242C023237E4F
:10548000FE20C29754CD2556C29D54237EA7C377D4
:1054900054CD8B5AC35654CD0555C377542A42C0B8
:1054A0002272C0CDF654FA91540E72CD9B55CA7437
:1054B00054C37D542274C0EB224AC0EB7EFE2FC23F
:1054C0000B55CDF054CD8B5A7EA7FA5654CDD354FC
:1054D000C3C5542242C056235EE50E05CDD159E125
:1054E00023C3BC552A42C023237EB7C2E85423C934
:1054F0002A7EC02242C07EA7F8EB2A4AC0EB237E58
:10550000932B7E9AD0CDE454C3F3542A4AC07AA791
:10551000FA9154B3CAC2542A50C07E3CC29154CDB1
:10552000F054FA4A5546236E600E4ACD9B55C24A46
:1055300055CDE454EB2A42C0EB0E50CD9B557E1264
:105540002313C23955EB2B2250C02A74C01E037E90
:10555000B7CA95551C237EB7C25455572A50C01957
:10556000E5EB2A58C0CD3958D291542A50C0EBE10E
:105570002250C0EB232B7E121B0E42CD9B55C275D1
:1055800055EB2A4AC0EB722373EB2A74C07E2313B7
:1055900012B7C28D553100C1C3655406C00ABDC0E3
:1055A000030ABCC92187C03600E5210A00CD9958FD
:1055B0007DC630E12B777BB2C2A955C9AF477E23A8
:1055C000B8CACA55CD0954C3BE55CD0C54D0CDD19F
:1055D0005AFE1BCA9154FE20C0C3D15AFE20CA25D0
:1055E000565797324AC0324BC0237E2B5FE6DF7A94
:1055F000C21156FE5DC2FE55CD2E59C33B56FE402C
:10560000C21156232246C097110000CD4456C33B19
:1056100056FE22C21D5623CDBD55C33E56FE2FC297
:105620002956CD8B5A23C33E562272C0CD6156CD2A
:10563000FE58CDCA552A4AC07CB5C02A46C07EA7AE
:10564000C2DC55C9EB226AC0EBCD5859216AC0C3F0
:105650006159D523CD6D56CD4456D1C93E3DC328A1
:105660005A7E23E6DFCA5C56FE1DC26156CD8F56B8
:105670007EE6DFCA8956FE09CA8D56FE0CCA52560E
:10568000CDB1572A5AC0C370562246C0C923C9CDCE
:10569000DE58D0FE2DC29F5623CD8F56C39158FEA3
:1056A0002BC2AE5623CD8F567AA7FA9158C9FE2346
:1056B000C2BC5623CD8F567AA7C3D357FE25C2CB83
:1056C0005623CD8F56EB2A4EC0EBC9FE27C2F256A9
:1056D00023CD8F56E5D52A52C011093DCD4558132B
:1056E000EB2252C0EBE15A1600CD45585A1600E1A4
:1056F00013C9FE22C2FE561600235E2323C9FE24D0
:10570000C235571600CD1057DA2657CD06545FC95B
:10571000237ED630DA2457FE0AD8D607FE0ADA24CA
:1057200057FE10C93FC95FCD1057D0EB2929292951
:10573000EB83C32657FE3FC24457E5CDE15ACD6DFA
:1057400056E123C9FE28C24D5723C36D56CD975746
:10575000FE3ACA5E57CD78575E2356C36457CD686C
:105760005716005E2A70C0C9CD86573A76C0835F4F
:105770003A77C08A57C3AA57FE28C2A157CD865789
:10578000EB29EBC36B57CDA1574E2366692276C038
:105790002A70C023C36D565E237EFE4157F2985790
:1057A000C916C07BE63FC602875F2270C0EB7CB59E
:1057B000C9D556235ED57BD63DCAC0573DC2C15719
:1057C00023CD8F56225AC0EBD17AFE3DC2E157D18C
:1057D000CD3958C204587BB7C20458110100F6FFF6
:1057E000C9FE3CC20A587BFE3DD1CAF857FE3EC2F4
:1057F000FE57CDD057C32558CD1C58C32558CD3999
:1058000058FADB57110000E600C9FE3EC22A587B59
:10581000FE3DD1C21C58CDFE57C32558CD3958FA8C
:105820000458CDD3577BEE015FC9D1FE2BC234584B
:10583000EB19EBC9FE2DC240587B955F7A9C57C986
:10584000FE2AC25D58D50E10110000E3CDC858E302
:10585000D25658EB19EB290DC24B58C1C9FE2FC2C5
:10586000285A06007CB7C27258B5C27B583E2FC377
:10587000285AF27B5804EBCD9158EB7AB7F2845852
:1058800005CD9158CD9958224EC02A68C03E00B827
:10589000C87A2F577B2F5F13C90E000C29D29B5853
:1058A000CDC958E5210000E3CD39583FDAB358EBB4
:1058B00019EBB7E37D176F7C1767E30DCAC558CDA9
:1058C000C858C3A858E1EBC9B77C1F677D1F6FC9D3
:1058D0007EFE3A37F0FE3037F83FC9CD835ACDD03F
:1058E00058D8EB2100001AD6304F060009444D135A
:1058F000EBCDD0583FD0EB29290929C3E6582A72AD
:10590000C0D57EFE40C2495923235ECDA157D1CDDB
:105910003859D5CD3C59E1CDFE57C22959CD2E5924
:1059200006062188C07E9077C906FCC322592E4600
:10593000CD35592E42CD3C59732372C94D2A88C0AA
:105940005E2356232288C069C9FE21C26F59D1EB5C
:10595000224AC0EBCDAD57C82142C0CD6159214686
:10596000C05E23562A88C02B722B732288C0C9FEC2
:105970003BC27F59D1CDAD57C03100C1C39754FE52
:105980003EC28759D1EBE9FE2EC29959D153141565
:10599000C83E20CD0954C38F59FE26C2B459237E78
:1059A0002BFE3DC2B459D1CDAD57C02A7EC0225086
:1059B000C036FFC9FE24C2BE59C17BC30954FE3F95
